:020000040000FA
:0400000007EF00F016
:1000080016829AED01F0B3EF01F00A6E0AC009F00A
:10001800010E09168C500918FE0B09188C6E1A0E61
:10002800096EF80EE82EFED7092EFCD700D00AC0BC
:1000380009F0D8900932010E091609468C500918A2
:10004800FD0B09188C6E1A0E096EF80EE82EFED7F5
:10005800092EFCD700D00AC009F0D8900932D890F0
:100068000932010E0916094609468C500918FB0B7E
:1000780009188C6E1A0E096EF80EE82EFED7092E96
:10008800FCD700D00AC009F0D8900932D8900932BC
:10009800D8900932010E09160946094609468C50BE
:1000A8000918F70B09188C6E1A0E096EF80EE82E4F
:1000B800FED7092EFCD700D08D801A0E096EF80ED7
:1000C800E82EFED7092EFCD700D08D901A0E096EA7
:1000D800F80EE82EFED7092EFCD700D01200026ECB
:1000E80002C001F0010E01168C500118FE0B011818
:1000F8008C6E1A0E016EF80EE82EFED7012EFCD774
:1001080000D002C001F0D8900132010E011601465C
:100118008C500118FD0B01188C6E1A0E016EF80E2A
:10012800E82EFED7012EFCD700D002C001F0D890EF
:100138000132D8900132010E0116014601468C5059
:100148000118FB0B01188C6E1A0E016EF80EE82EC2
:10015800FED7012EFCD700D002C001F0D8900132A2
:10016800D8900132D8900132010E0116014601469D
:1001780001468C500118F70B01188C6E1A0E016E8F
:10018800F80EE82EFED7012EFCD700D08D801A0E6F
:10019800016EF80EE82EFED7012EFCD700D08D9008
:1001A8001A0E016EF80EE82EFED7012EFCD700D0ED
:1001B8001200840EE0EC01F0000E156E000E146EB5
:1001C800FDEF00F00C0E1424D96E000E1520DA6E27
:1001D800DF50D5EC01F0020E066E040E056EBA0E65
:1001E800E82EFED7052EFCD7062EFAD700D0144AE3
:1001F800152A0C0E016E000E026E7FEC01F01450F1
:10020800015C15500258D8B00CEF01F00EEF01F068
:10021800E6EF00F01200000E156E000E146E15BE0B
:100228001FEF01F0155009E1040E145CD8A01FEF70
:1002380001F021EF01F023EF01F036EF01F01C0E81
:10024800E0EC01F0020E056E040E046EBA0EE82E04
:10025800FED7042EFCD7052EFAD700D0144A152A4B
:1002680013EF01F01200000E156E000E146E15BE8D
:1002780047EF01F0155009E1040E145CD8A047EFD0
:1002880001F049EF01F04BEF01F05EEF01F0180EBD
:10029800E0EC01F0020E056E040E046EBA0EE82EB4
:1002A800FED7042EFCD7052EFAD700D0144A152AFB
:1002B8003BEF01F01200720ED36E0F0EC16E000EEE
:1002C800956E000E966E000E8C6E000E8D6E020EF0
:1002D800CAEC01F0060ECAEC01F00F0ECAEC01F0F0
:1002E800280ECAEC01F0010ECAEC01F0F28EF0887B
:1002F800F092F198120001C003F002C004F087EFF9
:1003080001F0014A022A01C0D9FF02C0DAFFDF501A
:10031800D8A491EF01F093EF01F085EF01F00350BD
:10032800015C016E04500258026E12000600D9CF1B
:1003380007F0DACF08F0F0A2A4EF01F0A6EF01F081
:10034800ADEF01F0DDEC00F00FEC01F037EC01F05F
:10035800F09208C0DAFF07C0D9FF16921100E20E2A
:10036800F66E030EF76E000EF86E00EE0CF010EE4F
:1003780008F00900F5CFEEFFE550E150FAE1156A03
:10038800146A169016920001EBEF01F00B6E8D9235
:100398000B380F0B09EC00F00B500F0B09EC00F0B9
:1003A8001200036E8D8203380F0B73EC00F00350BC
:1003B8000F0B73EC00F01200036E8D9203380F0BD5
:1003C80073EC00F003500F0B73EC00F012005FECBD
:1003D80001F0EDEF01F007EF00F046414249414ED0
:0203E8002D42A4
:020000040020DA
:08000000FFFFFFFFFFFFFFFF00
:020000040030CA
:0E000000000B1F1EFF8381FF0FC00FE00F409B
:00000001FF
