:020000040000FA
:0400000007EF00F016
:0A0008005F8292ED1BF0B1EF1CF0D7
:100800000020456C206361726163746572207265BB
:1008100063696269646F206675653A2025630061CB
:100820006E67756C6F2061746F69202564200A0003
:10083000616E67756C6F207A202563200A00204165
:100840006E67756C6F3A202564200A00205365722C
:10085000766F3A202564200A0053657474696E67C8
:0308600073000022
:10086400730E0001D819D8A43AEF04F03CEF04F059
:1008740040EF04F0000ED96F58EF04F0610ED81960
:10088400D8A447EF04F049EF04F04DEF04F0010E53
:10089400D96F58EF04F0700ED819D8A454EF04F0AF
:1008A40056EF04F058EF04F0030ED96FD951D8A4D1
:1008B4005EEF04F060EF04F0F0EF04F0300ED819AE
:1008C400D8A467EF04F069EF04F06FEF04F0000EB2
:1008D400E16F000EE06F79EF06F0310ED819D8A45D
:1008E40076EF04F078EF04F07EEF04F0000EE16F91
:1008F400010EE06F79EF06F0320ED819D8A485EF17
:1009040004F087EF04F08DEF04F0000EE16F020EA7
:10091400E06F79EF06F0330ED819D8A494EF04F001
:1009240096EF04F09CEF04F0000EE16F030EE06F0D
:1009340079EF06F0340ED819D8A4A3EF04F0A5EF8C
:1009440004F0ABEF04F0000EE16F040EE06F79EFFA
:1009540006F0350ED819D8A4B2EF04F0B4EF04F0C1
:10096400BAEF04F0000EE16F050EE06F79EF06F0C8
:100974000D0ED819D8B4C1EF04F0C3EF04F0CCEFD6
:1009840004F00A0ED819D8A4CAEF04F0CCEF04F08E
:10099400EEEF04F0000E6B6F000E6A6F000E6D6FC9
:1009A400000E6C6F35EC1BF0000E00016B6F000E37
:1009B4006A6F000E6D6F5A0E6C6F35EC1BF0000EF3
:1009C40000016B6F000E6A6F000E6D6FB40E6C6FDA
:1009D40035EC1BF079EF06F079EF06F0D905D8A4D1
:1009E400F6EF04F0F8EF04F0FCEF04F0020ED96F18
:1009F40079EF06F0020ED919D8A403EF05F005EF3C
:100A040005F0BAEF05F06B0ED225D96E010ED32195
:100A1400DA6ED8C0DFFF1A0E596E010E5A6E300E10
:100A24005B6E080E5C6E6B0ED225D96E010ED3215F
:100A3400DA6EDF50706F70515D6E5E6A61EC1DF0AE
:100A44000CEC1DF00001D24BD32B030ED219D311A1
:100A5400D8A42FEF05F031EF05F079EF06F0000E82
:100A6400D36F000ED26F6B0E0F6E010E106ED5ECAD
:100A740012F00FC0D0F010C0D1F01A0E596E010E52
:100A84005A6E1F0E5B6E080E5C6ED0C05DF0D1C056
:100A94005EF061EC1DF00CEC1DF00001E051E11181
:100AA400D8A457EF05F059EF05F05FEF05F0D0C07B
:100AB40095F1D1C096F1AEEF05F0E005E111D8A4AF
:100AC40066EF05F068EF05F06EEF05F0D0C097F122
:100AD400D1C098F1AEEF05F0020EE019E111D8A4EF
:100AE40076EF05F078EF05F07EEF05F0D0C099F1D0
:100AF400D1C09AF1AEEF05F0030EE019E111D8A4CC
:100B040086EF05F088EF05F08EEF05F0D0C09BF17D
:100B1400D1C09CF1AEEF05F0040EE019E111D8A4A8
:100B240096EF05F098EF05F09EEF05F0D0C09DF12B
:100B3400D1C09EF1AEEF05F0050EE019E111D8A485
:100B4400A6EF05F0A8EF05F0AEEF05F0D0C09FF1D9
:100B5400D1C0A0F1AEEF05F0E0C06AF0E1C06BF0E7
:100B6400D0C06CF0D1C06DF035EC1BF079EF06F01D
:100B7400030ED919D8A4C1EF05F0C3EF05F0C7EFF0
:100B840005F0040ED96F79EF06F0040ED919D8A434
:100B9400CEEF05F0D0EF05F079EF06F0CFBFDEEF32
:100BA40005F0CF5107E1030ECE5DD8B0DCEF05F0C0
:100BB400DEEF05F0FEEF05F0CE4BCF2B680ECE2511
:100BC400D96E010ECF21DA6ED8C0DFFF020ECE1926
:100BD400CF11D8A4F0EF05F0F2EF05F079EF06F0AD
:100BE400680E0F6E010E106ED5EC12F00FC012F1EC
:100BF40010C013F179EF06F0CFBF0AEF06F0CF5122
:100C040009E1030ECE5DD8A00AEF06F00CEF06F062
:100C14003AEF06F0CFBF1AEF06F0CF5107E1060E08
:100C2400CE5DD8B018EF06F01AEF06F03AEF06F0F2
:100C3400CE4BCF2B650ECE25D96E010ECF21DA6EA9
:100C4400D8C0DFFF020ECE19CF11D8A42CEF06F0C6
:100C54002EEF06F0EEEF04F0650E0F6E010E106E2F
:100C6400D5EC12F00FC014F110C015F179EF06F0B5
:100C7400CFBF46EF06F0CF5109E1060ECE5DD8A0F6
:100C840046EF06F048EF06F0EEEF04F0CFBF56EF64
:100C940006F0CF5107E1090ECE5DD8B054EF06F04F
:100CA40056EF06F0EEEF04F0CE4BCF2B620ECE25BE
:100CB400D96E010ECF21DA6ED8C0DFFF020ECE1935
:100CC400CF11D8A468EF06F06AEF06F074EF06F0CF
:100CD400620E0F6E010E106ED5EC12F00FC010F103
:100CE40010C011F1000E0001CF6F000ECE6F000E88
:100CF4000001726F000E716F71C06AF072C06BF008
:100D0400D8907135D96E7235DA6E950ED926010EEA
:100D1400DA22DECF6CF0DDCF6DF035EC1BF0000194
:100D2400714B722B72BFA0EF06F0725109E1060EEF
:100D3400715DD8A0A0EF06F0A2EF06F07EEF06F0FA
:100D4400120000018051800B896F805180258B6FC8
:100D54007FAFAFEF06F0B1EF06F0B2EF06F08B8194
:100D64008B51D8B4B8EF06F0BAEF06F0CFEF06F027
:100D74008B29D8A4C0EF06F0C2EF06F0CAEF06F044
:100D8400000E7D6F000E7E6F000E7F6F000E806F71
:100D94007F8F000E806FD7EF06F0000E7D6F000E80
:100DA4007E6F000E7F6F000E806F8451800B8A6F00
:100DB40089518A19D8B4E1EF06F0E3EF06F0E4EFC5
:100DC40006F0898D845184258A6F83AFECEF06F099
:100DD400EEEF06F0EFEF06F08A818A51D8B4F5EF12
:100DE40006F0F7EF06F00CEF07F08A29D8A4FDEF20
:100DF40006F0FFEF06F007EF07F0000E816F000E1C
:100E0400826F000E836F000E846F838F000E846FD9
:100E140014EF07F0000E816F000E826F000E836FD7
:100E2400000E846F8B518A5DD8B01BEF07F01DEF65
:100E340007F044EF07F089AD22EF07F024EF07F045
:100E440026EF07F0800E891B8BC08CF08AC08BF0D4
:100E54008CC08AF07DC08CF081C07DF08CC081F0A4
:100E64007EC08CF082C07EF08CC082F07FC08CF09B
:100E740083C07FF08CC083F080C08CF084C080F08D
:100E84008CC084F0000E8C6F8B518AC085F0866B09
:100E9400855F000E865B86BF59EF07F0865109E136
:100EA4001A0E855DD8A059EF07F05BEF07F092EFBB
:100EB40007F07D517E117F118011D8A464EF07F0F3
:100EC40067EF07F0010E68EF07F0000E8C6F000E5D
:100ED4007D6F000E7E6F000E7F6F000E806F8AC0E4
:100EE4008BF09BEF07F08CA17AEF07F07CEF07F013
:100EF40082EF07F0D8908C3101098C6F84EF07F0F2
:100F0400D8908C337DA189EF07F08BEF07F08CEF3D
:100F140007F08C8F803580337F337E337D338B2B8A
:100F24008A518B5DD8A099EF07F09BEF07F075EF1E
:100F340007F089BDA0EF07F0A2EF07F0E2EF07F09A
:100F44008B51D8A4A8EF07F0AAEF07F0B4EF07F08D
:100F5400000E7D6F000E7E6F000E7F6F000E806F9F
:100F640003EF09F081517D2782517E2383517F2332
:100F74008451802380A1C1EF07F0C3EF07F06FEF26
:100F840008F08CA1C8EF07F0CAEF07F0D0EF07F024
:100F9400D8908C3101098C6FD2EF07F0D8908C3344
:100FA4007DA1D7EF07F0D9EF07F0DAEF07F08C8FC8
:100FB400803580337F337E337D338B2B6FEF08F0A6
:100FC40081517D5D82517E5983517F598051800AC0
:100FD400856F8451800A8559D8B0F3EF07F0F5EF97
:100FE40007F020EF08F07D51815D856F7E518259B5
:100FF400866F7F518359876F80518459886FFF0EA4
:1010040085257D6FFF0E86217E6FFF0E87217F6F02
:10101400FF0E8821806F800E891B8C6D8C51D8A4A3
:1010240016EF08F018EF08F028EF08F0010E7D27FE
:10103400000E7E237F23802328EF08F081517D5FFB
:1010440082517E5B83517F5B8451805B7D517E1135
:101054007F118011D8A431EF08F033EF08F068EF66
:1010640008F08C51D8A439EF08F03BEF08F068EF92
:1010740008F0000E7D6F000E7E6F000E7F6F000E75
:10108400806F03EF09F0D8907D377E377F37803744
:101094008CAF4FEF08F051EF08F052EF08F07D816C
:1010A4008CA157EF08F059EF08F05DEF08F0D880F5
:1010B4008C375FEF08F0D8908C378B51D8B465EF3C
:1010C40008F067EF08F068EF08F08B077FAF6DEF6B
:1010D40008F06FEF08F045EF08F0000E8A6F8CAF50
:1010E40076EF08F078EF08F090EF08F08CC085F008
:1010F4007F0E8517D8B481EF08F083EF08F087EFEF
:1011040008F0010E8A6F90EF08F07DA18CEF08F0D3
:101114008EEF08F090EF08F083EF08F08A51D8B40E
:1011240096EF08F098EF08F0C3EF08F0010E7D2762
:10113400000E7E237F23802380A1A3EF08F0A5EF78
:1011440008F0C3EF08F07DC085F07EC086F07FC054
:1011540087F080C088F088358833873386338533B9
:1011640085C07DF086C07EF087C07FF088C080F0A7
:101174008B29D8B4C0EF08F0C2EF08F0C3EF08F031
:101184008B2B8B29D8B4C9EF08F0CBEF08F0D3EF41
:1011940008F08B51D8A4D1EF08F0D3EF08F0E5EFB5
:1011A40008F0000E7D6F000E7E6F000E7F6F000E44
:1011B400806F8B51D8A4E1EF08F0E3EF08F0E5EF7E
:1011C40008F0000E896F8BA1EAEF08F0ECEF08F04D
:1011D400EFEF08F07F8FF0EF08F07F9FD8908B310E
:1011E400806F89AFF8EF08F0FAEF08F0FBEF08F032
:1011F400808F7DC07DF07EC07EF07FC07FF080C098
:1012040080F0120000018051800B8D6F8051802589
:10121400946F7FAF10EF09F012EF09F013EF09F0AC
:1012240094819451D8B419EF09F01BEF09F030EF11
:1012340009F09429D8A421EF09F023EF09F02BEF4A
:1012440009F0000E7D6F000E7E6F000E7F6F000EA2
:10125400806F7F8F000E806F38EF09F0000E7D6F76
:10126400000E7E6F000E7F6F000E806F8451800B26
:101274008D1B84518425956F83AF43EF09F045EFAF
:1012840009F046EF09F095819551D8B44CEF09F077
:101294004EEF09F063EF09F09529D8A454EF09F053
:1012A40056EF09F05EEF09F0000E816F000E826FB9
:1012B400000E836F000E846F838F000E846F6BEFBC
:1012C40009F0000E816F000E826F000E836F000E16
:1012D400846F8151821183118411D8A474EF09F0B1
:1012E40076EF09F08EEF09F0000E7D6F000E7E6F31
:1012F400000E7F6F000E806F800E7F137F0E8013B1
:101304008D5180137DC07DF07EC07EF07FC07FF064
:1013140080C080F0D1EF0AF09451D8A494EF09F082
:1013240096EF09F0A0EF09F0000E7D6F000E7E6FBE
:10133400000E7F6F000E806FD1EF0AF0955194C0BC
:1013440085F0866B855F000E865B7F0E85258E6F2C
:10135400000E86218F6F7DC089F07EC08AF07FC029
:101364008BF080C08CF0000E7D6F000E7E6F000E3F
:101374007F6F000E806F000E906F000E916F000E55
:10138400926F000E936F000E956F01EF0AF0955166
:10139400D8B4CFEF09F0D1EF09F0E8EF09F0D89015
:1013A40089378A378B378C37D8907D377E377F37AC
:1013B400803793AFE0EF09F0E2EF09F0E3EF09F0D3
:1013C4007D81D89090379137923793378151895DD9
:1013D40082518A5983518B5984518C59D8A0F5EF85
:1013E40009F0F7EF09F000EF0AF0938D8151895F5E
:1013F40082518A5B83518B5B84518C5B952B190ED4
:10140400956507EF0AF009EF0AF0C9EF09F0895171
:101414008A118B118C11D8B412EF0AF014EF0AF070
:101424002CEF0AF090812CEF0AF0D8907D377E37AC
:101434007F37803793AF21EF0AF023EF0AF024EFD0
:101444000AF07D81D89090379137923793378E0781
:10145400D8A08F077FAF31EF0AF033EF0AF017EF10
:101464000AF0000E956F93AF3AEF0AF03CEF0AF0E2
:1014740060EF0AF0FF0E9015856FFF0E9115866FD1
:10148400FF0E9215876F7F0E9315886F8551861115
:1014940087118811D8B451EF0AF053EF0AF057EFCF
:1014A4000AF0010E956F60EF0AF07DA15CEF0AF07F
:1014B4005EEF0AF060EF0AF053EF0AF09551D8B4EA
:1014C40066EF0AF068EF0AF08CEF0AF0010E7D2750
:1014D400000E7E237F23802380A173EF0AF075EF33
:1014E4000AF08CEF0AF07DC085F07EC086F07FC0E4
:1014F40087F080C088F08835883387338633853316
:1015040085C07DF086C07EF087C07FF088C080F003
:101514008E4B8F2B8FBF97EF0AF08F5108E18E29E6
:10152400D8A097EF0AF099EF0AF0A4EF0AF0000EA2
:101534008F6F8E69000E7D6F000E7E6F000E7F6FC1
:10154400000E806F8FBFB1EF0AF08F5106E18E0558
:10155400D8B0AFEF0AF0B1EF0AF0BFEF0AF0000E17
:101564008F6F000E8E6F000E7D6F000E7E6F000E6B
:101574007F6F000E806F000E8D6F8EC094F094A16B
:10158400C6EF0AF0C8EF0AF0CBEF0AF07F8FCCEF7A
:101594000AF07F9FD8909431806F82EF09F0120097
:1015A4009AC0B2F09BC0B3F09CC0B4F09DC0B5F03B
:1015B4009EC0B6F09FC0B7F0A0C0B8F0A1C0B9F00B
:1015C4000001B9BFE8EF0AF0EBEF0AF0010EECEF0F
:1015D4000AF0000EB06FB16BB051B111D8B4F5EF91
:1015E4000AF0F7EF0AF007EF0BF0B91FB81FB71FA7
:1015F400B61FB51FB41FB31FB26D000EB323B423BF
:10160400B523B623B723B823B923CBBF0CEF0BF014
:101614000EEF0BF00FEF0BF0CC93CBBF1CEF0BF0E6
:10162400CB5106E1CA05D8B01AEF0BF01CEF0BF052
:1016340022EF0BF0000EAD6F010EAC6F26EF0BF036
:10164400CAC0ACF0CBC0ADF0C8C0AEF0C9C0AFF0FA
:10165400B051B111D8A431EF0BF033EF0BF03AEFE6
:101664000BF0CCA538EF0BF03AEF0BF03DEF0BF09D
:10167400AE07D8A0AF07000EBB6F1F0EBA6F000EE7
:101684000101616FC3EF0BF0BA07D8A0BB07420E8C
:10169400BA25D96E010EBB21DA6EB2C07DF0B3C09B
:1016A4007EF0B4C07FF0B5C080F0B6C081F0B7C0A2
:1016B40082F0B8C083F0B9C084F00A0E856F000EC2
:1016C400866F000E876F000E886F000E896F000E04
:1016D4008A6F000E8B6F000E8C6F5EEC14F07DC071
:1016E400A2F07EC0A3F07FC0A4F080C0A5F081C0AA
:1016F400A6F082C0A7F083C0A8F084C0A9F0A2C05D
:101704008FF0A4C090F040EC1EF000018F51300F18
:10171400DF6EAC07D8A0AD07AE07D8A0AF07B2C044
:101724007DF0B3C07EF0B4C07FF0B5C080F0B6C029
:1017340081F0B7C082F0B8C083F0B9C084F00A0E5B
:10174400856F000E866F000E876F000E886F000E87
:10175400896F000E8A6F000E8B6F000E8C6F10EC79
:1017640012F07DC0B2F07EC0B3F07FC0B4F080C090
:10177400B5F081C0B6F082C0B7F083C0B8F084C0C1
:10178400B9F00001BBBFCFEF0BF0BB5108E1BA05C4
:10179400D8A0CFEF0BF0D1EF0BF001EF0CF0B2516A
:1017A400B311B411B511B611B711B811B911D8A448
:1017B400DEEF0BF0E0EF0BF046EF0BF0ADBFEDEF1B
:1017C4000BF0AD5106E1AC05D8B0EBEF0BF0EDEF4B
:1017D4000BF046EF0BF0AFBFF8EF0BF0AF5108E1A1
:1017E400AE05D8A0F8EF0BF0FAEF0BF001EF0CF018
:1017F400CCB3FFEF0BF001EF0CF046EF0BF0B05160
:10180400B111D8A408EF0CF00AEF0CF011EF0CF0B2
:10181400CCA50FEF0CF011EF0CF02FEF0CF0BA0782
:10182400D8A0BB07B051B111D8A41BEF0CF01DEF29
:101834000CF023EF0CF0000EAB6F2B0EAA6F27EF0A
:101844000CF0000EAB6F2D0EAA6F420EBA25D96EA6
:10185400010EBB21DA6EAAC0DFFF98C08DF099C0DB
:101864008EF0420EBA258F6F010EBB21906FAEC071
:1018740091F0AFC092F07FEC18F08DC098F08EC05C
:1018840099F012001EC036F01FC037F020C038F0A7
:1018940021C039F022C03AF023C03BF024C03CF010
:1018A40025C03DF03DBE59EF0CF05CEF0CF0010E8D
:1018B4005DEF0CF0000E346E356A34503510D8B438
:1018C40066EF0CF068EF0CF078EF0CF03D1E3C1E58
:1018D4003B1E3A1E391E381E371E366C000E372248
:1018E400382239223A223B223C223D220001CBBF3E
:1018F4007EEF0CF080EF0CF081EF0CF0CC93CBBFBB
:101904008EEF0CF0CB5106E1CA05D8B08CEF0CF089
:101914008EEF0CF094EF0CF0000E316E010E306E71
:1019240098EF0CF0CAC030F0CBC031F0C8C032F030
:10193400C9C033F034503510D8A4A3EF0CF0A5EF90
:101944000CF0ACEF0CF0CCA5AAEF0CF0ACEF0CF063
:10195400AFEF0CF03206D8A03306000E3F6E1F0E18
:101964003E6E000E0101616F34EF0DF03E06D8A00B
:101974003F06420E3E24D96E010E3F20DA6E36C079
:1019840001F037C002F038C003F039C004F03AC0A7
:1019940005F03BC006F03CC007F03DC008F00A0E5D
:1019A400096E000E0A6E000E0B6E000E0C6E000E19
:1019B4000D6E000E0E6E000E0F6E000E106E11EC0A
:1019C40015F001C026F002C027F003C028F004C0BF
:1019D40029F005C02AF006C02BF007C02CF008C07F
:1019E4002DF026C013F028C014F082EC1EF0135022
:1019F400300FDF6E3006D8A031063206D8A0330689
:101A040036C001F037C002F038C003F039C004F02A
:101A14003AC005F03BC006F03CC007F03DC008F0FA
:101A24000A0E096E000E0A6E000E0B6E000E0C6E8E
:101A3400000E0D6E000E0E6E000E0F6E000E106E78
:101A44009AEC13F001C036F002C037F003C038F04E
:101A540004C039F005C03AF006C03BF007C03CF0C2
:101A640008C03DF03FBE3FEF0DF03F5008E13E049B
:101A7400D8A03FEF0DF041EF0DF072EF0DF03650AE
:101A84003710381039103A103B103C103D10D8A4D0
:101A94004EEF0DF050EF0DF0B8EF0CF031BE5DEFEE
:101AA4000DF0315006E13004D8B05BEF0DF05DEF7E
:101AB4000DF0B8EF0CF033BE68EF0DF0335008E1D1
:101AC4003204D8A068EF0DF06AEF0DF072EF0DF05C
:101AD4000001CCB370EF0DF072EF0DF0B8EF0CF025
:101AE40034503510D8A479EF0DF07BEF0DF083EF6F
:101AF4000DF00001CCA581EF0DF083EF0DF0A1EF07
:101B04000DF03E06D8A03F0634503510D8A48DEF12
:101B14000DF08FEF0DF095EF0DF0000E2F6E2B0EE4
:101B24002E6E99EF0DF0000E2F6E2D0E2E6E420EBE
:101B34003E24D96E010E3F20DA6E2EC0DFFF1CC09A
:101B440011F01DC012F0420E3E24136E010E3F2010
:101B5400146E32C015F033C016F0ACEC19F011C09D
:101B64001CF012C01DF0120096C07DF097C07EF0EC
:101B740098C07FF099C080F0000E0001816F000EC4
:101B8400826F800E836F3F0E846F47EC16F0000166
:101B9400D8B0CFEF0DF0D1EF0DF0D9EF0DF0000E6E
:101BA400966F000E976F800E986F3F0E996F000E20
:101BB4007D6FC00E7E6F5A0E7F6F450E806F96C08C
:101BC40081F097C082F098C083F099C084F047EC0C
:101BD40016F00001D8B0F1EF0DF0F3EF0DF0FBEFCC
:101BE4000DF0000E966FC00E976F5A0E986F450E4B
:101BF400996FBC0E9D6FEF0E9E6FC60E9F6F4B0EBE
:101C0400A06F9DC07DF09EC07EF09FC07FF0A0C0FD
:101C140080F096C081F097C082F098C083F099C09C
:101C240084F004EC09F07DC09DF07EC09EF07FC07E
:101C34009FF080C0A0F09DC07DF09EC07EF09FC04C
:101C44007FF0A0C080F0000E0001816F000E826F53
:101C5400000E836F450E846FA3EC06F07DC09DF0EB
:101C64007EC09EF07FC09FF080C0A0F09DC07DF03C
:101C74009EC07EF09FC07FF0A0C080F0000E0001E7
:101C8400816F000E826F800E836F450E846F04ECAB
:101C940009F07DC09DF07EC09EF07FC09FF080C0A3
:101CA400A0F09DC08DF09EC08EF09FC08FF0A0C0AC
:101CB40090F0000E0001916F000E926F800E936FF2
:101CC4003F0E946FB3EC1DF08DC09DF08EC09EF05E
:101CD4008FC09FF090C0A0F09DC07DF09EC07EF0AC
:101CE4009FC07FF0A0C080F0000E0001816F000E45
:101CF400826F400E836F400E846F47EC16F0000134
:101D0400D8B087EF0EF089EF0EF091EF0EF0000ED1
:101D14009D6F000E9E6F400E9F6F400EA06F000ED1
:101D24007D6F000E7E6F7F0E7F6F430E806F9DC0B0
:101D340081F09EC082F09FC083F0A0C084F047EC85
:101D440016F00001D8B0A9EF0EF0ABEF0EF0B3EF30
:101D54000EF0000E9D6F000E9E6F7F0E9F6F430E60
:101D6400A06F9DC07DF09EC07EF09FC07FF0A0C09C
:101D740080F0C3EC15F000017D519B6F000E806F65
:101D8400DF0E816F000E826F000E846F010E836F71
:101D9400800E0FEC1AF00001DF517F0B10099C6FCD
:101DA400000E7F6F9C0E806F000E816F000E836F9C
:101DB400010E826F800ED7EC1BF0FE0E00017F6FC8
:101DC4009B0E806F000E816F000E836F010E826F79
:101DD400800ED7EC1BF0000E00017F6FDF0E806FCA
:101DE400000E816F000E836F010E826F800ED7ECA0
:101DF4001BF00D0E00019A6FFB0EE82EFED79A2FF2
:101E0400FCD700D00001DF51A009DE6F000E7F6F08
:101E1400DE0E806F000E816F000E836F010E826FE5
:101E2400800ED7EC1BF01200BEC0D9FFBFC0DAFF92
:101E3400DECFF6FFDDCFF7FF0800F550250AD8A462
:101E440026EF0FF028EF0FF010EF10F0BEC0D9FF0F
:101E5400BFC0DAFFDE2A000EDD22000E0001C96FCA
:101E6400000EC86FC8C0CCF0C9C0CDF0CA69CB6938
:101E7400BEC0D9FFBFC0DAFFDECFF6FFDDCFF7FF6C
:101E84000800F550630AD8A44AEF0FF04CEF0FF0A6
:101E940074EF0FF0BEC0D9FFBFC0DAFFDE2A000E18
:101EA400DD22C0C0D9FFC1C0DAFFDFCFC2F0020E0D
:101EB400DE26DFCFC3F0000EDD22C2C0D9FFC3C0CF
:101EC400DAFFDF500101766FBCC086F0BDC087F039
:101ED40076C188F03FEC17F086C0BCF087C0BDF037
:101EE4002CEF10F0BEC0D9FFBFC0DAFFDECFF6FF83
:101EF400DDCFF7FF0800F550640AD8B484EF0FF083
:101F040086EF0FF098EF0FF0BEC0D9FFBFC0DAFF25
:101F1400DECFF6FFDDCFF7FF0800F550690AD8A43D
:101F240096EF0FF098EF0FF0D9EF0FF0BEC0D9FF86
:101F3400BFC0DAFFDE2A000EDD22C0C0D9FFC1C057
:101F4400DAFFDFCFC2F0020EDE26DFCFC3F0000ED1
:101F5400DD22C2C0D9FFC3C0DAFFDECF6EF1DDCF10
:101F64006FF10101000E6FBFFF0E706F716F726F22
:101F7400736F746F756FBCC098F0BDC099F06EC17B
:101F84009AF06FC19BF070C19CF071C19DF072C159
:101F94009EF073C19FF074C1A0F075C1A1F0D2ECA2
:101FA4000AF098C0BCF099C0BDF02CEF10F0BEC090
:101FB400D9FFBFC0DAFFDECFF6FFDDCFF7FF0800A1
:101FC400F550250AD8A4E9EF0FF0EBEF0FF003EF7B
:101FD40010F0BEC0D9FFBFC0DAFFDE2A000EDD223A
:101FE400000E7E6F250E7D6FBCC07FF0BDC080F0FB
:101FF40019EC18F0000E0001BD6F010EBC6F2CEF40
:1020040010F0BEC0D9FFBFC0DAFFDE2A000EDD2209
:10201400000EBD6F000EBC6F2CEF10F0BEC0D9FFD8
:10202400BFC0DAFFDECFF6FFDDCFF7FF0800F550C3
:1020340000017D6F7E6BBCC07FF0BDC080F019ECE9
:1020440018F0BEC0D9FFBFC0DAFFDE2A000EDD22C1
:10205400FCEF0FF0120042C0D9FF43C0DAFFDECF1D
:10206400F6FFDDCFF7FF0800F550250AD8A43DEFB1
:1020740010F03FEF10F024EF11F042C0D9FF43C03D
:10208400DAFFDE2A000EDD22000E0001C96F000E09
:10209400C86FC8C0CCF0C9C0CDF0CA69CB6942C012
:1020A400D9FF43C0DAFFDECFF6FFDDCFF7FF08002C
:1020B400F550630AD8A461EF10F063EF10F08AEFD3
:1020C40010F042C0D9FF43C0DAFFDE2A000EDD2241
:1020D40044C0D9FF45C0DAFFDFCF46F0020EDE264A
:1020E400DFCF47F0000EDD2246C0D9FF47C0DAFF3C
:1020F400DF50506E40C00AF041C00BF050C00CF0ED
:10210400ADEC17F00AC040F00BC041F03FEF11F006
:1021140042C0D9FF43C0DAFFDECFF6FFDDCFF7FFC1
:102124000800F550640AD8B49AEF10F09CEF10F050
:10213400AEEF10F042C0D9FF43C0DAFFDECFF6FFA6
:10214400DDCFF7FF0800F550690AD8A4ACEF10F012
:10215400AEEF10F0EEEF10F042C0D9FF43C0DAFF4B
:10216400DE2A000EDD2244C0D9FF45C0DAFFDFCFEE
:1021740046F0020EDE26DFCF47F0000EDD2246C019
:10218400D9FF47C0DAFFDECF48F0DDCF49F0000EBB
:1021940049BEFF0E4A6E4B6E4C6E4D6E4E6E4F6EC8
:1021A40040C01CF041C01DF048C01EF049C01FF0E3
:1021B4004AC020F04BC021F04CC022F04DC023F0A7
:1021C4004EC024F04FC025F044EC0CF01CC040F08D
:1021D4001DC041F03FEF11F042C0D9FF43C0DAFF08
:1021E400DECFF6FFDDCFF7FF0800F550250AD8A4AF
:1021F400FEEF10F000EF11F017EF11F042C0D9FF1D
:1022040043C0DAFFDE2A000EDD22000E026E250E28
:10221400016E40C003F041C004F0E4EC18F0000E7D
:10222400416E010E406E3FEF11F042C0D9FF43C032
:10223400DAFFDE2A000EDD22000E416E000E406E33
:102244003FEF11F042C0D9FF43C0DAFFDECFF6FF03
:10225400DDCFF7FF0800F550016E026A40C003F0BD
:1022640041C004F0E4EC18F042C0D9FF43C0DAFFE7
:10227400DE2A000EDD2211EF11F01200720ED36E71
:102284000F0EC16E938E939C720ED36E0F0EC16EA1
:10229400000E956E000E966E000E8C6E000E8D6E06
:1022A40093809382800EC76E280EC66E000EC56E94
:1022B400130EC86E949C948E0C0EAF6E900EAB6E83
:1022C400200EAC6E000E00017F6F800E806F000E3A
:1022D400816F000E836F010E826F800ED7EC1BF0AE
:1022E4001A0E0101936FF80EE82EFED7932FFCD738
:1022F40000F0000E0001966F000E976F7A0E986F33
:10230400440E996FB6EC0DF0000E0001966F000EAE
:10231400976F480E986F420E996FB6EC0DF0040E4D
:102324000101946F0C0E936F330EE82EFED7932F9A
:10233400FCD7942FFAD700D0020E60EC1FF0060EE3
:1023440060EC1FF00F0E60EC1FF0280E60EC1FF025
:10235400010E60EC1FF0F28EF28C9D8A9E9A1A0E8A
:1023640001017D6F010E7E6F590E7F6F080E806F25
:1023740038EC1DF0E0EC1CF0818C0B0E0101946F25
:10238400260E936F5D0EE82EFED7932FFCD7942F65
:10239400FAD700D0819C000E01018E6F000E8D6F64
:1023A400000E906F5A0E8F6F71EC1AF0000E01013F
:1023B4008E6F010E8D6F000E906F5A0E8F6F71EC41
:1023C4001AF0000E01018E6F020E8D6F000E906FD9
:1023D4005A0E8F6F71EC1AF0000E01018E6F030E0E
:1023E4008D6F000E906F5A0E8F6F71EC1AF0000E05
:1023F40001018E6F040E8D6F000E906F5A0E8F6F59
:1024040071EC1AF0000E01018E6F050E8D6F000E37
:10241400906F5A0E8F6F71EC1AF01200000E0001CB
:102424008E6F8CBF1AEF12F018EF12F02CEF12F02F
:102434008C1F8B1F8A1F891F881F871F861F856D0E
:10244400000E86238723882389238A238B238C23C6
:10245400010E8E6F84BF33EF12F031EF12F045EFAF
:1024640012F0841F831F821F811F801F7F1F7E1F06
:102474007D6D000E7E237F2380238123822383238B
:102484008423010E8E1B20EE8FF0070EDE6AE80611
:10249400FDE2855186118711881189118A118B11EA
:1024A4008C11D8B458EF12F05AEF12F0ACEF12F0CE
:1024B400010E8D6F68EF12F0D89085378637873715
:1024C400883789378A378B378C378D2B8CAF6DEFF4
:1024D40012F06FEF12F05EEF12F0D8908F37903752
:1024E40091379237933794379537963785517D5D79
:1024F40086517E5987517F59885180598951815914
:102504008A5182598B5183598C518459D8A08DEFAB
:1025140012F08FEF12F0A0EF12F085517D5F86511B
:102524007E5B87517F5B8851805B8951815B8A51D7
:10253400825B8B51835B8C51845B8F81D8908C330D
:102544008B338A33893388338733863385338D2FAE
:102554006FEF12F08E51D8B4B2EF12F0B4EF12F064
:10256400C4EF12F0961F951F941F931F921F911F83
:10257400901F8F6D000E9023912392239323942315
:10258400952396238FC07DF090C07EF091C07FF09C
:1025940092C080F093C081F094C082F095C083F023
:1025A40096C084F01200000E1D6E000E1C6E000E0C
:1025B400166E000E156EE1EF12F00F4A102A010E8E
:1025C4001B6E0FC0D9FF10C0DAFF200EDE18D8B47E
:1025D400EEEF12F0F0EF12F00CEF13F0F70E116EB5
:1025E400FF0E126E0FC0D9FF10C0DAFFDF50136E5A
:1025F400146A1150132612501422145009E1050EC6
:10260400135CD8A008EF13F00AEF13F00CEF13F0EB
:10261400000E1B6E1BC017F0186A17501810D8A4B0
:1026240016EF13F018EF13F0DFEF12F022EF13F0B0
:10263400000E166E010E156E0F4A102A57EF13F096
:102644000FC0D9FF10C0DAFFDF50116E126A1250AA
:10265400000AD8B430EF13F057EF13F011502B0ADF
:10266400D8B41EEF13F0060AD8B41AEF13F057EFDC
:1026740013F01CC009F01DC00AF0000E0C6E0A0E07
:102684000B6E4DEC1FF00FC0D9FF10C0DAFFDF5006
:10269400116E1150095E000E0A5A300E09241C6E88
:1026A400000E0A201D6E1EEF13F0D00E116EFF0EE9
:1026B400126E0FC0D9FF10C0DAFFDF50136E146A18
:1026C400115013261250142214500AE10A0E135CFE
:1026D400D8A06FEF13F072EF13F0010E73EF13F045
:1026E400000E196E1A6A19501A10D8A47CEF13F050
:1026F4007EEF13F03BEF13F015501610D8A485EFBE
:1027040013F087EF13F095EF13F01CC011F01DC008
:1027140012F0111E121E114A122A11C00FF012C01B
:1027240010F099EF13F01CC00FF01DC010F0120050
:10273400000E126E10BEA3EF13F0A1EF13F0B5EF6D
:1027440013F0101E0F1E0E1E0D1E0C1E0B1E0A1E55
:10275400096C000E0A220B220C220D220E220F22DB
:102764001022010E126E08BEBCEF13F0BAEF13F084
:10277400CEEF13F0081E071E061E051E041E031EC0
:10278400021E016C000E02220322042205220622EC
:1027940007220822010E121A20EE13F0070EDE6A39
:1027A400E806FDE209500A100B100C100D100E1073
:1027B4000F101010D8B4E1EF13F0E3EF13F035EF7E
:1027C40014F0010E116EF1EF13F0D89009360A36A9
:1027D4000B360C360D360E360F361036112A10AE67
:1027E400F6EF13F0F8EF13F0E7EF13F0D890133689
:1027F4001436153616361736183619361A36095061
:10280400015C0A5002580B5003580C5004580D50E8
:1028140005580E5006580F50075810500858D8A0A5
:1028240016EF14F018EF14F029EF14F00950015EBC
:102834000A50025A0B50035A0C50045A0D50055AB0
:102844000E50065A0F50075A1050085A1380D89049
:1028540010320F320E320D320C320B320A32093280
:10286400112EF8EF13F01250D8B43BEF14F03DEFF3
:1028740014F04DEF14F01A1E191E181E171E161E02
:10288400151E141E136C000E142215221622172274
:10289400182219221A2213C001F014C002F015C024
:1028A40003F016C004F017C005F018C006F019C0F4
:1028B40007F01AC008F01200000E00018E6F84BFEA
:1028C40068EF14F066EF14F07AEF14F0841F831F9E
:1028D400821F811F801F7F1F7E1F7D6D000E7E2340
:1028E4007F2380238123822383238423010E8E6FFD
:1028F4008CBF81EF14F07FEF14F091EF14F08C1F74
:102904008B1F8A1F891F881F871F861F856D000ED6
:1029140086238723882389238A238B238C23855129
:1029240086118711881189118A118B118C11D8B4E1
:102934009EEF14F0A0EF14F0E8EF14F0010E8D6F89
:10294400AEEF14F0D89085378637873788378937C4
:102954008A378B378C378D2B8CAFB3EF14F0B5EFF0
:1029640014F0A4EF14F085517D5D86517E59875192
:102974007F5988518059895181598A5182598B5183
:1029840083598C518459D8A0CAEF14F0CCEF14F0B9
:10299400DCEF14F085517D5F86517E5B87517F5B50
:1029A4008851805B8951815B8A51825B8B51835B47
:1029B4008C51845BD8908C338B338A33893388333E
:1029C4008733863385338D2FB5EF14F08E51D8B409
:1029D400EEEF14F0F0EF14F000EF15F0841F831FF6
:1029E400821F811F801F7F1F7E1F7D6D000E7E232F
:1029F4007F23802381238223832384237DC07DF04E
:102A04007EC07EF07FC07FF080C080F081C081F006
:102A140082C082F083C083F084C084F01200000E70
:102A2400126E08BE1AEF15F018EF15F02CEF15F022
:102A3400081E071E061E051E041E031E021E016C30
:102A4400000E022203220422052206220722082263
:102A5400010E126E10BE33EF15F031EF15F043EF97
:102A640015F0101E0F1E0E1E0D1E0C1E0B1E0A1E30
:102A7400096C000E0A220B220C220D220E220F22B8
:102A8400102209500A100B100C100D100E100F100C
:102A94001010D8B450EF15F052EF15F09AEF15F06E
:102AA400010E116E60EF15F0D89009360A360B3618
:102AB4000C360D360E360F361036112A10AE65EF71
:102AC40015F067EF15F056EF15F00950015C0A5048
:102AD40002580B5003580C5004580D5005580E5012
:102AE40006580F50075810500858D8A07CEF15F01E
:102AF4007EEF15F08EEF15F00950015E0A50025A70
:102B04000B50035A0C50045A0D50055A0E50065AD5
:102B14000F50075A1050085AD89010320F320E3204
:102B24000D320C320B320A320932112E67EF15F0D6
:102B34001250D8B4A0EF15F0A2EF15F0B2EF15F0D3
:102B4400081E071E061E051E041E031E021E016C1F
:102B5400000E022203220422052206220722082252
:102B640001C001F002C002F003C003F004C004F08D
:102B740005C005F006C006F007C007F008C008F05D
:102B8400120000017F358035866F8651D8A4CDEFC1
:102B940015F0CFEF15F0D9EF15F0000E7D6F000E94
:102BA4007E6F000E7F6F000E806F46EF16F07DC0C3
:102BB40081F07EC082F07FC083F080C084F0200E5C
:102BC400E9EF15F0D8908433833382338133E82ED0
:102BD400E4EF15F08151856F7F8FFF0E7D17FF0E97
:102BE4007E17FF0E7F17000E8017960E865F86BF36
:102BF40000EF16F0FEEF15F016EF16F08651800A7E
:102C0400970FD8B008EF16F00AEF16F00CEF16F095
:102C1400CFEF15F0D89080337F337E337D33863FFA
:102C24000CEF16F02EEF16F01F0E86651CEF16F053
:102C34001EEF16F026EF16F0CFEF15F0D8907D3783
:102C44007E377F37803786078651D8A42CEF16F05D
:102C54002EEF16F020EF16F08551D8B434EF16F0AD
:102C640036EF16F03EEF16F0801F7F1F7E1F7D6D3E
:102C7400000E7E237F2380237DC07DF07EC07EF006
:102C84007FC07FF080C080F01200000E00017D152F
:102C9400856F000E7E15866F800E7F15876F7F0E01
:102CA4008015886F8551861187118811D8A45DEF2E
:102CB40016F05FEF16F067EF16F0000E7D6F000E52
:102CC4007E6F000E7F6F000E806F000E8115856F82
:102CD400000E8215866F800E8315876F7F0E841514
:102CE400886F8551861187118811D8A47CEF16F05E
:102CF4007EEF16F086EF16F0000E816F000E826FE5
:102D0400000E836F000E846F80AF8BEF16F08DEF93
:102D140016F096EF16F07D6D7E1FD8B07E2B7F1FC8
:102D2400D8B07F2B800E805784AF9BEF16F09DEFB9
:102D340016F0A6EF16F0816D821FD8B0822B831F88
:102D4400D8B0832B800E8457000E7D1B000E7E1B93
:102D5400000E7F1B800E801B000E811B000E821B49
:102D6400000E831B800E841B81517D5D82517E5930
:102D740083517F5984518059D8B0C3EF16F0C5EF01
:102D840016F0C8EF16F0D890C9EF16F0D8801200EC
:102D940000017E6F7EC07DF0010E00017D178C5016
:102DA4007D19FE0B7D198C6E1A0E00017D6FF80ED5
:102DB400E82EFED77D2FFCD700F07EC07DF0000109
:102DC400D8907D33010E7D177D478C507D19FD0B06
:102DD4007D198C6E1A0E00017D6FF80EE82EFED759
:102DE4007D2FFCD700F07EC07DF00001D8907D33AC
:102DF400D8907D33010E7D177D477D478C507D191A
:102E0400FB0B7D198C6E1A0E00017D6FF80EE82EF7
:102E1400FED77D2FFCD700F07EC07DF00001D89056
:102E24007D33D8907D33D8907D33010E7D177D4757
:102E34007D477D478C507D19F70B7D198C6E1A0EDA
:102E440000017D6FF80EE82EFED77D2FFCD700F031
:102E54008D801A0E00017D6FF80EE82EFED77D2FAF
:102E6400FCD700F08D901A0E00017D6FF80EE82E4D
:102E7400FED77D2FFCD700F012000001C851C91104
:102E8400D8A447EF17F049EF17F04FEF17F0C8C079
:102E94008CF0C9C08DF055EF17F0FF0EC8258C6F6C
:102EA400FF0EC9218D6FCCA15AEF17F05CEF17F01C
:102EB40065EF17F088C07DF07E6B86C07FF087C019
:102EC40080F019EC18F000018DBF6BEF17F06DEF77
:102ED40017F06FEF17F073EF17F0000E8D6F000E01
:102EE4008C6F000E8B6F000E8A6F86EF17F0000E4A
:102EF4007E6F200E7D6F86C07FF087C080F019EC56
:102F040018F000018A4B8B2B8C518A5D8B51800AFF
:102F1400896F8D51800A8959D8A093EF17F095EFE6
:102F240017F079EF17F0CCB19AEF17F09CEF17F088
:102F3400A5EF17F088C07DF07E6B86C07FF087C058
:102F440080F019EC18F0010E00018A25866F000E3E
:102F54008B21876F12000001C851C911D8A4B5EFA5
:102F640017F0B7EF17F0BDEF17F0C8C010F0C9C0E5
:102F740011F0C3EF17F0FF0EC825106EFF0EC92124
:102F8400116ECCA1C8EF17F0CAEF17F0D3EF17F00A
:102F94000CC001F0026A0AC003F00BC004F0E4ECB8
:102FA40018F011BED8EF17F0DAEF17F0DCEF17F0D6
:102FB400E0EF17F0000E116E000E106E000E0F6E93
:102FC400000E0E6EF2EF17F0000E026E200E016E70
:102FD4000AC003F00BC004F0E4EC18F00E4A0F2A08
:102FE40010500E5C0F50800A0D6E1150800A0D585F
:102FF400D8A0FFEF17F001EF18F0E6EF17F000018B
:10300400CCB107EF18F009EF18F012EF18F00CC06C
:1030140001F0026A0AC003F00BC004F0E4EC18F0FB
:10302400010E0E240A6E000E0F200B6E120000011A
:103034007F518011D8B421EF18F023EF18F02CEF52
:1030440018F07F518011D8A42AEF18F02CEF18F053
:1030540031EF18F07D519CEC1FF07EEF18F020EE5C
:1030640004F07F51D9268051DA22DE50DE10D8B424
:103074003EEF18F040EF18F05BEF18F020EE04F08C
:103084007F51D9268051DA2210EE02F07F51E126D9
:103094008051E222DE50E65CE650800A856FDE5005
:1030A400800A8559D8B059EF18F05BEF18F07EEF1D
:1030B40018F020EE02F07F51D9268051DA22DECFBB
:1030C40081F0DDCF82F07FC0D9FF80C0DAFFDECF90
:1030D40083F0DDCF84F081518325D96E8251842120
:1030E400DA6E7DC0DFFF20EE02F07F51D9268051D9
:1030F400DA22DE2A000EDD2212000001CCA185EFC7
:1031040018F087EF18F091EF18F08FC086F090C098
:1031140087F08DC088F08EC089F0D7EC1DF00001D7
:1031240092BF97EF18F099EF18F09FEF18F091C045
:1031340096F092C097F0A3EF18F0000E976F000E70
:10314400966F000E956F000E946FB6EF18F0000E98
:103154007E6F200E7D6F8DC07FF08EC080F019ECE5
:1031640018F00001944B952B9651945D9551800A6B
:10317400936F9751800A9359D8A0C3EF18F0C5EF05
:1031840018F0A9EF18F0CCB1CAEF18F0CCEF18F092
:10319400D6EF18F08FC086F090C087F08DC088F00D
:1031A4008EC089F0D7EC1DF08FC07DF090C07EF00A
:1031B400A2EC1EF0000196517D258D6F97517E2162
:1031C4008E6F120003500410D8B4EBEF18F0EDEF3B
:1031D40018F0F6EF18F003500410D8A4F4EF18F028
:1031E400F6EF18F0FBEF18F001509DEC1FF048EFDC
:1031F40019F020EE04F00350D9260450DA22DE50F0
:10320400DE10D8B408EF19F00AEF19F025EF19F021
:1032140020EE04F00350D9260450DA2210EE02F016
:103224000350E1260450E222DE50E65CE650800AB8
:10323400096EDE50800A0958D8B023EF19F025EF43
:1032440019F048EF19F020EE02F00350D92604508B
:10325400DA22DECF05F0DDCF06F003C0D9FF04C0CB
:10326400DAFFDECF07F0DDCF08F005500724D96E72
:1032740006500820DA6E01C0DFFF20EE02F0035092
:10328400D9260450DA22DE2A000EDD221200000EB6
:103294000001826F80BF53EF19F051EF19F059EF1D
:1032A40019F07F6D801FD8B0802B010E826F7EBF16
:1032B40060EF19F05EEF19F066EF19F07D6D7E1F77
:1032C400D8B07E2B010E821B000E846F000E836F1C
:1032D4007F518011D8B471EF19F073EF19F09BEF9F
:1032E40019F0010E816F7BEF19F0D8907F3780378A
:1032F400812B80AF80EF19F082EF19F077EF19F08E
:10330400D890833784377F517D5D80517E59D8A012
:103314008EEF19F090EF19F095EF19F07F517D5F62
:1033240080517E5B8381D89080337F33812F82EFFD
:1033340019F08251D8B4A1EF19F0A3EF19F0A7EF57
:1033440019F0836D841FD8B0842B83C07DF084C0B2
:103354007EF012000001CCA1B2EF19F0B4EF19F025
:10336400BEEF19F013C00AF014C00BF011C00CF03A
:1033740012C00DF01EEC1EF016BEC3EF19F0C5EF1F
:1033840019F0CBEF19F015C01AF016C01BF0CFEFEF
:1033940019F0000E1B6E000E1A6E000E196E000E50
:1033A400186EE1EF19F0000E026E200E016E11C0CE
:1033B40003F012C004F0E4EC18F0184A192A1A5069
:1033C400185C1950800A176E1B50800A1758D8A031
:1033D400EEEF19F0F0EF19F0D5EF19F00001CCB1D0
:1033E400F6EF19F0F8EF19F002EF1AF013C00AF033
:1033F40014C00BF011C00CF012C00DF01EEC1EF046
:1034040013C001F014C002F0F7EC1EF01A500124AE
:10341400116E1B500220126E12000001876F8FEC98
:103424001FF0000187516EEC1FF0000180516EEC1B
:103434001FF087EC1FF00001875101096EEC1FF0AB
:10344400000E0001D76F000ED66F52EF1AF0010E76
:10345400D625856F000ED721866F8351851907E124
:1034640084518619D8A439EF1AF03BEF1AF045EFCE
:103474001AF0010EBFEC1EF081C0D9FF82C0DAFF42
:10348400DF6E4DEF1AF0000EBFEC1EF081C0D9FFC5
:1034940082C0DAFFDF6E0001814B822BD64BD72B23
:1034A4008351D65DD751800A856F8451800A85592E
:1034B400D8A05FEF1AF061EF1AF029EF1AF08BEC45
:1034C4001FF0020E0001866F040E856FBA0EE82EFF
:1034D400FED7852FFCD7862FFAD700F012008FC1B4
:1034E4008BF090C18CF0000E00018E6F000E8D6F7A
:1034F400000E906FB40E8F6F000E926F6E0E916F70
:10350400010E946FFE0E936FFBEC1DF08BC0D4F094
:103514008CC0D5F0D4C0DCF00001D551DD6F0101C1
:103524008D51040DF350060F00017F6FDA0E806F8A
:10353400000E816F000E836F040E826F800ED7EC35
:103544001BF01A0E01017D6F010E7E6F4C0E7F6F12
:10355400080E806F8DC181F18EC182F138EC1DF0AF
:10356400E0EC1CF01A0E01017D6F010E7E6F3E0E21
:103574007F6F080E806F8FC181F190C182F138ECAA
:103584001DF0E0EC1CF00B0E0101926F260E916F02
:103594005D0EE82EFED7912FFCD7922FFAD700D0DC
:1035A4001200000E066E04BEDCEF1AF0DAEF1AF019
:1035B400E2EF1AF0036C041ED8B0042A010E066E62
:1035C40002BEE9EF1AF0E7EF1AF0EFEF1AF0016C20
:1035D400021ED8B0022A010E061A000E086E000E52
:1035E400076E03500410D8B4FAEF1AF0FCEF1AF087
:1035F40024EF1BF0010E056E04EF1BF0D890033688
:103604000436052A04AE09EF1BF00BEF1BF000EFA4
:103614001BF0D890073608360350015C045002585A
:10362400D8A017EF1BF019EF1BF01EEF1BF003508F
:10363400015E0450025A0780D89004320332052EEA
:103644000BEF1BF00650D8B42AEF1BF02CEF1BF045
:1036540030EF1BF0076C081ED8B0082A07C001F031
:1036640008C002F012006CC00FF06DC010F0000E24
:10367400126E000E116E000E146EB40E136E000E58
:10368400166E6E0E156E010E186EFE0E176E61EC40
:103694001EF00FC0D4F010C0D5F0D4C0DCF000018F
:1036A400D551DD6F6A51040DF350060F036EDA0E27
:1036B400046E000E056E000E076E040E066E800E7C
:1036C40015EC1CF01A0E596E010E5A6E4C0E5B6E00
:1036D400080E5C6E6AC05DF06BC05EF061EC1DF0BC
:1036E4000CEC1DF01A0E596E010E5A6E3E0E5B6EF6
:1036F400080E5C6E6CC05DF06DC05EF061EC1DF098
:103704000CEC1DF00B0E00016F6F260E6E6F5D0E3C
:10371400E82EFED76E2FFCD76F2FFAD700D01200F9
:103724000600E1CF73F0E2CF74F0D9CF75F0DACFB1
:1037340076F0F3CF77F0F4CF78F0F6CF79F0F7CFD7
:103744007AF0F8CF7BF0F5CF7CF09EAAACEF1BF0BB
:10375400AEEF1BF0C1EF1BF0AECFD8F01A0E596ECE
:10376400010E5A6E010E5B6E080E5C6ED8C05DF0E1
:103774005E6A61EC1DF00CEC1DF032EC04F07CC0D0
:10378400F5FF7BC0F8FF7AC0F7FF79C0F6FF78C079
:10379400F4FF77C0F3FF76C0DAFF75C0D9FF74C0B9
:1037A400E2FF73C0E1FF5F9211000001866F8FECAE
:1037B4001FF0000186516EEC1FF000017F516EEC8A
:1037C4001FF0000E0001D76F000ED66FF6EF1BF04E
:1037D40080C0D9FF81C0DAFFDF506EEC1FF000011A
:1037E400804B812BD64BD72B8251D65DD751800A83
:1037F400846F8351800A8459D8A003EF1CF005EF2D
:103804001CF0EAEF1BF08BEC1FF0020E0001856F39
:10381400040E846FBA0EE82EFED7842FFCD7852FB2
:10382400FAD700F012000A6E97EC1FF00A5081ECF0
:103834001FF0035081EC1FF0000E0001D76F000E43
:10384400D66F31EF1CF004C0D9FF05C0DAFFDF509A
:1038540081EC1FF0044A052A0001D64BD72B0650F1
:10386400D65DD751800A086E0750800A0858D8A040
:103874003EEF1CF040EF1CF025EF1CF093EC1FF022
:10388400020E096E040E086EBA0EE82EFED7082E3C
:10389400FCD7092EFAD700D0120079C1C4F07AC13E
:1038A400C5F0000E0001C76F000EC66F6DEF1CF06F
:1038B40077C1BCF078C1BDF0C40EBE6F000EBF6FFF
:1038C4007BC1C0F07CC1C1F016EC0FF00001BC510B
:1038D400C627BD51C723C4C0F6FFC5C0F7FF080003
:1038E400F5500009D8A479EF1CF07BEF1CF05AEFD7
:1038F4001CF0C6C077F1C7C078F1120053C057F06E
:1039040054C058F0000E0001C76F000EC66F9EEF42
:103914001CF051C040F052C041F0570E426E000EF0
:10392400436E55C044F056C045F02DEC10F04050A5
:103934000001C6274150C72357C0F6FF58C0F7FF00
:103944000800F5500009D8A4AAEF1CF0ACEF1CF055
:103954008BEF1CF0C6C051F0C7C052F01200EA0E43
:10396400F66E3E0EF76E000EF86E01EE95F010EE58
:103974000CF00900F5CFEEFFE550E150FAE1360E08
:10398400F66E3F0EF76E000EF86E0900F5CFE0F00C
:103994000900F5CFE1F001EE00F06E0EEE6AE806E4
:1039A400FDE100EEC6F01A0EEE6AE806FDE15F9056
:1039B4005F92000EF86E00017BEF1FF0000E000115
:1039C400D76F000ED66FF9EF1CF09EA8ECEF1CF039
:1039D400EEEF1CF0E7EF1CF01A0E0001D625D96EAD
:1039E400010ED721DA6EDF50AD6ED64BD72B1A0EEF
:1039F4007D6F010E7E6FA2EC1EF00001D6517D5D3D
:103A0400D7517E59D8B009EF1DF00BEF1DF0E7EF49
:103A14001CF01200000E0001D76F000ED66F25EFC8
:103A24001DF09EA818EF1DF01AEF1DF013EF1DF006
:103A34001A0E0001D625D96E010ED721DA6EDF5099
:103A4400AD6ED64BD72B1A0E016E010E026EF7EC3B
:103A54001EF00001D651015CD7510258D8B035EFA1
:103A64001DF037EF1DF013EF1DF01200810E010160
:103A7400856F010E866F7DC187F17EC188F1000ECE
:103A84008A6F000E896F000E8C6F000E8B6F870E8D
:103A9400776F010E786F7FC179F180C17AF1850E5D
:103AA4007B6F010E7C6F4FEC1CF0010189517D2569
:103AB400D96E8A517E21DA6E000EDF6E12005D0E21
:103AC4000001626F000E636F59C064F05AC065F064
:103AD400000E676F000E666F000E696F000E686F50
:103AE400640E516E000E526E5BC053F05CC054F015
:103AF400620E556E000E566E80EC1CF0000166518D
:103B04005924D96E67515A20DA6E000EDF6E120006
:103B1400010E076E200E01180210D8B494EF1DF0A8
:103B240096EF1DF0AFEF1DF0F70E036EFF0E046E5F
:103B340001C005F002C006F0035005260450062219
:103B4400065009E1050E055CD8A0ABEF1DF0ADEF02
:103B54001DF0AFEF1DF0000E076E07C001F0026A02
:103B64001200000E0001911B000E921B000E931B0D
:103B7400800E941B8DC07DF08EC07EF08FC07FF0D0
:103B840090C080F091C081F092C082F093C083F025
:103B940094C084F0A3EC06F07DC08DF07EC08EF05E
:103BA4007FC08FF080C090F01200000E00018C6F77
:103BB400000E8B6FEAEF1DF08AC07DF07E6B88C02B
:103BC4007FF089C080F019EC18F000018B4B8C2B2E
:103BD4008B518625D96E8C518721DA6EDF508A6F1E
:103BE4008A51D8A4F8EF1DF0FAEF1DF0DEEF1DF0B6
:103BF400120000018D518B5D856F8E518C59866F3B
:103C04008D518F5D7F6F8E519059806F9151935D6F
:103C14007D6F925194597E6F49EC19F07DC087F005
:103C24007EC088F026EC1FF00001915185258B6F32
:103C3400925186218C6F1200000E106E000E0F6ED2
:103C44002FEF1EF00EC001F0026A0CC003F00DC08D
:103C540004F0E4EC18F00F4A102A0F500A24D96E2D
:103C640010500B20DA6EDF500E6E0E50D8A43DEFCC
:103C74001EF03FEF1EF024EF1EF01200000190BF73
:103C84004EEF1EF0905106E18F05D8B04CEF1EF0B8
:103C94004EEF1EF05CEF1EF08FC091F090C092F0DA
:103CA400911F921F914B922B91C08FF092C090F074
:103CB40060EF1EF08FC08FF090C090F01200115092
:103CC4000F5C096E125010580A6E1150135C036E8B
:103CD40012501458046E1550175C016E1650185883
:103CE400026ED3EC1AF001C00BF002C00CF04DECE4
:103CF4001FF0155009240F6E16500A20106E120082
:103D040014BE8FEF1EF0145006E11304D8B08DEFEB
:103D14001EF08FEF1EF09DEF1EF013C015F014C0BF
:103D240016F0151E161E154A162A15C013F016C0D5
:103D340014F0A1EF1EF013C013F014C014F012001D
:103D44007DC07FF07EC080F0ABEF1EF000017D4BA4
:103D54007E2B7DC0D9FF7EC0DAFFDF50D8A4B5EF3B
:103D64001EF0B7EF1EF0A8EF1EF000017F517D5D3D
:103D74007D6F80517E597E6F120000017E6F12ECC0
:103D84001FF0C58612EC1FF0C9CF7FF012EC1FF0B4
:103D940000017E05D8B4D1EF1EF0D4EF1EF0C58A21
:103DA400D5EF1EF0C59AC58812EC1FF000017F51B3
:103DB4001200D00E036EFF0E046E01C005F002C0A7
:103DC40006F0035005260450062206500AE10A0EA6
:103DD400055CD8A0F0EF1EF0F3EF1EF0010EF4EF37
:103DE4001EF0000E016E026A120001C003F002C050
:103DF40004F0FFEF1EF0014A022A01C0D9FF02C0FD
:103E0400DAFFDF50D8A409EF1FF00BEF1FF0FDEF2E
:103E14001EF00350015C016E04500258026E120041
:103E2400C5CF7DF01F0E00017D17D8A41CEF1FF035
:103E34001EEF1FF012EF1FF0C7B423EF1FF025EFA2
:103E44001FF012EF1FF01200000185518703F3CF1A
:103E540089F0F4CF8AF085518803F3508A2786517C
:103E64008703F3508A2789C085F08AC086F0120040
:103E7400C5CF01F01F0E0116D8A443EF1FF045EF84
:103E84001FF03AEF1FF0C7B44AEF1FF04CEF1FF0DA
:103E94003AEF1FF0120009500B02F3CF0DF0F4CFEC
:103EA4000EF009500C02F3500E260A500B02F35088
:103EB4000E260DC009F00EC00AF0120000017F6F3B
:103EC4008D9200017F390F0BCAEC16F000017F516F
:103ED4000F0BCAEC16F0120000017E6F12EC1FF0FB
:103EE4007EC0C9FF12005A005A005A005A005A00F4
:103EF4005A0040EC11F07DEF1FF007EF00F0026E66
:103F04003AEC1FF002C0C9FF120012EC1FF0C58288
:103F1400120012EC1FF0C584120012EC1FF0C580D1
:103F240012003AEC1FF0C58412003AEC1FF0C58071
:083F340012000500120012004A
:020000040020DA
:08000000FFFFFFFFFFFFFFFF00
:020000040030CA
:0E000000000B1F1EFF8381FF0FC00FE00F409B
:00000001FF
