:020000040000FA
:0400000007EF00F016
:0A0008003B8298ED06F09CEF13F028
:100800000001000A006400E803102720456C206303
:100810006172616374657220726563696269646F95
:10082000206675653A20256300616E67756C6F20E0
:1008300061746F69202564200A00616E67756C6FB2
:10084000207A202563200A0020416E67756C6F3A7C
:10085000202564200A0020536572766F3A202564B3
:0D086000200A0053657474696E6773000010
:10086E0000019351800B9C6F935193259E6F92AF15
:10087E0043EF04F045EF04F046EF04F09E819E51E5
:10088E00D8B44CEF04F04EEF04F063EF04F09E2961
:10089E00D8A454EF04F056EF04F05EEF04F0000E0F
:1008AE00906F000E916F000E926F000E936F928FED
:1008BE00000E936F6BEF04F0000E906F000E916FB1
:1008CE00000E926F000E936F9751800B9D6F9C518F
:1008DE009D19D8B475EF04F077EF04F078EF04F0BB
:1008EE009C8D975197259D6F96AF80EF04F082EF08
:1008FE0004F083EF04F09D819D51D8B489EF04F08C
:10090E008BEF04F0A0EF04F09D29D8A491EF04F032
:10091E0093EF04F09BEF04F0000E946F000E956FB2
:10092E00000E966F000E976F968F000E976FA8EFC2
:10093E0004F0000E946F000E956F000E966F000E71
:10094E00976F9E519D5DD8B0AFEF04F0B1EF04F0FC
:10095E00D8EF04F09CADB6EF04F0B8EF04F0BAEFA8
:10096E0004F0800E9C1B9EC09FF09DC09EF09FC009
:10097E009DF090C09FF094C090F09FC094F091C0F5
:10098E009FF095C091F09FC095F092C09FF096C0D9
:10099E0092F09FC096F093C09FF097C093F09FC0C7
:1009AE0097F0000E9F6F9E519DC098F0996B985FC7
:1009BE00000E995B99BFEDEF04F0995109E11A0E03
:1009CE00985DD8A0EDEF04F0EFEF04F026EF05F000
:1009DE009051911192119311D8A4F8EF04F0FBEFFE
:1009EE0004F0010EFCEF04F0000E9F6F000E906FEE
:1009FE00000E916F000E926F000E936F9DC09EF0D1
:100A0E002FEF05F09FA10EEF05F010EF05F016EF9A
:100A1E0005F0D8909F3101099F6F18EF05F0D8901F
:100A2E009F3390A11DEF05F01FEF05F020EF05F0AD
:100A3E009F8F933593339233913390339E2B9D51E9
:100A4E009E5DD8A02DEF05F02FEF05F009EF05F014
:100A5E009CBD34EF05F036EF05F076EF05F09E51B4
:100A6E00D8A43CEF05F03EEF05F048EF05F0000E80
:100A7E00906F000E916F000E926F000E936F97EFB6
:100A8E0006F09451902795519123965192239751A8
:100A9E00932393A155EF05F057EF05F003EF06F002
:100AAE009FA15CEF05F05EEF05F064EF05F0D890C6
:100ABE009F3101099F6F66EF05F0D8909F3390A18B
:100ACE006BEF05F06DEF05F06EEF05F09F8F933530
:100ADE0093339233913390339E2B03EF06F0945160
:100AEE00905D95519159965192599351800A986FF4
:100AFE009751800A9859D8B087EF05F089EF05F025
:100B0E00B4EF05F09051945D986F91519559996F8E
:100B1E00925196599A6F935197599B6FFF0E982544
:100B2E00906FFF0E9921916FFF0E9A21926FFF0E1B
:100B3E009B21936F800E9C1B9F6D9F51D8A4AAEF93
:100B4E0005F0ACEF05F0BCEF05F0010E9027000E9E
:100B5E00912392239323BCEF05F09451905F95510E
:100B6E00915B9651925B9751935B905191119211BB
:100B7E009311D8A4C5EF05F0C7EF05F0FCEF05F013
:100B8E009F51D8A4CDEF05F0CFEF05F0FCEF05F0A7
:100B9E00000E906F000E916F000E926F000E936F0D
:100BAE0097EF06F0D89090379137923793379FAFE3
:100BBE00E3EF05F0E5EF05F0E6EF05F090819FA17C
:100BCE00EBEF05F0EDEF05F0F1EF05F0D8809F3774
:100BDE00F3EF05F0D8909F379E51D8B4F9EF05F09A
:100BEE00FBEF05F0FCEF05F09E0792AF01EF06F06C
:100BFE0003EF06F0D9EF05F0000E9D6F9FAF0AEFE1
:100C0E0006F00CEF06F024EF06F09FC098F07F0E72
:100C1E009817D8B415EF06F017EF06F01BEF06F095
:100C2E00010E9D6F24EF06F090A120EF06F022EF4B
:100C3E0006F024EF06F017EF06F09D51D8B42AEF18
:100C4E0006F02CEF06F057EF06F0010E9027000E7F
:100C5E0091239223932393A137EF06F039EF06F0F9
:100C6E0057EF06F090C098F091C099F092C09AF0AC
:100C7E0093C09BF09B359B339A339933983398C02E
:100C8E0090F099C091F09AC092F09BC093F09E297B
:100C9E00D8B454EF06F056EF06F057EF06F09E2B41
:100CAE009E29D8B45DEF06F05FEF06F067EF06F011
:100CBE009E51D8A465EF06F067EF06F079EF06F0C7
:100CCE00000E906F000E916F000E926F000E936FDC
:100CDE009E51D8A475EF06F077EF06F079EF06F087
:100CEE00000E9C6F9EA17EEF06F080EF06F083EF64
:100CFE0006F0928F84EF06F0929FD8909E31936FFC
:100D0E009CAF8CEF06F08EEF06F08FEF06F0938F10
:100D1E0090C090F091C091F092C092F093C093F079
:100D2E0012000600D9CF22F0DACF23F0F3CF24F051
:100D3E00F4CF25F0F6CF26F0F7CF27F0F8CF28F036
:100D4E00F5CF29F09EAAAEEF06F0B0EF06F075EFE4
:100D5E0008F0AECF2AF0620E0D6E000E0E6E0B0E68
:100D6E000F6E080E106E2AC011F0126A9AEC0CF07B
:100D7E000BEC13F03550D8A4C7EF06F0C9EF06F010
:100D8E0059EF07F0010E356E300E2A18D8A4D2EFA7
:100D9E0006F0D4EF06F0DAEF06F0000E3A6E000E13
:100DAE00396E75EF08F00D0E2A18D8B4E1EF06F083
:100DBE00E3EF06F0ECEF06F00A0E2A18D8A4EAEFDD
:100DCE0006F0ECEF06F00CEF07F0000E1C6E000EB6
:100DDE001B6E000E1E6E000E1D6E35EC11F0000E19
:100DEE001C6E000E1B6E000E1E6E5A0E1D6E35EC26
:100DFE0011F0000E1C6E000E1B6E000E1E6EB40E59
:100E0E001D6E35EC11F075EF08F0310E2A18D8A4CE
:100E1E0013EF07F015EF07F01BEF07F0000E3A6E19
:100E2E00010E396E75EF08F0320E2A18D8A422EF93
:100E3E0007F024EF07F02AEF07F0000E3A6E020ECD
:100E4E00396E75EF08F0330E2A18D8A431EF07F07B
:100E5E0033EF07F039EF07F0000E3A6E030E396EDE
:100E6E0075EF08F0340E2A18D8A440EF07F042EFC1
:100E7E0007F048EF07F0000E3A6E040E396E75EF6C
:100E8E0008F0350E2A18D8A44FEF07F051EF07F0EF
:100E9E0057EF07F0000E3A6E050E396E75EF08F03B
:100EAE0075EF08F03504D8A45FEF07F061EF07F097
:100EBE000EEF08F0310E2A18D8A468EF07F06AEF8B
:100ECE0007F077EF07F0818C39C01BF03AC01CF0A9
:100EDE00000E1E6E000E1D6E35EC11F075EF08F053
:100EEE00320E2A18D8A47EEF07F080EF07F08CEFB1
:100EFE0007F039C01BF03AC01CF0000E1E6E2D0E0E
:100F0E001D6E35EC11F075EF08F0330E2A18D8A4CB
:100F1E0093EF07F095EF07F0A1EF07F039C01BF044
:100F2E003AC01CF0000E1E6E5A0E1D6E35EC11F0FE
:100F3E0075EF08F0340E2A18D8A4A8EF07F0AAEF20
:100F4E0007F0B6EF07F039C01BF03AC01CF0000EE8
:100F5E001E6E870E1D6E35EC11F075EF08F0350E16
:100F6E002A18D8A4BDEF07F0BFEF07F0CBEF07F0BC
:100F7E0039C01BF03AC01CF0000E1E6EB40E1D6E72
:100F8E0035EC11F075EF08F0730E2A18D8A4D2EFD5
:100F9E0007F0D4EF07F0D8EF07F0000E356E75EFBF
:100FAE0008F00D0E2A18D8B4DFEF07F0E1EF07F0C6
:100FBE0057EF07F00A0E2A18D8A4E8EF07F0EAEF69
:100FCE0007F0ECEF07F075EF08F0610E2A18D8A4C1
:100FDE00F3EF07F0F5EF07F0FDEF07F0020E356EB9
:100FEE00000E2E6E000E2D6E75EF08F0620E0D6E59
:100FFE00000E0E6E0C0E0F6E080E106E2AC011F043
:10100E00126A9AEC0CF00BEC13F075EF08F0020E6E
:10101E003518D8A415EF08F017EF08F057EF07F0C2
:10102E00360E2D24D96E000E2E20DA6E2AC0DFFF6A
:10103E00620E0D6E000E0E6E3A0E0F6E080E106ED4
:10104E00360E2D24D96E000E2E20DA6EDF50216E54
:10105E002150116E126A9AEC0CF00BEC13F02D4A23
:10106E002E2A030E2D182E10D8A440EF08F042EFB2
:10107E0008F06AEF08F0000E2E6E000E2D6E360E82
:10108E000F6E000E106E1BEC0EF00FC02BF010C08A
:10109E002CF0620E0D6E000E0E6E290E0F6E080EE7
:1010AE00106E2BC011F02CC012F09AEC0CF00BEC61
:1010BE0013F039C01BF03AC01CF02BC01DF02CC031
:1010CE001EF035EC11F0730E2A18D8A471EF08F04B
:1010DE0073EF08F075EF08F0D4EF07F029C0F5FFB5
:1010EE0028C0F8FF27C0F7FF26C0F6FF25C0F4FF83
:1010FE0024C0F3FF23C0DAFF22C0D9FF3B921100B8
:10110E0000019351800BA06F93519325A76F92AF5F
:10111E0093EF08F095EF08F096EF08F0A781A7512E
:10112E00D8B49CEF08F09EEF08F0B3EF08F0A729B3
:10113E00D8A4A4EF08F0A6EF08F0AEEF08F0000E6A
:10114E00906F000E916F000E926F000E936F928F44
:10115E00000E936FBBEF08F0000E906F000E916FB4
:10116E00000E926F000E936F9751800BA01B97513C
:10117E009725A86F96AFC6EF08F0C8EF08F0C9EF35
:10118E0008F0A881A851D8B4CFEF08F0D1EF08F03D
:10119E00E6EF08F0A829D8A4D7EF08F0D9EF08F0A9
:1011AE00E1EF08F0000E946F000E956F000E966F33
:1011BE00000E976F968F000E976FEEEF08F0000EF1
:1011CE00946F000E956F000E966F000E976F9451F0
:1011DE00951196119711D8A4F7EF08F0F9EF08F0D2
:1011EE0011EF09F0000E906F000E916F000E926FCE
:1011FE00000E936F800E92137F0E9313A0519313D4
:10120E0090C090F091C091F092C092F093C093F084
:10121E0054EF0AF0A751D8A417EF09F019EF09F00F
:10122E0023EF09F0000E906F000E916F000E926F7B
:10123E00000E936F54EF0AF0A851A7C098F0996B67
:10124E00985F000E995B7F0E9825A16F000E992175
:10125E00A26F90C09CF091C09DF092C09EF093C082
:10126E009FF0000E906F000E916F000E926F000EA9
:10127E00936F000EA36F000EA46F000EA56F000EED
:10128E00A66F000EA86F84EF09F0A851D8B452EFE4
:10129E0009F054EF09F06BEF09F0D8909C379D37A9
:1012AE009E379F37D8909037913792379337A6AFA6
:1012BE0063EF09F065EF09F066EF09F09081D890C1
:1012CE00A337A437A537A63794519C5D95519D59E8
:1012DE0096519E5997519F59D8A078EF09F07AEF01
:1012EE0009F083EF09F0A68D94519C5F95519D5B9B
:1012FE0096519E5B97519F5BA82B190EA8658AEF9E
:10130E0009F08CEF09F04CEF09F09C519D119E11E4
:10131E009F11D8B495EF09F097EF09F0AFEF09F0F0
:10132E00A381AFEF09F0D89090379137923793376A
:10133E00A6AFA4EF09F0A6EF09F0A7EF09F0908190
:10134E00D890A337A437A537A637A107D8A0A207F0
:10135E0092AFB4EF09F0B6EF09F09AEF09F0000E74
:10136E00A86FA6AFBDEF09F0BFEF09F0E3EF09F0EC
:10137E00FF0EA315986FFF0EA415996FFF0EA515FE
:10138E009A6F7F0EA6159B6F985199119A119B110A
:10139E00D8B4D4EF09F0D6EF09F0DAEF09F0010E68
:1013AE00A86FE3EF09F090A1DFEF09F0E1EF09F08C
:1013BE00E3EF09F0D6EF09F0A851D8B4E9EF09F040
:1013CE00EBEF09F00FEF0AF0010E9027000E9123BC
:1013DE009223932393A1F6EF09F0F8EF09F00FEFA4
:1013EE000AF090C098F091C099F092C09AF093C014
:1013FE009BF09B359B339A339933983398C090F07A
:10140E0099C091F09AC092F09BC093F0A14BA22B81
:10141E00A2BF1AEF0AF0A25108E1A129D8A01AEF33
:10142E000AF01CEF0AF027EF0AF0000EA26FA16976
:10143E00000E906F000E916F000E926F000E936F64
:10144E00A2BF34EF0AF0A25106E1A105D8B032EFE7
:10145E000AF034EF0AF042EF0AF0000EA26F000E0F
:10146E00A16F000E906F000E916F000E926F000E26
:10147E00936F000EA06FA1C0A7F0A7A149EF0AF0CD
:10148E004BEF0AF04EEF0AF0928F4FEF0AF0929F59
:10149E00D890A731936F05EF09F01200A9C090F014
:1014AE00AAC091F0ABC092F0ACC093F0000E000158
:1014BE00946F000E956F800E966F3F0E976F2BEC0C
:1014CE000FF00001D8B06EEF0AF070EF0AF078EF6F
:1014DE000AF0000EA96F000EAA6F800EAB6F3F0EC2
:1014EE00AC6F000E906FC00E916F5A0E926F450E3C
:1014FE00936FA9C094F0AAC095F0ABC096F0ACC0A3
:10150E0097F02BEC0FF00001D8B090EF0AF092EFAD
:10151E000AF09AEF0AF0000EA96FC00EAA6F5A0ECB
:10152E00AB6F450EAC6FBC0EB06FEF0EB16FC60E4B
:10153E00B26F4B0EB36FB0C090F0B1C091F0B2C0AD
:10154E0092F0B3C093F0A9C094F0AAC095F0ABC0CE
:10155E0096F0ACC097F087EC08F090C0B0F091C058
:10156E00B1F092C0B2F093C0B3F0B0C090F0B1C081
:10157E0091F0B2C092F0B3C093F0000E0001946FE0
:10158E00000E956F000E966F450E976F37EC04F0B8
:10159E0090C0B0F091C0B1F092C0B2F093C0B3F071
:1015AE00B0C090F0B1C091F0B2C092F0B3C093F061
:1015BE00000E0001946F000E956F800E966F450E13
:1015CE00976F87EC08F090C0B0F091C0B1F092C068
:1015DE00B2F093C0B3F0B0C0A0F0B1C0A1F0B2C0F1
:1015EE00A2F0B3C0A3F0000E0001A46F000EA56F11
:1015FE00800EA66F3F0EA76F34EC13F0A0C0B0F0B4
:10160E00A1C0B1F0A2C0B2F0A3C0B3F0B0C090F0D0
:10161E00B1C091F0B2C092F0B3C093F0000E0001D1
:10162E00946F000E956F400E966F400E976F2BECD9
:10163E000FF00001D8B026EF0BF028EF0BF030EFD3
:10164E000BF0000EB06F000EB16F400EB26F400E79
:10165E00B36F000E906F000E916F7F0E926F430E60
:10166E00936FB0C094F0B1C095F0B2C096F0B3C015
:10167E0097F02BEC0FF00001D8B048EF0BF04AEFCB
:10168E000BF052EF0BF0000EB06F000EB16F7F0E2D
:10169E00B26F430EB36FB0C090F0B1C091F0B2C054
:1016AE0092F0B3C093F0A7EC0EF000019051AE6F24
:1016BE00000E936F8F0E946F000E956F000E976F46
:1016CE00010E966F800E11EC10F000018F517F0B02
:1016DE001009AF6F000E926FAF0E936F000E946FE6
:1016EE00000E966F010E956F800E90EC11F0FE0EAF
:1016FE000001926FAE0E936F000E946F000E966FF8
:10170E00010E956F800E90EC11F0000E0001926F9D
:10171E008F0E936F000E946F000E966F010E956FE5
:10172E00800E90EC11F00D0E0001AD6FFB0EE82E49
:10173E00FED7AD2FFCD700D000018F51A0098E6FC0
:10174E00000E926F8E0E936F000E946F000E966FBA
:10175E00010E956F800E90EC11F01200A00E00019C
:10176E00A56F000EA66F82EF0CF0250EA919D8B446
:10177E00C3EF0BF0C5EF0BF0CFEF0BF09CC0D9FF12
:10178E009DC0DAFFA9C0DFFF9C4B9D2B82EF0CF0B2
:10179E00000EA36FDFEF0BF0A5C0D9FFA6C0DAFFD6
:1017AE00DF50A96F020EA527000EA623C5EF0BF082
:1017BE009EC0F6FF9FC0F7FF9E4B9F2B0800F5CFF4
:1017CE00A9F0A951000AD8B493EF0CF0630AD8B46B
:1017DE00D3EF0BF0070AD8B4FBEF0BF00D0AD8B419
:1017EE00FBEF0BF0C5EF0BF0A5C0D9FFA6C0DAFFDB
:1017FE00DECFA7F0DDCFA8F0020EA527000EA623A0
:10180E00A8BF0EEF0CF00CEF0CF014EF0CF0030E63
:10181E00A313A76DA81FD8B0A82B010EA96FA951AD
:10182E00020D010EF324F66E080EF420F76E090079
:10183E00F550A75D0900F550A859D8B029EF0CF066
:10184E002BEF0CF02DEF0CF037EF0CF0A92B050E53
:10185E00A919D8A435EF0CF037EF0CF016EF0CF0F9
:10186E00A3C0A2F0030EA217D8B440EF0CF042EFC3
:10187E000CF04AEF0CF09CC0D9FF9DC0DAFF2D0E84
:10188E00DF6E9C4B9D2BA9C0A4F079EF0CF0A451F8
:10189E00020D010EF324F66E080EF420F76E090009
:1018AE00F5CF92F00A00F5CF93F0A7C090F0A8C044
:1018BE0091F0CEEC11F090C097F091C098F0000E20
:1018CE0000019A6F0A0E996F7BEC12F0000197518E
:1018DE00300FA96F9CC0D9FF9DC0DAFFA9C0DFFFF2
:1018EE009C4B9D2BA407A429D8A480EF0CF082EF6B
:1018FE000CF04EEF0CF09EC0F6FF9FC0F7FF9E4B14
:10190E009F2B0800F5CFA9F0A951D8A491EF0CF0A8
:10191E0093EF0CF0BCEF0BF09CC0D9FF9DC0DAFF2B
:10192E00000EDF6E1200110E166E000E176E64EFB3
:10193E000DF0250E1A18D8B4A7EF0CF0A9EF0CF085
:10194E00B3EF0CF00DC0D9FF0EC0DAFF1AC0DFFFE7
:10195E000D4A0E2A64EF0DF0000E146EC3EF0CF05C
:10196E0016C0D9FF17C0DAFFDF501A6E020E162608
:10197E00000E1722A9EF0CF00FC0F6FF10C0F7FFF4
:10198E000F4A102A0800F5CF1AF01A50000AD8B4E0
:10199E0075EF0DF0630AD8B4B7EF0CF0070AD8B4A0
:1019AE00DFEF0CF00D0AD8B4DFEF0CF0A9EF0CF05E
:1019BE0016C0D9FF17C0DAFFDECF18F0DDCF19F051
:1019CE00020E1626000E172219BEF2EF0CF0F0EFE3
:1019DE000CF0F8EF0CF0030E1412186C191ED8B0A0
:1019EE00192A010E1A6E1A50020D010EF324F66E0C
:1019FE00080EF420F76E0900F550185C0900F5503A
:101A0E001958D8B00DEF0DF00FEF0DF011EF0DF0DE
:101A1E001BEF0DF01A2A050E1A18D8A419EF0DF0A7
:101A2E001BEF0DF0FAEF0CF014C013F0030E1316AB
:101A3E00D8B424EF0DF026EF0DF02EEF0DF00DC003
:101A4E00D9FF0EC0DAFF2D0EDF6E0D4A0E2A1AC018
:101A5E0015F05BEF0DF01550020D010EF324F66E2E
:101A6E00080EF420F76E0900F5CF03F00A00F5CF4B
:101A7E0004F018C001F019C002F009EC12F001C018
:101A8E0008F002C009F0000E0B6E0A0E0A6EAEECE4
:101A9E0012F00850300F1A6E0DC0D9FF0EC0DAFFCB
:101AAE001AC0DFFF0D4A0E2A15061528D8A462EFBC
:101ABE000DF064EF0DF032EF0DF00FC0F6FF10C019
:101ACE00F7FF0F4A102A0800F5CF1AF01A50D8A4C3
:101ADE0073EF0DF075EF0DF0A0EF0CF00DC0D9FF08
:101AEE000EC0DAFF000EDF6E1200720ED36E0F0EF6
:101AFE00C16E938E939C93809382800EC76E280E38
:101B0E00C66E000EC56E130EC86E949C948E0C0E8F
:101B1E00AF6E900EAB6E200EAC6E000E0001926F8B
:101B2E00800E936F000E946F000E966F010E956FE0
:101B3E00800E90EC11F01A0E0001B46FF80EE82E24
:101B4E00FED7B42FFCD700F0000E0001A96F000ED7
:101B5E00AA6F7A0EAB6F440EAC6F55EC0AF0000E06
:101B6E000001A96F000EAA6F480EAB6F420EAC6F4C
:101B7E0055EC0AF0040E0001B56F0C0EB46F330E67
:101B8E00E82EFED7B42FFCD7B52FFAD700D0F28EA1
:101B9E00F28C9D8A9E9A620E00019C6F000E9D6FC4
:101BAE00630E9E6F080E9F6FB5EC0BF0E0EC12F01B
:101BBE00818C0B0E0001B56F260EB46F5D0EE82EF4
:101BCE00FED7B42FFCD7B52FFAD700D0819C000ECC
:101BDE000001AB6F000EAA6F000EAD6F5A0EAC6F08
:101BEE00D5EC10F0000E0001AB6F010EAA6F000EC7
:101BFE00AD6F5A0EAC6FD5EC10F0000E0001AB6F4E
:101C0E00020EAA6F000EAD6F5A0EAC6FD5EC10F02F
:101C1E00000E0001AB6F0F0EAA6F000EAD6F5A0EC5
:101C2E00AC6FD5EC10F012001FEF0EF00F4A102A19
:101C3E000FC0D9FF10C0DAFF200EDE18D8B42AEF7D
:101C4E000EF02CEF0EF01DEF0EF00FC0D9FF10C0EE
:101C5E00DAFF090EDE18D8B437EF0EF039EF0EF0BA
:101C6E001DEF0EF0000E156E000E146E000E136EAC
:101C7E000FC0D9FF10C0DAFF2D0EDE18D8A44AEF20
:101C8E000EF04CEF0EF051EF0EF0132A0F4A102A01
:101C9E007EEF0EF00FC0D9FF10C0DAFF2B0EDE184C
:101CAE00D8A45CEF0EF05EEF0EF07EEF0EF00F4A52
:101CBE00102A7EEF0EF014C009F015C00AF0000EC7
:101CCE000C6E0A0E0B6E63EC14F00FC0D9FF10C031
:101CDE00DAFFDF50116E11500926000E0A22D00EC7
:101CEE000924146EFF0E0A20156E5EEF0EF00FC063
:101CFE00D9FF10C0DAFFDF500FEC14F0D8B08AEF26
:101D0E000EF08CEF0EF062EF0EF01350D8B492EF8F
:101D1E000EF094EF0EF0A2EF0EF014C011F015C0FD
:101D2E0012F0111E121E114A122A11C00FF012C00B
:101D3E0010F0A6EF0EF014C00FF015C010F0120048
:101D4E00000192359335996F9951D8A4B1EF0EF0E9
:101D5E00B3EF0EF0BDEF0EF0000E906F000E916F10
:101D6E00000E926F000E936F2AEF0FF090C094F05A
:101D7E0091C095F092C096F093C097F0200ECDEFE3
:101D8E000EF0D8909733963395339433E82EC8EFF0
:101D9E000EF09451986F928FFF0E9017FF0E9117C1
:101DAE00FF0E9217000E9317960E995F99BFE4EFF0
:101DBE000EF0E2EF0EF0FAEF0EF09951800A970F47
:101DCE00D8B0ECEF0EF0EEEF0EF0F0EF0EF0B3EF4A
:101DDE000EF0D8909333923391339033993FF0EFC6
:101DEE000EF012EF0FF01F0E996500EF0FF002EFDD
:101DFE000FF00AEF0FF0B3EF0EF0D8909037913747
:101E0E009237933799079951D8A410EF0FF012EF2C
:101E1E000FF004EF0FF09851D8B418EF0FF01AEF3F
:101E2E000FF022EF0FF0931F921F911F906D000E77
:101E3E0091239223932390C090F091C091F092C081
:101E4E0092F093C093F01200000E00019015986F5F
:101E5E00000E9115996F800E92159A6F7F0E931545
:101E6E009B6F985199119A119B11D8A441EF0FF0C5
:101E7E0043EF0FF04BEF0FF0000E906F000E916FCF
:101E8E00000E926F000E936F000E9415986F000E59
:101E9E009515996F800E96159A6F7F0E97159B6FFD
:101EAE00985199119A119B11D8A460EF0FF062EF1F
:101EBE000FF06AEF0FF0000E946F000E956F000E8C
:101ECE00966F000E976F93AF6FEF0FF071EF0FF0ED
:101EDE007AEF0FF0906D911FD8B0912B921FD8B062
:101EEE00922B800E935797AF7FEF0FF081EF0FF08D
:101EFE008AEF0FF0946D951FD8B0952B961FD8B022
:101F0E00962B800E9757000E901B000E911B000E05
:101F1E00921B800E931B000E941B000E951B000E41
:101F2E00961B800E971B9451905D95519159965129
:101F3E00925997519359D8B0A7EF0FF0A9EF0FF020
:101F4E00ACEF0FF0D890ADEF0FF0D8801200000E6E
:101F5E000001956F93BFB8EF0FF0B6EF0FF0BEEF25
:101F6E000FF0926D931FD8B0932B010E956F91BF0A
:101F7E00C5EF0FF0C3EF0FF0CBEF0FF0906D911F89
:101F8E00D8B0912B010E951B000E976F000E966F19
:101F9E0092519311D8B4D6EF0FF0D8EF0FF000EFA7
:101FAE0010F0010E946FE0EF0FF0D8909237933748
:101FBE00942B93AFE5EF0FF0E7EF0FF0DCEF0FF0A0
:101FCE00D890963797379251905D93519159D8A0EA
:101FDE00F3EF0FF0F5EF0FF0FAEF0FF09251905F75
:101FEE009351915B9681D89093339233942FE7EF70
:101FFE000FF09551D8B406EF10F008EF10F00CEF7B
:10200E0010F0966D971FD8B0972B96C090F097C092
:10201E0091F0120000019A6F91EC14F000019A51A8
:10202E0076EC14F00001935176EC14F089EC14F078
:10203E0000019A51010976EC14F0000E346E000E78
:10204E00336E53EF10F0010E3324986F000E3420D0
:10205E00996F9651981907E197519919D8A43AEFAB
:10206E0010F03CEF10F046EF10F0010ED8EC13F02C
:10207E0094C0D9FF95C0DAFFDF6E4EEF10F0000E60
:10208E00D8EC13F094C0D9FF95C0DAFFDF6E0001D3
:10209E00944B952B334A342A00019651335C3450BD
:1020AE00800A986F9751800A9859D8A061EF10F066
:1020BE0063EF10F02AEF10F08DEC14F0020E000119
:1020CE00996F040E986FBA0EE82EFED7982FFCD794
:1020DE00992FFAD700F01200000E066E04BE7CEFA8
:1020EE0010F07AEF10F082EF10F0036C041ED8B0EF
:1020FE00042A010E066E02BE89EF10F087EF10F073
:10210E008FEF10F0016C021ED8B0022A010E061AD3
:10211E00000E086E000E076E03500410D8B49AEF2E
:10212E0010F09CEF10F0C4EF10F0010E056EA4EF4E
:10213E0010F0D89003360436052A04AEA9EF10F03D
:10214E00ABEF10F0A0EF10F0D89007360836035022
:10215E00015C04500258D8A0B7EF10F0B9EF10F0A0
:10216E00BEEF10F00350015E0450025A0780D89063
:10217E0004320332052EABEF10F00650D8B4CAEF7E
:10218E0010F0CCEF10F0D0EF10F0076C081ED8B0A6
:10219E00082A07C001F008C002F01200ACC09EF081
:1021AE00ADC09FF0000E0001A16F000EA06F000EDB
:1021BE00A36FB40EA26F000EA56F6E0EA46F010E6C
:1021CE00A76FFE0EA66F58EC13F09EC060F09FC076
:1021DE0061F060C08CF0000161518D6FAA51040D49
:1021EE00F350060F926F8A0E936F000E946F000ECF
:1021FE00966F040E956F800E90EC11F0620E00013A
:10220E009C6F000E9D6F560E9E6F080E9F6FAAC09C
:10221E00A0F0ABC0A1F0B5EC0BF0E0EC12F0620E4A
:10222E0000019C6F000E9D6F480E9E6F080E9F6FF3
:10223E00ACC0A0F0ADC0A1F0B5EC0BF0E0EC12F02C
:10224E000B0E0001AF6F260EAE6F5D0EE82EFED7A1
:10225E00AE2FFCD7AF2FFAD700D012001DC00FF053
:10226E001EC010F0000E126E000E116E000E146ED7
:10227E00B40E136E000E166E6E0E156E010E186EE7
:10228E00FE0E176E7BEC13F00FC060F010C061F005
:10229E0060C08CF0000161518D6F1B50040DF35026
:1022AE00060F036E8A0E046E000E056E000E076E8C
:1022BE00040E066E800E43EC12F0620E0D6E000ED2
:1022CE000E6E560E0F6E080E106E1BC011F01CC057
:1022DE0012F09AEC0CF00BEC13F0620E0D6E000E79
:1022EE000E6E480E0F6E080E106E1DC011F01EC041
:1022FE0012F09AEC0CF00BEC13F00B0E206E260E77
:10230E001F6E5E0EE82EFED71F2EFCD7202EFAD79C
:10231E0012000001996F91EC14F00001995176ECC6
:10232E0014F00001925176EC14F0000E346E000E93
:10233E00336EAEEF11F093C0D9FF94C0DAFFDF50C9
:10234E0076EC14F00001934B942B334A342A00019F
:10235E009551335C3450800A976F9651800A975985
:10236E00D8A0BCEF11F0BEEF11F0A2EF11F08DEC82
:10237E0014F0020E0001986F040E976FBA0EE82E3D
:10238E00FED7972FFCD7982FFAD700F01200000E29
:10239E000001966F000E956F92519311D8B4DAEF3B
:1023AE0011F0DCEF11F004EF12F0010E946FE4EF78
:1023BE0011F0D89092379337942B93AFE9EF11F039
:1023CE00EBEF11F0E0EF11F0D89095379637925170
:1023DE00905D93519159D8A0F7EF11F0F9EF11F0EC
:1023EE00FEEF11F09251905F9351915B9581D890D1
:1023FE0093339233942FEBEF11F095C090F096C07B
:10240E0091F01200000E066E000E056E03500410C1
:10241E00D8B414EF12F016EF12F03EEF12F0010ED8
:10242E00076E1EEF12F0D89003360436072A04AE5C
:10243E0023EF12F025EF12F01AEF12F0D8900536B6
:10244E0006360350015C04500258D8A031EF12F04A
:10245E0033EF12F038EF12F00350015E0450025ABF
:10246E000580D89004320332072E25EF12F005C0F6
:10247E0001F006C002F012000A6E99EC14F00A5038
:10248E0083EC14F0035083EC14F0000E346E000E47
:10249E00336E5DEF12F004C0D9FF05C0DAFFDF50D6
:1024AE0083EC14F0044A052A334A342A0650335C6E
:1024BE003450800A086E0750800A0858D8A06AEF78
:1024CE0012F06CEF12F052EF12F095EC14F0020EC7
:1024DE00096E040E086EBA0EE82EFED7082EFCD733
:1024EE00092EFAD700D01200000199519A11D8B4D2
:1024FE0083EF12F085EF12F0A9EF12F0010E9B6F31
:10250E008DEF12F0D89099379A379B2B9AAF92EFA6
:10251E0012F094EF12F089EF12F09951975D9A51E3
:10252E009859D8A09DEF12F09FEF12F0A3EF12F082
:10253E009951975F9A51985BD8909A3399339B2F04
:10254E0094EF12F097C097F098C098F012000A50CE
:10255E000B10D8B4B5EF12F0B7EF12F0DBEF12F0AC
:10256E00010E0C6EBFEF12F0D8900A360B360C2A05
:10257E000BAEC4EF12F0C6EF12F0BBEF12F00A5022
:10258E00085C0B500958D8A0CFEF12F0D1EF12F023
:10259E00D5EF12F00A50085E0B50095AD8900B3244
:1025AE000A320C2EC6EF12F008C008F009C009F06E
:1025BE001200000E346E000E336EF7EF12F09EA86E
:1025CE00EBEF12F0EDEF12F0E6EF12F0620E3324A5
:1025DE00D96E000E3420DA6EDF50AD6E334A342AD7
:1025EE00620E0001906F000E916FBBEC13F0335032
:1025FE000001905D34509159D8B008EF13F00AEFF6
:10260E0013F0E6EF12F01200000E346E000E336E71
:10261E0022EF13F09EA816EF13F018EF13F011EF40
:10262E0013F0620E3324D96E000E3420DA6EDF50B2
:10263E00AD6E334A342A620E016E000E026EF4EC59
:10264E0013F03350015C34500258D8B031EF13F010
:10265E0033EF13F011EF13F01200000E0001A41B64
:10266E00000EA51B000EA61B800EA71BA0C090F08F
:10267E00A1C091F0A2C092F0A3C093F0A4C094F0B8
:10268E00A5C095F0A6C096F0A7C097F037EC04F061
:10269E0090C0A0F091C0A1F092C0A2F093C0A3F0A0
:1026AE0012000001A0519E5D986FA1519F59996F24
:1026BE00A051A25D926FA151A359936FA451A65D33
:1026CE00906FA551A759916FAEEC0FF090C09AF094
:1026DE0091C09BF03CEC14F00001A45198259E6F24
:1026EE00A55199219F6F120011500F5C096E125067
:1026FE0010580A6E1150135C036E12501458046E6B
:10270E001550175C016E16501858026E73EC10F0CF
:10271E0001C00BF002C00CF063EC14F0155009244C
:10272E000F6E16500A20106E12003A0EF66E290E1B
:10273E00F76E000EF86E0900F5CF39F00900F5CFEF
:10274E003AF000EE60F0300EEE6AE806FDE100EEC3
:10275E002BF00E0EEE6AE806FDE13B903B92000E6A
:10276E00F86E00017DEF14F090C092F091C093F0DE
:10277E00C4EF13F00001924B932B92C0D9FF93C07C
:10278E00DAFFDF50D8A4CEEF13F0D0EF13F0C1EF85
:10279E0013F000019051925D906F91519359916F8A
:1027AE0012000001916F28EC14F0C58628EC14F08D
:1027BE00C9CF92F028EC14F000019105D8B4EAEFDD
:1027CE0013F0EDEF13F0C58AEEEF13F0C59AC5883E
:1027DE0028EC14F000019251120001C003F002C067
:1027EE0004F0FCEF13F0034A042A03C0D9FF04C01F
:1027FE00DAFFDF50D8A406EF14F008EF14F0FAEF6A
:10280E0013F00150035C016E02500458026E120068
:10281E00036E000E026E3A0E036018EF14F01AEFFC
:10282E0014F024EF14F02F0E036420EF14F022EFB7
:10283E0014F024EF14F0010E026E02C001F001300C
:10284E001200C5CF90F01F0E00019017D8A432EFE2
:10285E0014F034EF14F028EF14F0C7B439EF14F07D
:10286E003BEF14F028EF14F01200000198519A0378
:10287E00F3CF9CF0F4CF9DF098519B03F3509D271E
:10288E0099519A03F3509D279CC098F09DC099F0E2
:10289E001200C5CF01F01F0E0116D8A459EF14F087
:1028AE005BEF14F050EF14F0C7B460EF14F062EF6A
:1028BE0014F050EF14F0120009500B02F3CF0DF08C
:1028CE00F4CF0EF009500C02F3500E260A500B02F4
:1028DE00F3500E260DC009F00EC00AF012000001D2
:1028EE00916F28EC14F091C0C9FF12007CEC0DF032
:1028FE007FEF14F007EF00F0026E50EC14F002C000
:10290E00C9FF120028EC14F0C582120028EC14F056
:10291E00C584120028EC14F0C580120050EC14F09F
:0E292E00C584120050EC14F0C58012000500A4
:020000040020DA
:08000000FFFFFFFFFFFFFFFF00
:020000040030CA
:0E000000000B1F1EFF8381FF0FC00FE00F409B
:00000001FF
