:020000040000FA
:040000003CEF0AF0D7
:100600000043616C3A25782F25782F257800486FB4
:10061000723A25783A25783A25780000D5EC09F029
:10062000000E036EA00E046E000E056E000E076E27
:10063000030E066ED00E13EC09F0030E036E9C0E33
:10064000046E000E056E000E076E040E066ED00ED0
:1006500013EC09F0000E046EDD0E056E000E066E42
:10066000000E086E030E076ED00EB7EC08F0000106
:10067000DFAD3DEF03F03FEF03F0D5EF03F08E0E5B
:100680000AEC0BF00001DFAB48EF03F04AEF03F098
:1006900070EF03F0000EB06F000EAF6F5CEF03F071
:1006A000970EAF25D96E000EB021DA6EDF5010EC38
:1006B0000BF00001AF4BB02B970E016E000E026ED7
:1006C000B3EC0AF00001AF51015CB0510258D8B050
:1006D0006CEF03F06EEF03F050EF03F094EF03F0D4
:1006E000000EB06F000EAF6F82EF03F0920EAF25D9
:1006F000D96E000EB021DA6EDF5010EC0BF0000165
:10070000AF4BB02B920E016E000E026EB3EC0AF0EE
:100710000001AF51015CB0510258D8B092EF03F024
:1007200094EF03F076EF03F0800E0AEC0BF000017B
:10073000DF511F0BDF6FC50EE06F000EE16F0E0E75
:10074000E26F060EE36FDFC0E4F0E56BDEC0E6F0BB
:10075000E76BDDC0E8F0E96BACEC09F0000E0001DE
:10076000B06F000EAF6FC1EF03F0C50EAF25D96EAD
:10077000000EB021DA6EDF5010EC0BF00001AF4B31
:10078000B02BC50E016E000E026EB3EC0AF0000134
:10079000AF51015CB0510258D8B0D1EF03F0D3EFA4
:1007A00003F0B5EF03F014EF04F0800E0AEC0BF049
:1007B0000001DF513F0BDF6FC50EE06F000EE16FF0
:1007C0000E0EE26F060EE36FDFC0E4F0E56BDEC0F5
:1007D000E6F0E76BDDC0E8F0E96BACEC09F0000E89
:1007E0000001B06F000EAF6F02EF04F0C50EAF2531
:1007F000D96E000EB021DA6EDF5010EC0BF0000164
:10080000AF4BB02BC50E016E000E026EB3EC0AF0BA
:100810000001AF51015CB0510258D8B012EF04F0A2
:1008200014EF04F0F6EF03F0030E046ED90E056E1C
:10083000000E066E000E086E040E076ED00EB7ECAA
:1008400008F0C00E0AEC0BF0B10E0001E06F000ED4
:10085000E16F010EE26F060EE36FDAC0E4F0E56BC4
:10086000DBC0E6F0E76BDCC0E8F0E96BACEC09F06C
:10087000000E0001B06F000EAF6F4BEF04F0B10E31
:10088000AF25D96E000EB021DA6EDF5010EC0BF000
:100890000001AF4BB02BB10E016E000E026EB3EC37
:1008A0000AF00001AF51015CB0510258D8B05BEFC3
:1008B00004F05DEF04F03FEF04F069EF05F0000E87
:1008C000B06F000EAF6F71EF04F08D0EAF25D96ED3
:1008D000000EB021DA6EDF5010EC0BF00001AF4BD0
:1008E000B02B8D0E016E000E026EB3EC0AF000010B
:1008F000AF51015CB0510258D8B081EF04F083EFE2
:1009000004F065EF04F02AEF03F0000EB06F000E64
:10091000AF6F97EF04F0880EAF25D96E000EB021AF
:10092000DA6EDF5010EC0BF00001AF4BB02B880EED
:10093000016E000E026EB3EC0AF00001AF51015CD3
:10094000B0510258D8B0A7EF04F0A9EF04F08BEF34
:1009500004F02AEF03F0000EB06F000EAF6FBDEF92
:1009600004F0830EAF25D96E000EB021DA6EDF5091
:1009700010EC0BF00001AF4BB02B830E016E000E9C
:10098000026EB3EC0AF00001AF51015CB0510258A5
:10099000D8B0CDEF04F0CFEF04F0B1EF04F02AEFC0
:1009A00003F0000EB06F000EAF6FE3EF04F07E0EA9
:1009B000AF25D96E000EB021DA6EDF5010EC0BF0CF
:1009C0000001AF4BB02B7E0E016E000E026EB3EC39
:1009D0000AF00001AF51015CB0510258D8B0F3EFFA
:1009E00004F0F5EF04F0D7EF04F02AEF03F0000E67
:1009F000B06F000EAF6F09EF05F0790EAF25D96E1D
:100A0000000EB021DA6EDF5010EC0BF00001AF4B9E
:100A1000B02B790E016E000E026EB3EC0AF00001ED
:100A2000AF51015CB0510258D8B019EF05F01BEF7F
:100A300005F0FDEF04F02AEF03F0000EB06F000E9A
:100A4000AF6F2FEF05F0740EAF25D96E000EB021F9
:100A5000DA6EDF5010EC0BF00001AF4BB02B740ED0
:100A6000016E000E026EB3EC0AF00001AF51015CA2
:100A7000B0510258D8B03FEF05F041EF05F023EF39
:100A800005F02AEF03F0000EB06F000EAF6F55EFC8
:100A900005F06F0EAF25D96E000EB021DA6EDF5073
:100AA00010EC0BF00001AF4BB02B6F0E016E000E7F
:100AB000026EB3EC0AF00001AF51015CB051025874
:100AC000D8B065EF05F067EF05F049EF05F02AEFC4
:100AD00003F0600ED925D96EDA6A000EDA22DF50F3
:100AE0005E6E5F6A5F50000AD8B479EF05F02AEFB6
:100AF00003F05E50460AD8B41DEF05F00B0AD8B4D7
:100B000085EF04F01E0AD8B45FEF04F0070AD8B4EA
:100B1000ABEF04F0030AD8B4D1EF04F0240AD8B440
:100B200043EF05F0070AD8B4F7EF04F02AEF03F01B
:100B300000EF00F00001A8BFA0EF05F0A2EF05F064
:100B4000A3EF05F0A993A8BFB0EF05F0A85106E107
:100B5000A705D8B0AEEF05F0B0EF05F0B6EF05F0A1
:100B6000000E346E010E336EBAEF05F0A7C033F0FD
:100B7000A8C034F0A5C035F0A6C036F0A9A9C3EFCF
:100B800005F0C5EF05F0C9EF05F0FE0E3526FF0EA6
:100B900036221EC037F01FC038F020C039F021C007
:100BA0003AF022C03BF023C03CF024C03DF025C009
:100BB0003EF0000E406E1F0E3F6E000E0101336FBF
:100BC00095EF06F03F06D8A040060F0E3714416E91
:100BD000426A42BEF5EF05F0425009E10A0E415C5F
:100BE000D8A0F5EF05F0F7EF05F0FFEF05F0570E91
:100BF0004124416E000E4220426E05EF06F0300E99
:100C00004124416E000E4220426EBF0E276EFF0E41
:100C1000286E2650296E2A6A2750292628502A2213
:100C20002A500AE11A0E295CD8A019EF06F01CEF31
:100C300006F0010E1DEF06F0000E2F6E306A2F50E9
:100C40003010D8B426EF06F028EF06F058EF06F083
:100C50009F0E276EFF0E286E200E4110296E000E8B
:100C600042102A6E2750292628502A222A500AE1AB
:100C70001A0E295CD8A03FEF06F042EF06F0010EF5
:100C800043EF06F0000E316E326A31503210D8B4A4
:100C90004CEF06F04EEF06F058EF06F041C007F0BB
:100CA00042C008F07DEC09F007C041F008C042F0F6
:100CB000140E3F24D96E010E4020DA6E41C0DFFFD2
:100CC0003306D8A034063506D8A0360637C027F03C
:100CD00038C028F039C029F03AC02AF03BC02BF0C8
:100CE0003CC02CF03DC02DF03EC02EF0050E82EF32
:100CF00006F0D8902E322D322C322B322A32293265
:100D000028322732E82E79EF06F027C037F028C0C6
:100D100038F029C039F02AC03AF02BC03BF02CC083
:100D20003CF02DC03DF02EC03EF040BEA1EF06F0DD
:100D3000405009E1020E3F5CD8A0A1EF06F0A3EFFE
:100D400006F0D4EF06F03750381039103A103B1047
:100D50003C103D103E10D8A4B0EF06F0B2EF06F004
:100D6000E2EF05F034BEBFEF06F0345006E1330485
:100D7000D8B0BDEF06F0BFEF06F0E2EF05F036BEEB
:100D8000CAEF06F0365008E13504D8A0CAEF06F0E5
:100D9000CCEF06F0D4EF06F00001A9B3D2EF06F0D5
:100DA000D4EF06F0E2EF05F00001A9A9DAEF06F0B2
:100DB000DCEF06F0F2EF06F03F06D8A04006140E76
:100DC0003F24D96E010E4020DA6E26C0DFFF3F06B9
:100DD000D8A04006140E3F24D96E010E4020DA6ED2
:100DE000300EDF6E1CC011F01DC012F0140E3F2437
:100DF000136E010E4020146E35C015F036C016F08B
:100E000054EC08F011C01CF012C01DF0120045C0D7
:100E1000D9FF46C0DAFFDECFF6FFDDCFF7FF0800CF
:100E2000F550250AD8A417EF07F019EF07F0D3EF14
:100E300007F045C0D9FF46C0DAFFDE2A000EDD22EA
:100E4000000E0001A66F000EA56FA5C0A9F0A6C0F8
:100E5000AAF0A769A86945C0D9FF46C0DAFFDECF6E
:100E6000F6FFDDCFF7FF0800F550780AD8B43BEF66
:100E700007F03DEF07F04FEF07F045C0D9FF46C040
:100E8000DAFFDECFF6FFDDCFF7FF0800F550580A96
:100E9000D8A44DEF07F04FEF07F09DEF07F045C0E6
:100EA000D9FF46C0DAFFDECFF6FFDDCFF7FF08003F
:100EB000F5CF55F045C0D9FF46C0DAFFDE2A000E57
:100EC000DD2247C0D9FF48C0DAFFDFCF49F0020E6C
:100ED000DE26DFCF4AF0000EDD2249C0D9FF4AC02E
:100EE000DAFFDECF4BF0DDCF4CF04BC04DF04CC005
:100EF0004EF04F6A506A516A526A536A546A43C04C
:100F00001CF044C01DF04DC01EF04EC01FF04FC07D
:100F100020F050C021F051C022F052C023F053C045
:100F200024F054C025F055C026F09AEC05F01CC002
:100F300043F01DC044F0EEEF07F045C0D9FF46C0B6
:100F4000DAFFDECFF6FFDDCFF7FF0800F550250A08
:100F5000D8A4ADEF07F0AFEF07F0C6EF07F045C03C
:100F6000D9FF46C0DAFFDE2A000EDD22000E026E37
:100F7000250E016E43C003F044C004F0EFEC07F00F
:100F8000000E446E010E436EEEEF07F045C0D9FF30
:100F900046C0DAFFDE2A000EDD22000E446E000E8F
:100FA000436EEEEF07F045C0D9FF46C0DAFFDECF53
:100FB000F6FFDDCFF7FF0800F550016E026A43C06F
:100FC00003F044C004F0EFEC07F045C0D9FF46C081
:100FD000DAFFDE2A000EDD22C0EF07F01200035018
:100FE0000410D8B4F6EF07F0F8EF07F001EF08F0BF
:100FF00003500410D8A4FFEF07F001EF08F006EF4C
:1010000008F0015028EC0BF053EF08F020EE04F04C
:101010000350D9260450DA22DE50DE10D8B413EF84
:1010200008F015EF08F030EF08F020EE04F0035060
:10103000D9260450DA2210EE02F00350E1260450C3
:10104000E222DE50E65CE650800A096EDE50800A3D
:101050000958D8B02EEF08F030EF08F053EF08F041
:1010600020EE02F00350D9260450DA22DECF05F03C
:10107000DDCF06F003C0D9FF04C0DAFFDECF07F0F2
:10108000DDCF08F005500724D96E06500820DA6E2F
:1010900001C0DFFF20EE02F00350D9260450DA220F
:1010A000DE2A000EDD2212000001A9A15AEF08F08D
:1010B0005CEF08F066EF08F013C00AF014C00BF004
:1010C00011C00CF012C00DF0F8EC09F016BE6BEF79
:1010D00008F06DEF08F073EF08F015C01AF016C0B5
:1010E0001BF077EF08F0000E1B6E000E1A6E000E5C
:1010F000196E000E186E89EF08F0000E026E200EB9
:10110000016E11C003F012C004F0EFEC07F0184AB2
:10111000192A1A50185C1950800A176E1B50800A41
:101120001758D8A096EF08F098EF08F07DEF08F078
:101130000001A9B19EEF08F0A0EF08F0AAEF08F0B7
:1011400013C00AF014C00BF011C00CF012C00DF067
:10115000F8EC09F013C001F014C002F0B3EC0AF08F
:101160001A500124116E1B500220126E12000B6ED9
:1011700020EC0BF00B5016EC0BF0045016EC0BF0BF
:1011800024EC0BF00B50010916EC0BF0000E0001E3
:10119000B06F000EAF6FF6EF08F0010EAF25096ECD
:1011A000000EB0210A6E0750091807E108500A180E
:1011B000D8A4DDEF08F0DFEF08F0E9EF08F0010E4A
:1011C000CEEC0AF005C0D9FF06C0DAFFDF6EF1EF02
:1011D00008F0000ECEEC0AF005C0D9FF06C0DAFF19
:1011E000DF6E054A062A0001AF4BB02B0750AF5DFA
:1011F000B051800A096E0850800A0958D8A003EF40
:1012000009F005EF09F0CDEF08F01CEC0BF00B0E28
:101210000A6E260E096E5E0EE82EFED7092EFCD74A
:101220000A2EFAD712000A6E20EC0BF00A5016ECC8
:101230000BF0035016EC0BF0000E0001B06F000E27
:10124000AF6F2FEF09F004C0D9FF05C0DAFFDF5000
:1012500016EC0BF0044A052A0001AF4BB02B0650E8
:10126000AF5DB051800A086E0750800A0858D8A0B8
:101270003CEF09F03EEF09F023EF09F01CEC0BF016
:101280000B0E096E260E086E5E0EE82EFED7082E97
:10129000FCD7092EFAD7120058C05CF059C05DF097
:1012A000000E0001A46F000EA36F6AEF09F056C094
:1012B00043F057C044F05C0E456E000E466E5AC0B7
:1012C00047F05BC048F007EC07F043500001A3274C
:1012D0004450A4235CC0F6FF5DC0F7FF0800F55042
:1012E0000009D8A476EF09F078EF09F057EF09F07C
:1012F000A3C056F0A4C057F012009F0E096EFF0E57
:101300000A6E07C00BF008C00CF009500B260A50FB
:101310000C220C500AE11A0E0B5CD8A092EF09F0D7
:1013200095EF09F0010E96EF09F0000E0D6E0E6AB2
:101330000D500E10D8B49FEF09F0A1EF09F0A7EF00
:1013400009F05F0E0714076E086AABEF09F007C0DB
:1013500007F008C008F01200E40E0001EC6F000E68
:10136000ED6FE0C0EEF0E1C0EFF0000EF16F000EA7
:10137000F06F000EF36F000EF26FEE0E566E000E61
:10138000576EE2C058F0E3C059F0EC0E5A6E000EF2
:101390005B6E4CEC09F00001F051E025D96EF15183
:1013A000E121DA6E000EDF6E1200720ED36E0F0EA8
:1013B000C16E94869488800EC76E280EC66E000E8D
:1013C000C56E130EC86E000E956E000E8C6E000E6C
:1013D000966E000E8D6E060E0AEC0BF00F0E0AECE8
:1013E0000BF0380E0AEC0BF0010E0AEC0BF01200B9
:1013F000000E106E000E0F6E09EF0AF00EC001F025
:10140000026A0CC003F00DC004F0EFEC07F00F4AC5
:10141000102A0F500A24D96E10500B20DA6EDF50BC
:101420000E6E0E50D8A417EF0AF019EF0AF0FEEF77
:1014300009F01200534D545774467344616E696548
:101440006C050653617400004672690000546875AB
:101450000000576564000054756500004D6F6E0014
:101460000053756E0000414D000000504D0000001B
:071470000120021750597121
:10147800340EF66E140EF76E000EF86E00EE60F085
:1014880010EE43F00900F5CFEEFFE550E150FAE128
:1014980001EE00F0340EEE6AE806FDE100EEA3F07E
:1014A8003D0EEE6AE806FDE1000EF86E00010EEF53
:1014B80003F09F0E036EFF0E046E200E0110056EE2
:1014C800000E0210066E0350052604500622065030
:1014D8000AE11A0E055CD8A074EF0AF077EF0AF05B
:1014E800010E78EF0AF0000E016E026A12009F0EDC
:1014F800036EFF0E046E01C005F002C006F0035033
:1015080005260450062206500AE11A0E055CD8A0EA
:1015180090EF0AF093EF0AF0010E94EF0AF0000E34
:10152800016E026A1200BF0E036EFF0E046E01C048
:1015380005F002C006F003500526045006220650A6
:101548000AE11A0E055CD8A0ACEF0AF0AFEF0AF07A
:10155800010EB0EF0AF0000E016E026A120001C01F
:1015680003F002C004F0BBEF0AF0014A022A01C0EE
:10157800D9FF02C0DAFFDF50D8A4C5EF0AF0C7EFE1
:101588000AF0B9EF0AF00350015C016E04500258EA
:10159800026E1200026EE5EC0AF0C586E5EC0AF070
:1015A800C9CF03F0E5EC0AF00204D8B4DEEF0AF084
:1015B800E1EF0AF0C58AE2EF0AF0C59AC588035040
:1015C8001200C5CF01F01F0E0116D8A4EEEF0AF0E5
:1015D800F0EF0AF0E5EF0AF0C7B4F5EF0AF0F7EF1D
:1015E8000AF0E5EF0AF01200016E8D80420EE82E37
:1015F800FED700D001C08CFF420EE82EFED700D0E7
:101608008D90420EE82EFED700D01200026E8D9209
:101618000250F8EC0AF01200026E8D820250F8ECCB
:101628000AF01200026EE5EC0AF002C0C9FF1200CF
:10163800E5EC0AF0C5841200E5EC0AF0C58012005A
:0A164800E5EC0AF0C5821200120062
:020000040020DA
:08000000FFFFFFFFFFFFFFFF00
:020000040030CA
:0E000000FF201F3CFFBF81FF0FC00FE00F402D
:00000001FF
