:020000040000FA
:040000003CEF0BF0D6
:100800000043616C3A25782F25782F257800486FB2
:10081000723A25783A25783A25780000D5EC0AF026
:10082000000E036EA00E046E000E056E000E076E25
:10083000030E066ED00E13EC0AF0030E036E9C0E30
:10084000046E000E056E000E076E040E066ED00ECE
:1008500013EC0AF0000E046EDD0E056E000E066E3F
:10086000000E086E030E076ED00EB7EC09F0000103
:10087000DFAD3DEF04F03FEF04F0D5EF04F08E0E56
:100880000AEC0CF00001DFAB48EF04F04AEF04F093
:1008900070EF04F0000EB06F000EAF6F5CEF04F06D
:1008A000970EAF25D96E000EB021DA6EDF5010EC36
:1008B0000CF00001AF4BB02B970E016E000E026ED4
:1008C000B3EC0BF00001AF51015CB0510258D8B04D
:1008D0006CEF04F06EEF04F050EF04F094EF04F0CE
:1008E000000EB06F000EAF6F82EF04F0920EAF25D6
:1008F000D96E000EB021DA6EDF5010EC0CF0000162
:10090000AF4BB02B920E016E000E026EB3EC0BF0EB
:100910000001AF51015CB0510258D8B092EF04F021
:1009200094EF04F076EF04F0800E0AEC0CF0000176
:10093000DF511F0BDF6FC50EE06F000EE16F0E0E73
:10094000E26F080EE36FDFC0E4F0E56BDEC0E6F0B7
:10095000E76BDDC0E8F0E96BACEC0AF0000E0001DB
:10096000B06F000EAF6FC1EF04F0C50EAF25D96EAA
:10097000000EB021DA6EDF5010EC0CF00001AF4B2E
:10098000B02BC50E016E000E026EB3EC0BF0000131
:10099000AF51015CB0510258D8B0D1EF04F0D3EFA1
:1009A00004F0B5EF04F014EF05F0800E0AEC0CF043
:1009B0000001DF513F0BDF6FC50EE06F000EE16FEE
:1009C0000E0EE26F080EE36FDFC0E4F0E56BDEC0F1
:1009D000E6F0E76BDDC0E8F0E96BACEC0AF0000E86
:1009E0000001B06F000EAF6F02EF05F0C50EAF252E
:1009F000D96E000EB021DA6EDF5010EC0CF0000161
:100A0000AF4BB02BC50E016E000E026EB3EC0BF0B7
:100A10000001AF51015CB0510258D8B012EF05F09F
:100A200014EF05F0F6EF04F0030E046ED90E056E18
:100A3000000E066E000E086E040E076ED00EB7ECA8
:100A400009F0C00E0AEC0CF0B10E0001E06F000ED0
:100A5000E16F010EE26F080EE36FDAC0E4F0E56BC0
:100A6000DBC0E6F0E76BDCC0E8F0E96BACEC0AF069
:100A7000000E0001B06F000EAF6F4BEF05F0B10E2E
:100A8000AF25D96E000EB021DA6EDF5010EC0CF0FD
:100A90000001AF4BB02BB10E016E000E026EB3EC35
:100AA0000BF00001AF51015CB0510258D8B05BEFC0
:100AB00005F05DEF05F03FEF05F069EF06F0000E81
:100AC000B06F000EAF6F71EF05F08D0EAF25D96ED0
:100AD000000EB021DA6EDF5010EC0CF00001AF4BCD
:100AE000B02B8D0E016E000E026EB3EC0BF0000108
:100AF000AF51015CB0510258D8B081EF05F083EFDF
:100B000005F065EF05F02AEF04F0000EB06F000E5F
:100B1000AF6F97EF05F0880EAF25D96E000EB021AC
:100B2000DA6EDF5010EC0CF00001AF4BB02B880EEA
:100B3000016E000E026EB3EC0BF00001AF51015CD0
:100B4000B0510258D8B0A7EF05F0A9EF05F08BEF30
:100B500005F02AEF04F0000EB06F000EAF6FBDEF8E
:100B600005F0830EAF25D96E000EB021DA6EDF508E
:100B700010EC0CF00001AF4BB02B830E016E000E99
:100B8000026EB3EC0BF00001AF51015CB0510258A2
:100B9000D8B0CDEF05F0CFEF05F0B1EF05F02AEFBB
:100BA00004F0000EB06F000EAF6FE3EF05F07E0EA5
:100BB000AF25D96E000EB021DA6EDF5010EC0CF0CC
:100BC0000001AF4BB02B7E0E016E000E026EB3EC37
:100BD0000BF00001AF51015CB0510258D8B0F3EFF7
:100BE00005F0F5EF05F0D7EF05F02AEF04F0000E61
:100BF000B06F000EAF6F09EF06F0790EAF25D96E1A
:100C0000000EB021DA6EDF5010EC0CF00001AF4B9B
:100C1000B02B790E016E000E026EB3EC0BF00001EA
:100C2000AF51015CB0510258D8B019EF06F01BEF7C
:100C300006F0FDEF05F02AEF04F0000EB06F000E95
:100C4000AF6F2FEF06F0740EAF25D96E000EB021F6
:100C5000DA6EDF5010EC0CF00001AF4BB02B740ECD
:100C6000016E000E026EB3EC0BF00001AF51015C9F
:100C7000B0510258D8B03FEF06F041EF06F023EF35
:100C800006F02AEF04F0000EB06F000EAF6F55EFC4
:100C900006F06F0EAF25D96E000EB021DA6EDF5070
:100CA00010EC0CF00001AF4BB02B6F0E016E000E7C
:100CB000026EB3EC0BF00001AF51015CB051025871
:100CC000D8B065EF06F067EF06F049EF06F02AEFBF
:100CD00004F0600ED925D96EDA6A000EDA22DF50F0
:100CE0005E6E5F6A5F50000AD8B479EF06F02AEFB3
:100CF00004F05E50460AD8B41DEF06F00B0AD8B4D3
:100D000085EF05F01E0AD8B45FEF05F0070AD8B4E6
:100D1000ABEF05F0030AD8B4D1EF05F0240AD8B43C
:100D200043EF06F0070AD8B4F7EF05F02AEF04F016
:100D300000EF00F00001A8BFA0EF06F0A2EF06F060
:100D4000A3EF06F0A993A8BFB0EF06F0A85106E103
:100D5000A705D8B0AEEF06F0B0EF06F0B6EF06F09C
:100D6000000E346E010E336EBAEF06F0A7C033F0FA
:100D7000A8C034F0A5C035F0A6C036F0A9A9C3EFCD
:100D800006F0C5EF06F0C9EF06F0FE0E3526FF0EA1
:100D900036221EC037F01FC038F020C039F021C005
:100DA0003AF022C03BF023C03CF024C03DF025C007
:100DB0003EF0000E406E1F0E3F6E000E0101336FBD
:100DC00095EF07F03F06D8A040060F0E3714416E8E
:100DD000426A42BEF5EF06F0425009E10A0E415C5C
:100DE000D8A0F5EF06F0F7EF06F0FFEF06F0570E8C
:100DF0004124416E000E4220426E05EF07F0300E96
:100E00004124416E000E4220426EBF0E276EFF0E3F
:100E1000286E2650296E2A6A2750292628502A2211
:100E20002A500AE11A0E295CD8A019EF07F01CEF2E
:100E300007F0010E1DEF07F0000E2F6E306A2F50E5
:100E40003010D8B426EF07F028EF07F058EF07F07E
:100E50009F0E276EFF0E286E200E4110296E000E89
:100E600042102A6E2750292628502A222A500AE1A9
:100E70001A0E295CD8A03FEF07F042EF07F0010EF1
:100E800043EF07F0000E316E326A31503210D8B4A1
:100E90004CEF07F04EEF07F058EF07F041C007F0B6
:100EA00042C008F07DEC0AF007C041F008C042F0F3
:100EB000140E3F24D96E010E4020DA6E41C0DFFFD0
:100EC0003306D8A034063506D8A0360637C027F03A
:100ED00038C028F039C029F03AC02AF03BC02BF0C6
:100EE0003CC02CF03DC02DF03EC02EF0050E82EF30
:100EF00007F0D8902E322D322C322B322A32293262
:100F000028322732E82E79EF07F027C037F028C0C3
:100F100038F029C039F02AC03AF02BC03BF02CC081
:100F20003CF02DC03DF02EC03EF040BEA1EF07F0DA
:100F3000405009E1020E3F5CD8A0A1EF07F0A3EFFB
:100F400007F0D4EF07F03750381039103A103B1043
:100F50003C103D103E10D8A4B0EF07F0B2EF07F000
:100F6000E2EF06F034BEBFEF07F0345006E1330481
:100F7000D8B0BDEF07F0BFEF07F0E2EF06F036BEE6
:100F8000CAEF07F0365008E13504D8A0CAEF07F0E1
:100F9000CCEF07F0D4EF07F00001A9B3D2EF07F0D0
:100FA000D4EF07F0E2EF06F00001A9A9DAEF07F0AD
:100FB000DCEF07F0F2EF07F03F06D8A04006140E72
:100FC0003F24D96E010E4020DA6E26C0DFFF3F06B7
:100FD000D8A04006140E3F24D96E010E4020DA6ED0
:100FE000300EDF6E1CC011F01DC012F0140E3F2435
:100FF000136E010E4020146E35C015F036C016F089
:1010000054EC09F011C01CF012C01DF0120045C0D4
:10101000D9FF46C0DAFFDECFF6FFDDCFF7FF0800CD
:10102000F550250AD8A417EF08F019EF08F0D3EF10
:1010300008F045C0D9FF46C0DAFFDE2A000EDD22E7
:10104000000E0001A66F000EA56FA5C0A9F0A6C0F6
:10105000AAF0A769A86945C0D9FF46C0DAFFDECF6C
:10106000F6FFDDCFF7FF0800F550780AD8B43BEF64
:1010700008F03DEF08F04FEF08F045C0D9FF46C03B
:10108000DAFFDECFF6FFDDCFF7FF0800F550580A94
:10109000D8A44DEF08F04FEF08F09DEF08F045C0E1
:1010A000D9FF46C0DAFFDECFF6FFDDCFF7FF08003D
:1010B000F5CF55F045C0D9FF46C0DAFFDE2A000E55
:1010C000DD2247C0D9FF48C0DAFFDFCF49F0020E6A
:1010D000DE26DFCF4AF0000EDD2249C0D9FF4AC02C
:1010E000DAFFDECF4BF0DDCF4CF04BC04DF04CC003
:1010F0004EF04F6A506A516A526A536A546A43C04A
:101100001CF044C01DF04DC01EF04EC01FF04FC07B
:1011100020F050C021F051C022F052C023F053C043
:1011200024F054C025F055C026F09AEC06F01CC0FF
:1011300043F01DC044F0EEEF08F045C0D9FF46C0B3
:10114000DAFFDECFF6FFDDCFF7FF0800F550250A06
:10115000D8A4ADEF08F0AFEF08F0C6EF08F045C037
:10116000D9FF46C0DAFFDE2A000EDD22000E026E35
:10117000250E016E43C003F044C004F0EFEC08F00C
:10118000000E446E010E436EEEEF08F045C0D9FF2D
:1011900046C0DAFFDE2A000EDD22000E446E000E8D
:1011A000436EEEEF08F045C0D9FF46C0DAFFDECF50
:1011B000F6FFDDCFF7FF0800F550016E026A43C06D
:1011C00003F044C004F0EFEC08F045C0D9FF46C07E
:1011D000DAFFDE2A000EDD22C0EF08F01200035015
:1011E0000410D8B4F6EF08F0F8EF08F001EF09F0BA
:1011F00003500410D8A4FFEF08F001EF09F006EF48
:1012000009F0015028EC0CF053EF09F020EE04F047
:101210000350D9260450DA22DE50DE10D8B413EF82
:1012200009F015EF09F030EF09F020EE04F003505B
:10123000D9260450DA2210EE02F00350E1260450C1
:10124000E222DE50E65CE650800A096EDE50800A3B
:101250000958D8B02EEF09F030EF09F053EF09F03C
:1012600020EE02F00350D9260450DA22DECF05F03A
:10127000DDCF06F003C0D9FF04C0DAFFDECF07F0F0
:10128000DDCF08F005500724D96E06500820DA6E2D
:1012900001C0DFFF20EE02F00350D9260450DA220D
:1012A000DE2A000EDD2212000001A9A15AEF09F08A
:1012B0005CEF09F066EF09F013C00AF014C00BF000
:1012C00011C00CF012C00DF0F8EC0AF016BE6BEF76
:1012D00009F06DEF09F073EF09F015C01AF016C0B0
:1012E0001BF077EF09F0000E1B6E000E1A6E000E59
:1012F000196E000E186E89EF09F0000E026E200EB6
:10130000016E11C003F012C004F0EFEC08F0184AAF
:10131000192A1A50185C1950800A176E1B50800A3F
:101320001758D8A096EF09F098EF09F07DEF09F073
:101330000001A9B19EEF09F0A0EF09F0AAEF09F0B2
:1013400013C00AF014C00BF011C00CF012C00DF065
:10135000F8EC0AF013C001F014C002F0B3EC0BF08B
:101360001A500124116E1B500220126E12000B6ED7
:1013700020EC0CF00B5016EC0CF0045016EC0CF0BA
:1013800024EC0CF00B50010916EC0CF0000E0001DF
:10139000B06F000EAF6FF6EF09F0010EAF25096ECA
:1013A000000EB0210A6E0750091807E108500A180C
:1013B000D8A4DDEF09F0DFEF09F0E9EF09F0010E45
:1013C000CEEC0BF005C0D9FF06C0DAFFDF6EF1EFFF
:1013D00009F0000ECEEC0BF005C0D9FF06C0DAFF15
:1013E000DF6E054A062A0001AF4BB02B0750AF5DF8
:1013F000B051800A096E0850800A0958D8A003EF3E
:101400000AF005EF0AF0CDEF09F01CEC0CF00B0E22
:101410000A6E260E096E5E0EE82EFED7092EFCD748
:101420000A2EFAD712000A6E20EC0CF00A5016ECC5
:101430000CF0035016EC0CF0000E0001B06F000E23
:10144000AF6F2FEF0AF004C0D9FF05C0DAFFDF50FD
:1014500016EC0CF0044A052A0001AF4BB02B0650E5
:10146000AF5DB051800A086E0750800A0858D8A0B6
:101470003CEF0AF03EEF0AF023EF0AF01CEC0CF010
:101480000B0E096E260E086E5E0EE82EFED7082E95
:10149000FCD7092EFAD7120058C05CF059C05DF095
:1014A000000E0001A46F000EA36F6AEF0AF056C091
:1014B00043F057C044F05C0E456E000E466E5AC0B5
:1014C00047F05BC048F007EC08F043500001A32749
:1014D0004450A4235CC0F6FF5DC0F7FF0800F55040
:1014E0000009D8A476EF0AF078EF0AF057EF0AF077
:1014F000A3C056F0A4C057F012009F0E096EFF0E55
:101500000A6E07C00BF008C00CF009500B260A50F9
:101510000C220C500AE11A0E0B5CD8A092EF0AF0D4
:1015200095EF0AF0010E96EF0AF0000E0D6E0E6AAE
:101530000D500E10D8B49FEF0AF0A1EF0AF0A7EFFC
:101540000AF05F0E0714076E086AABEF0AF007C0D7
:1015500007F008C008F01200E40E0001EC6F000E66
:10156000ED6FE0C0EEF0E1C0EFF0000EF16F000EA5
:10157000F06F000EF36F000EF26FEE0E566E000E5F
:10158000576EE2C058F0E3C059F0EC0E5A6E000EF0
:101590005B6E4CEC0AF00001F051E025D96EF15180
:1015A000E121DA6E000EDF6E1200720ED36E0F0EA6
:1015B000C16E93809382800EC76E280EC66E000E99
:1015C000C56E310EC86E000E956E000E8C6E000E4C
:1015D000966E000E8D6E060E0AEC0CF00F0E0AECE5
:1015E0000CF0380E0AEC0CF0010E0AEC0CF01200B4
:1015F000000E106E000E0F6E09EF0BF00EC001F022
:10160000026A0CC003F00DC004F0EFEC08F00F4AC2
:10161000102A0F500A24D96E10500B20DA6EDF50BA
:101620000E6E0E50D8A417EF0BF019EF0BF0FEEF73
:101630000AF01200534D545774467344616E696545
:101640006C050653617400004672690000546875A9
:101650000000576564000054756500004D6F6E0012
:101660000053756E0000414D000000504D00000019
:07167000012002175059711F
:10167800340EF66E160EF76E000EF86E00EE60F081
:1016880010EE43F00900F5CFEEFFE550E150FAE126
:1016980001EE00F0340EEE6AE806FDE100EEA3F07C
:1016A8003D0EEE6AE806FDE1000EF86E00010EEF51
:1016B80004F09F0E036EFF0E046E200E0110056EDF
:1016C800000E0210066E035005260450062206502E
:1016D8000AE11A0E055CD8A074EF0BF077EF0BF057
:1016E800010E78EF0BF0000E016E026A12009F0ED9
:1016F800036EFF0E046E01C005F002C006F0035031
:1017080005260450062206500AE11A0E055CD8A0E8
:1017180090EF0BF093EF0BF0010E94EF0BF0000E2F
:10172800016E026A1200BF0E036EFF0E046E01C046
:1017380005F002C006F003500526045006220650A4
:101748000AE11A0E055CD8A0ACEF0BF0AFEF0BF076
:10175800010EB0EF0BF0000E016E026A120001C01C
:1017680003F002C004F0BBEF0BF0014A022A01C0EB
:10177800D9FF02C0DAFFDF50D8A4C5EF0BF0C7EFDE
:101788000BF0B9EF0BF00350015C016E04500258E6
:10179800026E1200026EE5EC0BF0C586E5EC0BF06C
:1017A800C9CF03F0E5EC0BF00204D8B4DEEF0BF080
:1017B800E1EF0BF0C58AE2EF0BF0C59AC58803503C
:1017C8001200C5CF01F01F0E0116D8A4EEEF0BF0E2
:1017D800F0EF0BF0E5EF0BF0C7B4F5EF0BF0F7EF18
:1017E8000BF0E5EF0BF01200016E8D80420EE82E33
:1017F800FED700D001C08CFF420EE82EFED700D0E5
:101808008D90420EE82EFED700D01200026E8D9207
:101818000250F8EC0BF01200026E8D820250F8ECC8
:101828000BF01200026EE5EC0BF002C0C9FF1200CB
:10183800E5EC0BF0C5841200E5EC0BF0C580120056
:0A184800E5EC0BF0C582120012005F
:020000040020DA
:08000000FFFFFFFFFFFFFFFF00
:020000040030CA
:0E000000000B1F1EFF8381FF0FC00FE00F409B
:00000001FF
