:040000001DEF00F000
:100008001682D9CF07F0DACF08F0F0A20EEF00F091
:1000180010EF00F017EF00F0FFEC00F032EC01F009
:100028005BEC01F0F09208C0DAFF07C0D9FF169226
:100038001100BFEF01F00A6E0AC009F0010E09169F
:100048008C500918FE0B09188C6E1A0E096EF80EE2
:10005800E82EFED7092EFCD700F000F00AC009F000
:10006800D8900932010E091609468C500918FD0B63
:1000780009188C6E1A0E096EF80EE82EFED7092E96
:10008800FCD700F000F00AC009F0D8900932D890E7
:100098000932010E0916094609468C500918FB0B4E
:1000A80009188C6E1A0E096EF80EE82EFED7092E66
:1000B800FCD700F000F00AC009F0D8900932D890B7
:1000C8000932D8900932010E09160946094609462F
:1000D8008C500918F70B09188C6E1A0E096EF80E59
:1000E800E82EFED7092EFCD700F000F08D801A0EFE
:1000F800096EF80EE82EFED7092EFCD700F000F0A6
:100108008D901A0E096EF80EE82EFED7092EFCD730
:1001180000F000F01200026E02C001F0010E01169C
:100128008C500118FE0B01188C6E1A0E016EF80E19
:10013800E82EFED7012EFCD700F000F002C001F037
:10014800D8900132010E011601468C500118FD0BA2
:1001580001188C6E1A0E016EF80EE82EFED7012ECD
:10016800FCD700F000F002C001F0D8900132D8901E
:100178000132010E0116014601468C500118FB0B95
:1001880001188C6E1A0E016EF80EE82EFED7012E9D
:10019800FCD700F000F002C001F0D8900132D890EE
:1001A8000132D8900132010E01160146014601467E
:1001B8008C500118F70B01188C6E1A0E016EF80E90
:1001C800E82EFED7012EFCD700F000F08D801A0E25
:1001D800016EF80EE82EFED7012EFCD700F000F0D5
:1001E8008D901A0E016EF80EE82EFED7012EFCD760
:1001F80000F000F01200840EECEC01F0000E156E19
:10020800000E146E20EF01F00C0E1424D96E000EAF
:100218001520DA6EDF50E1EC01F0020E066E040ED6
:10022800056EBA0EE82EFED7052EFCD7062EFAD795
:1002380000F000F0144A152A0C0E016E000E026E32
:10024800A4EC01F01450015C15500258D8B02FEFFF
:1002580001F031EF01F008EF01F01200000E156E09
:10026800000E146E15BE42EF01F0155009E1040EA0
:10027800145CD8A042EF01F044EF01F046EF01F022
:100288005AEF01F01C0EECEC01F0020E056E040EA4
:10029800046EBA0EE82EFED7042EFCD7052EFAD728
:1002A80000F000F0144A152A36EF01F01200000E93
:1002B800156E000E146E15BE6BEF01F0155009E1B6
:1002C800040E145CD8A06BEF01F06DEF01F06FEF36
:1002D80001F083EF01F0180EECEC01F0020E056E50
:1002E800040E046EBA0EE82EFED7042EFCD7052E97
:1002F800FAD700F000F0144A152A5FEF01F0120057
:10030800720ED36E0F0EC16E000E956E000E966EB5
:10031800000E8C6E000E8D6E020ED6EC01F0060EED
:10032800D6EC01F00F0ED6EC01F0280ED6EC01F059
:10033800010ED6EC01F0F28EF088F092F1981200DE
:1003480001C003F002C004F0ACEF01F0034A042A34
:1003580003C0D9FF04C0DAFFDF50D8A4B6EF01F01C
:10036800B8EF01F0AAEF01F00150035C016E0250F2
:100378000458026E1200FA0EF66E030EF76E000EA7
:10038800F86E00EE0CF010EE08F00900F5CFEEFF65
:10039800E550E150FAE1156A146A169016920001C8
:1003A800F7EF01F00B6E8D920B380F0B1FEC00F07E
:1003B8000B500F0B1FEC00F01200036E8D820338F8
:1003C8000F0B8FEC00F003500F0B8FEC00F01200B6
:1003D800036E8D9203380F0B8FEC00F003500F0B58
:1003E8008FEC00F0120084EC01F0F9EF01F01DEF42
:0A03F80000F046414249414E2D42FB
:020000040020DA
:08000000FFFFFFFFFFFFFFFF00
:020000040030CA
:0E000000000B1F1EFF8281FF034003600340C0
:00000001FF
