:020000040000FA
:0400000007EF00F016
:0A0008004C82F1ED12F09DEF15F0AF
:100800000001000A006400E803102720456C206303
:100810006172616374657220726563696269646F95
:10082000206675653A20256300616E67756C6F20E0
:1008300061746F69202564200A00616E67756C6FB2
:10084000207A202563200A0020416E67756C6F3A7C
:10085000202564200A0020536572766F3A202564B3
:10086000200A004461746F3A202563005365747454
:10087000696E677300000001AF51800BB86FAF5114
:10088000AF25BA6FAEAF47EF04F049EF04F04AEF7F
:1008900004F0BA81BA51D8B450EF04F052EF04F02A
:1008A00067EF04F0BA29D8A458EF04F05AEF04F027
:1008B00062EF04F0000EAC6F000EAD6F000EAE6F75
:1008C000000EAF6FAE8F000EAF6F6FEF04F0000E33
:1008D000AC6F000EAD6F000EAE6F000EAF6FB35178
:1008E000800BB96FB851B919D8B479EF04F07BEF28
:1008F00004F07CEF04F0B88DB351B325B96FB2AFFB
:1009000084EF04F086EF04F087EF04F0B981B95169
:10091000D8B48DEF04F08FEF04F0A4EF04F0B92900
:10092000D8A495EF04F097EF04F09FEF04F0000EC9
:10093000B06F000EB16F000EB26F000EB36FB28FCA
:10094000000EB36FACEF04F0000EB06F000EB16F8D
:10095000000EB26F000EB36FBA51B95DD8B0B3EFED
:1009600004F0B5EF04F0DCEF04F0B8ADBAEF04F03A
:10097000BCEF04F0BEEF04F0800EB81BBAC0BBF0B1
:10098000B9C0BAF0BBC0B9F0ACC0BBF0B0C0ACF0FD
:10099000BBC0B0F0ADC0BBF0B1C0ADF0BBC0B1F0FA
:1009A000AEC0BBF0B2C0AEF0BBC0B2F0AFC0BBF0E7
:1009B000B3C0AFF0BBC0B3F0000EBB6FBA51B9C04B
:1009C000B4F0B56BB45F000EB55BB5BFF1EF04F0EA
:1009D000B55109E11A0EB45DD8A0F1EF04F0F3EFC0
:1009E00004F02AEF05F0AC51AD11AE11AF11D8A44F
:1009F000FCEF04F0FFEF04F0010E00EF05F0000E35
:100A0000BB6F000EAC6F000EAD6F000EAE6F000E30
:100A1000AF6FB9C0BAF033EF05F0BBA112EF05F02C
:100A200014EF05F01AEF05F0D890BB310109BB6F48
:100A30001CEF05F0D890BB33ACA121EF05F023EFFC
:100A400005F024EF05F0BB8FAF35AF33AE33AD33D8
:100A5000AC33BA2BB951BA5DD8A031EF05F033EF02
:100A600005F00DEF05F0B8BD38EF05F03AEF05F0F1
:100A70007AEF05F0BA51D8A440EF05F042EF05F047
:100A80004CEF05F0000EAC6F000EAD6F000EAE6FB8
:100A9000000EAF6F9BEF06F0B051AC27B151AD2304
:100AA000B251AE23B351AF23AFA159EF05F05BEFC5
:100AB00005F007EF06F0BBA160EF05F062EF05F06F
:100AC00068EF05F0D890BB310109BB6F6AEF05F004
:100AD000D890BB33ACA16FEF05F071EF05F072EF6A
:100AE00005F0BB8FAF35AF33AE33AD33AC33BA2B7C
:100AF00007EF06F0B051AC5DB151AD59B251AE59EE
:100B0000AF51800AB46FB351800AB459D8B08BEF9B
:100B100005F08DEF05F0B8EF05F0AC51B05DB46FA6
:100B2000AD51B159B56FAE51B259B66FAF51B3595E
:100B3000B76FFF0EB425AC6FFF0EB521AD6FFF0E82
:100B4000B621AE6FFF0EB721AF6F800EB81BBB6D25
:100B5000BB51D8A4AEEF05F0B0EF05F0C0EF05F043
:100B6000010EAC27000EAD23AE23AF23C0EF05F07E
:100B7000B051AC5FB151AD5BB251AE5BB351AF5B45
:100B8000AC51AD11AE11AF11D8A4C9EF05F0CBEF48
:100B900005F000EF06F0BB51D8A4D1EF05F0D3EF7C
:100BA00005F000EF06F0000EAC6F000EAD6F000E0A
:100BB000AE6F000EAF6F9BEF06F0D890AC37AD373D
:100BC000AE37AF37BBAFE7EF05F0E9EF05F0EAEF7F
:100BD00005F0AC81BBA1EFEF05F0F1EF05F0F5EF0B
:100BE00005F0D880BB37F7EF05F0D890BB37BA5186
:100BF000D8B4FDEF05F0FFEF05F000EF06F0BA07FF
:100C0000AEAF05EF06F007EF06F0DDEF05F0000EE2
:100C1000B96FBBAF0EEF06F010EF06F028EF06F04D
:100C2000BBC0B4F07F0EB417D8B419EF06F01BEFB9
:100C300006F01FEF06F0010EB96F28EF06F0ACA129
:100C400024EF06F026EF06F028EF06F01BEF06F083
:100C5000B951D8B42EEF06F030EF06F05BEF06F096
:100C6000010EAC27000EAD23AE23AF23AFA13BEFA7
:100C700006F03DEF06F05BEF06F0ACC0B4F0ADC09F
:100C8000B5F0AEC0B6F0AFC0B7F0B735B733B633D6
:100C9000B533B433B4C0ACF0B5C0ADF0B6C0AEF04F
:100CA000B7C0AFF0BA29D8B458EF06F05AEF06F043
:100CB0005BEF06F0BA2BBA29D8B461EF06F063EF08
:100CC00006F06BEF06F0BA51D8A469EF06F06BEFAF
:100CD00006F07DEF06F0000EAC6F000EAD6F000E5B
:100CE000AE6F000EAF6FBA51D8A479EF06F07BEF6C
:100CF00006F07DEF06F0000EB86FBAA182EF06F0A5
:100D000084EF06F087EF06F0AE8F88EF06F0AE9F17
:100D1000D890BA31AF6FB8AF90EF06F092EF06F00F
:100D200093EF06F0AF8FACC0ACF0ADC0ADF0AEC08D
:100D3000AEF0AFC0AFF01200730E3C18D8A4A3EF12
:100D400006F0A5EF06F0A9EF06F0000E3D6EC1EF2C
:100D500006F0610E3C18D8A4B0EF06F0B2EF06F032
:100D6000B6EF06F0010E3D6EC1EF06F0700E3C18B6
:100D7000D8A4BDEF06F0BFEF06F0C1EF06F0030EFA
:100D80003D6E3D50D8A4C7EF06F0C9EF06F057EF0F
:100D900007F0300E3C18D8A4D0EF06F0D2EF06F0E2
:100DA000D8EF06F0000E4B6E000E4A6EDDEF08F035
:100DB000310E3C18D8A4DFEF06F0E1EF06F0E7EFC4
:100DC00006F0000E4B6E010E4A6EDDEF08F0320E9B
:100DD0003C18D8A4EEEF06F0F0EF06F0F6EF06F0C0
:100DE000000E4B6E020E4A6EDDEF08F0330E3C181B
:100DF000D8A4FDEF06F0FFEF06F005EF07F0000EB8
:100E00004B6E030E4A6EDDEF08F0340E3C18D8A48A
:100E10000CEF07F00EEF07F014EF07F0000E4B6E2B
:100E2000040E4A6EDDEF08F0350E3C18D8A41BEF17
:100E300007F01DEF07F023EF07F0000E4B6E050ED5
:100E40004A6EDDEF08F00D0E3C18D8B42AEF07F01B
:100E50002CEF07F035EF07F00A0E3C18D8A433EF5B
:100E600007F035EF07F055EF07F0000E1C6E000E8F
:100E70001B6E000E1E6E000E1D6EEDEC11F0000ECE
:100E80001C6E000E1B6E000E1E6E5A0E1D6EEDECDB
:100E900011F0000E1C6E000E1B6E000E1E6EB40EC6
:100EA0001D6EEDEC11F0DDEF08F0DDEF08F03D0414
:100EB000D8A45DEF07F05FEF07F063EF07F0020ED5
:100EC0003D6EDDEF08F0020E3D18D8A46AEF07F082
:100ED0006CEF07F01FEF08F0470E3424D96E000EB8
:100EE0003520DA6E3CC0DFFF6E0E0D6E000E0E6E0A
:100EF0003A0E0F6E080E106E470E3424D96E000E97
:100F00003520DA6EDF50216E2150116E126AF1EC3D
:100F10000DF00CEC15F0344A352A030E3418351058
:100F2000D8A495EF07F097EF07F0DDEF08F0000E7B
:100F3000356E000E346E470E0F6E000E106ED3EC41
:100F40000EF00FC032F010C033F06E0E0D6E000EBA
:100F50000E6E290E0F6E080E106E32C011F033C0E7
:100F600012F0F1EC0DF00CEC15F04A504B10D8A437
:100F7000BCEF07F0BEEF07F0C4EF07F032C060F03F
:100F800033C061F013EF08F04A044B10D8A4CBEF44
:100F900007F0CDEF07F0D3EF07F032C062F033C0B7
:100FA00063F013EF08F0020E4A184B10D8A4DBEFE1
:100FB00007F0DDEF07F0E3EF07F032C064F033C075
:100FC00065F013EF08F0030E4A184B10D8A4EBEFAE
:100FD00007F0EDEF07F0F3EF07F032C066F033C033
:100FE00067F013EF08F0040E4A184B10D8A4FBEF7B
:100FF00007F0FDEF07F003EF08F032C068F033C0F0
:1010000069F013EF08F0050E4A184B10D8A40BEF47
:1010100008F00DEF08F013EF08F032C06AF033C0AB
:101020006BF013EF08F04AC01BF04BC01CF032C04D
:101030001DF033C01EF0EDEC11F0DDEF08F0030EF3
:101040003D18D8A426EF08F028EF08F02CEF08F0A0
:10105000040E3D6EDDEF08F0040E3D18D8A433EF0A
:1010600008F035EF08F0DDEF08F031BE43EF08F08F
:10107000315007E1030E305CD8B041EF08F043EF88
:1010800008F063EF08F0304A312A440E3024D96E5C
:10109000000E3120DA6E3CC0DFFF020E3018311036
:1010A000D8A455EF08F057EF08F0DDEF08F0440E34
:1010B0000F6E000E106ED3EC0EF00FC02CF010C0AF
:1010C0002DF0DDEF08F031BE6FEF08F0315009E18F
:1010D000030E305CD8A06FEF08F071EF08F09FEFBF
:1010E00008F031BE7FEF08F0315007E1060E305CAA
:1010F000D8B07DEF08F07FEF08F09FEF08F0304A9E
:10110000312A410E3024D96E000E3120DA6E3CC0F7
:10111000DFFF020E30183110D8A491EF08F093EFE2
:1011200008F055EF07F0410E0F6E000E106ED3EC75
:101130000EF00FC02EF010C02FF0DDEF08F031BE22
:10114000ABEF08F0315009E1060E305CD8A0ABEFF0
:1011500008F0ADEF08F055EF07F031BEBBEF08F037
:10116000315007E1090E305CD8B0B9EF08F0BBEFA1
:1011700008F055EF07F0304A312A3E0E3024D96E80
:10118000000E3120DA6E3CC0DFFF020E3018311045
:10119000D8A4CDEF08F0CFEF08F0D9EF08F03E0E5D
:1011A0000F6E000E106ED3EC0EF00FC02AF010C0C0
:1011B0002BF0000E316E000E306E12000001AF51A8
:1011C000800BBC6FAF51AF25C36FAEAFEAEF08F035
:1011D000ECEF08F0EDEF08F0C381C351D8B4F3EFA2
:1011E00008F0F5EF08F00AEF09F0C329D8A4FBEFE7
:1011F00008F0FDEF08F005EF09F0000EAC6F000EEF
:10120000AD6F000EAE6F000EAF6FAE8F000EAF6F02
:1012100012EF09F0000EAC6F000EAD6F000EAE6F56
:10122000000EAF6FB351800BBC1BB351B325C46F1D
:10123000B2AF1DEF09F01FEF09F020EF09F0C481F4
:10124000C451D8B426EF09F028EF09F03DEF09F0BA
:10125000C429D8A42EEF09F030EF09F038EF09F0D7
:10126000000EB06F000EB16F000EB26F000EB36FC4
:10127000B28F000EB36F45EF09F0000EB06F000E95
:10128000B16F000EB26F000EB36FB051B111B21159
:10129000B311D8A44EEF09F050EF09F068EF09F050
:1012A000000EAC6F000EAD6F000EAE6F000EAF6F94
:1012B000800EAE137F0EAF13BC51AF13ACC0ACF0B9
:1012C000ADC0ADF0AEC0AEF0AFC0AFF0ABEF0AF066
:1012D000C351D8A46EEF09F070EF09F07AEF09F06E
:1012E000000EAC6F000EAD6F000EAE6F000EAF6F54
:1012F000ABEF0AF0C451C3C0B4F0B56BB45F000EDD
:10130000B55B7F0EB425BD6F000EB521BE6FACC0BE
:10131000B8F0ADC0B9F0AEC0BAF0AFC0BBF0000ECF
:10132000AC6F000EAD6F000EAE6F000EAF6F000E13
:10133000BF6F000EC06F000EC16F000EC26F000EB7
:10134000C46FDBEF09F0C451D8B4A9EF09F0ABEFDB
:1013500009F0C2EF09F0D890B837B937BA37BB37C0
:10136000D890AC37AD37AE37AF37C2AFBAEF09F070
:10137000BCEF09F0BDEF09F0AC81D890BF37C037A2
:10138000C137C237B051B85DB151B959B251BA592C
:10139000B351BB59D8A0CFEF09F0D1EF09F0DAEF84
:1013A00009F0C28DB051B85FB151B95BB251BA5BAF
:1013B000B351BB5BC42B190EC465E1EF09F0E3EF39
:1013C00009F0A3EF09F0B851B911BA11BB11D8B4A3
:1013D000ECEF09F0EEEF09F006EF0AF0BF8106EF3F
:1013E0000AF0D890AC37AD37AE37AF37C2AFFBEFAE
:1013F00009F0FDEF09F0FEEF09F0AC81D890BF379E
:10140000C037C137C237BD07D8A0BE07AEAF0BEF9C
:101410000AF00DEF0AF0F1EF09F0000EC46FC2AF51
:1014200014EF0AF016EF0AF03AEF0AF0FF0EBF15BC
:10143000B46FFF0EC015B56FFF0EC115B66F7F0EEE
:10144000C215B76FB451B511B611B711D8B42BEF9F
:101450000AF02DEF0AF031EF0AF0010EC46F3AEFF7
:101460000AF0ACA136EF0AF038EF0AF03AEF0AF0D2
:101470002DEF0AF0C451D8B440EF0AF042EF0AF061
:1014800066EF0AF0010EAC27000EAD23AE23AF23AA
:10149000AFA14DEF0AF04FEF0AF066EF0AF0ACC0D3
:1014A000B4F0ADC0B5F0AEC0B6F0AFC0B7F0B73570
:1014B000B733B633B533B433B4C0ACF0B5C0ADF068
:1014C000B6C0AEF0B7C0AFF0BD4BBE2BBEBF71EF24
:1014D0000AF0BE5108E1BD29D8A071EF0AF073EF00
:1014E0000AF07EEF0AF0000EBE6FBD69000EAC6F11
:1014F000000EAD6F000EAE6F000EAF6FBEBF8BEF74
:101500000AF0BE5106E1BD05D8B089EF0AF08BEFB5
:101510000AF099EF0AF0000EBE6F000EBD6F000ECC
:10152000AC6F000EAD6F000EAE6F000EAF6F000E11
:10153000BC6FBDC0C3F0C3A1A0EF0AF0A2EF0AF0D8
:10154000A5EF0AF0AE8FA6EF0AF0AE9FD890C33198
:10155000AF6F5CEF09F01200C5C0ACF0C6C0ADF0D3
:10156000C7C0AEF0C8C0AFF0000E0001B06F000EF3
:10157000B16F800EB26F3F0EB36FE3EC0FF000015E
:10158000D8B0C5EF0AF0C7EF0AF0CFEF0AF0000EAF
:10159000C56F000EC66F800EC76F3F0EC86F000E7E
:1015A000AC6FC00EAD6F5A0EAE6F450EAF6FC5C0BB
:1015B000B0F0C6C0B1F0C7C0B2F0C8C0B3F0E3EC41
:1015C0000FF00001D8B0E7EF0AF0E9EF0AF0F1EF11
:1015D0000AF0000EC56FC00EC66F5A0EC76F450EDB
:1015E000C86FBC0ECC6FEF0ECD6FC60ECE6F4B0E1C
:1015F000CF6FCCC0ACF0CDC0ADF0CEC0AEF0CFC0A0
:10160000AFF0C5C0B0F0C6C0B1F0C7C0B2F0C8C03E
:10161000B3F0DEEC08F0ACC0CCF0ADC0CDF0AEC0A5
:10162000CEF0AFC0CFF0CCC0ACF0CDC0ADF0CEC0EE
:10163000AEF0CFC0AFF0000E0001B06F000EB16F82
:10164000000EB26F450EB36F3BEC04F0ACC0CCF0B3
:10165000ADC0CDF0AEC0CEF0AFC0CFF0CCC0ACF0DE
:10166000CDC0ADF0CEC0AEF0CFC0AFF0000E0001E7
:10167000B06F000EB16F800EB26F450EB36FDEEC2F
:1016800008F0ACC0CCF0ADC0CDF0AEC0CEF0AFC075
:10169000CFF0CCC0BCF0CDC0BDF0CEC0BEF0CFC04E
:1016A000BFF0000E0001C06F000EC16F800EC26F50
:1016B0003F0EC36F35EC15F0BCC0CCF0BDC0CDF013
:1016C000BEC0CEF0BFC0CFF0CCC0ACF0CDC0ADF04E
:1016D000CEC0AEF0CFC0AFF0000E0001B06F000E74
:1016E000B16F400EB26F400EB36FE3EC0FF000012C
:1016F000D8B07DEF0BF07FEF0BF087EF0BF0000E13
:10170000CC6F000ECD6F400ECE6F400ECF6F000E2F
:10171000AC6F000EAD6F7F0EAE6F430EAF6FCCC0DF
:10172000B0F0CDC0B1F0CEC0B2F0CFC0B3F0E3ECBA
:101730000FF00001D8B09FEF0BF0A1EF0BF0A9EF75
:101740000BF0000ECC6F000ECD6F7F0ECE6F430EF0
:10175000CF6FCCC0ACF0CDC0ADF0CEC0AEF0CFC03E
:10176000AFF05FEC0FF00001AC51CA6F000EAF6F2D
:10177000AB0EB06F000EB16F000EB36F010EB26F03
:10178000800EC9EC10F00001AB517F0B1009CB6F3C
:10179000000EAE6FCB0EAF6F000EB06F000EB26FCB
:1017A000010EB16F800E3DEC13F0FE0E0001AE6F26
:1017B000CA0EAF6F000EB06F000EB26F010EB16FA8
:1017C000800E3DEC13F0000E0001AE6FAB0EAF6F5C
:1017D000000EB06F000EB26F010EB16F800E3DECC7
:1017E00013F00D0E0001C96FFB0EE82EFED7C92FB6
:1017F000FCD700D00001AB51A009AA6F000EAE6F5C
:10180000AA0EAF6F000EB06F000EB26F010EB16F77
:10181000800E3DEC13F01200720ED36E0F0EC16EEF
:10182000938E939C720ED36E0F0EC16E000E956E4A
:10183000000E966E000E8C6E000E8D6E938093825D
:10184000800EC76E280EC66E000EC56E130EC86ED3
:10185000949C948E0C0EAF6E900EAB6E200EAC6E00
:10186000000E0001AE6F800EAF6F000EB06F000E65
:10187000B26F010EB16F800E3DEC13F01A0E000135
:10188000D06FF80EE82EFED7D02FFCD700F0000E58
:101890000001C56F000EC66F7A0EC76F440EC86F89
:1018A000ACEC0AF0000E0001C56F000EC66F480ECA
:1018B000C76F420EC86FACEC0AF0040E0001D16F86
:1018C0000C0ED06F330EE82EFED7D02FFCD7D12FC1
:1018D000FAD700D0020E85EC16F0060E85EC16F055
:1018E0000F0E85EC16F0280E85EC16F0010E85EC37
:1018F00016F0F28EF28C9D8A9E9A6E0E0001B86FE1
:10190000000EB96F6C0EBA6F080EBB6F0CEC0DF0C9
:10191000960E0001B86F000EB96F6C0EBA6F080E0C
:10192000BB6F0CEC0DF0B8EC14F08DEC14F0818C66
:101930000B0E0001D16F260ED06F5D0EE82EFED784
:10194000D02FFCD7D12FFAD700D0819C000E0001F8
:10195000C76F000EC66F000EC96F5A0EC86F8DECB0
:1019600011F0000E0001C76F010EC66F000EC96FA7
:101970005A0EC86F8DEC11F0000E0001C76F020EF9
:10198000C66F000EC96F5A0EC86F8DEC11F0000EB5
:101990000001C76F030EC66F000EC96F5A0EC86FE5
:1019A0008DEC11F00B0E0001D16F260ED06F5D0E85
:1019B000E82EFED7D02FFCD7D12FFAD700D0000EBB
:1019C0000001C76F000EC66F000EC96F000EC86F12
:1019D0008DEC11F0000E0001C76F010EC66F000EF6
:1019E000C96F000EC86F8DEC11F0000E0001C76FBB
:1019F000020EC66F000EC96F000EC86F8DEC11F09D
:101A0000000E0001C76F030EC66F000EC96F000EF7
:101A1000C86F8DEC11F01200BC0E0001C16F000EFA
:101A2000C26FD9EF0DF0250EC519D8B41AEF0DF01D
:101A30001CEF0DF026EF0DF0B8C0D9FFB9C0DAFFEA
:101A4000C5C0DFFFB84BB92BD9EF0DF0000EBF6F4B
:101A500036EF0DF0C1C0D9FFC2C0DAFFDF50C56F4D
:101A6000020EC127000EC2231CEF0DF0BAC0F6FF14
:101A7000BBC0F7FFBA4BBB2B0800F5CFC5F0C55173
:101A8000000AD8B4EAEF0DF0630AD8B42AEF0DF0DB
:101A9000070AD8B452EF0DF00D0AD8B452EF0DF08A
:101AA0001CEF0DF0C1C0D9FFC2C0DAFFDECFC3F01A
:101AB000DDCFC4F0020EC127000EC223C4BF65EF04
:101AC0000DF063EF0DF06BEF0DF0030EBF13C36D60
:101AD000C41FD8B0C42B010EC56FC551020D010E35
:101AE000F324F66E080EF420F76E0900F550C35D7E
:101AF0000900F550C459D8B080EF0DF082EF0DF019
:101B000084EF0DF08EEF0DF0C52B050EC519D8A48E
:101B10008CEF0DF08EEF0DF06DEF0DF0BFC0BEF04D
:101B2000030EBE17D8B497EF0DF099EF0DF0A1EFAB
:101B30000DF0B8C0D9FFB9C0DAFF2D0EDF6EB84B7B
:101B4000B92BC5C0C0F0D0EF0DF0C051020D010E91
:101B5000F324F66E080EF420F76E0900F5CFAEF010
:101B60000A00F5CFAFF0C3C0ACF0C4C0ADF07BEC61
:101B700013F0ACC0B3F0ADC0B4F0000E0001B66F0E
:101B80000A0EB56F28EC14F00001B351300FC56F89
:101B9000B8C0D9FFB9C0DAFFC5C0DFFFB84BB92B59
:101BA000C007C029D8A4D7EF0DF0D9EF0DF0A5EFED
:101BB0000DF0BAC0F6FFBBC0F7FFBA4BBB2B080055
:101BC000F5CFC5F0C551D8A4E8EF0DF0EAEF0DF060
:101BD00013EF0DF0B8C0D9FFB9C0DAFF000EDF6E09
:101BE0001200110E166E000E176EBBEF0EF0250ED2
:101BF0001A18D8B4FEEF0DF000EF0EF00AEF0EF059
:101C00000DC0D9FF0EC0DAFF1AC0DFFF0D4A0E2A41
:101C1000BBEF0EF0000E146E1AEF0EF016C0D9FFD7
:101C200017C0DAFFDF501A6E020E1626000E1722BA
:101C300000EF0EF00FC0F6FF10C0F7FF0F4A102A9A
:101C40000800F5CF1AF01A50000AD8B4CCEF0EF005
:101C5000630AD8B40EEF0EF0070AD8B436EF0EF0D0
:101C60000D0AD8B436EF0EF000EF0EF016C0D9FF13
:101C700017C0DAFFDECF18F0DDCF19F0020E1626FE
:101C8000000E172219BE49EF0EF047EF0EF04FEF8E
:101C90000EF0030E1412186C191ED8B0192A010E7A
:101CA0001A6E1A50020D010EF324F66E080EF4207F
:101CB000F76E0900F550185C0900F5501958D8B0B6
:101CC00064EF0EF066EF0EF068EF0EF072EF0EF0BC
:101CD0001A2A050E1A18D8A470EF0EF072EF0EF043
:101CE00051EF0EF014C013F0030E1316D8B47BEFAF
:101CF0000EF07DEF0EF085EF0EF00DC0D9FF0EC097
:101D0000DAFF2D0EDF6E0D4A0E2A1AC015F0B2EF63
:101D10000EF01550020D010EF324F66E080EF4209D
:101D2000F76E0900F5CF03F00A00F5CF04F018C0F4
:101D300001F019C002F0B6EC13F001C008F002C0C7
:101D400009F0000E0B6E0A0E0A6E5BEC14F00850E0
:101D5000300F1A6E0DC0D9FF0EC0DAFF1AC0DFFFB8
:101D60000D4A0E2A15061528D8A4B9EF0EF0BBEFC0
:101D70000EF089EF0EF00FC0F6FF10C0F7FF0F4A0C
:101D8000102A0800F5CF1AF01A50D8A4CAEF0EF0A6
:101D9000CCEF0EF0F7EF0DF00DC0D9FF0EC0DAFF5B
:101DA000000EDF6E1200D7EF0EF00F4A102A0FC0A0
:101DB000D9FF10C0DAFF200EDE18D8B4E2EF0EF023
:101DC000E4EF0EF0D5EF0EF00FC0D9FF10C0DAFF30
:101DD000090EDE18D8B4EFEF0EF0F1EF0EF0D5EFEC
:101DE0000EF0000E156E000E146E000E136E0FC076
:101DF000D9FF10C0DAFF2D0EDE18D8A402EF0FF0C5
:101E000004EF0FF009EF0FF0132A0F4A102A36EFF4
:101E10000FF00FC0D9FF10C0DAFF2B0EDE18D8A4C8
:101E200014EF0FF016EF0FF036EF0FF00F4A102AF5
:101E300036EF0FF014C009F015C00AF0000E0C6E5A
:101E40000A0E0B6E64EC16F00FC0D9FF10C0DAFF5B
:101E5000DF50116E11500926000E0A22D00E0924FF
:101E6000146EFF0E0A20156E16EF0FF00FC0D9FF8B
:101E700010C0DAFFDF5010EC16F0D8B042EF0FF0D0
:101E800044EF0FF01AEF0FF01350D8B44AEF0FF0F1
:101E90004CEF0FF05AEF0FF014C011F015C012F014
:101EA000111E121E114A122A11C00FF012C010F09A
:101EB0005EEF0FF014C00FF015C010F0120000011B
:101EC000AE35AF35B56FB551D8A469EF0FF06BEFF4
:101ED0000FF075EF0FF0000EAC6F000EAD6F000E3F
:101EE000AE6F000EAF6FE2EF0FF0ACC0B0F0ADC060
:101EF000B1F0AEC0B2F0AFC0B3F0200E85EF0FF07E
:101F0000D890B333B233B133B033E82E80EF0FF053
:101F1000B051B46FAE8FFF0EAC17FF0EAD17FF0EB2
:101F2000AE17000EAF17960EB55FB5BF9CEF0FF062
:101F30009AEF0FF0B2EF0FF0B551800A970FD8B0BB
:101F4000A4EF0FF0A6EF0FF0A8EF0FF06BEF0FF07C
:101F5000D890AF33AE33AD33AC33B53FA8EF0FF00D
:101F6000CAEF0FF01F0EB565B8EF0FF0BAEF0FF024
:101F7000C2EF0FF06BEF0FF0D890AC37AD37AE3744
:101F8000AF37B507B551D8A4C8EF0FF0CAEF0FF0BF
:101F9000BCEF0FF0B451D8B4D0EF0FF0D2EF0FF088
:101FA000DAEF0FF0AF1FAE1FAD1FAC6D000EAD230B
:101FB000AE23AF23ACC0ACF0ADC0ADF0AEC0AEF060
:101FC000AFC0AFF01200000E0001AC15B46F000EF0
:101FD000AD15B56F800EAE15B66F7F0EAF15B76F2E
:101FE000B451B511B611B711D8A4F9EF0FF0FBEF4A
:101FF0000FF003EF10F0000EAC6F000EAD6F000E8F
:10200000AE6F000EAF6F000EB015B46F000EB115BD
:10201000B56F800EB215B66F7F0EB315B76FB451A2
:10202000B511B611B711D8A418EF10F01AEF10F0CF
:1020300022EF10F0000EB06F000EB16F000EB26F05
:10204000000EB36FAFAF27EF10F029EF10F032EFB3
:1020500010F0AC6DAD1FD8B0AD2BAE1FD8B0AE2B0D
:10206000800EAF57B3AF37EF10F039EF10F042EFFB
:1020700010F0B06DB11FD8B0B12BB21FD8B0B22BD9
:10208000800EB357000EAC1B000EAD1B000EAE1B36
:10209000800EAF1B000EB01B000EB11B000EB21B5A
:1020A000800EB31BB051AC5DB151AD59B251AE59B8
:1020B000B351AF59D8B05FEF10F061EF10F064EF9B
:1020C00010F0D89065EF10F0D8801200000E0001DB
:1020D000B16FAFBF70EF10F06EEF10F076EF10F051
:1020E000AE6DAF1FD8B0AF2B010EB16FADBF7DEF9E
:1020F00010F07BEF10F083EF10F0AC6DAD1FD8B097
:10210000AD2B010EB11B000EB36F000EB26FAE51BE
:10211000AF11D8B48EEF10F090EF10F0B8EF10F0D0
:10212000010EB06F98EF10F0D890AE37AF37B02BEC
:10213000AFAF9DEF10F09FEF10F094EF10F0D8903C
:10214000B237B337AE51AC5DAF51AD59D8A0ABEF9C
:1021500010F0ADEF10F0B2EF10F0AE51AC5FAF5138
:10216000AD5BB281D890AF33AE33B02F9FEF10F09C
:10217000B151D8B4BEEF10F0C0EF10F0C4EF10F0C2
:10218000B26DB31FD8B0B32BB2C0ACF0B3C0ADF0DA
:1021900012000001B66FC4EC16F00001B651A9ECB4
:1021A00016F00001AF51A9EC16F0BCEC16F00001DE
:1021B000B6510109A9EC16F0000E3B6E000E3A6E06
:1021C0000BEF11F0010E3A24B46F000E3B20B56FF7
:1021D000B251B41907E1B351B519D8A4F2EF10F018
:1021E000F4EF10F0FEEF10F0010ED9EC15F0B0C0D6
:1021F000D9FFB1C0DAFFDF6E06EF11F0000ED9ECA7
:1022000015F0B0C0D9FFB1C0DAFFDF6E0001B04BEE
:10221000B12B3A4A3B2A0001B2513A5C3B50800A4A
:10222000B46FB351800AB459D8A019EF11F01BEF65
:1022300011F0E2EF10F0C0EC16F0020E0001B56FE5
:10224000040EB46FBA0EE82EFED7B42FFCD7B52F0C
:10225000FAD700F01200000E066E04BE34EF11F043
:1022600032EF11F03AEF11F0036C041ED8B0042ADB
:10227000010E066E02BE41EF11F03FEF11F047EF85
:1022800011F0016C021ED8B0022A010E061A000ECF
:10229000086E000E076E03500410D8B452EF11F010
:1022A00054EF11F07CEF11F0010E056E5CEF11F0B0
:1022B000D89003360436052A04AE61EF11F063EFBF
:1022C00011F058EF11F0D890073608360350015C32
:1022D00004500258D8A06FEF11F071EF11F076EFB3
:1022E00011F00350015E0450025A0780D890043266
:1022F0000332052E63EF11F00650D8B482EF11F0CF
:1023000084EF11F088EF11F0076C081ED8B0082A8E
:1023100007C001F008C002F01200C8C0BAF0C9C07E
:10232000BBF0000E0001BD6F000EBC6F000EBF6F52
:10233000B40EBE6F000EC16F6E0EC06F010EC36F84
:10234000FE0EC26F59EC15F0BAC06CF0BBC06DF058
:102350006CC0A8F000016D51A96FC651040DF35077
:10236000060FAE6FA60EAF6F000EB06F000EB26F0D
:10237000040EB16F800E3DEC13F06E0E0001B86FCD
:10238000000EB96F560EBA6F080EBB6FC6C0BCF018
:10239000C7C0BDF00CEC0DF08DEC14F06E0E00011A
:1023A000B86F000EB96F480EBA6F080EBB6FC8C089
:1023B000BCF0C9C0BDF00CEC0DF08DEC14F00B0EB0
:1023C0000001CB6F260ECA6F5D0EE82EFED7CA2F16
:1023D000FCD7CB2FFAD700D012001DC00FF01EC0C3
:1023E00010F0000E126E000E116E000E146EB40E80
:1023F000136E000E166E6E0E156E010E186EFE0E2A
:10240000176E7CEC15F00FC06CF010C06DF06CC056
:10241000A8F000016D51A96F1B50040DF350060F79
:10242000036EA60E046E000E056E000E076E040EFF
:10243000066E800EF0EC13F06E0E0D6E000E0E6E3A
:10244000560E0F6E080E106E1BC011F01CC012F05D
:10245000F1EC0DF00CEC15F06E0E0D6E000E0E6E24
:10246000480E0F6E080E106E1DC011F01EC012F047
:10247000F1EC0DF00CEC15F00B0E206E260E1F6E1D
:102480005E0EE82EFED71F2EFCD7202EFAD71200A4
:102490000001AD6FC80E00D0E82EFDD78D80ADC015
:1024A000ACF0010E0001AC178C50AC19FE0BAC194E
:1024B0008C6EC80E00D0E82EFDD7ADC0ACF0000188
:1024C000D890AC33010EAC17AC478C50AC19FD0B57
:1024D000AC198C6EC80E00D0E82EFDD7ADC0ACF0A4
:1024E0000001D890AC33D890AC33010EAC17AC4798
:1024F000AC478C50AC19FB0BAC198C6EC80E00D0DD
:10250000E82EFDD7ADC0ACF00001D890AC33D89028
:10251000AC33D890AC33010EAC17AC47AC47AC47EA
:102520008C50AC19F70BAC198C6EC80E00D0E82E8D
:10253000FDD78D90C80E00D0E82EFDD71200026E98
:10254000C80E00D0E82EFDD78D8002C001F0010E2C
:1025500001168C500118FE0B01188C6EC80E00D0AD
:10256000E82EFDD702C001F0D8900132010E01160D
:1025700001468C500118FD0B01188C6EC80E00D05E
:10258000E82EFDD702C001F0D8900132D890013278
:10259000010E0116014601468C500118FB0B011873
:1025A0008C6EC80E00D0E82EFDD702C001F0D89086
:1025B0000132D8900132D8900132010E0116014645
:1025C000014601468C500118F70B01188C6EC80E9D
:1025D00000D0E82EFDD78D90C80E00D0E82EFDD794
:1025E00012000600D9CF22F0DACF23F0F3CF24F087
:1025F000F4CF25F0F6CF26F0F7CF27F0F8CF28F06C
:10260000F5CF29F09EAA07EF13F009EF13F02BEF97
:1026100013F0AECF3CF06E0E0D6E000E0E6E0B0E74
:102620000F6E080E106E3CC011F0126AF1EC0DF046
:10263000960E0D6E000E0E6E630E0F6E080E106E6F
:102640003CC011F0126AF1EC0DF00CEC15F0E3EC6B
:1026500014F09CEC06F029C0F5FF28C0F8FF27C055
:10266000F7FF26C0F6FF25C0F4FF24C0F3FF23C008
:10267000DAFF22C0D9FF4C9211000001B56FC4EC03
:1026800016F00001B551A9EC16F00001AE51A9EC0D
:1026900016F0000E3B6E000E3A6E5BEF13F0AFC00B
:1026A000D9FFB0C0DAFFDF50A9EC16F00001AF4B44
:1026B000B02B3A4A3B2A0001B1513A5C3B50800AA8
:1026C000B36FB251800AB359D8A069EF13F06BEF22
:1026D00013F04FEF13F0C0EC16F0020E0001B46FD0
:1026E000040EB36FBA0EE82EFED7B32FFCD7B42F6B
:1026F000FAD700F01200000E0001B26F000EB16FA9
:10270000AE51AF11D8B487EF13F089EF13F0B1EFEA
:1027100013F0010EB06F91EF13F0D890AE37AF37D2
:10272000B02BAFAF96EF13F098EF13F08DEF13F0DF
:10273000D890B137B237AE51AC5DAF51AD59D8A0DA
:10274000A4EF13F0A6EF13F0ABEF13F0AE51AC5FB4
:10275000AF51AD5BB181D890AF33AE33B02F98EFAE
:1027600013F0B1C0ACF0B2C0ADF01200000E066EB6
:10277000000E056E03500410D8B4C1EF13F0C3EF80
:1027800013F0EBEF13F0010E076ECBEF13F0D890C0
:1027900003360436072A04AED0EF13F0D2EF13F05D
:1027A000C7EF13F0D890053606360350015C04508D
:1027B0000258D8A0DEEF13F0E0EF13F0E5EF13F0CE
:1027C0000350015E0450025A0580D890043203324F
:1027D000072ED2EF13F005C001F006C002F0120080
:1027E0000A6ECCEC16F00A50B6EC16F00350B6ECBC
:1027F00016F0000E3B6E000E3A6E0AEF14F004C0A5
:10280000D9FF05C0DAFFDF50B6EC16F0044A052AFE
:102810003A4A3B2A06503A5C3B50800A086E075001
:10282000800A0858D8A017EF14F019EF14F0FFEF42
:1028300013F0C8EC16F0020E096E040E086EBA0E04
:10284000E82EFED7082EFCD7092EFAD700D01200AA
:102850000001B551B611D8B430EF14F032EF14F0D6
:1028600056EF14F0010EB76F3AEF14F0D890B53769
:10287000B637B72BB6AF3FEF14F041EF14F036EF99
:1028800014F0B551B35DB651B459D8A04AEF14F065
:102890004CEF14F050EF14F0B551B35FB651B45B88
:1028A000D890B633B533B72F41EF14F0B3C0B3F0BF
:1028B000B4C0B4F012000A500B10D8B462EF14F098
:1028C00064EF14F088EF14F0010E0C6E6CEF14F04E
:1028D000D8900A360B360C2A0BAE71EF14F073EF5A
:1028E00014F068EF14F00A50085C0B500958D8A097
:1028F0007CEF14F07EEF14F082EF14F00A50085EC3
:102900000B50095AD8900B320A320C2E73EF14F088
:1029100008C008F009C009F01200000E3B6E000E5E
:102920003A6EA4EF14F09EA898EF14F09AEF14F00A
:1029300093EF14F06E0E3A24D96E000E3B20DA6E3F
:10294000DF50AD6E3A4A3B2A6E0E0001AC6F000EAE
:10295000AD6FBCEC15F03A500001AC5D3B50AD5989
:10296000D8B0B5EF14F0B7EF14F093EF14F01200F5
:10297000800E85EC16F0010E85EC16F0000E3B6E15
:10298000000E3A6ECFEF14F0960E3A24D96E000E78
:102990003B20DA6EDF5077EC16F03A4A3B2A960E6F
:1029A0000001AC6F000EAD6FBCEC15F00001AC5136
:1029B0003A5CAD513B58D8A0E0EF14F0E2EF14F0D0
:1029C000C4EF14F01200800E9EEC16F0010E9EEC87
:1029D00016F0000E3B6E000E3A6EFAEF14F0960EF3
:1029E0003A24D96E000E3B20DA6EDF5093EC16F0DD
:1029F0003A4A3B2A960E016E000E026EF5EC15F077
:102A000001503A5C02503B58D8A009EF15F00BEF8B
:102A100015F0EFEF14F01200000E3B6E000E3A6E50
:102A200023EF15F09EA817EF15F019EF15F012EF30
:102A300015F06E0E3A24D96E000E3B20DA6EDF5090
:102A4000AD6E3A4A3B2A6E0E016E000E026EF5EC38
:102A500015F03A50015C3B500258D8B032EF15F0F7
:102A600034EF15F012EF15F01200000E0001C01B3C
:102A7000000EC11B000EC21B800EC31BBCC0ACF0FD
:102A8000BDC0ADF0BEC0AEF0BFC0AFF0C0C0B0F0D2
:102A9000C1C0B1F0C2C0B2F0C3C0B3F03BEC04F0AF
:102AA000ACC0BCF0ADC0BDF0AEC0BEF0AFC0BFF0BA
:102AB00012000001BC51BA5DB46FBD51BB59B56F76
:102AC000BC51BE5DAE6FBD51BF59AF6FC051C25D4D
:102AD000AC6FC151C359AD6F66EC10F0ACC0B6F02D
:102AE000ADC0B7F03DEC16F00001C051B425BA6F8F
:102AF000C151B521BB6F120011500F5C096E12500D
:102B000010580A6E1150135C036E12501458046E64
:102B10001550175C016E16501858026E2BEC11F010
:102B200001C00BF002C00CF064EC16F01550092443
:102B30000F6E16500A20106E1200A00EF66E2D0EAB
:102B4000F76E000EF86E0900F5CF4AF00900F5CFD8
:102B50004BF000EE60F04C0EEE6AE806FDE100EE90
:102B60002AF0200EEE6AE806FDE14C904C92000E31
:102B7000F86E0001B0EF16F0ACC0AEF0ADC0AFF033
:102B8000C5EF15F00001AE4BAF2BAEC0D9FFAFC003
:102B9000DAFFDF50D8A4CFEF15F0D1EF15F0C2EF78
:102BA00015F00001AC51AE5DAC6FAD51AF59AD6FDA
:102BB00012000001AD6F29EC16F0C58629EC16F065
:102BC000C9CFAEF029EC16F00001AD05D8B4EBEF9B
:102BD00015F0EEEF15F0C58AEFEF15F0C59AC58830
:102BE00029EC16F00001AE51120001C003F002C042
:102BF00004F0FDEF15F0034A042A03C0D9FF04C016
:102C0000DAFFDF50D8A407EF16F009EF16F0FBEF5C
:102C100015F00150035C016E02500458026E120060
:102C2000036E000E026E3A0E036019EF16F01BEFF2
:102C300016F025EF16F02F0E036421EF16F023EFA8
:102C400016F025EF16F0010E026E02C001F0013001
:102C50001200C5CFACF01F0E0001AC17D8A433EFA3
:102C600016F035EF16F029EF16F0C7B43AEF16F06C
:102C70003CEF16F029EF16F012000001B451B60334
:102C8000F3CFB8F0F4CFB9F0B451B703F350B9278C
:102C9000B551B603F350B927B8C0B4F0B9C0B5F018
:102CA0001200C5CF01F01F0E0116D8A45AEF16F07E
:102CB0005CEF16F051EF16F0C7B461EF16F063EF5A
:102CC00016F051EF16F0120009500B02F3CF0DF081
:102CD000F4CF0EF009500C02F3500E260A500B02EE
:102CE000F3500E260DC009F00EC00AF012000001CC
:102CF000AE6F8D820001AE390F0B48EC12F000016F
:102D0000AE510F0B48EC12F012000001AE6F8D9225
:102D10000001AE390F0B48EC12F00001AE510F0B61
:102D200048EC12F01200036E8D8203380F0B9FECFB
:102D300012F003500F0B9FEC12F01200036E8D92F5
:102D400003380F0B9FEC12F003500F0B9FEC12F0A7
:102D500012000001AD6F29EC16F0ADC0C9FF1200E2
:102D60000CEC0CF0B2EF16F007EF00F0026E51EC35
:102D700016F002C0C9FF120029EC16F0C58212003D
:102D800029EC16F0C584120029EC16F0C58012005B
:102D900051EC16F0C584120051EC16F0C5801200FB
:022DA00005002C
:020000040020DA
:08000000FFFFFFFFFFFFFFFF00
:020000040030CA
:0E000000000B1F1EFF8381FF0FC00FE00F409B
:00000001FF
