:020000040000FA
:04000000E8EF27F00E
:104DC80006EC27F0C582120006EC27F0C580120019
:104DD80006EC27F0C5841200026E06EC27F002C02C
:104DE800C9FF120000FEFF46000000C700FEFF4694
:104DF800000000C700FEFF46000000C700FEFF4697
:104E0800000000C7C5CF01F01F0E0116D8A40FEF90
:104E180027F011EF27F006EF27F0C7B416EF27F0B9
:104E280018EF27F006EF27F0120001500302F3CF26
:104E380005F0F4CF06F001500402F35006260250A4
:104E48000302F350062605C001F006C002F0120066
:104E580000FEFF46000000C700FEFF46000000C736
:104E68000000C0C00000BBC20000ACC2000C8646F7
:104E78000040C944000079446400026E06EC27F043
:104E8800C58606EC27F0C9CF03F006EC27F002042C
:104E9800D8B451EF27F054EF27F0C58A55EF27F023
:104EA800C59AC58806EC27F003501200036E000E61
:104EB800026E3A0E036063EF27F065EF27F06FEF9D
:104EC80027F02F0E03646BEF27F06DEF27F06FEFDD
:104ED80027F0010E026E02C001F00130120001C07D
:104EE80003F002C004F07BEF27F0034A042A03C052
:104EF800D9FF04C0DAFFDF50D8A485EF27F087EF89
:104F080027F079EF27F00150035C016E0250045836
:104F1800026E1200076EE8EC26F00750F0EC26F05F
:104F28000350F0EC26F00450F0EC26F0ECEC26F000
:104F3800020E066E040E056EBA0EE82EFED7052E7A
:104F4800FCD7062EFAD700D0120001500210031029
:104F58000410D8B4B2EF27F0B4EF27F0BCEF27F075
:104F6800000E011A000E021A000E031A800E041A0F
:104F780001C001F002C002F003C003F004C004F055
:104F88001200000E551A000E561A000E571A800EFF
:104F9800581A51C041F052C042F053C043F054C0B7
:104FA80044F055C045F056C046F057C047F058C0C9
:104FB80048F0B5EC35F041C051F042C052F043C062
:104FC80053F044C054F01200EC0EF66E4D0EF76E1E
:104FD800000EF86E01EE70F010EE20F00900F5CF2B
:104FE800EEFFE550E150FAE1580EF66E4E0EF76E00
:104FF800000EF86E00EED5F010EE2AF00900F5CF9D
:10500800EEFFE550E150FAE101EE00F0700EEE6AB5
:10501800E806FDE100EE60F03C0EEE6AE806FDE110
:10502800000EF86E000115EF38F003500410D8B4E4
:1050380020EF28F022EF28F046EF28F0010E056E49
:105048002AEF28F0D89003360436052A04AE2FEF4D
:1050580028F031EF28F026EF28F00350015C0450C7
:105068000258D8A03AEF28F03CEF28F040EF28F09B
:105078000350015E0450025AD89004320332052EC0
:1050880031EF28F001C001F002C002F01200000E5A
:1050980000018B6F000E8A6F64EF28F09EA857EF0F
:1050A80028F059EF28F052EF28F0480E00018A2521
:1050B800D96E010E8B21DA6EDF50AD6E8A4B8B2BC9
:1050C800480E016E010E026E73EC27F000018A5142
:1050D800015C8B510258D8B074EF28F076EF28F0B5
:1050E80052EF28F09EA87BEF28F07DEF28F076EFAE
:1050F80028F00D0EAD6E1200000E0B6E000E0A6E3B
:1051080008500910D8B48BEF28F08DEF28F0B5EFD0
:1051180028F0010E0C6E95EF28F0D8900836093665
:105128000C2A09AE9AEF28F09CEF28F091EF28F0AE
:10513800D8900A360B360850065C09500758D8A094
:10514800A8EF28F0AAEF28F0AFEF28F00850065E85
:105158000950075A0A80D890093208320C2E9CEF61
:1051680028F00AC006F00BC007F012000550061020
:1051780007100810D8B4C3EF28F0C5EF28F0F5EFF2
:1051880028F0010E096ECFEF28F0D89005360636C4
:1051980007360836092A08AED4EF28F0D6EF28F0EB
:1051A800C9EF28F00550015C065002580750035813
:1051B80008500458D8A0E3EF28F0E5EF28F0EDEF09
:1051C80028F00550015E0650025A0750035A08504D
:1051D800045AD8900832073206320532092ED6EF23
:1051E80028F001C001F002C002F003C003F004C0BF
:1051F80004F012000B6EE8EC26F00B50F0EC26F0F1
:105208000450F0EC26F0E4EC26F00B500109F0EC29
:1052180026F0000E00018B6F000E8A6F3DEF29F01B
:10522800010E8A25096E000E8B210A6E0750091897
:1052380007E108500A18D8A424EF29F026EF29F02E
:1052480030EF29F0010E41EC27F005C0D9FF06C068
:10525800DAFFDF6E38EF29F0000E41EC27F005C0C9
:10526800D9FF06C0DAFFDF6E054A062A00018A4B1D
:105278008B2B07508A5D8B51800A096E0850800A73
:105288000958D8A04AEF29F04CEF29F014EF29F07B
:10529800ECEC26F01200000E096E000E0A6E000EED
:1052A8000B6E000E0C6E0550061007100810D8B4CF
:1052B80060EF29F062EF29F098EF29F0010E0D6EEA
:1052C8006CEF29F0D89005360636073608360D2AD1
:1052D80008AE71EF29F073EF29F066EF29F0D89046
:1052E80009360A360B360C360550015C0650025852
:1052F8000750035808500458D8A085EF29F087EFC5
:1053080029F090EF29F00550015E0650025A075027
:10531800035A0850045A0980D890083207320632D6
:1053280005320D2E73EF29F009C001F00AC002F012
:105338000BC003F00CC004F01200000E0114096E3B
:10534800000E02140A6E800E03140B6E7F0E0414F6
:105358000C6E09500A100B100C10D8A4B6EF29F0E7
:10536800B8EF29F0C0EF29F0000E016E000E026EB2
:10537800000E036E000E046E000E0514096E000E7A
:1053880006140A6E800E07140B6E7F0E08140C6E3E
:1053980009500A100B100C10D8A4D5EF29F0D7EF3C
:1053A80029F0DFEF29F0000E056E000E066E000EE4
:1053B800076E000E086E055001180FE1065002181E
:1053C8000CE10750031809E108500418D8B4EFEFAE
:1053D80029F0F1EF29F0F4EF29F0D890F5EF29F052
:1053E800D8801200000E066E02BEFFEF29F0FDEF16
:1053F80029F005EF2AF0016C021ED8B0022A010E2E
:10540800066E04BE0CEF2AF00AEF2AF010EF2AF01D
:10541800036C041ED8B0042A03500410D8B417EF44
:105428002AF019EF2AF03DEF2AF0010E056E21EF60
:105438002AF0D89003360436052A04AE26EF2AF05F
:1054480028EF2AF01DEF2AF00350015C045002589F
:10545800D8A031EF2AF033EF2AF037EF2AF00350C3
:10546800015E0450025AD89004320332052E28EF08
:105478002AF00650D8B443EF2AF045EF2AF049EF56
:105488002AF0016C021ED8B0022A01C001F002C045
:1054980002F01200000E0C6E0ABE57EF2AF055EF0C
:1054A8002AF05DEF2AF0096C0A1ED8B00A2A010E0C
:1054B8000C6E08BE64EF2AF062EF2AF06AEF2AF059
:1054C800076C081ED8B0082A010E0C1A000E0E6EC2
:1054D800000E0D6E09500A10D8B475EF2AF077EF58
:1054E8002AF09FEF2AF0010E0B6E7FEF2AF0D8907A
:1054F80009360A360B2A0AAE84EF2AF086EF2AF01C
:105508007BEF2AF0D8900D360E360950075C0A500A
:105518000858D8A092EF2AF094EF2AF099EF2AF0D1
:105528000950075E0A50085A0D80D8900A3209328D
:105538000B2E86EF2AF00C50D8B4A5EF2AF0A7EF6F
:105548002AF0ABEF2AF00D6C0E1ED8B00E2A0DC053
:1055580007F00EC008F01200000E0114096E000ECC
:1055680002140A6E800E03140B6E7F0E04140C6E68
:1055780009500A100B100C10D8A4C5EF2AF0C7EF79
:105588002AF0CFEF2AF0000E016E000E026E000E18
:10559800036E000E046E000E0514096E000E06144C
:1055A8000A6E800E07140B6E7F0E08140C6E0950DD
:1055B8000A100B100C10D8A4E4EF2AF0E6EF2AF03A
:1055C800EEEF2AF0000E056E000E066E000E076E56
:1055D800000E086E04AEF3EF2AF0F5EF2AF0FEEFA6
:1055E8002AF0016C021ED8B0022A031ED8B0032A82
:1055F800800E045608AE03EF2BF005EF2BF00EEFEC
:105608002BF0056C061ED8B0062A071ED8B0072A4C
:10561800800E0856000E011A000E021A000E031A18
:10562800800E041A000E051A000E061A000E071A3C
:10563800800E081A0550015C06500258075003589E
:1056480008500458D8B02BEF2BF02DEF2BF030EF8B
:105658002BF0D89031EF2BF0D8801200333434344B
:105668003A6E3A50D8A43BEF2BF03DEF2BF047EFC2
:105678002BF0000E316E000E326E000E336E000EEF
:10568800346EB4EF2BF031C035F032C036F033C091
:1056980037F034C038F0200E57EF2BF0D89038325E
:1056A800373236323532E82E52EF2BF03550396E1C
:1056B800338EFF0E3116FF0E3216FF0E3316000E14
:1056C8003416960E3A5E3ABE6EEF2BF06CEF2BF066
:1056D80084EF2BF03A50800A970FD8B076EF2BF072
:1056E80078EF2BF07AEF2BF03DEF2BF0D890343297
:1056F8003332323231323A3E7AEF2BF09CEF2BF0D4
:105708001F0E3A648AEF2BF08CEF2BF094EF2BF0FE
:105718003DEF2BF0D89031363236333634363A06F0
:105728003A50D8A49AEF2BF09CEF2BF08EEF2BF089
:105738003950D8B4A2EF2BF0A4EF2BF0ACEF2BF03C
:10574800341E331E321E316C000E322233223422B4
:1057580031C031F032C032F033C033F034C034F0ED
:105768001200720ED36E0F0EC16E93809382800E5C
:10577800C76E280EC66E000EC56E190EC86E949CB4
:10578800948E0C0EAF6E900EAB6E200EAC6E480E63
:1057980000019C6F010E9D6F7E0E9E6F7F0E9F6FA6
:1057A800CFEC3AF04BEC28F0480E00019C6F010E4C
:1057B8009D6FEE0E9E6F7F0E9F6FCFEC3AF04BEC15
:1057C80028F06B0E036E000E046ED00E8EEC27F0E0
:1057D8001A0E5D6EF80EE82EFED75D2EFCD700D0AF
:1057E800480E00019C6F010E9D6FA00E9E6F7F0EEC
:1057F8009F6FCFEC3AF04BEC28F0750E046E9B0EC1
:10580800056E000E066E000E086E010E076ED00EB5
:10581800FEEC28F0680E00019B19D8B416EF2CF0A6
:1058280018EF2CF026EF2CF0480E9C6F010E9D6FA0
:10583800BE0E9E6F7F0E9F6FCFEC3AF04BEC28F0B8
:1058480024EF2CF0480E9C6F010E9D6FD60E9E6FB4
:105858007F0E9F6FCFEC3AF04BEC28F01A0E5D6E7E
:10586800F80EE82EFED75D2EFCD700D01B0E036E77
:10587800000E046ED00E8EEC27F01C0E036E000E88
:10588800046ED00E8EEC27F01A0E5D6EF80EE82E20
:10589800FED75D2EFCD700D01200033404340E6E00
:1058A8000E50D8A45AEF2CF05CEF2CF066EF2CF0D9
:1058B800000E016E000E026E000E036E000E046EE6
:1058C800F6EF2CF0073408340D6E0D50D8A46FEFA6
:1058D8002CF071EF2CF073EF2CF05CEF2CF0038EB2
:1058E800FF0E0116FF0E0216FF0E0316000E041619
:1058F800078EFF0E0516FF0E0616FF0E0716000E82
:105908000816000E096E000E0A6E000E0B6E000ED1
:105918000C6E7F0E0E5E0D50A00F0E5E200E0D6EEB
:10592800D89009360A360B360C360550015C0650FD
:1059380002580750035808500458D8A0A6EF2CF076
:10594800A8EF2CF0B1EF2CF00550015E0650025A7A
:105958000750035A0850045A0980D8900136023675
:10596800033604360D2E94EF2CF00EBEC0EF2CF04B
:10597800BEEF2CF0D6EF2CF00E50800A9F0FD8B057
:10598800C8EF2CF0CAEF2CF0CCEF2CF05CEF2CF029
:10599800D8900C320B320A3209320E3ECCEF2CF082
:1059A800EEEF2CF01F0E0E64DCEF2CF0DEEF2CF087
:1059B800E6EF2CF05CEF2CF0D89009360A360B365F
:1059C8000C360E060E50D8A4ECEF2CF0EEEF2CF0AF
:1059D800E0EF2CF009C001F00AC002F00BC003F0A0
:1059E8000CC004F0120003C009F00A6A0B6A023402
:1059F800093601E30A800950116E1150D8A407EF47
:105A08002DF009EF2DF013EF2DF0000E016E000EB2
:105A1800026E000E036E000E046EA1EF2DF007C09B
:105A280009F00A6A0B6A0634093601E30A8009504C
:105A3800106E1050D8A423EF2DF025EF2DF027EF8E
:105A48002DF009EF2DF0028EFF0E0116FF0E021643
:105A5800000E0316068EFF0E0516FF0E0616000E24
:105A68000716000E0C6E000E0D6E000E0E6E000E68
:105A78000F6E7F0E115E1050980F115E180E106E8B
:105A8800D8900C360D360E360F360550015C065090
:105A9800025807500358D8A054EF2DF056EF2DF0B8
:105AA8005DEF2DF00550015E0650025A0750035A6B
:105AB8000C80D890013602360336102E44EF2DF0B4
:105AC80011BE6BEF2DF069EF2DF081EF2DF0115025
:105AD800800A970FD8B073EF2DF075EF2DF077EFA0
:105AE8002DF009EF2DF0D8900F320E320D320C3216
:105AF800113E77EF2DF099EF2DF0170E116487EF17
:105B08002DF089EF2DF091EF2DF009EF2DF0D890C1
:105B18000C360D360E360F3611061150D8A497EFF5
:105B28002DF099EF2DF08BEF2DF00CC001F00DC08A
:105B380002F00EC003F00FC004F01200096E095005
:105B4800D8B4A9EF2DF0ABEF2DF0CDEF2DF004BEBA
:105B5800B2EF2DF0B0EF2DF0CDEF2DF001C005F034
:105B680002C006F003C007F004C008F0051E061EB8
:105B7800071E081E052A000E06220722082205C055
:105B88000BF006C00CF007C00DF008C00EF0D5EF02
:105B98002DF001C00BF002C00CF003C00DF004C0E2
:105BA8000EF00150021003100410D8A4DEEF2DF0FF
:105BB800E0EF2DF0EAEF2DF0000E016E000E026E00
:105BC800000E036E000E046E7BEF2EF0960E0A6E2A
:105BD800F4EF2DF00A2AD8900E320D320C320B3227
:105BE800000E0B14056E000E0C14066E000E0D143C
:105BF800076EFE0E0E14086E0550061007100810EA
:105C0800D8A409EF2EF00BEF2EF0EEEF2DF019EFE0
:105C18002EF00A2A010E0B26000E0C220D220E224F
:105C2800D8900E320D320C320B32000E0B14056E6A
:105C3800000E0C14066E000E0D14076EFF0E0E14E7
:105C4800086E0550061007100810D8A42EEF2EF085
:105C580030EF2EF00DEF2EF038EF2EF00A06D89028
:105C68000B360C360D360E360DBE3DEF2EF03FEFDF
:105C78002EF047EF2EF0020E0A6045EF2EF047EFA8
:105C88002EF032EF2EF00AB04CEF2EF04EEF2EF041
:105C98004FEF2EF00D9ED8900A320AC005F0066A22
:105CA800076A086A05C008F0076A066A056A0550A7
:105CB8000B1206500C1207500D1208500E12095004
:105CC800D8B469EF2EF06BEF2EF073EF2EF004BE10
:105CD80072EF2EF070EF2EF073EF2EF00E8E0BC0D9
:105CE80001F00CC002F00DC003F00EC004F0120069
:105CF800346E6D0E346483EF2EF085EF2EF032EFA4
:105D08002FF0000E136E000E146E000E156E3F0E6F
:105D1800166E000E096E640E086E34C006F0076A2F
:105D280080EC28F0D89006360736D8900636073625
:105D3800480E0626000E0722E30E0624F66E7E0E97
:105D48000720F76E0900F5CF0FF00900F5CF10F026
:105D58000900F5CF11F00A00F5CF12F0A0EC33F0EE
:105D68000FC030F010C031F011C032F012C033F063
:105D7800000E096E0A0E086E000E046E640E036EA5
:105D880034C001F0026A19EC28F001C006F002C024
:105D980007F080EC28F0D89006360736D8900636FB
:105DA8000736240E0626000E0722E30E0624F66E9A
:105DB8007E0E0720F76E0900F5CF13F00900F5CF26
:105DC80014F00900F5CF15F00A00F5CF16F030C031
:105DD8000FF031C010F032C011F033C012F0A0EC57
:105DE80033F00FC02CF010C02DF011C02EF012C0EF
:105DF8002FF02CC00FF02DC010F02EC011F02FC0C6
:105E080012F0000E046E0A0E036E34C001F0026A2E
:105E180019EC28F0D89001360236D89001360236AF
:105E2800E30E0124F66E7E0E0220F76E0900F5CF10
:105E380013F00900F5CF14F00900F5CF15F00A00AA
:105E4800F5CF16F0A0EC33F00FC028F010C029F001
:105E580011C02AF012C02BF0CCEF2FF00A0E3464D8
:105E680038EF2FF03AEF2FF0A6EF2FF0000E136E59
:105E7800000E146E000E156E3F0E166E000E096EA3
:105E88000A0E086E34C006F0076A80EC28F0D89035
:105E980006360736D89006360736240E0626000E34
:105EA8000722E30E0624F66E7E0E0720F76E090021
:105EB800F5CF0FF00900F5CF10F00900F5CF11F07C
:105EC8000A00F5CF12F0A0EC33F00FC030F010C08C
:105ED80031F011C032F012C033F030C00FF031C0D1
:105EE80010F032C011F033C012F0000E046E0A0E2A
:105EF800036E34C001F0026A19EC28F0D89001361C
:105F08000236D89001360236E30E0124F66E7E0E74
:105F18000220F76E0900F5CF13F00900F5CF14F051
:105F28000900F5CF15F00A00F5CF16F0A0EC33F014
:105F38000FC028F010C029F011C02AF012C02BF0B1
:105F4800CCEF2FF03450040DE30EF324F66E7E0EE2
:105F5800F420F76E0900F5CF0FF00900F5CF10F027
:105F68000900F5CF11F00A00F5CF12F0000E136EFC
:105F7800000E146E000E156E3F0E166EA0EC33F078
:105F88000FC028F010C029F011C02AF012C02BF061
:105F980012002B50800B386E2B502B243F6E2AAEEC
:105FA800D8EF2FF0DAEF2FF0DBEF2FF03F803F50E4
:105FB800D8B4E1EF2FF0E3EF2FF0F8EF2FF03F2800
:105FC800D8A4E9EF2FF0EBEF2FF0F3EF2FF0000E4E
:105FD800286E000E296E000E2A6E000E2B6E2A8E79
:105FE800000E2B6E00EF30F0000E286E000E296EAA
:105FF800000E2A6E000E2B6E2F50800B381A2F5071
:106008002F24406E2EAE0BEF30F00DEF30F00EEF78
:1060180030F040804050D8B414EF30F016EF30F034
:106028002BEF30F04028D8A41CEF30F01EEF30F0F2
:1060380026EF30F0000E2C6E000E2D6E000E2E6E28
:10604800000E2F6E2E8E000E2F6E33EF30F0000EE6
:106058002C6E000E2D6E000E2E6E000E2F6E2C5024
:106068002D102E102F10D8A43CEF30F03EEF30F05A
:1060780056EF30F0000E286E000E296E000E2A6EC4
:10608800000E2B6E800E2A127F0E2B1238502B1208
:1060980028C028F029C029F02AC02AF02BC02BF0EC
:1060A80099EF31F03F50D8A45CEF30F05EEF30F05C
:1060B80068EF30F0000E286E000E296E000E2A6E72
:1060C800000E2B6E99EF31F040503FC030F0316A2E
:1060D800305E000E315A7F0E3024396E000E3120AA
:1060E8003A6E28C034F029C035F02AC036F02BC0EB
:1060F80037F0000E286E000E296E000E2A6E000E74
:106108002B6E000E3B6E000E3C6E000E3D6E000EB8
:106118003E6E000E406EC9EF30F04050D8B497EF95
:1061280030F099EF30F0B0EF30F0D89034363536A3
:1061380036363736D890283629362A362B363EAEAC
:10614800A8EF30F0AAEF30F0ABEF30F02880D8900D
:106158003B363C363D363E362C50345C2D50355857
:106168002E5036582F503758D8A0BDEF30F0BFEF1B
:1061780030F0C8EF30F03E8C2C50345E2D50355A3C
:106188002E50365A2F50375A402A190E4064CFEFF6
:1061980030F0D1EF30F091EF30F034503510361048
:1061A8003710D8B4DAEF30F0DCEF30F0F4EF30F03D
:1061B8003B80F4EF30F0D890283629362A362B3633
:1061C8003EAEE9EF30F0EBEF30F0ECEF30F0288046
:1061D800D8903B363C363D363E363906D8A03A068E
:1061E8002AAEF9EF30F0FBEF30F0DFEF30F0000EC1
:1061F800406E3EAE02EF31F004EF31F028EF31F09F
:10620800FF0E3B14306EFF0E3C14316EFF0E3D1432
:10621800326E7F0E3E14336E305031103210331010
:10622800D8B419EF31F01BEF31F01FEF31F0010E48
:10623800406E28EF31F028A024EF31F026EF31F03E
:1062480028EF31F01BEF31F04050D8B42EEF31F089
:1062580030EF31F054EF31F0010E2826000E2922DC
:106268002A222B222BA03BEF31F03DEF31F054EFE7
:1062780031F028C030F029C031F02AC032F02BC0EC
:1062880033F03334333232323132303230C028F0E6
:1062980031C029F032C02AF033C02BF0394A3A2AEB
:1062A8003ABE5FEF31F03A5008E13928D8A05FEFE5
:1062B80031F061EF31F06CEF31F0000E3A6E396871
:1062C800000E286E000E296E000E2A6E000E2B6E30
:1062D8003ABE79EF31F03A5006E13904D8B077EF99
:1062E80031F079EF31F087EF31F0000E3A6E000EA1
:1062F800396E000E286E000E296E000E2A6E000EF2
:106308002B6E000E386E39C03FF03FA08EEF31F093
:1063180090EF31F093EF31F02A8E94EF31F02A9E0E
:10632800D8903F302B6E4AEF30F01200306E30BEFE
:10633800A2EF31F0A0EF31F0A2EF32F0306C305024
:10634800800A120FD8A0ABEF31F0ADEF31F036EF85
:1063580032F0000E0A6E0A0E096E000E046E640E0C
:10636800036E3050016E026A01BE0206F6EC29F097
:1063780001C007F002C008F04EEC2AF0090E07260B
:106388000750040DE30EF324F66E7E0EF420F76E2C
:106398000900F5CF13F00900F5CF14F00900F5CF87
:1063A80015F00A00F5CF16F0000E0A6E640E096E9D
:1063B8003050076E086A07BE08064EEC2AF0120E27
:1063C80007260750040DE30EF324F66E7E0EF42024
:1063D800F76E0900F5CF0FF00900F5CF10F00900AE
:1063E800F5CF11F00A00F5CF12F0A0EC33F00FC092
:1063F8002CF010C02DF011C02EF012C02FF02CC0C0
:106408000FF02DC010F02EC011F02FC012F0000EAA
:10641800046E0A0E036E3050016E026A01BE020657
:10642800F6EC29F00150040DE30EF324F66E7E0E0F
:10643800F420F76E0900F5CF13F00900F5CF14F03A
:106448000900F5CF15F00A00F5CF16F0A0EC33F0EF
:106458000FC028F010C029F011C02AF012C02BF08C
:106468009FEF33F03050800A750FD8A03EEF32F01E
:1064780040EF32F08CEF32F0000E0A6E0A0E096E11
:106488003050076E086A07BE08064EEC2AF0090E5F
:1064980007260750040DE30EF324F66E7E0EF42053
:1064A800F76E0900F5CF0FF00900F5CF10F00900DD
:1064B800F5CF11F00A00F5CF12F0000E046E0A0EA7
:1064C800036E3050016E026A01BE0206F6EC29F036
:1064D8000150040DE30EF324F66E7E0EF420F76EE1
:1064E8000900F5CF13F00900F5CF14F00900F5CF36
:1064F80015F00A00F5CF16F0A0EC33F00FC028F025
:1065080010C029F011C02AF012C02BF09FEF33F011
:106518003050040DE30EF324F66E7E0EF420F76E71
:106528000900F5CF28F00900F5CF29F00900F5CFCB
:106538002AF00A00F5CF2BF09FEF33F03050800A95
:10654800120FD8A0AAEF32F0ACEF32F035EF33F0EB
:10655800000E0A6E0A0E096E000E046E640E036EBB
:106568003050016E026A01BE0206F6EC29F001C045
:1065780007F002C008F04EEC2AF0090E0726075073
:10658800040DAF0EF324F66E7E0EF420F76E0900AC
:10659800F5CF13F00900F5CF14F00900F5CF15F089
:1065A8000A00F5CF16F0000E0A6E640E096E305020
:1065B800076E086A07BE08064EEC2AF0120E072678
:1065C8000750040DAF0EF324F66E7E0EF420F76E1E
:1065D8000900F5CF0FF00900F5CF10F00900F5CF4D
:1065E80011F00A00F5CF12F0A0EC33F00FC02CF038
:1065F80010C02DF011C02EF012C02FF02CC00FF0DB
:106608002DC010F02EC011F02FC012F0000E046E35
:106618000A0E036E3050016E026A01BE0206F6ECE5
:1066280029F00150040DAF0EF324F66E7E0EF4200F
:10663800F76E0900F5CF13F00900F5CF14F0090043
:10664800F5CF15F00A00F5CF16F0A0EC33F00FC027
:1066580028F010C029F011C02AF012C02BF09FEFCB
:1066680033F03050800A750FD8A03DEF33F03FEF7C
:1066780033F08BEF33F0000E0A6E0A0E096E3050BD
:10668800076E086A07BE08064EEC2AF0090E0726B0
:106698000750040DAF0EF324F66E7E0EF420F76E4D
:1066A8000900F5CF0FF00900F5CF10F00900F5CF7C
:1066B80011F00A00F5CF12F0000E046E0A0E036EF8
:1066C8003050016E026A01BE0206F6EC29F0015054
:1066D800040DAF0EF324F66E7E0EF420F76E09005B
:1066E800F5CF13F00900F5CF14F00900F5CF15F038
:1066F8000A00F5CF16F0A0EC33F00FC028F010C058
:1067080029F011C02AF012C02BF09FEF33F030505F
:10671800040DAF0EF324F66E7E0EF420F76E09001A
:10672800F5CF28F00900F5CF29F00900F5CF2AF0B8
:106738000A00F5CF2BF012001250800B1B6E12507E
:106748001224216E11AEABEF33F0ADEF33F0AEEFA4
:1067580033F021802150D8B4B4EF33F0B6EF33F0E2
:10676800C9EF33F02128D8A4BCEF33F0BEEF33F0E3
:10677800C6EF33F0000E0F6E000E106E000E116E95
:10678800000E126E118ED1EF33F0000E0F6E000E58
:10679800106E000E116E000E126E1650800B1B1A32
:1067A80016501624206E15AEDCEF33F0DEEF33F012
:1067B800DFEF33F020802050D8B4E5EF33F0E7EF77
:1067C80033F0FAEF33F02028D8A4EDEF33F0EFEFF1
:1067D80033F0F7EF33F0000E136E000E146E000E58
:1067E800156E000E166E158E02EF34F0000E136E45
:1067F800000E146E000E156E000E166E2050D8B4E2
:1068080008EF34F00AEF34F012EF34F02150D8A436
:1068180010EF34F012EF34F01CEF34F0000E0F6E6E
:10682800000E106E000E116E000E126EB4EF35F0F1
:1068380015500F02F3CF26F0F4CF27F026501C6E28
:106848001D6A1E6A1F6A2750226E236A246A256AF7
:1068580014501002F3CF26F0F4CF27F026501C2650
:10686800000E1D221E221F2227502226000E232240
:106878002422252213501102F3CF26F0F4CF27F05B
:1068880026501C26000E1D221E221F2227502226BB
:10689800000E2322242225221EC01FF01DC01EF038
:1068A8001CC01DF01C6A13501002F3CF26F0F4CF61
:1068B80027F026501C2627501D22000E1E22000EEF
:1068C8001F2214500F02F3CF26F0F4CF27F02650E2
:1068D8001C2627501D22000E1E22000E1F221EC03D
:1068E8001FF01DC01EF01CC01DF01C6A13500F02C3
:1068F800F3CF26F0F4CF27F026501C2627501D2270
:10690800000E1E22000E1F2215501002F3CF26F093
:10691800F4CF27F02650222627502322000E2422C7
:10692800000E252214501102F3CF26F0F4CF27F0E1
:106938002650222627502322000E2422000E25222C
:1069480015501102F3CF26F0F4CF27F02650176E1A
:106958002750186E196A1A6A19C01AF018C019F067
:1069680017C018F0176A17502226185023221950FA
:1069780024221A5025221CC017F01DC018F01EC072
:1069880019F01FC01AF0190ECFEF34F0D8901A3250
:10699800193218321732E82ECAEF34F0175022266F
:1069A80018502322195024221A5025221EC01FF0E5
:1069B8001DC01EF01CC01DF01C6A205021C017F01D
:1069C800186A1726000E1822820E1724266EFF0E4C
:1069D8001820276E05EF35F0D89022362336243656
:1069E80025361FAEFAEF34F0FCEF34F0FDEF34F04B
:1069F8002280D8901C361D361E361F362606D8A093
:106A0800270624AE0AEF35F00CEF35F0F0EF34F03E
:106A1800000E206E1FAE13EF35F015EF35F039EF8D
:106A280035F0FF0E1C14176EFF0E1D14186EFF0EA6
:106A38001E14196E7F0E1F141A6E17501810191095
:106A48001A10D8B42AEF35F02CEF35F030EF35F0C6
:106A5800010E206E39EF35F022A035EF35F037EF13
:106A680035F039EF35F02CEF35F02050D8B43FEF42
:106A780035F041EF35F065EF35F0010E2226000EB6
:106A880023222422252225A04CEF35F04EEF35F0A5
:106A980065EF35F022C017F023C018F024C019F0B4
:106AA80025C01AF01A341A3219321832173217C0A0
:106AB80022F018C023F019C024F01AC025F0264A85
:106AC800272A27BE70EF35F0275008E12628D8A0DE
:106AD80070EF35F072EF35F07CEF35F0000E226E76
:106AE800000E236E800E246E7F0E256EAAEF35F001
:106AF80027BE89EF35F0275006E12604D8B087EF86
:106B080035F089EF35F095EF35F0000E226E000E66
:106B1800236E000E246E000E256E000E1B6EAAEF6B
:106B280035F026C021F0FF0E2216FF0E23167F0E29
:106B38002416000E251621A0A4EF35F0A6EF35F097
:106B4800A7EF35F0248ED8902130256E1B502512E2
:106B580022C00FF023C010F024C011F025C012F09D
:106B680012004450800B4D6E445044244F6E43AE87
:106B7800C0EF35F0C2EF35F0C3EF35F04F804F501E
:106B8800D8B4C9EF35F0CBEF35F0E0EF35F04F284A
:106B9800D8A4D1EF35F0D3EF35F0DBEF35F0000EA8
:106BA800416E000E426E000E436E000E446E438E20
:106BB800000E446EE8EF35F0000E416E000E426E96
:106BC800000E436E000E446E4850800B4E6E4D50C2
:106BD8004E18D8B4F2EF35F0F4EF35F0F5EF35F0A4
:106BE8004D8C485048244E6E47AEFDEF35F0FFEF10
:106BF80035F000EF36F04E804E50D8B406EF36F040
:106C080008EF36F01DEF36F04E28D8A40EEF36F018
:106C180010EF36F018EF36F0000E456E000E466E97
:106C2800000E476E000E486E478E000E486E25EF28
:106C380036F0000E456E000E466E000E476E000ED2
:106C4800486E4F504E5CD8B02CEF36F02EEF36F031
:106C580055EF36F04DAC33EF36F035EF36F037EF11
:106C680036F0800E4D1A4FC050F04EC04FF050C055
:106C78004EF041C050F045C041F050C045F042C010
:106C880050F046C042F050C046F043C050F047C0F4
:106C980043F050C047F044C050F048C044F050C0E2
:106CA80048F0000E506E4F504EC049F04A6A495E97
:106CB800000E4A5A4ABE6AEF36F04A5009E11A0EE7
:106CC800495CD8A06AEF36F06CEF36F0A3EF36F0E7
:106CD8004150421043104410D8A475EF36F078EFB5
:106CE80036F0010E79EF36F0000E506E000E416E50
:106CF800000E426E000E436E000E446E4EC04FF002
:106D0800ACEF36F050A08BEF36F08DEF36F093EF06
:106D180036F0D89050300109506E95EF36F0D89083
:106D2800503241A09AEF36F09CEF36F09DEF36F0E6
:106D3800508E443444324332423241324F2A4E500C
:106D48004F5CD8A0AAEF36F0ACEF36F086EF36F0FD
:106D58004DBCB1EF36F0B3EF36F0F3EF36F04F50ED
:106D6800D8A4B9EF36F0BBEF36F0C5EF36F0000E19
:106D7800416E000E426E000E436E000E446E14EF1C
:106D880038F0455041264650422247504322485049
:106D9800442244A0D2EF36F0D4EF36F080EF37F03B
:106DA80050A0D9EF36F0DBEF36F0E1EF36F0D890AF
:106DB80050300109506EE3EF36F0D890503241A0C0
:106DC800E8EF36F0EAEF36F0EBEF36F0508E443469
:106DD80044324332423241324F2A80EF37F0455035
:106DE800415C46504258475043584450800A496EC7
:106DF8004850800A4958D8B004EF37F006EF37F00A
:106E080031EF37F04150455C496E425046584A6E62
:106E1800435047584B6E445048584C6EFF0E492417
:106E2800416EFF0E4A20426EFF0E4B20436EFF0E4E
:106E38004C20446E800E4D1A506C5050D8A427EF49
:106E480037F029EF37F039EF37F0010E4126000E01
:106E580042224322442239EF37F04550415E4650E2
:106E6800425A4750435A4850445A415042104310DE
:106E78004410D8A442EF37F044EF37F079EF37F0F9
:106E88005050D8A44AEF37F04CEF37F079EF37F08D
:106E9800000E416E000E426E000E436E000E446EF0
:106EA80014EF38F0D890413642364336443650AE67
:106EB80060EF37F062EF37F063EF37F0418050A0B2
:106EC80068EF37F06AEF37F06EEF37F0D88050365A
:106ED80070EF37F0D89050364F50D8B476EF37F07F
:106EE80078EF37F079EF37F04F0643AE7EEF37F0A3
:106EF80080EF37F056EF37F0000E4E6E50AE87EF4A
:106F080037F089EF37F0A1EF37F050C049F07F0E26
:106F18004916D8B492EF37F094EF37F098EF37F07E
:106F2800010E4E6EA1EF37F041A09DEF37F09FEFB5
:106F380037F0A1EF37F094EF37F04E50D8B4A7EF01
:106F480037F0A9EF37F0D4EF37F0010E4126000EE5
:106F580042224322442244A0B4EF37F0B6EF37F080
:106F6800D4EF37F041C049F042C04AF043C04BF07B
:106F780044C04CF04C344C324B324A32493249C04E
:106F880041F04AC042F04BC043F04CC044F04F2897
:106F9800D8B4D1EF37F0D3EF37F0D4EF37F04F2A2A
:106FA8004F28D8B4DAEF37F0DCEF37F0E4EF37F0FA
:106FB8004F50D8A4E2EF37F0E4EF37F0F6EF37F0B0
:106FC800000E416E000E426E000E436E000E446EBF
:106FD8004F50D8A4F2EF37F0F4EF37F0F6EF37F070
:106FE800000E4D6E4FA0FBEF37F0FDEF37F000EFCE
:106FF80038F0438E01EF38F0439ED8904F30446EFE
:107008004DAE09EF38F00BEF38F00CEF38F0448E46
:1070180041C041F042C042F043C043F044C044F094
:107028001200B5EC2BF03B0E046E8D0E056E000EB3
:10703800066E000E086E0E0E076ED00EFEEC28F0DF
:1070480000018E518DC05EF05F6A5EC05FF05E6ABF
:107058005E10886F5F50896F90518FC05EF05F6AD5
:107068005EC05FF05E6A5E10866F5F50876F9251F8
:1070780091C05EF05F6A5EC05FF05E6A5E10846F0A
:107088005F50856F945193C05EF05F6A5EC05FF099
:107098005E6A5E107C6F5F507D6F965195C05EF0A2
:1070A8005F6A5EC05FF05E6A5E10826F5F50836FDA
:1070B800985197C05EF05F6A5EC05FF05E6A5E10CE
:1070C800806F5F50816F9A5199C05EF05F6A5EC0B1
:1070D8005FF05E6A5E107E6F5F507F6F88C001F060
:1070E80089C002F0000E02BEFF0E036E046E010E90
:1070F800A2EC2DF001C044F102C045F103C046F1F5
:1071080004C047F186C001F087C002F0000E02BE3D
:10711800FF0E036E046E010EA2EC2DF001C040F1CB
:1071280002C041F103C042F104C043F184C001F040
:1071380085C002F0000E02BEFF0E036E046E010E43
:10714800A2EC2DF001C03CF102C03DF103C03EF1BC
:1071580004C03FF182C001F083C002F0000E02BEFD
:10716800FF0E036E046E010EA2EC2DF001C038F183
:1071780002C039F103C03AF104C03BF180C001F00C
:1071880081C002F0000E02BEFF0E036E046E010EF7
:10719800A2EC2DF001C034F102C035F103C036F184
:1071A80004C037F17EC001F07FC002F0000E02BEBD
:1071B800FF0E036E046E010EA2EC2DF001C030F13B
:1071C80002C031F103C032F104C033F17CC001F0D8
:1071D8007DC002F0000E02BEFF0E036E046E010EAB
:1071E800A2EC2DF001C02CF102C02DF103C02EF14C
:1071F80004C02FF1000E136E000E146E000E156EF3
:10720800400E166E88C001F089C002F0000E02BE62
:10721800FF0E036E046E010EA2EC2DF001C00FF0FC
:1072280002C010F003C011F004C012F0A0EC33F05B
:107238000FC028F010C029F011C02AF012C02BF09E
:10724800000E2C6E000E2D6E000E2E6E470E2F6E49
:10725800CDEC2FF028C078F029C079F02AC07AF058
:107268002BC07BF0000E136E000E146E000E156E10
:10727800400E166E86C001F087C002F0000E02BEF6
:10728800FF0E036E046E010EA2EC2DF001C00FF08C
:1072980002C010F003C011F004C012F0A0EC33F0EB
:1072A8000FC028F010C029F011C02AF012C02BF02E
:1072B800000E2C6E000E2D6E000E2E6E470E2F6ED9
:1072C800CDEC2FF028C074F029C075F02AC076F0F4
:1072D8002BC077F0000E136E000E146E000E156EA4
:1072E800400E166E84C001F085C002F0000E02BE8A
:1072F800FF0E036E046E010EA2EC2DF001C00FF01C
:1073080002C010F003C011F004C012F0A0EC33F07A
:107318000FC028F010C029F011C02AF012C02BF0BD
:10732800000E2C6E000E2D6E000E2E6E470E2F6E68
:10733800CDEC2FF028C070F029C071F02AC072F08F
:107348002BC073F0000E136E000E146E7A0E156EBD
:10735800430E166E82C001F083C002F0000E02BE1A
:10736800FF0E036E046E010EA2EC2DF001C00FF0AB
:1073780002C010F003C011F004C012F0A0EC33F00A
:107388000FC028F010C029F011C02AF012C02BF04D
:10739800000E2C6E000E2D6E000E2E6E470E2F6EF8
:1073A800CDEC2FF028C06CF029C06DF02AC06EF02B
:1073B8002BC06FF0000E136E000E146E7A0E156E51
:1073C800430E166E80C001F081C002F0000E02BEAE
:1073D800FF0E036E046E010EA2EC2DF001C00FF03B
:1073E80002C010F003C011F004C012F0A0EC33F09A
:1073F8000FC028F010C029F011C02AF012C02BF0DD
:10740800000E2C6E000E2D6E000E2E6E470E2F6E87
:10741800CDEC2FF028C068F029C069F02AC06AF0C6
:107428002BC06BF0000E136E000E146E7A0E156EE4
:10743800430E166E7EC001F07FC002F0000E02BE41
:10744800FF0E036E046E010EA2EC2DF001C00FF0CA
:1074580002C010F003C011F004C012F0A0EC33F029
:107468000FC028F010C029F011C02AF012C02BF06C
:10747800000E2C6E000E2D6E000E2E6E470E2F6E17
:10748800CDEC2FF028C064F029C065F02AC066F062
:107498002BC067F05C0E2C6EEF0E2D6EA60E2E6EB6
:1074A800430E2F6E7CC001F07DC002F0000E02BEBC
:1074B800FF0E036E046E010EA2EC2DF001C028F041
:1074C80002C029F003C02AF004C02BF0CDEC2FF045
:1074D80028C041F029C042F02AC043F02BC044F034
:1074E800000E456E000E466EA80E476E410E486EA1
:1074F800B5EC35F041C060F042C061F043C062F0C5
:1075080044C063F0480E00019C6F010E9D6F3F0E52
:107518009E6F7F0E9F6F78C0A0F079C0A1F07AC0EF
:10752800A2F07BC0A3F074C0A4F075C0A5F076C02B
:10753800A6F077C0A7F070C0A8F071C0A9F072C01B
:10754800AAF073C0ABF060C0ACF061C0ADF062C02F
:10755800AEF063C0AFF06CC0B0F06DC0B1F06EC0FB
:10756800B2F06FC0B3F068C0B4F069C0B5F06AC0DB
:10757800B6F06BC0B7F064C0B8F065C0B9F066C0CB
:10758800BAF067C0BBF0CFEC3AF04BEC28F017EF3D
:1075980038F000EF00F0A00E0001C06F000EC16FC0
:1075A8003FEF3FF0250ED419D8B4DDEF3AF0DFEF06
:1075B8003AF0E9EF3AF09CC0D9FF9DC0DAFFD4C099
:1075C800DFFF9C4B9D2B3FEF3FF0000EC36F000E7B
:1075D800C26F9EC0F6FF9FC0F7FF0800F5502E0A45
:1075E800D8A4F9EF3AF0FBEF3AF03AEF3BF0C38D4D
:1075F8009E4B9F2B000ECF6F000ECE6F29EF3BF0F6
:10760800CEC001F0CFC002F0000E046E0A0E036E69
:1076180019EC27F001C0CEF002C0CFF0D00E596EA1
:10762800FF0E5A6E9EC0F6FF9FC0F7FF0800F55088
:107638005B6E5C6A59505B265A505C225B500001B5
:10764800CE275C50CF239E4B9F2B9EC0F6FF9FC03A
:10765800F7FF0800F5505AEC27F0D8B036EF3BF0AA
:1076680038EF3BF004EF3BF044EF3BF0000ECF6FF8
:10767800000ECE6FC38944EF3BF0C38559EF3BF052
:107688009EC0F6FF9FC0F7FF00019E4B9F2B08008E
:10769800F5CFD4F0D451000AD8B450EF3FF0660AC1
:1076A800D8B441EF3BF03FEF3FF0070EC315D8B415
:1076B80060EF3BF062EF3BF0ECEF3EF0C3A967EF01
:1076C8003BF069EF3BF06DEF3BF0000ECF6F060E1D
:1076D800CE6FC0C0D9FFC1C0DAFFDECFD0F0DECF99
:1076E800D1F0DECFD2F0DECFD3F0040EC027000EEB
:1076F800C123D3BF84EF3BF082EF3BF099EF3BF01F
:10770800D0C001F0D1C002F0D2C003F0D3C004F061
:10771800A9EC27F001C0D0F002C0D1F003C0D2F02C
:1077280004C0D3F0030E0001C213000EC96F000E8F
:10773800C86FD0C001F0D1C002F0D2C003F0D3C0EE
:1077480004F0000E056E000E066E000E076E000EA9
:10775800086EA1EC29F0D8B0B4EF3BF0B6EF3BF0DF
:1077680049EF3CF00001D235D335820FC86FC96BA1
:10777800FF0EC923C807D8A0C907C8C001F0C9C0EF
:1077880002F0000E046E030E036E19EC27F001C020
:10779800C8F002C0C9F0C8C007F0C9C008F0000EA0
:1077A8000A6E0A0E096E4EEC2AF007C0C8F008C02F
:1077B800C9F00001C9BFE5EF3BF0E3EF3BF0E8EFAC
:1077C8003BF0C807D8A0C907C85100089AEC31F0A7
:1077D80028C0CAF029C0CBF02AC0CCF02BC0CDF00D
:1077E800CAC00FF0CBC010F0CCC011F0CDC012F061
:1077F800D0C013F0D1C014F0D2C015F0D3C016F029
:10780800A0EC33F00FC0CAF010C0CBF011C0CCF020
:1078180012C0CDF0CAC001F0CBC002F0CCC003F05A
:10782800CDC004F0000E056E000E066E800E076EC9
:107838003F0E086EB0EC2AF0D8B025EF3CF027EFE9
:107848003CF02DEF3CF00001C807D8A0C90749EF6C
:107858003CF0CAC001F0CBC002F0CCC003F0CDC0F0
:1078680004F0000E056E000E066E200E076E410E27
:10787800086EB0EC2AF0D8A044EF3CF046EF3CF09C
:1078880049EF3CF00001C84BC92B0001CFBF58EFAE
:107898003CF0CF5107E10D0ECE5DD8B056EF3CF06D
:1078A80058EF3CF075EF3CF0D0C041F0D1C042F049
:1078B800D2C043F0D3C044F0CE517CEC2EF028C0A7
:1078C80045F029C046F02AC047F02BC048F0B5EC77
:1078D80035F041C0D0F042C0D1F043C0D2F044C02E
:1078E800D3F00001C9BF84EF3CF0C95107E10A0E8B
:1078F800C85DD8B082EF3CF084EF3CF0C1EF3CF0BB
:10790800D0C001F0D1C002F0D2C003F0D3C004F05F
:10791800000E056E000E066E000E076E000E086E55
:10792800A1EC29F0D8B09BEF3CF09DEF3CF016EFAE
:107938003DF0D0C031F0D1C032F0D2C033F0D3C066
:1079480034F032EC2BF03150321033103410D8A40C
:10795800B0EF3CF0B2EF3CF016EF3DF00001C9BFCC
:10796800BFEF3CF0C95109E1020EC85DD8A0BFEFD6
:107978003CF0C1EF3CF016EF3DF0CAC001F0CBC0BF
:1079880002F0CCC003F0CDC004F05F0E056E700E9F
:10799800066E890E076E400E086EB0EC2AF0D8B05D
:1079A800D8EF3CF0DAEF3CF0E1EF3CF00001F70EE5
:1079B800C827FF0EC923E6EF3CF00001F80EC827E0
:1079C800FF0EC923C8519AEC31F028C0CAF029C06B
:1079D800CBF02AC0CCF02BC0CDF0D0C001F0D1C084
:1079E80002F0D2C003F0D3C004F0CAC005F0CBC087
:1079F80006F0CCC007F0CDC008F051EC2CF001C067
:107A0800C4F002C0C5F003C0C6F004C0C7F0000E41
:107A18000001D06F000ED16F000ED26F000ED36F31
:107A280052EF3DF0D0C031F0D1C032F0D2C033F0C7
:107A3800D3C034F032EC2BF031C0C4F032C0C5F002
:107A480033C0C6F034C0C7F0D0C051F0D1C052F036
:107A5800D2C053F0D3C054F0C4C001F0C5C002F086
:107A6800C6C003F0C7C004F0000EA2EC2DF001C0A0
:107A780055F002C056F003C057F004C058F0C5ECEA
:107A880027F051C0D0F052C0D1F053C0D2F054C04A
:107A9800D3F0000E0001C96F000EC86F010ED46F3D
:107AA800D451040D170EF324F66E7F0EF420F76EF2
:107AB8000900F550C45D0900F550C5590900F55095
:107AC800C6590900F550C759D8B06DEF3DF06FEFB2
:107AD8003DF071EF3DF07BEF3DF0D42B0A0ED41949
:107AE800D8A479EF3DF07BEF3DF054EF3DF0030E65
:107AF800C215596E000EC3155A6E59505A10D8B493
:107B080088EF3DF08AEF3DF0DEEF3DF09CC0D9FFF5
:107B18009DC0DAFF2D0EDF6E9C4B9D2BDEEF3DF0F6
:107B2800C4C001F0C5C002F0C6C003F0C7C004F06D
:107B3800D451040D170EF324F66E7F0EF420F76E61
:107B48000900F5CF05F00900F5CF06F00900F5CFDB
:107B580007F00A00F5CF08F04FEC29F001C0CAF091
:107B680002C0CBF003C0CCF004C0CDF0CAC001F015
:107B7800CBC002F0CCC003F0CDC004F00A0E056EF5
:107B8800000E066E000E076E000E086EBAEC28F0A6
:107B980001C0CAF002C0CBF003C0CCF004C0CDF0E5
:107BA8000001CA51300F9CC0D9FF9DC0DAFFDF6EBB
:107BB80090EF3DF0D407D429D8A4E5EF3DF0E7EFE6
:107BC8003DF094EF3DF0F4EF3DF09CC0D9FF9DC02F
:107BD800DAFF300EDF6E9C4B9D2BC807D8A0C90773
:107BE800C9BF01EF3EF0C95106E1C805D8B0FFEFA3
:107BF8003DF001EF3EF0E9EF3DF0CFBF0DEF3EF075
:107C0800CF5109E1090ECE5DD8A00DEF3EF00FEF80
:107C18003EF013EF3EF0080ED46F15EF3EF0CEC0E5
:107C2800D4F0D451CE5F000ECF5BD451D8B41FEF3F
:107C38003EF021EF3EF029EF3EF09CC0D9FF9DC0F9
:107C4800DAFF2E0EDF6E9C4B9D2BD4519AEC31F04F
:107C580028C0BCF029C0BDF02AC0BEF02BC0BFF0C0
:107C6800D0C013F0D1C014F0D2C015F0D3C016F0B4
:107C7800BCC00FF0BDC010F0BEC011F0BFC012F004
:107C8800A0EC33F00FC031F010C032F011C033F067
:107C980012C034F032EC2BF031C0C4F032C0C5F061
:107CA80033C0C6F034C0C7F0CAEF3EF0C4C001F01C
:107CB800C5C002F0C6C003F0C7C004F0D451040D1B
:107CC800170EF324F66E7F0EF420F76E0900F5CF39
:107CD80005F00900F5CF06F00900F5CF07F00A0016
:107CE800F5CF08F04FEC29F001C0CAF002C0CBF084
:107CF80003C0CCF004C0CDF0CAC001F0CBC002F084
:107D0800CCC003F0CDC004F00A0E056E000E066E5E
:107D1800000E076E000E086EBAEC28F001C0CAF01B
:107D280002C0CBF003C0CCF004C0CDF00001CA51B2
:107D3800300F9CC0D9FF9DC0DAFFDF6E9C4B9D2B96
:107D4800C4C001F0C5C002F0C6C003F0C7C004F04B
:107D5800D451040D170EF324F66E7F0EF420F76E3F
:107D68000900F5CF05F00900F5CF06F00900F5CFB9
:107D780007F00A00F5CF08F0BAEC28F001C0C4F00B
:107D880002C0C5F003C0C6F004C0C7F00001D407A4
:107D9800D429D8A4D2EF3EF0D4EF3EF05AEF3EF00B
:107DA800E1EF3EF09CC0D9FF9DC0DAFF300EDF6ED8
:107DB8009C4B9D2BCE07D8A0CF07CE51CF11D8A46E
:107DC800E8EF3EF0EAEF3EF0D6EF3EF03FEF3FF04F
:107DD800CE51CF11D8A4F3EF3EF0F5EF3EF002EF0D
:107DE8003FF0C451C511C611C711D8A4FEEF3EF02B
:107DF80000EF3FF002EF3FF0CE4BCF2BD451596E3E
:107E08005A6ACE51595C5A50800A5B6ECF51800A2B
:107E18005B58D8B012EF3FF014EF3FF016EF3FF089
:107E280028EF3FF0D451596E5A6A5950CE5DCF5160
:107E3800800A5B6E5A50800A5B58D8B026EF3FF034
:107E480028EF3FF028EF3FF0030EC215596E000EE1
:107E5800C3155A6E59505A10D8B435EF3FF037EF62
:107E68003FF03FEF3FF09CC0D9FF9DC0DAFF2D0ED9
:107E7800DF6EE5EF3AF09EC0F6FF9FC0F7FF9E4B1E
:107E88009F2B0800F5CFD4F0D451D8A44EEF3FF083
:107E980050EF3FF0D6EF3AF09CC0D9FF9DC0DAFF13
:107EA800000EDF6E1200000000803F00002041003D
:107EB80000C84200007A4400401C460050C34700F6
:107EC8002474498096184B20BCBE4C286B6E4EF922
:107ED800021550EC78AD60CAF249710000803FCDC0
:107EE800CCCC3D0AD7233C6F12833A17B7D138ACB4
:107EF800C52737BD37863595BFD63377CC2B325F4C
:107F0800708930FFE6DB2E08E53C1E6042A20D01B9
:107F18000000000A00000064000000E803000010F0
:107F2800270000A086010040420F008096980000BC
:107F3800E1F50500CA9A3B61782C2061792C206113
:107F48007A2C20742C2067782C2067792C20677A6B
:107F58003A20252E336620252E336620252E3366BB
:107F680020252E336620252E336620252E336620C5
:107F7800252E33660A00494E494349414C495A4126
:107F88004E444F204120434F4D554E4943414341B4
:107F98004F20493243200A00494E494349414C4940
:107FA8005A414E444F20544553542057484F204976
:107FB80020414D200A00544553542057484F20492A
:107FC80020414D2046414C4C49444F200A0054451D
:107FD80053542057484F204920414D2046554E4381
:107FE800494F4E4F0A0057726974652031737420E7
:077FF800493243200A00009A
:020000040020DA
:08000000FFFFFFFFFFFFFFFF00
:020000040030CA
:0E00000000091F1EFF8381FF0FC00FE00F409D
:00000001FF
