:020000040000FA
:0400000007EF00F016
:0A0008004F8257ED0BF078EF18F06F
:100800000001000A006400E803102720456C206303
:100810006172616374657220726563696269646F95
:10082000206675653A20256300616E67756C6F20E0
:1008300061746F69202564200A00616E67756C6FB2
:10084000207A202563200A0020416E67756C6F3A7C
:10085000202564200A0020536572766F3A202564B3
:10086000200A0053657474696E6773002564000084
:10087000010E016E000EB9EC19F0000E076E07C0F4
:1008800003F0010E49EC1AF04E0E0724D96EDA6A15
:10089000010EDA22DF5076EC1AF0072A050E076403
:1008A00054EF04F056EF04F03FEF04F0000E076E33
:1008B0000750060F036E010E49EC1AF0540E072480
:1008C000D96EDA6A010EDA22DF5076EC1AF0072AC6
:1008D000050E07646EEF04F070EF04F058EF04F0BB
:1008E00006500C0F036E010E49EC1AF0000E066E56
:1008F00088EF06F0620E0624D96EDA6A000EDA225C
:10090000300EDE18D8A487EF04F089EF04F09DEFD5
:1009100004F0000E076E000E0724D96EDA6A010E8D
:10092000DA22DF5076EC1AF0072A050E07649BEFF7
:1009300004F09DEF04F08BEF04F0620E0624D96EF4
:10094000DA6A000EDA22310EDE18D8A4AAEF04F01B
:10095000ACEF04F0C0EF04F0000E076E060E0724A3
:10096000D96EDA6A010EDA22DF5076EC1AF0072A25
:10097000050E0764BEEF04F0C0EF04F0AEEF04F024
:10098000620E0624D96EDA6A000EDA22320EDE1802
:10099000D8A4CDEF04F0CFEF04F0E3EF04F0000EA5
:1009A000076E0C0E0724D96EDA6A010EDA22DF50C8
:1009B00076EC1AF0072A050E0764E1EF04F0E3EF86
:1009C00004F0D1EF04F0620E0624D96EDA6A000E4C
:1009D000DA22330EDE18D8A4F0EF04F0F2EF04F0C0
:1009E00006EF05F0000E076E120E0724D96EDA6AC4
:1009F000010EDA22DF5076EC1AF0072A050E0764A2
:100A000004EF05F006EF05F0F4EF04F0620E0624A3
:100A1000D96EDA6A000EDA22340EDE18D8A413EF8B
:100A200005F015EF05F029EF05F0000E076E180E22
:100A30000724D96EDA6A010EDA22DF5076EC1AF05A
:100A4000072A050E076427EF05F029EF05F017EFD9
:100A500005F0620E0624D96EDA6A000EDA22350E2F
:100A6000DE18D8A436EF05F038EF05F04CEF05F0AE
:100A7000000E076E1E0E0724D96EDA6A010EDA2206
:100A8000DF5076EC1AF0072A050E07644AEF05F0EE
:100A90004CEF05F03AEF05F0620E0624D96EDA6AE3
:100AA000000EDA22360EDE18D8A459EF05F05BEFFF
:100AB00005F06FEF05F0000E076E240E0724D96EC7
:100AC000DA6A010EDA22DF5076EC1AF0072A050EF8
:100AD00007646DEF05F06FEF05F05DEF05F0620E56
:100AE0000624D96EDA6A000EDA22370EDE18D8A490
:100AF0007CEF05F07EEF05F092EF05F0000E076E3B
:100B00002A0E0724D96EDA6A010EDA22DF5076EC5B
:100B10001AF0072A050E076490EF05F092EF05F032
:100B200080EF05F0620E0624D96EDA6A000EDA2232
:100B3000380EDE18D8A49FEF05F0A1EF05F0B5EF51
:100B400005F0000E076E300E0724D96EDA6A010E2A
:100B5000DA22DF5076EC1AF0072A050E0764B3EFAD
:100B600005F0B5EF05F0A3EF05F0620E0624D96E8F
:100B7000DA6A000EDA22390EDE18D8A4C2EF05F0C8
:100B8000C4EF05F0D8EF05F0000E076E360E07240F
:100B9000D96EDA6A010EDA22DF5076EC1AF0072AF3
:100BA000050E0764D6EF05F0D8EF05F0C6EF05F0A7
:100BB000620E0624D96EDA6A000EDA222E0EDE18D4
:100BC000D8A4E5EF05F0E7EF05F0FBEF05F0000E28
:100BD000076E3C0E0724D96EDA6A010EDA22DF5066
:100BE00076EC1AF0072A050E0764F9EF05F0FBEF23
:100BF00005F0E9EF05F0620E0624D96EDA6A000E00
:100C0000DA22B00EDE18D8A408EF06F00AEF06F0DC
:100C10001EEF06F0000E076E420E0724D96EDA6A48
:100C2000010EDA22DF5076EC1AF0072A050E07646F
:100C30001CEF06F01EEF06F00CEF06F0620E062425
:100C4000D96EDA6A000EDA22200EDE18D8A42BEF55
:100C500006F02DEF06F041EF06F0000E076E420E93
:100C60000724D96EDA6A010EDA22DF5076EC1AF028
:100C7000072A050E07643FEF06F041EF06F02FEF5D
:100C800006F0620E0624D96EDA6A000EDA22560EDB
:100C9000DE18D8A44EEF06F050EF06F064EF06F031
:100CA000000E076E480E0724D96EDA6A010EDA22AA
:100CB000DF5076EC1AF0072A050E076462EF06F0A3
:100CC00064EF06F052EF06F0620E0624D96EDA6A7F
:100CD000000EDA22430EDE18D8A471EF06F073EF8F
:100CE00006F087EF06F0000E076E5A0E0724D96E45
:100CF000DA6A010EDA22DF5076EC1AF0072A050EC6
:100D0000076485EF06F087EF06F075EF06F0062A18
:100D1000620E016E000E026E85EC19F00650015C49
:100D2000000E0258D8B097EF06F099EF06F07AEF70
:100D300004F0120000019351800B9C6F9351932596
:100D40009E6F92AFA6EF06F0A8EF06F0A9EF06F0AF
:100D50009E819E51D8B4AFEF06F0B1EF06F0C6EF1A
:100D600006F09E29D8A4B7EF06F0B9EF06F0C1EF60
:100D700006F0000E906F000E916F000E926F000E45
:100D8000936F928F000E936FCEEF06F0000E906F70
:100D9000000E916F000E926F000E936F9751800BB3
:100DA0009D6F9C519D19D8B4D8EF06F0DAEF06F08C
:100DB000DBEF06F09C8D975197259D6F96AFE3EF83
:100DC00006F0E5EF06F0E6EF06F09D819D51D8B400
:100DD000ECEF06F0EEEF06F003EF07F09D29D8A444
:100DE000F4EF06F0F6EF06F0FEEF06F0000E946F5B
:100DF000000E956F000E966F000E976F968F000E87
:100E0000976F0BEF07F0000E946F000E956F000EBA
:100E1000966F000E976F9E519D5DD8B012EF07F050
:100E200014EF07F03BEF07F09CAD19EF07F01BEF55
:100E300007F01DEF07F0800E9C1B9EC09FF09DC029
:100E40009EF09FC09DF090C09FF094C090F09FC016
:100E500094F091C09FF095C091F09FC095F092C022
:100E60009FF096C092F09FC096F093C09FF097C0FD
:100E700093F09FC097F0000E9F6F9E519DC098F019
:100E8000996B985F000E995B99BF50EF07F09951ED
:100E900009E11A0E985DD8A050EF07F052EF07F065
:100EA00089EF07F09051911192119311D8A45BEF43
:100EB00007F05EEF07F0010E5FEF07F0000E9F6F87
:100EC000000E906F000E916F000E926F000E936FE8
:100ED0009DC09EF092EF07F09FA171EF07F073EFB6
:100EE00007F079EF07F0D8909F3101099F6F7BEFF2
:100EF00007F0D8909F3390A180EF07F082EF07F0C2
:100F000083EF07F09F8F9335933392339133903370
:100F10009E2B9D519E5DD8A090EF07F092EF07F0B9
:100F20006CEF07F09CBD97EF07F099EF07F0D9EF52
:100F300007F09E51D8A49FEF07F0A1EF07F0ABEFA9
:100F400007F0000E906F000E916F000E926F000E72
:100F5000936FFAEF08F09451902795519123965191
:100F600092239751932393A1B8EF07F0BAEF07F0BC
:100F700066EF08F09FA1BFEF07F0C1EF07F0C7EFE2
:100F800007F0D8909F3101099F6FC9EF07F0D89003
:100F90009F3390A1CEEF07F0D0EF07F0D1EF07F02D
:100FA0009F8F933593339233913390339E2B66EF1B
:100FB00008F09451905D95519159965192599351E1
:100FC000800A986F9751800A9859D8B0EAEF07F0D5
:100FD000ECEF07F017EF08F09051945D986F915186
:100FE0009559996F925196599A6F935197599B6F52
:100FF000FF0E9825906FFF0E9921916FFF0E9A2199
:10100000926FFF0E9B21936F800E9C1B9F6D9F51D3
:10101000D8A40DEF08F00FEF08F01FEF08F0010E55
:101020009027000E9123922393231FEF08F09451F1
:10103000905F9551915B9651925B9751935B905164
:10104000911192119311D8A428EF08F02AEF08F01B
:101050005FEF08F09F51D8A430EF08F032EF08F0AE
:101060005FEF08F0000E906F000E916F000E926F10
:10107000000E936FFAEF08F0D890903791379237BF
:1010800093379FAF46EF08F048EF08F049EF08F0BC
:1010900090819FA14EEF08F050EF08F054EF08F058
:1010A000D8809F3756EF08F0D8909F379E51D8B41C
:1010B0005CEF08F05EEF08F05FEF08F09E0792AF7C
:1010C00064EF08F066EF08F03CEF08F0000E9D6F4B
:1010D0009FAF6DEF08F06FEF08F087EF08F09FC04B
:1010E00098F07F0E9817D8B478EF08F07AEF08F0F0
:1010F0007EEF08F0010E9D6F87EF08F090A183EF5F
:1011000008F085EF08F087EF08F07AEF08F09D51BE
:10111000D8B48DEF08F08FEF08F0BAEF08F0010EA9
:101120009027000E91239223932393A19AEF08F026
:101130009CEF08F0BAEF08F090C098F091C099F0D9
:1011400092C09AF093C09BF09B359B339A339933AE
:10115000983398C090F099C091F09AC092F09BC0DB
:1011600093F09E29D8B4B7EF08F0B9EF08F0BAEFC2
:1011700008F09E2B9E29D8B4C0EF08F0C2EF08F00B
:10118000CAEF08F09E51D8A4C8EF08F0CAEF08F0E3
:10119000DCEF08F0000E906F000E916F000E926F62
:1011A000000E936F9E51D8A4D8EF08F0DAEF08F044
:1011B000DCEF08F0000E9C6F9EA1E1EF08F0E3EF7A
:1011C00008F0E6EF08F0928FE7EF08F0929FD890D2
:1011D0009E31936F9CAFEFEF08F0F1EF08F0F2EF64
:1011E00008F0938F90C090F091C091F092C092F06F
:1011F00093C093F01200000E016E010EB9EC19F0CD
:10120000000E076E07C003F0060E49EC1AF0480EF8
:101210000724D96EDA6A010EDA22DF5076EC1AF072
:10122000072A050E076417EF09F019EF09F002EF1E
:1012300009F0000E076E0750060F036E060E49EC0C
:101240001AF0540E0724D96EDA6A010EDA22DF5042
:1012500076EC1AF0072A050E076431EF09F033EF38
:1012600009F01BEF09F006500C0F036E060E49EC57
:101270001AF0000E066E45EF0BF0620E0624D96ED2
:10128000DA6A000EDA22300EDE18D8A44AEF09F02E
:101290004CEF09F060EF09F0000E076E000E072416
:1012A000D96EDA6A010EDA22DF5076EC1AF0072ADC
:1012B000050E07645EEF09F060EF09F04EEF09F0EC
:1012C000620E0624D96EDA6A000EDA22310EDE18BA
:1012D000D8A46DEF09F06FEF09F083EF09F0000E6D
:1012E000076E060E0724D96EDA6A010EDA22DF5085
:1012F00076EC1AF0072A050E076481EF09F083EFF8
:1013000009F071EF09F0620E0624D96EDA6A000E58
:10131000DA22320EDE18D8A490EF09F092EF09F02D
:10132000A6EF09F0000E076E0C0E0724D96EDA6ADC
:10133000010EDA22DF5076EC1AF0072A050E076458
:10134000A4EF09F0A6EF09F094EF09F0620E06246D
:10135000D96EDA6A000EDA22330EDE18D8A4B3EFA3
:1013600009F0B5EF09F0C9EF09F0000E076E120E93
:101370000724D96EDA6A010EDA22DF5076EC1AF011
:10138000072A050E0764C7EF09F0C9EF09F0B7EFA8
:1013900009F0620E0624D96EDA6A000EDA22340EE3
:1013A000DE18D8A4D6EF09F0D8EF09F0ECEF09F079
:1013B000000E076E180E0724D96EDA6A010EDA22C3
:1013C000DF5076EC1AF0072A050E0764EAEF09F001
:1013D000ECEF09F0DAEF09F0620E0624D96EDA6A52
:1013E000000EDA22350EDE18D8A4F9EF09F0FBEF73
:1013F00009F00FEF0AF0000E076E1E0E0724D96EDB
:10140000DA6A010EDA22DF5076EC1AF0072A050EAE
:1014100007640DEF0AF00FEF0AF0FDEF09F0620E1E
:101420000624D96EDA6A000EDA22360EDE18D8A447
:101430001CEF0AF01EEF0AF032EF0AF0000E076E02
:10144000240E0724D96EDA6A010EDA22DF5076EC18
:101450001AF0072A050E076430EF0AF032EF0AF09F
:1014600020EF0AF0620E0624D96EDA6A000EDA2244
:10147000370EDE18D8A43FEF0AF041EF0AF055EF1F
:101480000AF0000E076E2A0E0724D96EDA6A010EE2
:10149000DA22DF5076EC1AF0072A050E076453EFC4
:1014A0000AF055EF0AF043EF0AF0620E0624D96EF7
:1014B000DA6A000EDA22380EDE18D8A462EF0AF0DB
:1014C00064EF0AF078EF0AF0000E076E300E072482
:1014D000D96EDA6A010EDA22DF5076EC1AF0072AAA
:1014E000050E076476EF0AF078EF0AF066EF0AF06F
:1014F000620E0624D96EDA6A000EDA22390EDE1880
:10150000D8A485EF0AF087EF0AF09BEF0AF0000EEF
:10151000076E360E0724D96EDA6A010EDA22DF5022
:1015200076EC1AF0072A050E076499EF0AF09BEF94
:101530000AF089EF0AF0620E0624D96EDA6A000E0C
:10154000DA222E0EDE18D8A4A8EF0AF0AAEF0AF0CD
:10155000BEEF0AF0000E076E3C0E0724D96EDA6A61
:10156000010EDA22DF5076EC1AF0072A050E076426
:10157000BCEF0AF0BEEF0AF0ACEF0AF0620E0624F0
:10158000D96EDA6A000EDA22B00EDE18D8A4CBEFDC
:101590000AF0CDEF0AF0E1EF0AF0000E076E420EFE
:1015A0000724D96EDA6A010EDA22DF5076EC1AF0DF
:1015B000072A050E0764DFEF0AF0E1EF0AF0CFEF2C
:1015C0000AF0620E0624D96EDA6A000EDA22200EC4
:1015D000DE18D8A4EEEF0AF0F0EF0AF0FEEF0AF002
:1015E000000E076E000E76EC1AF0072A050E07644F
:1015F000FCEF0AF0FEEF0AF0F2EF0AF0620E0624AA
:10160000D96EDA6A000EDA22560EDE18D8A40BEF75
:101610000BF00DEF0BF021EF0BF0000E076E480EF4
:101620000724D96EDA6A010EDA22DF5076EC1AF05E
:10163000072A050E07641FEF0BF021EF0BF00FEFE9
:101640000BF0620E0624D96EDA6A000EDA22430E1F
:10165000DE18D8A42EEF0BF030EF0BF044EF0BF0B8
:10166000000E076E4E0E0724D96EDA6A010EDA22DA
:10167000DF5076EC1AF0072A050E076442EF0BF0F4
:1016800044EF0BF032EF0BF0062A620E016E000EF3
:10169000026E85EC19F00650015C000E0258D8B0BD
:1016A00054EF0BF056EF0BF03DEF09F0120006007F
:1016B000D9CF22F0DACF23F0F3CF24F0F4CF25F006
:1016C000F6CF26F0F7CF27F0F8CF28F0F5CF29F0A6
:1016D0009EAA6DEF0BF06FEF0BF027EF0DF0AECF82
:1016E0002AF0620E0D6E000E0E6E0B0E0F6E080EBF
:1016F000106E2AC011F0126A67EC10F036EC17F089
:101700003550D8A486EF0BF088EF0BF0EBEF0BF021
:10171000010E356E300E2A18D8A491EF0BF093EF1E
:101720000BF099EF0BF0000E4E6E000E4D6E07EFB2
:101730000DF00D0E2A18D8B4A0EF0BF0A2EF0BF0AD
:10174000ABEF0BF00A0E2A18D8A4A9EF0BF0ABEF01
:101750000BF0CBEF0BF0000E1C6E000E1B6E000E9C
:101760001E6E000E1D6E25EC16F0000E1C6E000E97
:101770001B6E000E1E6E5A0E1D6E25EC16F0000E2E
:101780001C6E000E1B6E000E1E6EB40E1D6E25EC40
:1017900016F007EF0DF0310E2A18D8A4D2EF0BF097
:1017A000D4EF0BF0DAEF0BF0000E4E6E010E4D6E23
:1017B00007EF0DF0320E2A18D8A4E1EF0BF0E3EF9B
:1017C0000BF0E9EF0BF0000E4E6E020E4D6E07EFC0
:1017D0000DF007EF0DF03504D8A4F1EF0BF0F3EFA7
:1017E0000BF0A0EF0CF0310E2A18D8A4FAEF0BF092
:1017F000FCEF0BF009EF0CF0818C4DC01BF04EC0DC
:101800001CF0000E1E6E000E1D6E25EC16F007EF8C
:101810000DF0320E2A18D8A410EF0CF012EF0CF0D5
:101820001EEF0CF04DC01BF04EC01CF0000E1E6EE3
:101830002D0E1D6E25EC16F007EF0DF0330E2A1855
:10184000D8A425EF0CF027EF0CF033EF0CF04DC0CF
:101850001BF04EC01CF0000E1E6E5A0E1D6E25ECC5
:1018600016F007EF0DF0340E2A18D8A43AEF0CF05A
:101870003CEF0CF048EF0CF04DC01BF04EC01CF0DC
:10188000000E1E6E870E1D6E25EC16F007EF0DF094
:10189000350E2A18D8A44FEF0CF051EF0CF05DEF85
:1018A0000CF04DC01BF04EC01CF0000E1E6EB40EAE
:1018B0001D6E25EC16F007EF0DF0730E2A18D8A454
:1018C00064EF0CF066EF0CF06AEF0CF0000E356E72
:1018D00007EF0DF00D0E2A18D8B471EF0CF073EF6E
:1018E0000CF0E9EF0BF00A0E2A18D8A47AEF0CF0EE
:1018F0007CEF0CF07EEF0CF007EF0DF0610E2A1874
:10190000D8A485EF0CF087EF0CF08FEF0CF0020EEF
:10191000356E000E2E6E000E2D6E07EF0DF0620E6E
:101920000D6E000E0E6E0C0E0F6E080E106E2AC09D
:1019300011F0126A67EC10F036EC17F007EF0DF0BB
:10194000020E3518D8A4A7EF0CF0A9EF0CF007EFA2
:101950000DF04A0E2D24D96E000E2E20DA6E2AC00C
:10196000DFFF620E0D6E000E0E6E3A0E0F6E080E49
:10197000106E4A0E2D24D96E000E2E20DA6EDF5026
:10198000216E2150116E126A67EC10F036EC17F0E0
:101990002D4A2E2A030E2D182E10D8A4D2EF0CF0AB
:1019A000D4EF0CF0FCEF0CF0000E2E6E000E2D6E3E
:1019B0004A0E0F6E000E106E0BEC13F00FC02BF0E2
:1019C00010C02CF0620E0D6E000E0E6E290E0F6E02
:1019D000080E106E2BC011F02CC012F067EC10F046
:1019E00036EC17F04DC01BF04EC01CF02BC01DF0A4
:1019F0002CC01EF025EC16F0730E2A18D8A403EFA5
:101A00000DF005EF0DF007EF0DF066EF0CF0360E60
:101A10000D6E000E0E6E6C0E0F6E080E106E2BC04B
:101A200011F02CC012F067EC10F0FBEC08F0360E51
:101A30000D6E000E0E6E6C0E0F6E080E106E4DC009
:101A400011F04EC012F067EC10F038EC04F029C031
:101A5000F5FF28C0F8FF27C0F7FF26C0F6FF25C016
:101A6000F4FF24C0F3FF23C0DAFF22C0D9FF4F9256
:101A7000110000019351800BA06F93519325A76F24
:101A800092AF45EF0DF047EF0DF048EF0DF0A78155
:101A9000A751D8B44EEF0DF050EF0DF065EF0DF0FB
:101AA000A729D8A456EF0DF058EF0DF060EF0DF018
:101AB000000E906F000E916F000E926F000E936FEC
:101AC000928F000E936F6DEF0DF0000E906F000E71
:101AD000916F000E926F000E936F9751800BA01BB9
:101AE00097519725A86F96AF78EF0DF07AEF0DF02C
:101AF0007BEF0DF0A881A851D8B481EF0DF083EFF2
:101B00000DF098EF0DF0A829D8A489EF0DF08BEF18
:101B10000DF093EF0DF0000E946F000E956F000E18
:101B2000966F000E976F968F000E976FA0EF0DF0D7
:101B3000000E946F000E956F000E966F000E976F5B
:101B40009451951196119711D8A4A9EF0DF0ABEF10
:101B50000DF0C3EF0DF0000E906F000E916F000EB0
:101B6000926F000E936F800E92137F0E9313A0510D
:101B7000931390C090F091C091F092C092F093C0F6
:101B800093F006EF0FF0A751D8A4C9EF0DF0CBEFFB
:101B90000DF0D5EF0DF0000E906F000E916F000E5E
:101BA000926F000E936F06EF0FF0A851A7C098F048
:101BB000996B985F000E995B7F0E9825A16F000EC0
:101BC0009921A26F90C09CF091C09DF092C09EF0B0
:101BD00093C09FF0000E906F000E916F000E926FF9
:101BE000000E936F000EA36F000EA46F000EA56F82
:101BF000000EA66F000EA86F36EF0EF0A851D8B4F5
:101C000004EF0EF006EF0EF01DEF0EF0D8909C37AB
:101C10009D379E379F37D8909037913792379337BB
:101C2000A6AF15EF0EF017EF0EF018EF0EF0908143
:101C3000D890A337A437A537A63794519C5D95510A
:101C40009D5996519E5997519F59D8A02AEF0EF051
:101C50002CEF0EF035EF0EF0A68D94519C5F955150
:101C60009D5B96519E5B97519F5BA82B190EA865B3
:101C70003CEF0EF03EEF0EF0FEEF0DF09C519D118B
:101C80009E119F11D8B447EF0EF049EF0EF061EFAF
:101C90000EF0A38161EF0EF0D89090379137923714
:101CA0009337A6AF56EF0EF058EF0EF059EF0EF047
:101CB0009081D890A337A437A537A637A107D8A01D
:101CC000A20792AF66EF0EF068EF0EF04CEF0EF049
:101CD000000EA86FA6AF6FEF0EF071EF0EF095EF4C
:101CE0000EF0FF0EA315986FFF0EA415996FFF0E4F
:101CF000A5159A6F7F0EA6159B6F985199119A1191
:101D00009B11D8B486EF0EF088EF0EF08CEF0EF03A
:101D1000010EA86F95EF0EF090A191EF0EF093EFEA
:101D20000EF095EF0EF088EF0EF0A851D8B49BEFAF
:101D30000EF09DEF0EF0C1EF0EF0010E9027000E99
:101D400091239223932393A1A8EF0EF0AAEF0EF014
:101D5000C1EF0EF090C098F091C099F092C09AF047
:101D600093C09BF09B359B339A339933983398C03B
:101D700090F099C091F09AC092F09BC093F0A14B63
:101D8000A22BA2BFCCEF0EF0A25108E1A129D8A04E
:101D9000CCEF0EF0CEEF0EF0D9EF0EF0000EA26FEA
:101DA000A169000E906F000E916F000E926F000EF1
:101DB000936FA2BFE6EF0EF0A25106E1A105D8B0E5
:101DC000E4EF0EF0E6EF0EF0F4EF0EF0000EA26F6F
:101DD000000EA16F000E906F000E916F000E926FBB
:101DE000000E936F000EA06FA1C0A7F0A7A1FBEF9C
:101DF0000EF0FDEF0EF000EF0FF0928F01EF0FF0FD
:101E0000929FD890A731936FB7EF0DF01200A9C041
:101E100090F0AAC091F0ABC092F0ACC093F0000E6D
:101E20000001946F000E956F800E966F3F0E976FB6
:101E30001BEC14F00001D8B020EF0FF022EF0FF0F0
:101E40002AEF0FF0000EA96F000EAA6F800EAB6F85
:101E50003F0EAC6F000E906FC00E916F5A0E926FD6
:101E6000450E936FA9C094F0AAC095F0ABC096F050
:101E7000ACC097F01BEC14F00001D8B042EF0FF0AB
:101E800044EF0FF04CEF0FF0000EA96FC00EAA6FD9
:101E90005A0EAB6F450EAC6FBC0EB06FEF0EB16F4C
:101EA000C60EB26F4B0EB36FB0C090F0B1C091F0E0
:101EB000B2C092F0B3C093F0A9C094F0AAC095F05C
:101EC000ABC096F0ACC097F039EC0DF090C0B0F01C
:101ED00091C0B1F092C0B2F093C0B3F0B0C090F036
:101EE000B1C091F0B2C092F0B3C093F0000E000107
:101EF000946F000E956F000E966F450E976F9AECDB
:101F000006F090C0B0F091C0B1F092C0B2F093C0B2
:101F1000B3F0B0C090F0B1C091F0B2C092F0B3C0D5
:101F200093F0000E0001946F000E956F800E966F77
:101F3000450E976F39EC0DF090C0B0F091C0B1F044
:101F400092C0B2F093C0B3F0B0C0A0F0B1C0A1F0A5
:101F5000B2C0A2F0B3C0A3F0000E0001A46F000E47
:101F6000A56F800EA66F3F0EA76FA7EC18F0A0C05C
:101F7000B0F0A1C0B1F0A2C0B2F0A3C0B3F0B0C045
:101F800090F0B1C091F0B2C092F0B3C093F0000EE7
:101F90000001946F000E956F400E966F400E976F84
:101FA0001BEC14F00001D8B0D8EF0FF0DAEF0FF00F
:101FB000E2EF0FF0000EB06F000EB16F400EB26F87
:101FC000400EB36F000E906F000E916F7F0E926FF8
:101FD000430E936FB0C094F0B1C095F0B2C096F0CC
:101FE000B3C097F01BEC14F00001D8B0FAEF0FF07B
:101FF000FCEF0FF004EF10F0000EB06F000EB16FA9
:102000007F0EB26F430EB36FB0C090F0B1C091F0CD
:10201000B2C092F0B3C093F097EC13F0000190516E
:10202000AE6F000E936F8F0E946F000E956F000EC3
:10203000976F010E966F800E01EC15F000018F5125
:102040007F0B1009AF6F000E926FAF0E936F000EF3
:10205000946F000E966F010E956F800E80EC16F057
:10206000FE0E0001926FAE0E936F000E946F000E85
:10207000966F010E956F800E80EC16F0000E000139
:10208000926F8F0E936F000E946F000E966F010E7D
:10209000956F800E80EC16F00D0E0001AD6FFB0EFB
:1020A000E82EFED7AD2FFCD700D000018F51A0093C
:1020B0008E6F000E926F8E0E936F000E946F000E57
:1020C000966F010E956F800E80EC16F01200110EC7
:1020D000166E000E176E35EF11F0250E1A18D8B4D3
:1020E00074EF10F076EF10F080EF10F00DC0D9FF14
:1020F0000EC0DAFF1AC0DFFF0D4A0E2A35EF11F0CD
:10210000000E146E90EF10F016C0D9FF17C0DAFF62
:10211000DF501A6E020E1626000E172276EF10F010
:102120000FC0F6FF10C0F7FF0F4A102A0800F5CFC6
:102130001AF01A50000AD8B446EF11F0630AD8B466
:1021400084EF10F0070AD8B4ACEF10F00D0AD8B441
:10215000ACEF10F076EF10F016C0D9FF17C0DAFF21
:10216000DECF18F0DDCF19F0020E1626000E172272
:1021700019BEBFEF10F0BDEF10F0C5EF10F0030E69
:102180001412186C191ED8B0192A010E1A6E050EF9
:102190001A18D8A4CEEF10F0D0EF10F0D2EF10F054
:1021A000ECEF10F01A50020D010EF324F66E080E3B
:1021B000F420F76E0900F550185C0900F550195825
:1021C000D8B0E5EF10F0E7EF10F0E9EF10F0ECEF2A
:1021D00010F01A2AC7EF10F014C013F0030E1316F4
:1021E000D8B4F5EF10F0F7EF10F0FFEF10F00DC0DE
:1021F000D9FF0EC0DAFF2D0EDF6E0D4A0E2A1AC06F
:1022000015F02CEF11F01550020D010EF324F66EAF
:10221000080EF420F76E0900F5CF03F00A00F5CFA1
:1022200004F018C001F019C002F071EC17F001C001
:1022300008F002C009F0000E0B6E0A0E0A6E16ECD2
:1022400018F00850300F1A6E0DC0D9FF0EC0DAFF1B
:102250001AC0DFFF0D4A0E2A15061528D8A433EF41
:1022600011F035EF11F003EF11F00FC0F6FF10C0C1
:10227000F7FF0F4A102A0800F5CF1AF01A50D8A419
:1022800044EF11F046EF11F06DEF10F00DC0D9FFE3
:102290000EC0DAFF000EDF6E1200A00E0001A56F67
:1022A000000EA66F1AEF12F0250EA919D8B45BEF35
:1022B00011F05DEF11F067EF11F09CC0D9FF9DC0E8
:1022C000DAFFA9C0DFFF9C4B9D2B1AEF12F0000E26
:1022D000A36F77EF11F0A5C0D9FFA6C0DAFFDF50DA
:1022E000A96F020EA527000EA6235DEF11F09EC078
:1022F000F6FF9FC0F7FF9E4B9F2B0800F5CFA9F07C
:10230000A951000AD8B42BEF12F0630AD8B46BEFCE
:1023100011F0070AD8B493EF11F00D0AD8B493EF77
:1023200011F05DEF11F0A5C0D9FFA6C0DAFFDECF36
:10233000A7F0DDCFA8F0020EA527000EA623A8BFA8
:10234000A6EF11F0A4EF11F0ACEF11F0030EA31300
:10235000A76DA81FD8B0A82B010EA96FA951020D17
:10236000010EF324F66E080EF420F76E0900F55006
:10237000A75D0900F550A859D8B0C1EF11F0C3EF1F
:1023800011F0C5EF11F0CFEF11F0A92B050EA9192F
:10239000D8A4CDEF11F0CFEF11F0AEEF11F0A3C044
:1023A000A2F0030EA217D8B4D8EF11F0DAEF11F0B3
:1023B000E2EF11F09CC0D9FF9DC0DAFF2D0EDF6E59
:1023C0009C4B9D2BA9C0A4F011EF12F0A451020D5B
:1023D000010EF324F66E080EF420F76E0900F5CF17
:1023E00092F00A00F5CF93F0A7C090F0A8C091F04A
:1023F000FBEC16F090C097F091C098F0000E000131
:102400009A6F0A0E996FE3EC17F000019751300FA5
:10241000A96F9CC0D9FF9DC0DAFFA9C0DFFF9C4B0C
:102420009D2BA407A429D8A418EF12F01AEF12F0DC
:10243000E6EF11F09EC0F6FF9FC0F7FF9E4B9F2B6B
:102440000800F5CFA9F0A951D8A429EF12F02BEF7D
:1024500012F054EF11F09CC0D9FF9DC0DAFF000EBE
:10246000DF6E1200720ED36E0F0EC16E938E939CB0
:10247000000E946E000E956E000E966E000E8D6E20
:10248000000E8B6E000E8C6E000E0001906F010E20
:1024900069EC19F03F0E5BEC1AF0C00E5BEC1AF021
:1024A000400E5BEC1AF0B80E5BEC1AF0010E000166
:1024B000906F000E69EC19F03F0E5BEC1AF0C00E45
:1024C0005BEC1AF0400E5BEC1AF0B80E5BEC1AF005
:1024D000EEEC18F0000E0001906F010E69EC19F09F
:1024E000EEEC18F093809382800EC76E280EC66EB5
:1024F000000EC56E130EC86E949C948E0C0EAF6EBB
:10250000900EAB6E200EAC6E000E0001926F800E2E
:10251000936F000E946F000E966F010E956F800EF4
:1025200080EC16F01A0E0001B46FF80EE82EFED7FC
:10253000B42FFCD700F0000E0001A96F000EAA6FA7
:102540007A0EAB6F440EAC6F07EC0FF0000E00017B
:10255000A96F000EAA6F480EAB6F420EAC6F07EC6E
:102560000FF0040E0001B56F0C0EB46F330EE82EA1
:10257000FED7B42FFCD7B52FFAD700D0F28EF28C4D
:102580009D8A9E9A620E00019C6F000E9D6F630EE5
:102590009E6F080E9F6F4DEC11F0BEEC16F0818C13
:1025A0000B0E0001B56F260EB46F5D0EE82EFED740
:1025B000B42FFCD7B52FFAD700D0819C000E0001B4
:1025C000AB6F000EAA6F000EAD6F5A0EAC6FC5EC6C
:1025D00015F0000E0001AB6F010EAA6F000EAD6F7B
:1025E0005A0EAC6FC5EC15F0000E0001AB6F020E79
:1025F000AA6F000EAD6F5A0EAC6FC5EC15F0000E51
:102600000001AB6F0F0EAA6F000EAD6F5A0EAC6FCC
:10261000C5EC15F012000FEF13F00F4A102A0FC08F
:10262000D9FF10C0DAFF200EDE18D8B41AEF13F06D
:102630001CEF13F00DEF13F00FC0D9FF10C0DAFF3D
:10264000090EDE18D8B427EF13F029EF13F00DEFC1
:1026500013F0000E156E000E146E000E136E0FC0F8
:10266000D9FF10C0DAFF2D0EDE18D8A43AEF13F010
:102670003CEF13F041EF13F0132A0F4A102A6EEFCC
:1026800013F00FC0D9FF10C0DAFF2B0EDE18D8A44C
:102690004CEF13F04EEF13F06EEF13F00F4A102AC9
:1026A0006EEF13F014C009F015C00AF0000E0C6EA6
:1026B0000A0E0B6E0CEC1AF00FC0D9FF10C0DAFF37
:1026C000DF50116E11500926000E0A22D00E092487
:1026D000146EFF0E0A20156E4EEF13F00FC0D9FFD7
:1026E00010C0DAFFDF50A0EC19F0D8B07AEF13F089
:1026F0007CEF13F052EF13F01350D8B482EF13F0C5
:1027000084EF13F092EF13F014C011F015C012F023
:10271000111E121E114A122A11C00FF012C010F021
:1027200096EF13F014C00FF015C010F01200000166
:1027300092359335996F9951D8A4A1EF13F0A3EF77
:1027400013F0ADEF13F0000E906F000E916F000EBE
:10275000926F000E936F1AEF14F090C094F091C036
:1027600095F092C096F093C097F0200EBDEF13F055
:10277000D8909733963395339433E82EB8EF13F00F
:102780009451986F928FFF0E9017FF0E9117FF0EC6
:102790009217000E9317960E995F99BFD4EF13F01E
:1027A000D2EF13F0EAEF13F09951800A970FD8B0E7
:1027B000DCEF13F0DEEF13F0E0EF13F0A3EF13F014
:1027C000D8909333923391339033993FE0EF13F0E5
:1027D00002EF14F01F0E9965F0EF13F0F2EF13F013
:1027E000FAEF13F0A3EF13F0D890903791379237A8
:1027F000933799079951D8A400EF14F002EF14F021
:10280000F4EF13F09851D8B408EF14F00AEF14F075
:1028100012EF14F0931F921F911F906D000E9123E1
:102820009223932390C090F091C091F092C092F0C7
:1028300093C093F01200000E00019015986F000EE7
:102840009115996F800E92159A6F7F0E93159B6F5D
:10285000985199119A119B11D8A431EF14F033EFCC
:1028600014F03BEF14F0000E906F000E916F000E0D
:10287000926F000E936F000E9415986F000E9515D1
:10288000996F800E96159A6F7F0E97159B6F9851D2
:1028900099119A119B11D8A450EF14F052EF14F033
:1028A0005AEF14F0000E946F000E956F000E966FA5
:1028B000000E976F93AF5FEF14F061EF14F06AEFC3
:1028C00014F0906D911FD8B0912B921FD8B0922B1D
:1028D000800E935797AF6FEF14F071EF14F07AEF0B
:1028E00014F0946D951FD8B0952B961FD8B0962BE9
:1028F000800E9757000E901B000E911B000E921B2E
:10290000800E931B000E941B000E951B000E961B51
:10291000800E971B9451905D955191599651925903
:1029200097519359D8B097EF14F099EF14F09CEFAA
:1029300014F0D8909DEF14F0D8801200000E000122
:10294000956F93BFA8EF14F0A6EF14F0AEEF14F05C
:10295000926D931FD8B0932B010E956F91BFB5EF79
:1029600014F0B3EF14F0BBEF14F0906D911FD8B0DA
:10297000912B010E951B000E976F000E966F9251D2
:102980009311D8B4C6EF14F0C8EF14F0F0EF14F0C0
:10299000010E946FD0EF14F0D89092379337942BA8
:1029A00093AFD5EF14F0D7EF14F0CCEF14F0D8902C
:1029B000963797379251905D93519159D8A0E3EF94
:1029C00014F0E5EF14F0EAEF14F09251905F935198
:1029D000915B9681D89093339233942FD7EF14F074
:1029E0009551D8B4F6EF14F0F8EF14F0FCEF14F0B2
:1029F000966D971FD8B0972B96C090F097C091F026
:102A0000120000019A6F8AEC1AF000019A5163ECEF
:102A10001AF00001935163EC1AF082EC1AF00001F5
:102A20009A51010963EC1AF0000E346E000E336EF9
:102A300043EF15F0010E3324986F000E3420996F88
:102A40009651981907E197519919D8A42AEF15F0D2
:102A50002CEF15F036EF15F0010E4DEC19F094C087
:102A6000D9FF95C0DAFFDF6E3EEF15F0000E4DEC9A
:102A700019F094C0D9FF95C0DAFFDF6E0001944BC6
:102A8000952B334A342A00019651335C3450800A26
:102A9000986F9751800A9859D8A051EF15F053EFCD
:102AA00015F01AEF15F086EC1AF0020E0001996F7E
:102AB000040E986FBA0EE82EFED7982FFCD7992FE8
:102AC000FAD700F01200000E066E04BE6CEF15F08F
:102AD0006AEF15F072EF15F0036C041ED8B0042AEB
:102AE000010E066E02BE79EF15F077EF15F07FEF5D
:102AF00015F0016C021ED8B0022A010E061A000E53
:102B0000086E000E076E03500410D8B48AEF15F05B
:102B10008CEF15F0B4EF15F0010E056E94EF15F083
:102B2000D89003360436052A04AE99EF15F09BEFD2
:102B300015F090EF15F0D890073608360350015C79
:102B400004500258D8A0A7EF15F0A9EF15F0AEEF8A
:102B500015F00350015E0450025A0780D8900432E9
:102B60000332052E9BEF15F00650D8B4BAEF15F0DE
:102B7000BCEF15F0C0EF15F0076C081ED8B0082A9E
:102B800007C001F008C002F01200ACC09EF0ADC05A
:102B90009FF0000E0001A16F000EA06F000EA36F4A
:102BA000B40EA26F000EA56F6E0EA46F010EA76F7C
:102BB000FE0EA66FCBEC18F09EC060F09FC061F0D7
:102BC00060C08CF0000161518D6FAA51040DF3506B
:102BD000060F926F8A0E936F000E946F000E966F21
:102BE000040E956F800E80EC16F0620E00019C6F53
:102BF000000E9D6F560E9E6F080E9F6FAAC0A0F02C
:102C0000ABC0A1F04DEC11F0BEEC16F0620E00016D
:102C10009C6F000E9D6F480E9E6F080E9F6FACC09C
:102C2000A0F0ADC0A1F04DEC11F0BEEC16F00B0E13
:102C30000001AF6F260EAE6F5D0EE82EFED7AE2FF1
:102C4000FCD7AF2FFAD700D012001DC00FF01EC066
:102C500010F0000E126E000E116E000E146EB40E07
:102C6000136E000E166E6E0E156E010E186EFE0EB1
:102C7000176E0FEC19F00FC060F010C061F060C06B
:102C80008CF0000161518D6F1B50040DF350060F45
:102C9000036E8A0E046E000E056E000E076E040EA3
:102CA000066E800EABEC17F0620E0D6E000E0E6E0F
:102CB000560E0F6E080E106E1BC011F01CC012F0E5
:102CC00067EC10F036EC17F0620E0D6E000E0E6E13
:102CD000480E0F6E080E106E1DC011F01EC012F0CF
:102CE00067EC10F036EC17F00B0E206E260E1F6E00
:102CF0005E0EE82EFED71F2EFCD7202EFAD712002C
:102D00000001996F8AEC1AF00001995163EC1AF0F6
:102D10000001925163EC1AF0000E346E000E336E17
:102D20009EEF16F093C0D9FF94C0DAFFDF5063EC3A
:102D30001AF00001934B942B334A342A0001955129
:102D4000335C3450800A976F9651800A9759D8A007
:102D5000ACEF16F0AEEF16F092EF16F086EC1AF02C
:102D6000020E0001986F040E976FBA0EE82EFED780
:102D7000972FFCD7982FFAD700F01200000E346E70
:102D8000000E336ED5EF16F09EA8C9EF16F0CBEF0C
:102D900016F0C4EF16F0620E3324D96E000E342004
:102DA000DA6EDF50AD6E334A342A620E0001906F46
:102DB000000E916F30EC19F033500001905D3450EB
:102DC0009159D8B0E6EF16F0E8EF16F0C4EF16F020
:102DD0009EA8EDEF16F0EFEF16F0E8EF16F00A0EF2
:102DE000AD6E9EA8F6EF16F0F8EF16F0F1EF16F0C4
:102DF0000D0EAD6E1200000E0001966F000E956F65
:102E000092519311D8B407EF17F009EF17F031EF93
:102E100017F0010E946F11EF17F0D8909237933797
:102E2000942B93AF16EF17F018EF17F00DEF17F084
:102E3000D890953796379251905D93519159D8A07B
:102E400024EF17F026EF17F02BEF17F09251905F59
:102E50009351915B9581D89093339233942F18EFCF
:102E600017F095C090F096C091F01200000E346EED
:102E7000000E336E4DEF17F09EA841EF17F043EFB1
:102E800017F03CEF17F0620E3324D96E000E342099
:102E9000DA6EDF50AD6E334A342A620E016E000ED8
:102EA000026E85EC19F03350015C34500258D8B0F2
:102EB0005CEF17F05EEF17F03CEF17F09EA863EFA2
:102EC00017F065EF17F05EEF17F00A0EAD6E9EA8D3
:102ED0006CEF17F06EEF17F067EF17F00D0EAD6E99
:102EE0001200000E066E000E056E03500410D8B4DA
:102EF0007CEF17F07EEF17F0A6EF17F0010E076ECC
:102F000086EF17F0D89003360436072A04AE8BEF0D
:102F100017F08DEF17F082EF17F0D89005360636D0
:102F20000350015C04500258D8A099EF17F09BEFB2
:102F300017F0A0EF17F00350015E0450025A05800D
:102F4000D89004320332072E8DEF17F005C001F040
:102F500006C002F012000A6E92EC1AF00A5070ECF1
:102F60001AF0035070EC1AF0000E346E000E336E3F
:102F7000C5EF17F004C0D9FF05C0DAFFDF5070ECD1
:102F80001AF0044A052A334A342A0650335C345076
:102F9000800A086E0750800A0858D8A0D2EF17F0B0
:102FA000D4EF17F0BAEF17F08EEC1AF0020E096E9C
:102FB000040E086EBA0EE82EFED7082EFCD7092E96
:102FC000FAD700D01200000199519A11D8B4EBEF52
:102FD00017F0EDEF17F011EF18F0010E9B6FF5EF02
:102FE00017F0D89099379A379B2B9AAFFAEF17F0D2
:102FF000FCEF17F0F1EF17F09951975D9A5198593E
:10300000D8A005EF18F007EF18F00BEF18F0995162
:10301000975F9A51985BD8909A3399339B2FFCEF26
:1030200017F097C097F098C098F012000A500B1054
:10303000D8B41DEF18F01FEF18F043EF18F0010E91
:103040000C6E27EF18F0D8900A360B360C2A0BAE10
:103050002CEF18F02EEF18F023EF18F00A50085C50
:103060000B500958D8A037EF18F039EF18F03DEFA2
:1030700018F00A50085E0B50095AD8900B320A32E9
:103080000C2E2EEF18F008C008F009C009F012004D
:10309000007CE391897E008281FF80800082C1A153
:1030A000918E00818989897600382423FF40008F22
:1030B0008989C971007C8A8989700001C1710D03F9
:1030C00000769D899976008E9191713E0000C0C076
:1030D000000000070507000000073CC03C07000196
:1030E00001FF0101000066660000003C42C381420E
:1030F000900EF66E300EF76E000EF86E01EE00F0D8
:1031000010EE60F00900F5CFEEFFE550E150FAE176
:103110002C0EF66E350EF76E000EF86E0900F5CF28
:103120004DF00900F5CF4EF000EE60F0300EEE6A83
:10313000E806FDE100EE2BF0220EEE6AE806FDE166
:103140004F904F92000EF86E00016AEF1AF0000ED9
:103150000001A41B000EA51B000EA61B800EA71BC2
:10316000A0C090F0A1C091F0A2C092F0A3C093F0D3
:10317000A4C094F0A5C095F0A6C096F0A7C097F0A3
:103180009AEC06F090C0A0F091C0A1F092C0A2F01D
:1031900093C0A3F012000001A0519E5D986FA15151
:1031A0009F59996FA051A25D926FA151A359936F3E
:1031B000A451A65D906FA551A759916F9EEC14F094
:1031C00090C09AF091C09BF0E5EC19F00001A45179
:1031D00098259E6FA55199219F6F1200000E000146
:1031E000946F000E956F95C092F094513CEC1AF0DC
:1031F000000E53EC1AF00001952B3F0E956503EF7E
:1032000019F005EF19F0F3EF18F0942B070E946501
:103210000CEF19F00EEF19F0F1EF18F01200115049
:103220000F5C096E125010580A6E1150135C036E39
:1032300012501458046E1550175C016E1650185831
:10324000026E63EC15F001C00BF002C00CF00CEC48
:103250001AF0155009240F6E16500A20106E120035
:1032600090C092F091C093F039EF19F00001924BA9
:10327000932B92C0D9FF93C0DAFFDF50D8A443EF5D
:1032800019F045EF19F036EF19F000019051925DF9
:10329000906F91519359916F12000001916FD1EC91
:1032A00019F0C586D1EC19F0C9CF92F0D1EC19F024
:1032B00000019105D8B45FEF19F062EF19F0C58AEB
:1032C00063EF19F0C59AC588D1EC19F0000192514D
:1032D00012000001936F000193B102D08B9001D0D6
:1032E0008B80000190B102D08B9201D08B82020EB4
:1032F0000001926F040E916FBA0EE82EFED7912F47
:10330000FCD7922FFAD700F0120001C003F002C0E0
:1033100004F08DEF19F0034A042A03C0D9FF04C05A
:10332000DAFFDF50D8A497EF19F099EF19F08BEF7F
:1033300019F00150035C016E02500458026E120035
:10334000036E000E026E3A0E0360A9EF19F0ABEFA8
:1033500019F0B5EF19F02F0E0364B1EF19F0B3EFC8
:1033600019F0B5EF19F0010E026E02C001F0013044
:103370001200046E04B002D08B9001D08B8001B09B
:1033800002D08B9201D08B82020E036E040E026E6D
:10339000BA0EE82EFED7022EFCD7032EFAD700D0A5
:1033A0001200C5CF90F01F0E00019017D8A4DBEFDC
:1033B00019F0DDEF19F0D1EF19F0C7B4E2EF19F011
:1033C000E4EF19F0D1EF19F01200000198519A03BF
:1033D000F3CF9CF0F4CF9DF098519B03F3509D27C1
:1033E00099519A03F3509D279CC098F09DC099F085
:1033F0001200C5CF01F01F0E0116D8A402EF1AF07B
:1034000004EF1AF0F9EF19F0C7B409EF1AF00BEF57
:103410001AF0F9EF19F0120009500B02F3CF0DF07A
:10342000F4CF0EF009500C02F3500E260A500B0296
:10343000F3500E260DC009F00EC00AF01200000174
:10344000906F8D80210EE82EFED700F090C08CFF8B
:10345000210EE82EFED700F08D901200016E8D80B7
:10346000210EE82EFED700F001C08CFF210EE82EC1
:10347000FED700F08D9012000001936F0001935170
:10348000B80F5BEC1AF000019251400F5BEC1AF0A0
:103490001200046E0450B80F7CEC1AF00350400F79
:1034A0007CEC1AF012000001916F8D8200019151A5
:1034B0001FEC1AF012000001916F8D9200019151E2
:1034C0001FEC1AF012000001916FD1EC19F091C0BD
:1034D000C9FF120032EC12F06CEF1AF007EF00F0A7
:1034E000026EF9EC19F002C0C9FF1200026E8D8263
:1034F00002502EEC1AF01200026E8D9202502EEC49
:103500001AF01200D1EC19F0C5821200D1EC19F0BA
:10351000C5841200D1EC19F0C5801200F9EC19F045
:0E352000C5841200F9EC19F0C58012000500F8
:020000040020DA
:08000000FFFFFFFFFFFFFFFF00
:020000040030CA
:0E000000000B1F1EFF8381FF0FC00FE00F409B
:00000001FF
