:020000040000FA
:0400000007EF00F016
:0A000800358247ED08F08BEF12F08F
:100800000001000A006400E803102720416E6775AC
:100810006C6F3A2025640020536572766F3A20256C
:0F082000640053657474696E677300256300008C
:1008300000019351800B9C6F935193259E6F92AF53
:1008400024EF04F026EF04F027EF04F09E819E5180
:10085000D8B42DEF04F02FEF04F044EF04F09E29FC
:10086000D8A435EF04F037EF04F03FEF04F0000EAA
:10087000906F000E916F000E926F000E936F928F2B
:10088000000E936F4CEF04F0000E906F000E916F0E
:10089000000E926F000E936F9751800B9D6F9C51CD
:1008A0009D19D8B456EF04F058EF04F059EF04F056
:1008B0009C8D975197259D6F96AF61EF04F063EF84
:1008C00004F064EF04F09D819D51D8B46AEF04F008
:1008D0006CEF04F081EF04F09D29D8A472EF04F0CE
:1008E00074EF04F07CEF04F0000E946F000E956F2F
:1008F000000E966F000E976F968F000E976F89EF20
:1009000004F0000E946F000E956F000E966F000EAF
:10091000976F9E519D5DD8B090EF04F092EF04F078
:10092000B9EF04F09CAD97EF04F099EF04F09BEF62
:1009300004F0800E9C1B9EC09FF09DC09EF09FC047
:100940009DF090C09FF094C090F09FC094F091C033
:100950009FF095C091F09FC095F092C09FF096C017
:1009600092F09FC096F093C09FF097C093F09FC005
:1009700097F0000E9F6F9E519DC098F0996B985F05
:10098000000E995B99BFCEEF04F0995109E11A0E60
:10099000985DD8A0CEEF04F0D0EF04F007EF05F09B
:1009A0009051911192119311D8A4D9EF04F0DCEF7A
:1009B00004F0010EDDEF04F0000E9F6F000E906F4B
:1009C000000E916F000E926F000E936F9DC09EF00F
:1009D00010EF05F09FA1EFEF04F0F1EF04F0F7EF57
:1009E00004F0D8909F3101099F6FF9EF04F0D8907F
:1009F0009F3390A1FEEF04F000EF05F001EF05F04A
:100A00009F8F933593339233913390339E2B9D5127
:100A10009E5DD8A00EEF05F010EF05F0EAEF04F0B0
:100A20009CBD15EF05F017EF05F057EF05F09E514F
:100A3000D8A41DEF05F01FEF05F029EF05F0000E1B
:100A4000906F000E916F000E926F000E936F78EF13
:100A500006F09451902795519123965192239751E6
:100A6000932393A136EF05F038EF05F0E4EF05F09E
:100A70009FA13DEF05F03FEF05F045EF05F0D89061
:100A80009F3101099F6F47EF05F0D8909F3390A1E8
:100A90004CEF05F04EEF05F04FEF05F09F8F9335CB
:100AA00093339233913390339E2BE4EF05F09451BE
:100AB000905D95519159965192599351800A986F32
:100AC0009751800A9859D8B068EF05F06AEF05F0A1
:100AD00095EF05F09051945D986F91519559996FEC
:100AE000925196599A6F935197599B6FFF0E982583
:100AF000906FFF0E9921916FFF0E9A21926FFF0E5A
:100B00009B21936F800E9C1B9F6D9F51D8A48BEFF0
:100B100005F08DEF05F09DEF05F0010E9027000E1A
:100B20009123922393239DEF05F09451905F95516B
:100B3000915B9651925B9751935B905191119211F9
:100B40009311D8A4A6EF05F0A8EF05F0DDEF05F0AE
:100B50009F51D8A4AEEF05F0B0EF05F0DDEF05F042
:100B6000000E906F000E916F000E926F000E936F4B
:100B700078EF06F0D89090379137923793379FAF40
:100B8000C4EF05F0C6EF05F0C7EF05F090819FA117
:100B9000CCEF05F0CEEF05F0D2EF05F0D8809F370F
:100BA000D4EF05F0D8909F379E51D8B4DAEF05F016
:100BB000DCEF05F0DDEF05F09E0792AFE2EF05F008
:100BC000E4EF05F0BAEF05F0000E9D6F9FAFEBEF7D
:100BD00005F0EDEF05F005EF06F09FC098F07F0EF1
:100BE0009817D8B4F6EF05F0F8EF05F0FCEF05F034
:100BF000010E9D6F05EF06F090A101EF06F003EFE7
:100C000006F005EF06F0F8EF05F09D51D8B40BEFB4
:100C100006F00DEF06F038EF06F0010E9027000EFB
:100C200091239223932393A118EF06F01AEF06F075
:100C300038EF06F090C098F091C099F092C09AF009
:100C400093C09BF09B359B339A339933983398C06C
:100C500090F099C091F09AC092F09BC093F09E29B9
:100C6000D8B435EF06F037EF06F038EF06F09E2BDC
:100C70009E29D8B43EEF06F040EF06F048EF06F0AC
:100C80009E51D8A446EF06F048EF06F05AEF06F062
:100C9000000E906F000E916F000E926F000E936F1A
:100CA0009E51D8A456EF06F058EF06F05AEF06F022
:100CB000000E9C6F9EA15FEF06F061EF06F064EFFF
:100CC00006F0928F65EF06F0929FD8909E31936F59
:100CD0009CAF6DEF06F06FEF06F070EF06F0938FAC
:100CE00090C090F091C091F092C092F093C093F0B8
:100CF000120000019351800BA06F93519325A76FB1
:100D000092AF85EF06F087EF06F088EF06F0A78137
:100D1000A751D8B48EEF06F090EF06F0A5EF06F0DD
:100D2000A729D8A496EF06F098EF06F0A0EF06F0FA
:100D3000000E906F000E916F000E926F000E936F79
:100D4000928F000E936FADEF06F0000E906F000EC5
:100D5000916F000E926F000E936F9751800BA01B46
:100D600097519725A86F96AFB8EF06F0BAEF06F047
:100D7000BBEF06F0A881A851D8B4C1EF06F0C3EFCD
:100D800006F0D8EF06F0A829D8A4C9EF06F0CBEFFB
:100D900006F0D3EF06F0000E946F000E956F000E74
:100DA000966F000E976F968F000E976FE0EF06F02C
:100DB000000E946F000E956F000E966F000E976FE9
:100DC0009451951196119711D8A4E9EF06F0EBEF25
:100DD00006F003EF07F0000E906F000E916F000E0B
:100DE000926F000E936F800E92137F0E9313A0519B
:100DF000931390C090F091C091F092C092F093C084
:100E000093F046EF08F0A751D8A409EF07F00BEFD5
:100E100007F015EF07F0000E906F000E916F000EB7
:100E2000926F000E936F46EF08F0A851A7C098F09C
:100E3000996B985F000E995B7F0E9825A16F000E4D
:100E40009921A26F90C09CF091C09DF092C09EF03D
:100E500093C09FF0000E906F000E916F000E926F86
:100E6000000E936F000EA36F000EA46F000EA56F0F
:100E7000000EA66F000EA86F76EF07F0A851D8B449
:100E800044EF07F046EF07F05DEF07F0D8909C378E
:100E90009D379E379F37D890903791379237933749
:100EA000A6AF55EF07F057EF07F058EF07F0908126
:100EB000D890A337A437A537A63794519C5D955198
:100EC0009D5996519E5997519F59D8A06AEF07F0A6
:100ED0006CEF07F075EF07F0A68D94519C5F95516C
:100EE0009D5B96519E5B97519F5BA82B190EA86541
:100EF0007CEF07F07EEF07F03EEF07F09C519D116D
:100F00009E119F11D8B487EF07F089EF07F0A1EF8A
:100F100007F0A381A1EF07F0D8909037913792376F
:100F20009337A6AF96EF07F098EF07F099EF07F029
:100F30009081D890A337A437A537A637A107D8A0AA
:100F4000A20792AFA6EF07F0A8EF07F08CEF07F02B
:100F5000000EA86FA6AFAFEF07F0B1EF07F0D5EF27
:100F600007F0FF0EA315986FFF0EA415996FFF0EE3
:100F7000A5159A6F7F0EA6159B6F985199119A111E
:100F80009B11D8B4C6EF07F0C8EF07F0CCEF07F01D
:100F9000010EA86FD5EF07F090A1D1EF07F0D3EFC6
:100FA00007F0D5EF07F0C8EF07F0A851D8B4DBEF92
:100FB00007F0DDEF07F001EF08F0010E9027000EBB
:100FC00091239223932393A1E8EF07F0EAEF07F030
:100FD00001EF08F090C098F091C099F092C09AF09B
:100FE00093C09BF09B359B339A339933983398C0C9
:100FF00090F099C091F09AC092F09BC093F0A14BF1
:10100000A22BA2BF0CEF08F0A25108E1A129D8A0A1
:101010000CEF08F00EEF08F019EF08F0000EA26FC9
:10102000A169000E906F000E916F000E926F000E7E
:10103000936FA2BF26EF08F0A25106E1A105D8B038
:1010400024EF08F026EF08F034EF08F0000EA26F4E
:10105000000EA16F000E906F000E916F000E926F48
:10106000000E936F000EA06FA1C0A7F0A7A13BEFE9
:1010700008F03DEF08F040EF08F0928F41EF08F0E4
:10108000929FD890A731936FF7EF06F012000600F9
:10109000D9CF23F0DACF24F0F3CF25F0F4CF26F028
:1010A000F6CF27F0F7CF28F0F8CF29F0F5CF2AF0C8
:1010B0009EAA5DEF08F05FEF08F096EF09F0AECF63
:1010C0002BF03250D8A467EF08F069EF08F0CCEFAE
:1010D00008F0010E326E300E2B18D8A472EF08F013
:1010E00074EF08F07AEF08F0000E346E000E336EE5
:1010F00096EF09F00D0E2B18D8B481EF08F083EFAE
:1011000008F08CEF08F00A0E2B18D8A48AEF08F02C
:101110008CEF08F0ACEF08F0000E1C6E000E1B6E9A
:10112000000E1E6E000E1D6E00EC10F0000E1C6E08
:10113000000E1B6E000E1E6E5A0E1D6E00EC10F09F
:10114000000E1C6E000E1B6E000E1E6EB40E1D6E89
:1011500000EC10F096EF09F0310E2B18D8A4B3EF85
:1011600008F0B5EF08F0BBEF08F0000E346E010E8A
:10117000336E96EF09F0320E2B18D8A4C2EF08F0A8
:10118000C4EF08F0CAEF08F0000E346E020E336EA2
:1011900096EF09F096EF09F0620E0D6E000E0E6EDE
:1011A0002B0E0F6E080E106E2BC011F0126A08EC99
:1011B0000BF011EC11F0310E2B18D8A4E2EF08F06F
:1011C000E4EF08F0F1EF08F0818C33C01BF034C07D
:1011D0001CF0000E1E6E000E1D6E00EC10F096EF5F
:1011E00009F0320E2B18D8A4F8EF08F0FAEF08F047
:1011F00006EF09F033C01BF034C01CF0000E1E6E69
:101200002D0E1D6E00EC10F096EF09F0330E2B182A
:10121000D8A40DEF09F00FEF09F01BEF09F033C070
:101220001BF034C01CF0000E1E6E5A0E1D6E00EC3A
:1012300010F096EF09F0340E2B18D8A422EF09F025
:1012400024EF09F030EF09F033C01BF034C01CF07C
:10125000000E1E6E870E1D6E00EC10F096EF09F06A
:10126000350E2B18D8A437EF09F039EF09F045EF08
:1012700009F033C01BF034C01CF0000E1E6EB40E1B
:101280001D6E00EC10F096EF09F0730E2B18D8A429
:101290004CEF09F04EEF09F052EF09F0000E326EFC
:1012A00096EF09F00D0E2B18D8B459EF09F05BEF4B
:1012B00009F0CAEF08F00A0E2B18D8A462EF09F063
:1012C00064EF09F066EF09F096EF09F0818C0B0EE0
:1012D000226E260E216E5E0EE82EFED7212EFCD742
:1012E000222EFAD7819C0B0E226E260E216E5E0EE8
:1012F000E82EFED7212EFCD7222EFAD7818C0B0E9A
:10130000226E260E216E5E0EE82EFED7212EFCD711
:10131000222EFAD7819C0B0E226E260E216E5E0EB7
:10132000E82EFED7212EFCD7222EFAD72AC0F5FFB1
:1013300029C0F8FF28C0F7FF27C0F6FF26C0F4FF3A
:1013400025C0F3FF24C0DAFF23C0D9FF3592110076
:10135000A9C090F0AAC091F0ABC092F0ACC093F0DD
:10136000000E0001946F000E956F800E966F3F0E79
:10137000976FF6EC0DF00001D8B0C1EF09F0C3EFA4
:1013800009F0CBEF09F0000EA96F000EAA6F800ED6
:10139000AB6F3F0EAC6F000E906FC00E916F5A0E88
:1013A000926F450E936FA9C094F0AAC095F0ABC0A0
:1013B00096F0ACC097F0F6EC0DF00001D8B0E3EF7A
:1013C00009F0E5EF09F0EDEF09F0000EA96FC00E8E
:1013D000AA6F5A0EAB6F450EAC6FBC0EB06FEF0E1E
:1013E000B16FC60EB26F4B0EB36FB0C090F0B1C00C
:1013F00091F0B2C092F0B3C093F0A9C094F0AAC02B
:1014000095F0ABC096F0ACC097F079EC06F090C0C8
:10141000B0F091C0B1F092C0B2F093C0B3F0B0C0E0
:1014200090F0B1C091F0B2C092F0B3C093F0000E52
:101430000001946F000E956F000E966F450E976F2A
:1014400018EC04F090C0B0F091C0B1F092C0B2F0CE
:1014500093C0B3F0B0C090F0B1C091F0B2C092F0C0
:10146000B3C093F0000E0001946F000E956F800ED4
:10147000966F450E976F79EC06F090C0B0F091C072
:10148000B1F092C0B2F093C0B3F0B0C0A0F0B1C060
:10149000A1F0B2C0A2F0B3C0A3F0000E0001A46F8F
:1014A000000EA56F800EA66F3F0EA76F23EC12F003
:1014B000A0C0B0F0A1C0B1F0A2C0B2F0A3C0B3F020
:1014C000B0C090F0B1C091F0B2C092F0B3C093F050
:1014D000000E0001946F000E956F400E966F400E47
:1014E000976FF6EC0DF00001D8B079EF0AF07BEFC2
:1014F0000AF083EF0AF0000EB06F000EB16F400EDD
:10150000B26F400EB36F000E906F000E916F7F0EA2
:10151000926F430E936FB0C094F0B1C095F0B2C01B
:1015200096F0B3C097F0F6EC0DF00001D8B09BEF49
:101530000AF09DEF0AF0A5EF0AF0000EB06F000E62
:10154000B16F7F0EB26F430EB36FB0C090F0B1C0F9
:1015500091F0B2C092F0B3C093F072EC0DF00001C4
:101560009051AE6F000E936F8F0E946F000E956FBB
:10157000000E976F010E966F800EDCEC0EF00001EE
:101580008F517F0B1009AF6F000E926FAF0E936FEC
:10159000000E946F000E966F010E956F800E5BEC3F
:1015A00010F0FE0E0001926FAE0E936F000E946F5E
:1015B000000E966F010E956F800E5BEC10F0000E22
:1015C0000001926F8F0E936F000E946F000E966F56
:1015D000010E956F800E5BEC10F00D0E0001AD6FEB
:1015E000FB0EE82EFED7AD2FFCD700D000018F51A7
:1015F000A0098E6F000E926F8E0E936F000E946F87
:10160000000E966F010E956F800E5BEC10F01200CD
:10161000110E166E000E176ED6EF0BF0250E1A186F
:10162000D8B415EF0BF017EF0BF021EF0BF00DC056
:10163000D9FF0EC0DAFF1AC0DFFF0D4A0E2AD6EF1F
:101640000BF0000E146E31EF0BF016C0D9FF17C06F
:10165000DAFFDF501A6E020E1626000E172217EF61
:101660000BF00FC0F6FF10C0F7FF0F4A102A08005A
:10167000F5CF1AF01A50000AD8B4E7EF0BF0630A5E
:10168000D8B425EF0BF0070AD8B44DEF0BF00D0AD4
:10169000D8B44DEF0BF017EF0BF016C0D9FF17C001
:1016A000DAFFDECF18F0DDCF19F0020E1626000E9D
:1016B000172219BE60EF0BF05EEF0BF066EF0BF038
:1016C000030E1412186C191ED8B0192A010E1A6EC6
:1016D000050E1A18D8A46FEF0BF071EF0BF073EF33
:1016E0000BF08DEF0BF01A50020D010EF324F66E85
:1016F000080EF420F76E0900F550185C0900F5504B
:101700001958D8B086EF0BF088EF0BF08AEF0BF08A
:101710008DEF0BF01A2A68EF0BF014C013F0030ED4
:101720001316D8B496EF0BF098EF0BF0A0EF0BF078
:101730000DC0D9FF0EC0DAFF2D0EDF6E0D4A0E2A46
:101740001AC015F0CDEF0BF01550020D010EF32469
:10175000F66E080EF420F76E0900F5CF03F00A00CC
:10176000F5CF04F018C001F019C002F04CEC11F0F4
:1017700001C008F002C009F0000E0B6E0A0E0A6EDE
:10178000F1EC11F00850300F1A6E0DC0D9FF0EC0E9
:10179000DAFF1AC0DFFF0D4A0E2A15061528D8A455
:1017A000D4EF0BF0D6EF0BF0A4EF0BF00FC0F6FF69
:1017B00010C0F7FF0F4A102A0800F5CF1AF01A5090
:1017C000D8A4E5EF0BF0E7EF0BF00EEF0BF00DC038
:1017D000D9FF0EC0DAFF000EDF6E1200A00E00016E
:1017E000A56F000EA66FBBEF0CF0250EA919D8B49B
:1017F000FCEF0BF0FEEF0BF008EF0CF09CC0D9FFF4
:101800009DC0DAFFA9C0DFFF9C4B9D2BBBEF0CF006
:10181000000EA36F18EF0CF0A5C0D9FFA6C0DAFF29
:10182000DF50A96F020EA527000EA623FEEF0BF0D6
:101830009EC0F6FF9FC0F7FF9E4B9F2B0800F5CF81
:10184000A9F0A951000AD8B4CCEF0CF0630AD8B4BF
:101850000CEF0CF0070AD8B434EF0CF00D0AD8B432
:1018600034EF0CF0FEEF0BF0A5C0D9FFA6C0DAFFF5
:10187000DECFA7F0DDCFA8F0020EA527000EA6232D
:10188000A8BF47EF0CF045EF0CF04DEF0CF0030E46
:10189000A313A76DA81FD8B0A82B010EA96FA9513B
:1018A000020D010EF324F66E080EF420F76E090007
:1018B000F550A75D0900F550A859D8B062EF0CF0BB
:1018C00064EF0CF066EF0CF070EF0CF0A92B050E36
:1018D000A919D8A46EEF0CF070EF0CF04FEF0CF0DC
:1018E000A3C0A2F0030EA217D8B479EF0CF07BEFDF
:1018F0000CF083EF0CF09CC0D9FF9DC0DAFF2D0ED9
:10190000DF6E9C4B9D2BA9C0A4F0B2EF0CF0A4514C
:10191000020D010EF324F66E080EF420F76E090096
:10192000F5CF92F00A00F5CF93F0A7C090F0A8C0D1
:1019300091F0D6EC10F090C097F091C098F0000EA6
:1019400000019A6F0A0E996FBEEC11F000019751D9
:10195000300FA96F9CC0D9FF9DC0DAFFA9C0DFFF7F
:101960009C4B9D2BA407A429D8A4B9EF0CF0BBEF86
:101970000CF087EF0CF09EC0F6FF9FC0F7FF9E4B68
:101980009F2B0800F5CFA9F0A951D8A4CAEF0CF0FD
:10199000CCEF0CF0F5EF0BF09CC0D9FF9DC0DAFF47
:1019A000000EDF6E1200720ED36E0F0EC16E938E9C
:1019B000939C93809382800EC76E280EC66E000E95
:1019C000C56E130EC86E949C948E0C0EAF6E900E66
:1019D000AB6E200EAC6E000E0001926F800E936F06
:1019E000000E946F000E966F010E956F800E5BECEB
:1019F00010F01A0E0001B46FF80EE82EFED7B42FC7
:101A0000FCD700F0000E0001A96F000EAA6F7A0E3D
:101A1000AB6F440EAC6FA8EC09F0000E0001A96F8B
:101A2000000EAA6F480EAB6F420EAC6FA8EC09F027
:101A3000040E0001B56F0C0EB46F330EE82EFED706
:101A4000B42FFCD7B52FFAD700D0F28EF28C9D8A36
:101A50009E9A620E00019C6F000E9D6F220E9E6F7B
:101A6000080E9F6FEEEC0BF099EC10F0818C0B0ED2
:101A70000001B56F260EB46F5D0EE82EFED7B42FB1
:101A8000FCD7B52FFAD700D0819C000E0001AB6FB8
:101A9000000EAA6F000EAD6F5A0EAC6FA0EC0FF0E7
:101AA000000E0001AB6F010EAA6F000EAD6F5A0E53
:101AB000AC6FA0EC0FF0000E0001AB6F020EAA6F2E
:101AC000000EAD6F5A0EAC6FA0EC0FF0000E0001CF
:101AD000AB6F0F0EAA6F000EAD6F5A0EAC6FA0EC7D
:101AE0000FF01200000192359335996F9951D8A4E7
:101AF0007CEF0DF07EEF0DF088EF0DF0000E906F93
:101B0000000E916F000E926F000E936FF5EF0DF0C7
:101B100090C094F091C095F092C096F093C097F069
:101B2000200E98EF0DF0D890973396339533943379
:101B3000E82E93EF0DF09451986F928FFF0E90174F
:101B4000FF0E9117FF0E9217000E9317960E995FD6
:101B500099BFAFEF0DF0ADEF0DF0C5EF0DF099515E
:101B6000800A970FD8B0B7EF0DF0B9EF0DF0BBEFCB
:101B70000DF07EEF0DF0D890933392339133903384
:101B8000993FBBEF0DF0DDEF0DF01F0E9965CBEF28
:101B90000DF0CDEF0DF0D5EF0DF07EEF0DF0D890FC
:101BA000903791379237933799079951D8A4DBEF43
:101BB0000DF0DDEF0DF0CFEF0DF09851D8B4E3EF5D
:101BC0000DF0E5EF0DF0EDEF0DF0931F921F911F5B
:101BD000906D000E91239223932390C090F091C0BA
:101BE00091F092C092F093C093F01200000E0001A9
:101BF0009015986F000E9115996F800E92159A6F3F
:101C00007F0E93159B6F985199119A119B11D8A42F
:101C10000CEF0EF00EEF0EF016EF0EF0000E906FC0
:101C2000000E916F000E926F000E936F000E9415D0
:101C3000986F000E9515996F800E96159A6F7F0E0E
:101C400097159B6F985199119A119B11D8A42BEF5E
:101C50000EF02DEF0EF035EF0EF0000E946F000E2B
:101C6000956F000E966F000E976F93AF3AEF0EF0E0
:101C70003CEF0EF045EF0EF0906D911FD8B0912B18
:101C8000921FD8B0922B800E935797AF4AEF0EF069
:101C90004CEF0EF055EF0EF0946D951FD8B0952BCC
:101CA000961FD8B0962B800E9757000E901B000EF3
:101CB000911B000E921B800E931B000E941B000EB6
:101CC000951B000E961B800E971B9451905D9551AD
:101CD00091599651925997519359D8B072EF0EF08D
:101CE00074EF0EF077EF0EF0D89078EF0EF0D8800A
:101CF0001200000E0001956F93BF83EF0EF081EF8D
:101D00000EF089EF0EF0926D931FD8B0932B010E59
:101D1000956F91BF90EF0EF08EEF0EF096EF0EF0F4
:101D2000906D911FD8B0912B010E951B000E976FEF
:101D3000000E966F92519311D8B4A1EF0EF0A3EF5D
:101D40000EF0CBEF0EF0010E946FABEF0EF0D890CB
:101D500092379337942B93AFB0EF0EF0B2EF0EF0B3
:101D6000A7EF0EF0D890963797379251905D935128
:101D70009159D8A0BEEF0EF0C0EF0EF0C5EF0EF0F7
:101D80009251905F9351915B9681D89093339233A7
:101D9000942FB2EF0EF09551D8B4D1EF0EF0D3EFEF
:101DA0000EF0D7EF0EF0966D971FD8B0972B96C018
:101DB00090F097C091F0120000019A6F67EC13F059
:101DC00000019A514CEC13F0000193514CEC13F0CC
:101DD0005FEC13F000019A5101094CEC13F0000E76
:101DE000316E000E306E1EEF0FF0010E3024986F32
:101DF000000E3120996F9651981907E19751991962
:101E0000D8A405EF0FF007EF0FF011EF0FF0010E60
:101E1000C7EC12F094C0D9FF95C0DAFFDF6E19EF5E
:101E20000FF0000EC7EC12F094C0D9FF95C0DAFF96
:101E3000DF6E0001944B952B304A312A00019651F8
:101E4000305C3150800A986F9751800A9859D8A019
:101E50002CEF0FF02EEF0FF0F5EF0EF063EC13F018
:101E6000020E0001996F040E986FBA0EE82EFED78D
:101E7000982FFCD7992FFAD700F01200000E066EAB
:101E800004BE47EF0FF045EF0FF04DEF0FF0036C7E
:101E9000041ED8B0042A010E066E02BE54EF0FF0E5
:101EA00052EF0FF05AEF0FF0016C021ED8B0022A69
:101EB000010E061A000E086E000E076E0350041085
:101EC000D8B465EF0FF067EF0FF08FEF0FF0010E52
:101ED000056E6FEF0FF0D89003360436052A04AE76
:101EE00074EF0FF076EF0FF06BEF0FF0D89007362E
:101EF00008360350015C04500258D8A082EF0FF05E
:101F000084EF0FF089EF0FF00350015E0450025A86
:101F10000780D89004320332052E76EF0FF006507A
:101F2000D8B495EF0FF097EF0FF09BEF0FF0076C21
:101F3000081ED8B0082A07C001F008C002F012003D
:101F4000ACC09EF0ADC09FF0000E0001A16F000E6E
:101F5000A06F000EA36FB40EA26F000EA56F6E0EE1
:101F6000A46F010EA76FFE0EA66F47EC12F09EC085
:101F700060F09FC061F060C08CF0000161518D6F16
:101F8000AA51040DF350060F926F8A0E936F000E44
:101F9000946F000E966F040E956F800E5BEC10F040
:101FA000620E00019C6F000E9D6F170E9E6F080E53
:101FB0009F6FAAC0A0F0ABC0A1F0EEEC0BF099ECC3
:101FC00010F0620E00019C6F000E9D6F0B0E9E6F55
:101FD000080E9F6FACC0A0F0ADC0A1F0EEEC0BF00E
:101FE00099EC10F00B0E0001AF6F260EAE6F5D0E78
:101FF000E82EFED7AE2FFCD7AF2FFAD700D01200B5
:102000001DC00FF01EC010F0000E126E000E116EFB
:10201000000E146EB40E136E000E166E6E0E156E5C
:10202000010E186EFE0E176E6AEC12F00FC060F013
:1020300010C061F060C08CF0000161518D6F1B50C9
:10204000040DF350060F036E8A0E046E000E056E2B
:10205000000E076E040E066E800E86EC11F0620E06
:102060000D6E000E0E6E170E0F6E080E106E1BC05A
:1020700011F01CC012F008EC0BF011EC11F0620E24
:102080000D6E000E0E6E0B0E0F6E080E106E1DC044
:1020900011F01EC012F008EC0BF011EC11F00B0E59
:1020A000206E260E1F6E5E0EE82EFED71F2EFCD76A
:1020B000202EFAD712000001996F67EC13F000018F
:1020C00099514CEC13F0000192514CEC13F0000EBE
:1020D000316E000E306E79EF10F093C0D9FF94C0CE
:1020E000DAFFDF504CEC13F00001934B942B304A95
:1020F000312A00019551305C3150800A976F96511A
:10210000800A9759D8A087EF10F089EF10F06DEF93
:1021100010F063EC13F0020E0001986F040E976F3D
:10212000BA0EE82EFED7972FFCD7982FFAD700F0DB
:102130001200000E316E000E306EB0EF10F09EA84F
:10214000A4EF10F0A6EF10F09FEF10F0620E302415
:10215000D96E000E3120DA6EDF50AD6E304A312A72
:10216000620E0001906F000E916FAAEC12F03050D9
:102170000001905D31509159D8B0C1EF10F0C3EF1C
:1021800010F09FEF10F09EA8C8EF10F0CAEF10F00B
:10219000C3EF10F00A0EAD6E9EA8D1EF10F0D3EF92
:1021A00010F0CCEF10F00D0EAD6E1200000E00011D
:1021B000966F000E956F92519311D8B4E2EF10F024
:1021C000E4EF10F00CEF11F0010E946FECEF10F053
:1021D000D89092379337942B93AFF1EF10F0F3EF41
:1021E00010F0E8EF10F0D890953796379251905D47
:1021F00093519159D8A0FFEF10F001EF11F006EFC5
:1022000011F09251905F9351915B9581D8909333E7
:102210009233942FF3EF10F095C090F096C091F0A8
:102220001200000E316E000E306E28EF11F09EA8E5
:102230001CEF11F01EEF11F017EF11F0620E3024B9
:10224000D96E000E3120DA6EDF50AD6E304A312A81
:10225000620E016E000E026EE3EC12F03050015C73
:1022600031500258D8B037EF11F039EF11F017EFB5
:1022700011F09EA83EEF11F040EF11F039EF11F090
:102280000A0EAD6E9EA847EF11F049EF11F042EF34
:1022900011F00D0EAD6E1200000E066E000E056EF2
:1022A00003500410D8B457EF11F059EF11F081EF3B
:1022B00011F0010E076E61EF11F0D890033604366D
:1022C000072A04AE66EF11F068EF11F05DEF11F030
:1022D000D890053606360350015C04500258D8A049
:1022E00074EF11F076EF11F07BEF11F00350015E07
:1022F0000450025A0580D89004320332072E68EF4A
:1023000011F005C001F006C002F012000A6E6FEC79
:1023100013F00A5059EC13F0035059EC13F0000E6F
:10232000316E000E306EA0EF11F004C0D9FF05C071
:10233000DAFFDF5059EC13F0044A052A304A312AFB
:102340000650305C3150800A086E0750800A0858E9
:10235000D8A0ADEF11F0AFEF11F095EF11F06BECED
:1023600013F0020E096E040E086EBA0EE82EFED7A8
:10237000082EFCD7092EFAD700D01200000199517F
:102380009A11D8B4C6EF11F0C8EF11F0ECEF11F0CC
:10239000010E9B6FD0EF11F0D89099379A379B2B95
:1023A0009AAFD5EF11F0D7EF11F0CCEF11F09951B2
:1023B000975D9A519859D8A0E0EF11F0E2EF11F033
:1023C000E6EF11F09951975F9A51985BD8909A3344
:1023D00099339B2FD7EF11F097C097F098C098F0E2
:1023E00012000A500B10D8B4F8EF11F0FAEF11F008
:1023F0001EEF12F0010E0C6E02EF12F0D8900A36AA
:102400000B360C2A0BAE07EF12F009EF12F0FEEFBD
:1024100011F00A50085C0B500958D8A012EF12F0C6
:1024200014EF12F018EF12F00A50085E0B50095A20
:10243000D8900B320A320C2E09EF12F008C008F0C7
:1024400009C009F01200000E0001A41B000EA51B1C
:10245000000EA61B800EA71BA0C090F0A1C091F09B
:10246000A2C092F0A3C093F0A4C094F0A5C095F0D0
:10247000A6C096F0A7C097F018EC04F090C0A0F0AA
:1024800091C0A1F092C0A2F093C0A3F0120000018D
:10249000A0519E5D986FA1519F59996FA051A25D67
:1024A000926FA151A359936FA451A65D906FA5514E
:1024B000A759916F79EC0EF090C09AF091C09BF003
:1024C00012EC13F00001A45198259E6FA55199219B
:1024D0009F6F120011500F5C096E125010580A6E57
:1024E0001150135C036E12501458046E1550175C93
:1024F000016E16501858026E3EEC0FF001C00BF042
:1025000002C00CF039EC13F0155009240F6E165070
:102510000A20106E1200E60EF66E260EF76E000E02
:10252000F86E0900F5CF33F00900F5CF34F000EE76
:1025300060F0300EEE6AE806FDE100EE2CF0070ECA
:10254000EE6AE806FDE135903592000EF86E000166
:1025500053EF13F090C092F091C093F0B3EF12F0EC
:102560000001924B932B92C0D9FF93C0DAFFDF504A
:10257000D8A4BDEF12F0BFEF12F0B0EF12F00001DF
:102580009051925D906F91519359916F120000019B
:10259000916FFEEC12F0C586FEEC12F0C9CF92F0FE
:1025A000FEEC12F000019105D8B4D9EF12F0DCEF87
:1025B00012F0C58ADDEF12F0C59AC588FEEC12F064
:1025C00000019251120001C003F002C004F0EBEFD1
:1025D00012F0034A042A03C0D9FF04C0DAFFDF5017
:1025E000D8A4F5EF12F0F7EF12F0E9EF12F0015076
:1025F000035C016E02500458026E1200C5CF90F0C9
:102600001F0E00019017D8A408EF13F00AEF13F083
:10261000FEEF12F0C7B40FEF13F011EF13F0FEEF5F
:1026200012F01200000198519A03F3CF9CF0F4CFFE
:102630009DF098519B03F3509D2799519A03F350B5
:102640009D279CC098F09DC099F01200C5CF01F065
:102650001F0E0116D8A42FEF13F031EF13F026EF61
:1026600013F0C7B436EF13F038EF13F026EF13F082
:10267000120009500B02F3CF0DF0F4CF0EF0095009
:102680000C02F3500E260A500B02F3500E260DC01A
:1026900009F00EC00AF012000001916FFEEC12F07A
:1026A00091C0C9FF1200D3EC0CF055EF13F007EF07
:1026B00000F0026E26EC13F002C0C9FF1200FEEC1F
:1026C00012F0C5821200FEEC12F0C5841200FEEC7E
:1026D00012F0C580120026EC13F0C584120026EC1F
:0826E00013F0C5801200050093
:020000040020DA
:08000000FFFFFFFFFFFFFFFF00
:020000040030CA
:0E000000000B1F1EFF8381FF0FC00FE00F409B
:00000001FF
