:020000040000FA
:0400000007EF00F016
:0A0008005F82DBED11F064EF14F0ED
:100800000001000A006400E803102720456C206303
:100810006172616374657220726563696269646F95
:10082000206675653A202563005825632563256396
:100830002059256325632563205A25632563256395
:1008400000616E67756C6F2061746F69202564208C
:100850000A00616E67756C6F207A202563200A009C
:1008600020416E67756C6F3A202564200A00205382
:100870006572766F3A202564200A004461746F3AED
:100880002025630053657474696E6773000000016E
:10089000D651800BDF6FD651D625E16FD5AF53EF20
:1008A00004F055EF04F056EF04F0E181E151D8B4C3
:1008B0005CEF04F05EEF04F073EF04F0E129D8A4DC
:1008C00064EF04F066EF04F06EEF04F0000ED36FF7
:1008D000000ED46F000ED56F000ED66FD58F000EB0
:1008E000D66F7BEF04F0000ED36F000ED46F000EB6
:1008F000D56F000ED66FDA51800BE06FDF51E01933
:10090000D8B485EF04F087EF04F088EF04F0DF8DB2
:10091000DA51DA25E06FD9AF90EF04F092EF04F0EE
:1009200093EF04F0E081E051D8B499EF04F09BEF2D
:1009300004F0B0EF04F0E029D8A4A1EF04F0A3EF95
:1009400004F0ABEF04F0000ED76F000ED86F000E6E
:10095000D96F000EDA6FD98F000EDA6FB8EF04F09E
:10096000000ED76F000ED86F000ED96F000EDA6F31
:10097000E151E05DD8B0BFEF04F0C1EF04F0E8EF63
:1009800004F0DFADC6EF04F0C8EF04F0CAEF04F0E6
:10099000800EDF1BE1C0E2F0E0C0E1F0E2C0E0F079
:1009A000D3C0E2F0D7C0D3F0E2C0D7F0D4C0E2F0B9
:1009B000D8C0D4F0E2C0D8F0D5C0E2F0D9C0D5F0AC
:1009C000E2C0D9F0D6C0E2F0DAC0D6F0E2C0DAF088
:1009D000000EE26FE151E0C0DBF0DC6BDB5F000E8C
:1009E000DC5BDCBFFDEF04F0DC5109E11A0EDB5DDE
:1009F000D8A0FDEF04F0FFEF04F036EF05F0D3517F
:100A0000D411D511D611D8A408EF05F00BEF05F0DD
:100A1000010E0CEF05F0000EE26F000ED36F000E1A
:100A2000D46F000ED56F000ED66FE0C0E1F03FEF3F
:100A300005F0E2A11EEF05F020EF05F026EF05F02E
:100A4000D890E2310109E26F28EF05F0D890E23347
:100A5000D3A12DEF05F02FEF05F030EF05F0E28F79
:100A6000D635D633D533D433D333E12BE051E15DE2
:100A7000D8A03DEF05F03FEF05F019EF05F0DFBD21
:100A800044EF05F046EF05F086EF05F0E151D8A4FC
:100A90004CEF05F04EEF05F058EF05F0000ED36F68
:100AA000000ED46F000ED56F000ED66FA7EF06F0C4
:100AB000D751D327D851D423D951D523DA51D623AE
:100AC000D6A165EF05F067EF05F013EF06F0E2A1A0
:100AD0006CEF05F06EEF05F074EF05F0D890E231A1
:100AE0000109E26F76EF05F0D890E233D3A17BEFF6
:100AF00005F07DEF05F07EEF05F0E28FD635D633B9
:100B0000D533D433D333E12B13EF06F0D751D35D74
:100B1000D851D459D951D559D651800ADB6FDA5101
:100B2000800ADB59D8B097EF05F099EF05F0C4EFD4
:100B300005F0D351D75DDB6FD451D859DC6FD55157
:100B4000D959DD6FD651DA59DE6FFF0EDB25D36F31
:100B5000FF0EDC21D46FFF0EDD21D56FFF0EDE21ED
:100B6000D66F800EDF1BE26DE251D8A4BAEF05F01C
:100B7000BCEF05F0CCEF05F0010ED327000ED42317
:100B8000D523D623CCEF05F0D751D35FD851D45B12
:100B9000D951D55BDA51D65BD351D411D511D611C9
:100BA000D8A4D5EF05F0D7EF05F00CEF06F0E25131
:100BB000D8A4DDEF05F0DFEF05F00CEF06F0000E36
:100BC000D36F000ED46F000ED56F000ED66FA7EF57
:100BD00006F0D890D337D437D537D637E2AFF3EF16
:100BE00005F0F5EF05F0F6EF05F0D381E2A1FBEF9C
:100BF00005F0FDEF05F001EF06F0D880E23703EFD6
:100C000006F0D890E237E151D8B409EF06F00BEFC7
:100C100006F00CEF06F0E107D5AF11EF06F013EF89
:100C200006F0E9EF05F0000EE06FE2AF1AEF06F014
:100C30001CEF06F034EF06F0E2C0DBF07F0EDB17AE
:100C4000D8B425EF06F027EF06F02BEF06F0010EE3
:100C5000E06F34EF06F0D3A130EF06F032EF06F08C
:100C600034EF06F027EF06F0E051D8B43AEF06F083
:100C70003CEF06F067EF06F0010ED327000ED423F9
:100C8000D523D623D6A147EF06F049EF06F067EF4C
:100C900006F0D3C0DBF0D4C0DCF0D5C0DDF0D6C0A8
:100CA000DEF0DE35DE33DD33DC33DB33DBC0D3F0C7
:100CB000DCC0D4F0DDC0D5F0DEC0D6F0E129D8B478
:100CC00064EF06F066EF06F067EF06F0E12BE1292E
:100CD000D8B46DEF06F06FEF06F077EF06F0E15154
:100CE000D8A475EF06F077EF06F089EF06F0000E56
:100CF000D36F000ED46F000ED56F000ED66FE1518A
:100D0000D8A485EF06F087EF06F089EF06F0000E15
:100D1000DF6FE1A18EEF06F090EF06F093EF06F0A3
:100D2000D58F94EF06F0D59FD890E131D66FDFAF25
:100D30009CEF06F09EEF06F09FEF06F0D68FD3C033
:100D4000D3F0D4C0D4F0D5C0D5F0D6C0D6F01200C0
:100D5000730E5818D8A4AFEF06F0B1EF06F0B5EF58
:100D600006F0000E596ED8EF06F0610E5818D8A4A0
:100D7000BCEF06F0BEEF06F0C2EF06F0010E596EB2
:100D8000D8EF06F0700E5818D8A4C9EF06F0CBEFD4
:100D900006F0D8EF06F0030E596E0B0E326E260EDB
:100DA000316E5E0EE82EFED7312EFCD7322EFAD7EA
:100DB0005950D8A4DEEF06F0E0EF06F03CEF07F064
:100DC000300E5818D8A4E7EF06F0E9EF06F0EFEF81
:100DD00006F0000E5E6E000E5D6E8DEF08F0310EB7
:100DE0005818D8A4F6EF06F0F8EF06F0FEEF06F07C
:100DF000000E5E6E010E5D6E8DEF08F0320E58181B
:100E0000D8A405EF07F007EF07F00DEF07F0000E8D
:100E10005E6E020E5D6E8DEF08F0330E5818D8A48A
:100E200014EF07F016EF07F01CEF07F0000E5E6EF0
:100E3000030E5D6E8DEF08F0340E5818D8A423EF22
:100E400007F025EF07F02BEF07F0000E5E6E040EA3
:100E50005D6E8DEF08F0350E5818D8A432EF07F00C
:100E600034EF07F03AEF07F0000E5E6E050E5D6E90
:100E70008DEF08F08DEF08F05904D8A442EF07F089
:100E800044EF07F048EF07F0020E596E8DEF08F0BF
:100E9000020E5918D8A44FEF07F051EF07F004EFF6
:100EA00008F05A0E4824D96E000E4920DA6E58C058
:100EB000DFFF9C0E0D6E000E0E6E520E0F6E080EB2
:100EC000106E5A0E4824D96E000E4920DA6EDF509B
:100ED000316E3150116E126AA1EC0CF0CDEC13F0B2
:100EE000484A492A030E48184910D8A47AEF07F057
:100EF0007CEF07F08DEF08F0000E496E000E486E93
:100F00005A0E0F6E000E106E0FEC0EF00FC046F072
:100F100010C047F09C0E0D6E000E0E6E410E0F6E4F
:100F2000080E106E46C011F047C012F0A1EC0CF094
:100F3000CDEC13F05D505E10D8A4A1EF07F0A3EF45
:100F400007F0A9EF07F046C060F047C061F0F8EF86
:100F500007F05D045E10D8A4B0EF07F0B2EF07F021
:100F6000B8EF07F046C062F047C063F0F8EF07F053
:100F7000020E5D185E10D8A4C0EF07F0C2EF07F0B4
:100F8000C8EF07F046C064F047C065F0F8EF07F01F
:100F9000030E5D185E10D8A4D0EF07F0D2EF07F073
:100FA000D8EF07F046C066F047C067F0F8EF07F0EB
:100FB000040E5D185E10D8A4E0EF07F0E2EF07F032
:100FC000E8EF07F046C068F047C069F0F8EF07F0B7
:100FD000050E5D185E10D8A4F0EF07F0F2EF07F0F1
:100FE000F8EF07F046C06AF047C06BF0F8EF07F083
:100FF0005DC02BF05EC02CF046C02DF047C02EF037
:10100000D7EC10F08DEF08F0030E5918D8A40BEFB1
:1010100008F00DEF08F04DEF08F0040E596E000EC9
:10102000516E000E506E51BE1FEF08F0515009E195
:10103000030E505CD8A01FEF08F021EF08F023EF5B
:1010400008F03FEF08F0C80E5024D96E000E512072
:10105000DA6E000EDF6ECB0E5024D96E000E5120DA
:10106000DA6E000EDF6ECE0E5024D96E000E5120C7
:10107000DA6E000EDF6E504A512A13EF08F0000EB0
:10108000576E000E566E000E556E000E546E000E1A
:10109000536E000E526E8DEF08F0040E5918D8A44E
:1010A00054EF08F056EF08F08DEF08F0444A452A57
:1010B00045BE63EF08F0455008E14404D8A063EF53
:1010C00008F065EF08F08DEF08F045BE73EF08F00B
:1010D000455007E10A0E445CD8B071EF08F073EF99
:1010E00008F08DEF08F0564A572A3A0E4424D96E7C
:1010F000000E4520DA6E58C0DFFF090E4418451077
:10110000D8A485EF08F087EF08F03AEF07F0000E5B
:10111000456E000E446EA2EC0FF012000001D65195
:10112000800BE36FD651D625EA6FD5AF9AEF08F062
:101130009CEF08F09DEF08F0EA81EA51D8B4A3EFE4
:1011400008F0A5EF08F0BAEF08F0EA29D8A4ABEF51
:1011500008F0ADEF08F0B5EF08F0000ED36F000E09
:10116000D46F000ED56F000ED66FD58F000ED66FE0
:10117000C2EF08F0000ED36F000ED46F000ED56FD3
:10118000000ED66FDA51800BE31BDA51DA25EB6FD4
:10119000D9AFCDEF08F0CFEF08F0D0EF08F0EB813A
:1011A000EB51D8B4D6EF08F0D8EF08F0EDEF08F027
:1011B000EB29D8A4DEEF08F0E0EF08F0E8EF08F044
:1011C000000ED76F000ED86F000ED96F000EDA6FC9
:1011D000D98F000EDA6FF5EF08F0000ED76F000E12
:1011E000D86F000ED96F000EDA6FD751D811D91110
:1011F000DA11D8A4FEEF08F000EF09F018EF09F0BB
:10120000000ED36F000ED46F000ED56F000ED66F98
:10121000800ED5137F0ED613E351D613D3C0D3F06F
:10122000D4C0D4F0D5C0D5F0D6C0D6F05BEF0AF06C
:10123000EA51D8A41EEF09F020EF09F02AEF09F0D7
:10124000000ED36F000ED46F000ED56F000ED66F58
:101250005BEF0AF0EB51EAC0DBF0DC6BDB5F000E0A
:10126000DC5B7F0EDB25E46F000EDC21E56FD3C075
:10127000DFF0D4C0E0F0D5C0E1F0D6C0E2F0000E5F
:10128000D36F000ED46F000ED56F000ED66F000E18
:10129000E66F000EE76F000EE86F000EE96F000EBC
:1012A000EB6F8BEF09F0EB51D8B459EF09F05BEF1E
:1012B00009F072EF09F0D890DF37E037E137E23715
:1012C000D890D337D437D537D637E9AF6AEF09F09E
:1012D0006CEF09F06DEF09F0D381D890E637E7376E
:1012E000E837E937D751DF5DD851E059D951E15995
:1012F000DA51E259D8A07FEF09F081EF09F08AEFC7
:1013000009F0E98DD751DF5FD851E05BD951E15B3E
:10131000DA51E25BEB2B190EEB6591EF09F093EFDD
:1013200009F053EF09F0DF51E011E111E211D8B4F7
:101330009CEF09F09EEF09F0B6EF09F0E681B6EFF9
:1013400009F0D890D337D437D537D637E9AFABEFDC
:1013500009F0ADEF09F0AEEF09F0D381D890E63790
:10136000E737E837E937E407D8A0E507D5AFBBEFA3
:1013700009F0BDEF09F0A1EF09F0000EEB6FE9AF46
:10138000C4EF09F0C6EF09F0EAEF09F0FF0EE61529
:10139000DB6FFF0EE715DC6FFF0EE815DD6F7F0ECC
:1013A000E915DE6FDB51DC11DD11DE11D8B4DBEFA6
:1013B00009F0DDEF09F0E1EF09F0010EEB6FEAEF64
:1013C00009F0D3A1E6EF09F0E8EF09F0EAEF09F040
:1013D000DDEF09F0EB51D8B4F0EF09F0F2EF09F0CE
:1013E00016EF0AF0010ED327000ED423D523D623FF
:1013F000D6A1FDEF09F0FFEF09F016EF0AF0D3C018
:10140000DBF0D4C0DCF0D5C0DDF0D6C0DEF0DE35D8
:10141000DE33DD33DC33DB33DBC0D3F0DCC0D4F0D0
:10142000DDC0D5F0DEC0D6F0E44BE52BE5BF21EF03
:101430000AF0E55108E1E429D8A021EF0AF023EFF2
:101440000AF02EEF0AF0000EE56FE469000ED36F8C
:10145000000ED46F000ED56F000ED66FE5BF3BEFC8
:101460000AF0E55106E1E405D8B039EF0AF03BEFA8
:101470000AF049EF0AF0000EE56F000EE46F000E6F
:10148000D36F000ED46F000ED56F000ED66F000E16
:10149000E36FE4C0EAF0EAA150EF0AF052EF0AF07D
:1014A00055EF0AF0D58F56EF0AF0D59FD890EA3164
:1014B000D66F0CEF09F01200ECC0D3F0EDC0D4F001
:1014C000EEC0D5F0EFC0D6F0000E0001D76F000ED1
:1014D000D86F800ED96F3F0EDA6F1FEC0FF000014E
:1014E000D8B075EF0AF077EF0AF07FEF0AF0000E40
:1014F000EC6F000EED6F800EEE6F3F0EEF6F000E83
:10150000D36FC00ED46F5A0ED56F450ED66FECC098
:10151000D7F0EDC0D8F0EEC0D9F0EFC0DAF01FEC94
:101520000FF00001D8B097EF0AF099EF0AF0A1EFA1
:101530000AF0000EEC6FC00EED6F5A0EEE6F450E06
:10154000EF6FBC0EF36FEF0EF46FC60EF56F4B0E20
:10155000F66FF3C0D3F0F4C0D4F0F5C0D5F0F6C008
:10156000D6F0ECC0D7F0EDC0D8F0EEC0D9F0EFC0A7
:10157000DAF08EEC08F0D3C0F3F0D4C0F4F0D5C0AC
:10158000F5F0D6C0F6F0F3C0D3F0F4C0D4F0F5C057
:10159000D5F0F6C0D6F0000E0001D76F000ED86F60
:1015A000000ED96F450EDA6F47EC04F0D3C0F3F0AC
:1015B000D4C0F4F0D5C0F5F0D6C0F6F0F3C0D3F047
:1015C000F4C0D4F0F5C0D5F0F6C0D6F0000E00019E
:1015D000D76F000ED86F800ED96F450EDA6F8EEC84
:1015E00008F0D3C0F3F0D4C0F4F0D5C0F5F0D6C005
:1015F000F6F0F3C0E3F0F4C0E4F0F5C0E5F0F6C0B7
:10160000E6F0000E0001E76F000EE86F800EE96F54
:101610003F0EEA6F1FEC14F0E3C0F3F0E4C0F4F007
:10162000E5C0F5F0E6C0F6F0F3C0D3F0F4C0D4F0B6
:10163000F5C0D5F0F6C0D6F0000E0001D76F000E51
:10164000D86F400ED96F400EDA6F1FEC0FF000011B
:10165000D8B02DEF0BF02FEF0BF037EF0BF0000EA3
:10166000F36F000EF46F400EF56F400EF66F000E34
:10167000D36F000ED46F7F0ED56F430ED66FF3C0BD
:10168000D7F0F4C0D8F0F5C0D9F0F6C0DAF01FEC0E
:101690000FF00001D8B04FEF0BF051EF0BF059EF06
:1016A0000BF0000EF36F000EF46F7F0EF56F430E1C
:1016B000F66FF3C0D3F0F4C0D4F0F5C0D5F0F6C0A7
:1016C000D6F09BEC0EF00001D351F16F000ED66FF7
:1016D000D20ED76F000ED86F000EDA6F010ED96FE1
:1016E000800E13EC10F00001D2517F0B1009F26F45
:1016F000000ED56FF20ED66F000ED76F000ED96FA9
:10170000010ED86F800E27EC12F0FE0E0001D56F8F
:10171000F10ED66F000ED76F000ED96F010ED86F85
:10172000800E27EC12F0000E0001D56FD20ED66F9E
:10173000000ED76F000ED96F010ED86F800E27EC08
:1017400012F00D0E0001F06FFB0EE82EFED7F02F09
:10175000FCD700D00001D251A009D16F000ED56F87
:10176000D10ED66F000ED76F000ED96F010ED86F55
:10177000800E27EC12F01200E30E0001E66F000E5F
:10178000E76F89EF0CF0250EEA19D8B4CAEF0BF019
:10179000CCEF0BF0D6EF0BF0DFC0D9FFE0C0DAFFE3
:1017A000EAC0DFFFDF4BE02B89EF0CF0000EE46FA7
:1017B000E6EF0BF0E6C0D9FFE7C0DAFFDF50EA6FD3
:1017C000020EE627000EE723CCEF0BF0E1C0F6FF98
:1017D000E2C0F7FFE14BE22B0800F5CFEAF0EA5157
:1017E000000AD8B49AEF0CF0630AD8B4DAEF0BF021
:1017F000070AD8B402EF0CF00D0AD8B402EF0CF0CF
:10180000CCEF0BF0E6C0D9FFE7C0DAFFDECFE8F09F
:10181000DDCFE9F0020EE627000EE723E9BF15EF62
:101820000CF013EF0CF01BEF0CF0030EE413E86D5B
:10183000E91FD8B0E92B010EEA6FEA51020D010E43
:10184000F324F66E080EF420F76E0900F550E85DFB
:101850000900F550E959D8B030EF0CF032EF0CF038
:1018600034EF0CF03EEF0CF0EA2B050EEA19D8A489
:101870003CEF0CF03EEF0CF01DEF0CF0E4C0E3F099
:10188000030EE317D8B447EF0CF049EF0CF051EF1B
:101890000CF0DFC0D9FFE0C0DAFF2D0EDF6EDF4BAA
:1018A000E02BEAC0E5F080EF0CF0E551020D010EEF
:1018B000F324F66E080EF420F76E0900F5CFD5F08C
:1018C0000A00F5CFD6F0E8C0D3F0E9C0D4F065EC5B
:1018D00012F0D3C0DAF0D4C0DBF0000E0001DD6FEF
:1018E0000A0EDC6F12EC13F00001DA51300FEA6FD0
:1018F000DFC0D9FFE0C0DAFFEAC0DFFFDF4BE02B3B
:10190000E507E529D8A487EF0CF089EF0CF055EF37
:101910000CF0E1C0F6FFE2C0F7FFE14BE22B08005C
:10192000F5CFEAF0EA51D8A498EF0CF09AEF0CF05A
:10193000C3EF0BF0DFC0D9FFE0C0DAFF000EDF6EAF
:101940001200110E266E000E276E6BEF0DF0250EA5
:101950002A18D8B4AEEF0CF0B0EF0CF0BAEF0CF0E0
:101960000DC0D9FF0EC0DAFF2AC0DFFF0D4A0E2AD4
:101970006BEF0DF0000E246ECAEF0CF026C0D9FFFD
:1019800027C0DAFFDF502A6E020E2626000E27221D
:10199000B0EF0CF00FC0F6FF10C0F7FF0F4A102A8F
:1019A0000800F5CF2AF02A50000AD8B47CEF0DF0D9
:1019B000630AD8B4BEEF0CF0070AD8B4E6EF0CF017
:1019C0000D0AD8B4E6EF0CF0B0EF0CF026C0D9FF4A
:1019D00027C0DAFFDECF28F0DDCF29F0020E262661
:1019E000000E272229BEF9EF0CF0F7EF0CF0FFEF05
:1019F0000CF0030E2412286C291ED8B0292A010EDF
:101A00002A6E2A50020D010EF324F66E080EF42001
:101A1000F76E0900F550285C0900F5502958D8B038
:101A200014EF0DF016EF0DF018EF0DF022EF0DF0A2
:101A30002A2A050E2A18D8A420EF0DF022EF0DF067
:101A400001EF0DF024C023F0030E2316D8B42BEFC2
:101A50000DF02DEF0DF035EF0DF00DC0D9FF0EC0DC
:101A6000DAFF2D0EDF6E0D4A0E2A2AC025F062EF36
:101A70000DF02550020D010EF324F66E080EF42031
:101A8000F76E0900F5CF03F00A00F5CF04F028C087
:101A900001F029C002F0A0EC12F001C008F002C071
:101AA00009F0000E0B6E0A0E0A6E45EC13F008509A
:101AB000300F2A6E0DC0D9FF0EC0DAFF2AC0DFFF3B
:101AC0000D4A0E2A25062528D8A469EF0DF06BEFE4
:101AD0000DF039EF0DF00FC0F6FF10C0F7FF0F4A01
:101AE000102A0800F5CF2AF02A50D8A47AEF0DF07A
:101AF0007CEF0DF0A7EF0CF00DC0D9FF0EC0DAFFA0
:101B0000000EDF6E1200720ED36E0F0EC16E938E3A
:101B1000939C720ED36E0F0EC16E000E956E000E6A
:101B2000966E000E8C6E000E8D6E93809382800EEA
:101B3000C76E280EC66E000EC56E130EC86E949C3E
:101B4000948E0C0EAF6E900EAB6E200EAC6E000E2F
:101B50000001D56F800ED66F000ED76F000ED96FC3
:101B6000010ED86F800E27EC12F01A0E0001F76FED
:101B7000F80EE82EFED7F72FFCD700F0000E00017C
:101B8000EC6F000EED6F7A0EEE6F440EEF6F5CECB3
:101B90000AF0000E0001EC6F000EED6F480EEE6FC4
:101BA000420EEF6F5CEC0AF0040E0001F86F0C0EB1
:101BB000F76F330EE82EFED7F72FFCD7F82FFAD7A2
:101BC00000D0020E38EC15F0060E38EC15F00F0EB2
:101BD00038EC15F0280E38EC15F0010E38EC15F045
:101BE000F28EF28C9D8A9E9A9C0E0001DF6F000E91
:101BF000E06F840EE16F080EE26FBCEC0BF0740E28
:101C00000001DF6F000EE06F840EE16F080EE26FDF
:101C1000BCEC0BF0A2EC13F077EC13F0120013EF16
:101C20000EF00F4A102A0FC0D9FF10C0DAFF200EA5
:101C3000DE18D8B41EEF0EF020EF0EF011EF0EF00C
:101C40000FC0D9FF10C0DAFF090EDE18D8B42BEF91
:101C50000EF02DEF0EF011EF0EF0000E156E000ECF
:101C6000146E000E136E0FC0D9FF10C0DAFF2D0ED8
:101C7000DE18D8A43EEF0EF040EF0EF045EF0EF068
:101C8000132A0F4A102A72EF0EF00FC0D9FF10C0AE
:101C9000DAFF2B0EDE18D8A450EF0EF052EF0EF044
:101CA00072EF0EF00F4A102A72EF0EF014C009F016
:101CB00015C00AF0000E0C6E0A0E0B6E17EC15F034
:101CC0000FC0D9FF10C0DAFFDF50116E1150092686
:101CD000000E0A22D00E0924146EFF0E0A20156E83
:101CE00052EF0EF00FC0D9FF10C0DAFFDF50D7EC73
:101CF00014F0D8B07EEF0EF080EF0EF056EF0EF03D
:101D00001350D8B486EF0EF088EF0EF096EF0EF079
:101D100014C011F015C012F0111E121E114A122A21
:101D200011C00FF012C010F09AEF0EF014C00FF0B7
:101D300015C010F012000001D535D635DC6FDC512E
:101D4000D8A4A5EF0EF0A7EF0EF0B1EF0EF0000E45
:101D5000D36F000ED46F000ED56F000ED66F1EEF3E
:101D60000FF0D3C0D7F0D4C0D8F0D5C0D9F0D6C0CA
:101D7000DAF0200EC1EF0EF0D890DA33D933D83331
:101D8000D733E82EBCEF0EF0D751DB6FD58FFF0EA7
:101D9000D317FF0ED417FF0ED517000ED617960EC9
:101DA000DC5FDCBFD8EF0EF0D6EF0EF0EEEF0EF0FA
:101DB000DC51800A970FD8B0E0EF0EF0E2EF0EF0A2
:101DC000E4EF0EF0A7EF0EF0D890D633D533D4332E
:101DD000D333DC3FE4EF0EF006EF0FF01F0EDC65AF
:101DE000F4EF0EF0F6EF0EF0FEEF0EF0A7EF0EF0B0
:101DF000D890D337D437D537D637DC07DC51D8A4C1
:101E000004EF0FF006EF0FF0F8EF0EF0DB51D8B44F
:101E10000CEF0FF00EEF0FF016EF0FF0D61FD51FDF
:101E2000D41FD36D000ED423D523D623D3C0D3F033
:101E3000D4C0D4F0D5C0D5F0D6C0D6F01200000E74
:101E40000001D315DB6F000ED415DC6F800ED515A5
:101E5000DD6F7F0ED615DE6FDB51DC11DD11DE117B
:101E6000D8A435EF0FF037EF0FF03FEF0FF0000E73
:101E7000D36F000ED46F000ED56F000ED66F000E1C
:101E8000D715DB6F000ED815DC6F800ED915DD6F0E
:101E90007F0EDA15DE6FDB51DC11DD11DE11D8A407
:101EA00054EF0FF056EF0FF05EEF0FF0000ED76F0C
:101EB000000ED86F000ED96F000EDA6FD6AF63EF49
:101EC0000FF065EF0FF06EEF0FF0D36DD41FD8B0A9
:101ED000D42BD51FD8B0D52B800ED657DAAF73EFE1
:101EE0000FF075EF0FF07EEF0FF0D76DD81FD8B061
:101EF000D82BD91FD8B0D92B800EDA57000ED31BA0
:101F0000000ED41B000ED51B800ED61B000ED71B57
:101F1000000ED81B000ED91B800EDA1BD751D35DE3
:101F2000D851D459D951D559DA51D659D8B09BEF97
:101F30000FF09DEF0FF0A0EF0FF0D890A1EF0FF092
:101F4000D8801200C80E0F6E000E106E0FEC0EF04F
:101F50000FC070F010C071F0CB0E0F6E000E106E3F
:101F60000FEC0EF00FC072F010C073F0CE0E0F6EBB
:101F7000000E106E0FEC0EF00FC06EF010C06FF080
:101F80009C0E0D6E000E0E6E290E0F6E080E106E5A
:101F90003BC011F0126A3CC013F0146A3DC015F04A
:101FA000166A3EC017F0186A3FC019F01A6A40C09E
:101FB0001BF01C6A41C01DF01E6A42C01FF0206A5F
:101FC00043C021F0226AA1EC0CF0CDEC13F0740EAA
:101FD0000D6E000E0E6E290E0F6E080E106E3BC0B9
:101FE00011F0126A3CC013F0146A3DC015F0166A75
:101FF0003EC017F0186A3FC019F01A6A40C01BF0C3
:102000001C6A41C01DF01E6A42C01FF0206A43C016
:1020100021F0226AA1EC0CF0F6EC13F0F6EC13F0D0
:10202000CDEC13F012000001DD6F73EC15F0000130
:10203000DD515CEC15F00001D6515CEC15F077EC4D
:1020400015F00001DD5101095CEC15F0000E516E38
:10205000000E506E55EF10F0010E5024DB6F000E95
:102060005120DC6FD951DB1907E1DA51DC19D8A412
:102070003CEF10F03EEF10F048EF10F0010EA0EC36
:1020800014F0D7C0D9FFD8C0DAFFDF6E50EF10F0E0
:10209000000EA0EC14F0D7C0D9FFD8C0DAFFDF6E75
:1020A0000001D74BD82B504A512A0001D951505C1E
:1020B0005150800ADB6FDA51800ADB59D8A063EFF8
:1020C00010F065EF10F02CEF10F06FEC15F0020E31
:1020D0000001DC6F040EDB6FBA0EE82EFED7DB2F9B
:1020E000FCD7DC2FFAD700F01200000E066E04BEFB
:1020F0007EEF10F07CEF10F084EF10F0036C041E04
:10210000D8B0042A010E066E02BE8BEF10F089EFE4
:1021100010F091EF10F0016C021ED8B0022A010EEF
:10212000061A000E086E000E076E03500410D8B495
:102130009CEF10F09EEF10F0C6EF10F0010E056E50
:10214000A6EF10F0D89003360436052A04AEABEFA4
:1021500010F0ADEF10F0A2EF10F0D890073608366F
:102160000350015C04500258D8A0B9EF10F0BBEF47
:1021700010F0C0EF10F00350015E0450025A0780C7
:10218000D89004320332052EADEF10F00650D8B4CB
:10219000CCEF10F0CEEF10F0D2EF10F0076C081E6D
:1021A000D8B0082A07C001F008C002F012002DC004
:1021B0000FF02EC010F0000E126E000E116E000E09
:1021C000146EB40E136E000E166E6E0E156E010EAA
:1021D000186EFE0E176E43EC14F00FC04EF010C0D8
:1021E0004FF04EC0C6F04F500001C76F2B50040D8A
:1021F000F350060F036EC40E046E000E056E000E43
:10220000076E040E066E800EDAEC12F09C0E0D6E58
:10221000000E0E6E6E0E0F6E080E106E2BC011F0BB
:102220002CC012F0A1EC0CF0CDEC13F09C0E0D6E56
:10223000000E0E6E600E0F6E080E106E2DC011F0A7
:102240002EC012F0A1EC0CF0CDEC13F00B0E306EA2
:10225000260E2F6E5E0EE82EFED72F2EFCD7302EC8
:10226000FAD712000001D46FC80E00D0E82EFDD7B7
:102270008D80D4C0D3F0010E0001D3178C50D31938
:10228000FE0BD3198C6EC80E00D0E82EFDD7D4C03B
:10229000D3F00001D890D333010ED317D3478C501D
:1022A000D319FD0BD3198C6EC80E00D0E82EFDD7C4
:1022B000D4C0D3F00001D890D333D890D333010EDB
:1022C000D317D347D3478C50D319FB0BD3198C6E3C
:1022D000C80E00D0E82EFDD7D4C0D3F00001D890AE
:1022E000D333D890D333D890D333010ED317D347F9
:1022F000D347D3478C50D319F70BD3198C6EC80E24
:1023000000D0E82EFDD78D90C80E00D0E82EFDD766
:102310001200026EC80E00D0E82EFDD78D8002C0DC
:1023200001F0010E01168C500118FE0B01188C6E85
:10233000C80E00D0E82EFDD702C001F0D8900132BF
:10234000010E011601468C500118FD0B01188C6E10
:10235000C80E00D0E82EFDD702C001F0D89001329F
:10236000D8900132010E0116014601468C50011829
:10237000FB0B01188C6EC80E00D0E82EFDD702C0F2
:1023800001F0D8900132D8900132D8900132010E7C
:1023900001160146014601468C500118F70B011841
:1023A0008C6EC80E00D0E82EFDD78D90C80E00D0E0
:1023B000E82EFDD712000600D9CF33F0DACF34F083
:1023C000F3CF35F0F4CF36F0F6CF37F0F7CF38F063
:1023D000F8CF39F0F5CF3AF09EAAF1EF11F0F3EF14
:1023E00011F015EF12F0AECF58F09C0E0D6E000EEE
:1023F0000E6E0B0E0F6E080E106E58C011F0126AA2
:10240000A1EC0CF0740E0D6E000E0E6E7B0E0F6EB6
:10241000080E106E58C011F0126AA1EC0CF0CDEC51
:1024200013F0F6EC13F0A8EC06F03AC0F5FF39C053
:10243000F8FF38C0F7FF37C0F6FF36C0F4FF35C0ED
:10244000F3FF34C0DAFF33C0D9FF5F9211000001FF
:10245000DC6F73EC15F00001DC515CEC15F0000151
:10246000D5515CEC15F0000E516E000E506E45EF2C
:1024700012F0D6C0D9FFD7C0DAFFDF505CEC15F000
:102480000001D64BD72B504A512A0001D851505C3D
:102490005150800ADA6FD951800ADA59D8A053EF27
:1024A00012F055EF12F039EF12F06FEC15F0020E4A
:1024B0000001DB6F040EDA6FBA0EE82EFED7DA2FBA
:1024C000FCD7DB2FFAD700F01200000E0001D86F06
:1024D000000ED76FD551D611D8B471EF12F073EF4B
:1024E00012F09BEF12F0010ED96F7BEF12F0D89033
:1024F000D537D637D92BD6AF80EF12F082EF12F056
:1025000077EF12F0D890D737D837D551D35DD65161
:10251000D459D8A08EEF12F090EF12F095EF12F090
:10252000D551D35FD651D45BD781D890D633D5332C
:10253000D92F82EF12F0D7C0D3F0D8C0D4F0120058
:10254000000E066E000E056E03500410D8B4ABEFFB
:1025500012F0ADEF12F0D5EF12F0010E076EB5EFED
:1025600012F0D89003360436072A04AEBAEF12F000
:10257000BCEF12F0B1EF12F0D890053606360350DA
:10258000015C04500258D8A0C8EF12F0CAEF12F054
:10259000CFEF12F00350015E0450025A0580D8902C
:1025A00004320332072EBCEF12F005C001F006C062
:1025B00002F012000A6E7FEC15F00A5069EC15F07B
:1025C000035069EC15F0000E516E000E506EF4EFE2
:1025D00012F004C0D9FF05C0DAFFDF5069EC15F036
:1025E000044A052A504A512A0650505C5150800A2C
:1025F000086E0750800A0858D8A001EF13F003EFC7
:1026000013F0E9EF12F07BEC15F0020E096E040EE8
:10261000086EBA0EE82EFED7082EFCD7092EFAD780
:1026200000D012000001DC51DD11D8B41AEF13F014
:102630001CEF13F040EF13F0010EDE6F24EF13F0E8
:10264000D890DC37DD37DE2BDDAF29EF13F02BEF31
:1026500013F020EF13F0DC51DA5DDD51DB59D8A027
:1026600034EF13F036EF13F03AEF13F0DC51DA5F8A
:10267000DD51DB5BD890DD33DC33DE2F2BEF13F045
:10268000DAC0DAF0DBC0DBF012000A500B10D8B46D
:102690004CEF13F04EEF13F072EF13F0010E0C6ECF
:1026A00056EF13F0D8900A360B360C2A0BAE5BEFC0
:1026B00013F05DEF13F052EF13F00A50085C0B506B
:1026C0000958D8A066EF13F068EF13F06CEF13F021
:1026D0000A50085E0B50095AD8900B320A320C2E61
:1026E0005DEF13F008C008F009C009F01200000EF9
:1026F000516E000E506E8EEF13F09EA882EF13F015
:1027000084EF13F07DEF13F09C0E5024D96E000E71
:102710005120DA6EDF50AD6E504A512A9C0E0001F6
:10272000D36F000ED46F83EC14F050500001D35DD2
:102730005150D459D8B09FEF13F0A1EF13F07DEFB3
:1027400013F01200800E38EC15F0010E38EC15F085
:10275000000E516E000E506EB9EF13F0740E50243F
:10276000D96E000E5120DA6EDF502AEC15F0504A77
:10277000512A740E0001D36F000ED46F83EC14F055
:102780000001D351505CD4515158D8A0CAEF13F076
:10279000CCEF13F0AEEF13F01200000E516E000EEE
:1027A000506EE4EF13F09EA8D8EF13F0DAEF13F0B9
:1027B000D3EF13F09C0E5024D96E000E5120DA6E28
:1027C000DF50AD6E504A512A9C0E016E000E026E13
:1027D000BCEC14F05050015C51500258D8B0F3EFEB
:1027E00013F0F5EF13F0D3EF13F01200800E51EC5D
:1027F00015F0010E51EC15F0000E516E000E506EEA
:102800000DEF14F0740E5024D96E000E5120DA6EC4
:10281000DF5046EC15F0504A512A740E016E000E3E
:10282000026EBCEC14F00150505C02505158D8A01C
:102830001CEF14F01EEF14F002EF14F01200000E63
:102840000001E71B000EE81B000EE91B800EEA1BCF
:10285000E3C0D3F0E4C0D4F0E5C0D5F0E6C0D6F0D4
:10286000E7C0D7F0E8C0D8F0E9C0D9F0EAC0DAF0A4
:1028700047EC04F0D3C0E3F0D4C0E4F0D5C0E5F0F9
:10288000D6C0E6F0120011500F5C096E12501058BD
:102890000A6E1150135C036E12501458046E1550DA
:1028A000175C016E16501858026E75EC10F001C0DE
:1028B0000BF002C00CF017EC15F0155009240F6E48
:1028C00016500A20106E1200060EF66E2B0EF76ED2
:1028D000000EF86E0900F5CF5DF00900F5CF5EF04F
:1028E00000EE60F0730EEE6AE806FDE100EE3BF0EC
:1028F000220EEE6AE806FDE15F905F92000EF86E30
:10290000000163EF15F0D3C0D5F0D4C0D6F08CEF42
:1029100014F00001D54BD62BD5C0D9FFD6C0DAFFB5
:10292000DF50D8A496EF14F098EF14F089EF14F06C
:102930000001D351D55DD36FD451D659D46F120055
:102940000001D46FF0EC14F0C586F0EC14F0C9CFA0
:10295000D5F0F0EC14F00001D405D8B4B2EF14F0C7
:10296000B5EF14F0C58AB6EF14F0C59AC588F0EC3F
:1029700014F00001D551120001C003F002C004F0B0
:10298000C4EF14F0034A042A03C0D9FF04C0DAFFDD
:10299000DF50D8A4CEEF14F0D0EF14F0C2EF14F053
:1029A0000150035C016E02500458026E1200036E67
:1029B000000E026E3A0E0360E0EF14F0E2EF14F046
:1029C000ECEF14F02F0E0364E8EF14F0EAEF14F0CC
:1029D000ECEF14F0010E026E02C001F001301200A3
:1029E000C5CFD3F01F0E0001D317D8A4FAEF14F00F
:1029F000FCEF14F0F0EF14F0C7B401EF15F003EFA3
:102A000015F0F0EF14F01200C5CF01F01F0E011603
:102A1000D8A40DEF15F00FEF15F004EF15F0C7B4C3
:102A200014EF15F016EF15F004EF15F01200095031
:102A30000B02F3CF0DF0F4CF0EF009500C02F3505F
:102A40000E260A500B02F3500E260DC009F00EC0E0
:102A50000AF012000001D56F8D820001D5390F0BED
:102A600032EC11F00001D5510F0B32EC11F01200D5
:102A70000001D56F8D920001D5390F0B32EC11F0AA
:102A80000001D5510F0B32EC11F01200036E8D8254
:102A900003380F0B89EC11F003500F0B89EC11F088
:102AA0001200036E8D9203380F0B89EC11F0035066
:102AB0000F0B89EC11F012000001D46FF0EC14F050
:102AC000D4C0C9FF120083EC0DF065EF15F007EFDD
:102AD00000F0026E04EC15F002C0C9FF1200F0EC29
:102AE00014F0C5841200F0EC14F0C5801200F0EC74
:102AF00014F0C582120004EC15F0C584120004EC39
:082B000015F0C580120005006C
:020000040020DA
:08000000FFFFFFFFFFFFFFFF00
:020000040030CA
:0E000000000B1F1EFF8381FF0FC00FE00F409B
:00000001FF
