:020000040000FA
:0400000007EF00F016
:0A0008003682D2ED0BF053EF11F039
:100800000001000A006400E8031027207365727677
:100810006F3A2025640053657474696E6773000035
:1008200000019351800B9C6F935193259E6F92AF63
:100830001CEF04F01EEF04F01FEF04F09E819E51A8
:10084000D8B425EF04F027EF04F03CEF04F09E2924
:10085000D8A42DEF04F02FEF04F037EF04F0000ED2
:10086000906F000E916F000E926F000E936F928F3B
:10087000000E936F44EF04F0000E906F000E916F26
:10088000000E926F000E936F9751800B9D6F9C51DD
:100890009D19D8B44EEF04F050EF04F051EF04F07E
:1008A0009C8D975197259D6F96AF59EF04F05BEFA4
:1008B00004F05CEF04F09D819D51D8B462EF04F028
:1008C00064EF04F079EF04F09D29D8A46AEF04F0F6
:1008D0006CEF04F074EF04F0000E946F000E956F4F
:1008E000000E966F000E976F968F000E976F81EF38
:1008F00004F0000E946F000E956F000E966F000EC0
:10090000976F9E519D5DD8B088EF04F08AEF04F098
:10091000B1EF04F09CAD8FEF04F091EF04F093EF92
:1009200004F0800E9C1B9EC09FF09DC09EF09FC057
:100930009DF090C09FF094C090F09FC094F091C043
:100940009FF095C091F09FC095F092C09FF096C027
:1009500092F09FC096F093C09FF097C093F09FC015
:1009600097F0000E9F6F9E519DC098F0996B985F15
:10097000000E995B99BFC6EF04F0995109E11A0E78
:10098000985DD8A0C6EF04F0C8EF04F0FFEF04F0C4
:100990009051911192119311D8A4D1EF04F0D4EF9A
:1009A00004F0010ED5EF04F0000E9F6F000E906F63
:1009B000000E916F000E926F000E936F9DC09EF01F
:1009C00008EF05F09FA1E7EF04F0E9EF04F0EFEF87
:1009D00004F0D8909F3101099F6FF1EF04F0D89097
:1009E0009F3390A1F6EF04F0F8EF04F0F9EF04F074
:1009F0009F8F933593339233913390339E2B9D5138
:100A00009E5DD8A006EF05F008EF05F0E2EF04F0D8
:100A10009CBD0DEF05F00FEF05F04FEF05F09E5177
:100A2000D8A415EF05F017EF05F021EF05F0000E43
:100A3000906F000E916F000E926F000E936F70EF2B
:100A400006F09451902795519123965192239751F6
:100A5000932393A12EEF05F030EF05F0DCEF05F0C6
:100A60009FA135EF05F037EF05F03DEF05F0D89089
:100A70009F3101099F6F3FEF05F0D8909F3390A100
:100A800044EF05F046EF05F047EF05F09F8F9335F3
:100A900093339233913390339E2BDCEF05F09451D6
:100AA000905D95519159965192599351800A986F42
:100AB0009751800A9859D8B060EF05F062EF05F0C1
:100AC0008DEF05F09051945D986F91519559996F04
:100AD000925196599A6F935197599B6FFF0E982593
:100AE000906FFF0E9921916FFF0E9A21926FFF0E6A
:100AF0009B21936F800E9C1B9F6D9F51D8A483EF09
:100B000005F085EF05F095EF05F0010E9027000E3A
:100B100091239223932395EF05F09451905F955183
:100B2000915B9651925B9751935B90519111921109
:100B30009311D8A49EEF05F0A0EF05F0D5EF05F0D6
:100B40009F51D8A4A6EF05F0A8EF05F0D5EF05F06A
:100B5000000E906F000E916F000E926F000E936F5B
:100B600070EF06F0D89090379137923793379FAF58
:100B7000BCEF05F0BEEF05F0BFEF05F090819FA13F
:100B8000C4EF05F0C6EF05F0CAEF05F0D8809F3737
:100B9000CCEF05F0D8909F379E51D8B4D2EF05F036
:100BA000D4EF05F0D5EF05F09E0792AFDAEF05F030
:100BB000DCEF05F0B2EF05F0000E9D6F9FAFE3EFA5
:100BC00005F0E5EF05F0FDEF05F09FC098F07F0E12
:100BD0009817D8B4EEEF05F0F0EF05F0F4EF05F05C
:100BE000010E9D6FFDEF05F090A1F9EF05F0FBEF11
:100BF00005F0FDEF05F0F0EF05F09D51D8B403EFDF
:100C000006F005EF06F030EF06F0010E9027000E1B
:100C100091239223932393A110EF06F012EF06F095
:100C200030EF06F090C098F091C099F092C09AF021
:100C300093C09BF09B359B339A339933983398C07C
:100C400090F099C091F09AC092F09BC093F09E29C9
:100C5000D8B42DEF06F02FEF06F030EF06F09E2B04
:100C60009E29D8B436EF06F038EF06F040EF06F0D4
:100C70009E51D8A43EEF06F040EF06F052EF06F08A
:100C8000000E906F000E916F000E926F000E936F2A
:100C90009E51D8A44EEF06F050EF06F052EF06F04A
:100CA000000E9C6F9EA157EF06F059EF06F05CEF27
:100CB00006F0928F5DEF06F0929FD8909E31936F71
:100CC0009CAF65EF06F067EF06F068EF06F0938FD4
:100CD00090C090F091C091F092C092F093C093F0C8
:100CE000120000019351800BA06F93519325A76FC1
:100CF00092AF7DEF06F07FEF06F080EF06F0A78160
:100D0000A751D8B486EF06F088EF06F09DEF06F005
:100D1000A729D8A48EEF06F090EF06F098EF06F022
:100D2000000E906F000E916F000E926F000E936F89
:100D3000928F000E936FA5EF06F0000E906F000EDD
:100D4000916F000E926F000E936F9751800BA01B56
:100D500097519725A86F96AFB0EF06F0B2EF06F067
:100D6000B3EF06F0A881A851D8B4B9EF06F0BBEFF5
:100D700006F0D0EF06F0A829D8A4C1EF06F0C3EF23
:100D800006F0CBEF06F0000E946F000E956F000E8C
:100D9000966F000E976F968F000E976FD8EF06F044
:100DA000000E946F000E956F000E966F000E976FF9
:100DB0009451951196119711D8A4E1EF06F0E3EF45
:100DC00006F0FBEF06F0000E906F000E916F000E24
:100DD000926F000E936F800E92137F0E9313A051AB
:100DE000931390C090F091C091F092C092F093C094
:100DF00093F03EEF08F0A751D8A401EF07F003EFFE
:100E000007F00DEF07F0000E906F000E916F000ECF
:100E1000926F000E936F3EEF08F0A851A7C098F0B4
:100E2000996B985F000E995B7F0E9825A16F000E5D
:100E30009921A26F90C09CF091C09DF092C09EF04D
:100E400093C09FF0000E906F000E916F000E926F96
:100E5000000E936F000EA36F000EA46F000EA56F1F
:100E6000000EA66F000EA86F6EEF07F0A851D8B461
:100E70003CEF07F03EEF07F055EF07F0D8909C37B6
:100E80009D379E379F37D890903791379237933759
:100E9000A6AF4DEF07F04FEF07F050EF07F090814E
:100EA000D890A337A437A537A63794519C5D9551A8
:100EB0009D5996519E5997519F59D8A062EF07F0BE
:100EC00064EF07F06DEF07F0A68D94519C5F95518C
:100ED0009D5B96519E5B97519F5BA82B190EA86551
:100EE00074EF07F076EF07F036EF07F09C519D1195
:100EF0009E119F11D8B47FEF07F081EF07F099EFB3
:100F000007F0A38199EF07F0D89090379137923787
:100F10009337A6AF8EEF07F090EF07F091EF07F051
:100F20009081D890A337A437A537A637A107D8A0BA
:100F3000A20792AF9EEF07F0A0EF07F084EF07F053
:100F4000000EA86FA6AFA7EF07F0A9EF07F0CDEF4F
:100F500007F0FF0EA315986FFF0EA415996FFF0EF3
:100F6000A5159A6F7F0EA6159B6F985199119A112E
:100F70009B11D8B4BEEF07F0C0EF07F0C4EF07F045
:100F8000010EA86FCDEF07F090A1C9EF07F0CBEFEE
:100F900007F0CDEF07F0C0EF07F0A851D8B4D3EFBA
:100FA00007F0D5EF07F0F9EF07F0010E9027000EDC
:100FB00091239223932393A1E0EF07F0E2EF07F050
:100FC000F9EF07F090C098F091C099F092C09AF0B4
:100FD00093C09BF09B359B339A339933983398C0D9
:100FE00090F099C091F09AC092F09BC093F0A14B01
:100FF000A22BA2BF04EF08F0A25108E1A129D8A0BA
:1010000004EF08F006EF08F011EF08F0000EA26FF1
:10101000A169000E906F000E916F000E926F000E8E
:10102000936FA2BF1EEF08F0A25106E1A105D8B050
:101030001CEF08F01EEF08F02CEF08F0000EA26F76
:10104000000EA16F000E906F000E916F000E926F58
:10105000000E936F000EA06FA1C0A7F0A7A133EF01
:1010600008F035EF08F038EF08F0928F39EF08F00C
:10107000929FD890A731936FEFEF06F01200A9C0AE
:1010800090F0AAC091F0ABC092F0ACC093F0000E0B
:101090000001946F000E956F800E966F3F0E976F54
:1010A000E3EC0CF00001D8B058EF08F05AEF08F06C
:1010B00062EF08F0000EA96F000EAA6F800EAB6FF2
:1010C0003F0EAC6F000E906FC00E916F5A0E926F74
:1010D000450E936FA9C094F0AAC095F0ABC096F0EE
:1010E000ACC097F0E3EC0CF00001D8B07AEF08F058
:1010F0007CEF08F084EF08F0000EA96FC00EAA6F15
:101100005A0EAB6F450EAC6FBC0EB06FEF0EB16FE9
:10111000C60EB26F4B0EB36FB0C090F0B1C091F07D
:10112000B2C092F0B3C093F0A9C094F0AAC095F0F9
:10113000ABC096F0ACC097F071EC06F090C0B0F088
:1011400091C0B1F092C0B2F093C0B3F0B0C090F0D3
:10115000B1C091F0B2C092F0B3C093F0000E0001A4
:10116000946F000E956F000E966F450E976F10EC02
:1011700004F090C0B0F091C0B1F092C0B2F093C052
:10118000B3F0B0C090F0B1C091F0B2C092F0B3C073
:1011900093F0000E0001946F000E956F800E966F15
:1011A000450E976F71EC06F090C0B0F091C0B1F0B1
:1011B00092C0B2F093C0B3F0B0C0A0F0B1C0A1F043
:1011C000B2C0A2F0B3C0A3F0000E0001A46F000EE5
:1011D000A56F800EA66F3F0EA76FEBEC10F0A0C0BE
:1011E000B0F0A1C0B1F0A2C0B2F0A3C0B3F0B0C0E3
:1011F00090F0B1C091F0B2C092F0B3C093F0000E85
:101200000001946F000E956F400E966F400E976F21
:10121000E3EC0CF00001D8B010EF09F012EF09F088
:101220001AEF09F0000EB06F000EB16F400EB26FF2
:10123000400EB36F000E906F000E916F7F0E926F95
:10124000430E936FB0C094F0B1C095F0B2C096F069
:10125000B3C097F0E3EC0CF00001D8B032EF09F026
:1012600034EF09F03CEF09F0000EB06F000EB16FE3
:101270007F0EB26F430EB36FB0C090F0B1C091F06B
:10128000B2C092F0B3C093F05FEC0CF0000190514B
:10129000AE6F000E906F8F0E916F000E926F000E6A
:1012A000946F010E936F800EC9EC0DF000018F5109
:1012B0007F0B1009AF6F000E906FAF0E916F000E95
:1012C000926F000E946F010E936F800E27EC0FF05B
:1012D000FE0E0001906FAE0E916F000E926F000E29
:1012E000946F010E936F800E27EC0FF0000E00013B
:1012F000906F8F0E916F000E926F000E946F010E23
:10130000936F800E27EC0FF00D0E0001AD6FFB0EFA
:10131000E82EFED7AD2FFCD700D000018F51A009D9
:101320008E6F000E906F8E0E916F000E926F000EFA
:10133000946F010E936F800E27EC0FF012009D0E3C
:101340000001A06F000EA16F5AEF0AF0250EA6193A
:10135000D8B4ADEF09F0AFEF09F0B9EF09F099C0DB
:10136000D9FF9AC0DAFFA6C0DFFF994B9A2B5AEF3C
:101370000AF0000EA26F9BC0F6FF9CC0F7FF9B4BCC
:101380009C2B0800F5CFA6F0A651000AD8B46BEF4D
:101390000AF0640AD8B4D3EF09F00D0AD8B4D3EF39
:1013A00009F05AEF0AF0A0C0D9FFA1C0DAFFDECFE2
:1013B000A4F0DDCFA5F0020EA027000EA123A5BF4B
:1013C000E6EF09F0E4EF09F0ECEF09F0030EA213E9
:1013D000A46DA51FD8B0A52B010EA66FA651020DB6
:1013E000010EF324F66E080EF420F76E0900F55096
:1013F000A45D0900F550A559D8B001EF0AF003EF3C
:101400000AF005EF0AF00FEF0AF0A62B050EA61959
:10141000D8A40DEF0AF00FEF0AF0EEEF09F0A2C02A
:101420009FF0030E9F17D8B418EF0AF01AEF0AF0D6
:1014300022EF0AF099C0D9FF9AC0DAFF2D0EDF6EB5
:10144000994B9A2BA6C0A3F051EF0AF0A351020DBD
:10145000010EF324F66E080EF420F76E0900F5CFA6
:1014600092F00A00F5CF93F0A4C090F0A5C091F0DF
:101470009EEC0FF090C094F091C095F0000E00012A
:10148000976F0A0E966F86EC10F000019451300FA2
:10149000A66F99C0D9FF9AC0DAFFA6C0DFFF994BAB
:1014A0009A2BA307A329D8A458EF0AF05AEF0AF001
:1014B00026EF0AF09BC0F6FF9CC0F7FF9B4B9C2BCE
:1014C0000800F5CFA6F0A651D8A469EF0AF06BEF9B
:1014D0000AF0A6EF09F099C0D9FF9AC0DAFF000E12
:1014E000DF6E1200110E146E000E156E2AEF0BF057
:1014F000250E1A18D8B47FEF0AF081EF0AF08BEFAF
:101500000AF00DC0D9FF0EC0DAFF1AC0DFFF0D4A86
:101510000E2A2AEF0BF0000E166E0FC0F6FF10C059
:10152000F7FF0F4A102A0800F5CF1AF01A50000AE8
:10153000D8B43BEF0BF0640AD8B4A5EF0AF00D0A5B
:10154000D8B4A5EF0AF02AEF0BF014C0D9FF15C0EC
:10155000DAFFDECF18F0DDCF19F0020E1426000EF0
:10156000152219BEB8EF0AF0B6EF0AF0BEEF0AF086
:10157000030E1612186C191ED8B0192A010E1A6E15
:101580001A50020D010EF324F66E080EF420F76EC9
:101590000900F550185C0900F5501958D8B0D3EF80
:1015A0000AF0D5EF0AF0D7EF0AF0E1EF0AF01A2AB5
:1015B000050E1A18D8A4DFEF0AF0E1EF0AF0C0EF29
:1015C0000AF016C013F0030E1316D8B4EAEF0AF0AF
:1015D000ECEF0AF0F4EF0AF00DC0D9FF0EC0DAFF0D
:1015E0002D0EDF6E0D4A0E2A1AC017F021EF0BF0F8
:1015F0001750020D010EF324F66E080EF420F76E5C
:101600000900F5CF03F00A00F5CF04F018C001F08F
:1016100019C002F014EC10F001C008F002C009F08B
:10162000000E0B6E0A0E0A6EB9EC10F00850300F67
:101630001A6E0DC0D9FF0EC0DAFF1AC0DFFF0D4AC7
:101640000E2A17061728D8A428EF0BF02AEF0BF064
:10165000F8EF0AF00FC0F6FF10C0F7FF0F4A102A8C
:101660000800F5CF1AF01A50D8A439EF0BF03BEF71
:101670000BF078EF0AF00DC0D9FF0EC0DAFF000EB4
:10168000DF6E1200720ED36E0F0EC16E938E939C9E
:1016900093809382800EC76E280EC66E000EC56EB4
:1016A000130EC86E949C948E0C0EAF6E900EAB6EA3
:1016B000200EAC6E000E0001906F800E916F000E38
:1016C000926F000E946F010E936F800E27EC0FF057
:1016D0001A0E0001B46FF80EE82EFED7B42FFCD717
:1016E00000F0000E0001A96F000EAA6F7A0EAB6F1A
:1016F000440EAC6F3FEC08F0000E0001A96F000E25
:10170000AA6F480EAB6F420EAC6F3FEC08F0040EB0
:101710000001B56F0C0EB46F330EE82EFED7B42F58
:10172000FCD7B52FFAD700D0F28EF28C9D8A9E9A04
:10173000620E0001996F000E9A6F160E9B6F080ED5
:101740009C6F9FEC09F063EC0FF0000E0001A86F96
:10175000000EA76F000EAA6F5A0EA96F8DEC0EF047
:10176000000E0001A86F010EA76F000EAA6F5A0E9F
:10177000A96F8DEC0EF0000E0001A86F020EA76F8E
:10178000000EAA6F5A0EA96F8DEC0EF0000E00012C
:10179000A86F0F0EA76F000EAA6F5A0EA96F8DECDF
:1017A0000EF012000600D9CF21F0DACF22F0F3CFED
:1017B00023F0F4CF24F0F6CF25F0F7CF26F0F8CFC2
:1017C00027F0F5CF28F09EAAE8EF0BF0EAEF0BF038
:1017D0004DEF0CF0AECF29F0310E2918D8A4F3EF5D
:1017E0000BF0F5EF0BF002EF0CF0818C000E1C6E8D
:1017F000010E1B6E000E1E6EB40E1D6EDCEC0EF0A4
:101800004DEF0CF0320E2918D8A409EF0CF00BEFB5
:101810000CF017EF0CF0000E1C6E010E1B6E000E8C
:101820001E6E2D0E1D6EDCEC0EF04DEF0CF0330E27
:101830002918D8A41EEF0CF020EF0CF02CEF0CF0C0
:10184000000E1C6E010E1B6E000E1E6E5A0E1D6EDB
:10185000DCEC0EF04DEF0CF00D0E2918D8B433EF80
:101860000CF035EF0CF04DEF0CF00A0E2918D8A44F
:101870003CEF0CF03EEF0CF040EF0CF04DEF0CF0B5
:10188000819C34C01BF035C01CF0000E1E6E000E93
:101890001D6EDCEC0EF04DEF0CF028C0F5FF27C0FC
:1018A000F8FF26C0F7FF25C0F6FF24C0F4FF23C0D1
:1018B000F3FF22C0DAFF21C0D9FF369211000001E8
:1018C000923593352B6E2B50D8A469EF0CF06BEF4B
:1018D0000CF075EF0CF0000E906F000E916F000E83
:1018E000926F000E936FE2EF0CF090C094F091C0F5
:1018F00095F092C096F093C097F0200E85EF0CF013
:10190000D8909733963395339433E82E80EF0CF0CC
:1019100094512A6E928FFF0E9017FF0E9117FF0EB3
:101920009217000E9317960E2B5E2BBE9CEF0CF0B9
:101930009AEF0CF0B2EF0CF02B50800A970FD8B052
:10194000A4EF0CF0A6EF0CF0A8EF0CF06BEF0CF08E
:10195000D89093339233913390332B3EA8EF0CF011
:10196000CAEF0CF01F0E2B64B8EF0CF0BAEF0CF0BE
:10197000C2EF0CF06BEF0CF0D890903791379237A4
:1019800093372B062B50D8A4C8EF0CF0CAEF0CF0FD
:10199000BCEF0CF02A50D8B4D0EF0CF0D2EF0CF022
:1019A000DAEF0CF0931F921F911F906D000E9123A0
:1019B0009223932390C090F091C091F092C092F046
:1019C00093C093F01200000E00019015986F000E66
:1019D0009115996F800E92159A6F7F0E93159B6FDC
:1019E000985199119A119B11D8A4F9EF0CF0FBEFC3
:1019F0000CF003EF0DF0000E906F000E916F000ED3
:101A0000926F000E936F000E9415986F000E95154F
:101A1000996F800E96159A6F7F0E97159B6F985150
:101A200099119A119B11D8A418EF0DF01AEF0DF02F
:101A300022EF0DF0000E946F000E956F000E966F62
:101A4000000E976F93AF27EF0DF029EF0DF032EFF7
:101A50000DF0906D911FD8B0912B921FD8B0922BA2
:101A6000800E935797AF37EF0DF039EF0DF042EF3F
:101A70000DF0946D951FD8B0952B961FD8B0962B6E
:101A8000800E9757000E901B000E911B000E921BAC
:101A9000800E931B000E941B000E951B000E961BD0
:101AA000800E971B9451905D955191599651925982
:101AB00097519359D8B05FEF0DF061EF0DF064EFDF
:101AC0000DF0D89065EF0DF0D8801200000E0001E7
:101AD000956F93BF70EF0DF06EEF0DF076EF0DF098
:101AE000926D931FD8B0932B010E956F91BF7DEF30
:101AF0000DF07BEF0DF083EF0DF0906D911FD8B0DE
:101B0000912B010E951B000E976F000E966F925150
:101B10009311D8B48EEF0DF090EF0DF0B8EF0DF0FB
:101B2000010E946F98EF0DF0D89092379337942B65
:101B300093AF9DEF0DF09FEF0DF094EF0DF0D89067
:101B4000963797379251905D93519159D8A0ABEF4A
:101B50000DF0ADEF0DF0B2EF0DF09251905F93519B
:101B6000915B9681D89093339233942F9FEF0DF031
:101B70009551D8B4BEEF0DF0C0EF0DF0C4EF0DF0ED
:101B8000966D971FD8B0972B96C090F097C091F0A4
:101B900012000001976F2AEC12F00001975116EC29
:101BA00012F00001905116EC12F022EC12F000013C
:101BB0009751010916EC12F0000E326E000E316ED4
:101BC0000BEF0EF0010E3124956F000E3220966F50
:101BD0009351951907E194519619D8A4F2EF0DF09D
:101BE000F4EF0DF0FEEF0DF0010EAAEC11F091C034
:101BF000D9FF92C0DAFFDF6E06EF0EF0000EAAECFE
:101C000011F091C0D9FF92C0DAFFDF6E0001914B55
:101C1000922B314A322A00019351315C3250800AB2
:101C2000956F9451800A9559D8A019EF0EF01BEFCB
:101C30000EF0E2EF0DF026EC12F0020E0001966FAE
:101C4000040E956FBA0EE82EFED7952FFCD7962F6F
:101C5000FAD700F01200000E066E04BE34EF0EF04C
:101C600032EF0EF03AEF0EF0036C041ED8B0042AE7
:101C7000010E066E02BE41EF0EF03FEF0EF047EF91
:101C80000EF0016C021ED8B0022A010E061A000ED8
:101C9000086E000E076E03500410D8B452EF0EF019
:101CA00054EF0EF07CEF0EF0010E056E5CEF0EF0BF
:101CB000D89003360436052A04AE61EF0EF063EFC8
:101CC0000EF058EF0EF0D890073608360350015C3E
:101CD00004500258D8A06FEF0EF071EF0EF076EFBF
:101CE0000EF00350015E0450025A0780D89004326F
:101CF0000332052E63EF0EF00650D8B482EF0EF0DB
:101D000084EF0EF088EF0EF0076C081ED8B0082A9A
:101D100007C001F008C002F01200A9C09CF0AAC0E0
:101D20009DF0000E00019F6F000E9E6F000EA16FD0
:101D3000B40EA06F000EA36F6E0EA26F010EA56F02
:101D4000FE0EA46F0FEC11F09CC060F09DC061F01E
:101D500060C08CF0000161518D6FA751040DF350EC
:101D6000060F906F8A0E916F000E926F000E946FA7
:101D7000040E936F800E27EC0FF0620E0001996F36
:101D8000000E9A6F0B0E9B6F080E9C6FA7C09DF004
:101D9000A8C09EF09FEC09F063EC0FF00B0E000161
:101DA000AC6F260EAB6F5D0EE82EFED7AB2FFCD7C7
:101DB000AC2FFAD700D012001DC00FF01EC010F0DB
:101DC000000E126E000E116E000E146EB40E136E25
:101DD000000E166E6E0E156E010E186EFE0E176E4C
:101DE00032EC11F00FC060F010C061F060C08CF0F8
:101DF000000161518D6F1B50040DF350060F036EEF
:101E00008A0E046E000E056E000E076E040E066E3E
:101E1000800E4EEC10F0620E0D6E000E0E6E0B0E6C
:101E20000F6E080E106E1BC011F01CC012F072EC89
:101E30000AF0D9EC0FF00B0E206E260E1F6E5E0E10
:101E4000E82EFED71F2EFCD7202EFAD712002C6EBC
:101E50002AEC12F02C5016EC12F00001905116EC06
:101E600012F0000E326E000E316E43EF0FF091C093
:101E7000D9FF92C0DAFFDF5016EC12F00001914B4F
:101E8000922B314A322A00019351315C3250800A40
:101E9000956F9451800A9559D8A051EF0FF053EFE8
:101EA0000FF037EF0FF026EC12F0020E0001966FE4
:101EB000040E956FBA0EE82EFED7952FFCD7962FFD
:101EC000FAD700F01200000E326E000E316E7AEF7B
:101ED0000FF09EA86EEF0FF070EF0FF069EF0FF0AC
:101EE000620E3124D96E000E3220DA6EDF50AD6EF4
:101EF000314A322A620E2A6E000E2B6E72EC11F0FD
:101F000031502A5C32502B58D8B089EF0FF08BEF4C
:101F10000FF069EF0FF09EA890EF0FF092EF0FF027
:101F20008BEF0FF00A0EAD6E9EA899EF0FF09BEFAE
:101F30000FF094EF0FF00D0EAD6E1200000E2C6E30
:101F4000000E2B6E000192519311D8B4AAEF0FF03E
:101F5000ACEF0FF0D4EF0FF0010E2A6EB4EF0FF0DC
:101F6000D890923793372A2A93AFB9EF0FF0BBEF8F
:101F70000FF0B0EF0FF0D8902B362C369251905DC9
:101F800093519159D8A0C7EF0FF0C9EF0FF0CEEFE2
:101F90000FF09251905F9351915B2B80D8909333C7
:101FA00092332A2EBBEF0FF02BC090F02CC091F093
:101FB0001200000E326E000E316EF0EF0FF09EA890
:101FC000E4EF0FF0E6EF0FF0DFEF0FF0620E3124D9
:101FD000D96E000E3220DA6EDF50AD6E314A322AF1
:101FE000620E016E000E026E8FEC11F03150015C3A
:101FF00032500258D8B0FFEF0FF001EF10F0DFEFD2
:102000000FF09EA806EF10F008EF10F001EF10F0AF
:102010000A0EAD6E9EA80FEF10F011EF10F00AEF50
:1020200010F00D0EAD6E1200000E066E000E056E65
:1020300003500410D8B41FEF10F021EF10F049EF57
:1020400010F0010E076E29EF10F0D8900336043619
:10205000072A04AE2EEF10F030EF10F025EF10F04D
:10206000D890053606360350015C04500258D8A0BB
:102070003CEF10F03EEF10F043EF10F00350015E24
:102080000450025A0580D89004320332072E30EFF4
:1020900010F005C001F006C002F012000A6E32EC2A
:1020A00012F00A501CEC12F003501CEC12F0000E5F
:1020B000326E000E316E68EF10F004C0D9FF05C01B
:1020C000DAFFDF501CEC12F0044A052A314A322AAA
:1020D0000650315C3250800A086E0750800A08585A
:1020E000D8A075EF10F077EF10F05DEF10F02EEC48
:1020F00012F0020E096E040E086EBA0EE82EFED71C
:10210000082EFCD7092EFAD700D0120000019651F4
:102110009711D8B48EEF10F090EF10F0B4EF10F0EC
:10212000010E986F98EF10F0D89096379737982B4C
:1021300097AF9DEF10F09FEF10F094EF10F09651D5
:10214000945D97519559D8A0A8EF10F0AAEF10F020
:10215000AEEF10F09651945F9751955BD8909733FE
:102160009633982F9FEF10F094C094F095C095F09F
:1021700012000A500B10D8B4C0EF10F0C2EF10F0EC
:10218000E6EF10F0010E0C6ECAEF10F0D8900A3690
:102190000B360C2A0BAECFEF10F0D1EF10F0C6EFDC
:1021A00010F00A50085C0B500958D8A0DAEF10F074
:1021B000DCEF10F0E0EF10F00A50085E0B50095A07
:1021C000D8900B320A320C2ED1EF10F008C008F074
:1021D00009C009F01200000E0001A41B000EA51B8F
:1021E000000EA61B800EA71BA0C090F0A1C091F00E
:1021F000A2C092F0A3C093F0A4C094F0A5C095F043
:10220000A6C096F0A7C097F010EC04F090C0A0F024
:1022100091C0A1F092C0A2F093C0A3F012000001FF
:102220009E519C5D986F9F519D59996F9E51A05DE5
:10223000926F9F51A159936FA251A45D906FA351CA
:10224000A559916F66EC0DF090C09AF091C09BF08B
:10225000C3EC11F00001A25198259C6FA351992164
:102260009D6F120011500F5C096E125010580A6ECB
:102270001150135C036E12501458046E1550175C05
:10228000016E16501858026E2BEC0EF001C00BF0C8
:1022900002C00CF0FDEC11F0155009240F6E165021
:1022A0000A20106E12006C0EF66E240EF76E000EF1
:1022B000F86E0900F5CF34F00900F5CF35F000EEE7
:1022C00060F0300EEE6AE806FDE100EE2DF0070E3C
:1022D000EE6AE806FDE136903692000EF86E0001D7
:1022E00010EF12F02AC090F02BC091F07BEF11F0AC
:1022F0000001904B912B90C0D9FF91C0DAFFDF50C5
:10230000D8A485EF11F087EF11F078EF11F02A5083
:102310000001905D2A6E2B5091592B6E120001C066
:1023200003F002C004F097EF11F0034A042A03C03F
:10233000D9FF04C0DAFFDF50D8A4A1EF11F0A3EF5A
:1023400011F095EF11F00150035C016E025004583A
:10235000026E12002B6ED7EC11F0C586D7EC11F08F
:10236000C9CF2CF0D7EC11F02B04D8B4BAEF11F090
:10237000BDEF11F0C58ABEEF11F0C59AC588D7EC44
:1023800011F02C501200000198519A03F3CF2AF05B
:10239000F4CF2BF098519B03F3502B2699519A03BD
:1023A000F3502B262AC098F02BC099F01200C5CF0D
:1023B0002AF01F0E2A16D8A4E0EF11F0E2EF11F078
:1023C000D7EF11F0C7B4E7EF11F0E9EF11F0D7EF55
:1023D00011F01200C5CF01F01F0E0116D8A4F3EFC3
:1023E00011F0F5EF11F0EAEF11F0C7B4FAEF11F0C8
:1023F000FCEF11F0EAEF11F0120009500B02F3CFDD
:102400000DF0F4CF0EF009500C02F3500E260A50D6
:102410000B02F3500E260DC009F00EC00AF0120098
:1024200042EC0BF012EF12F007EF00F02B6ED7EC3E
:1024300011F02BC0C9FF1200026EEAEC11F002C0CD
:10244000C9FF1200D7EC11F0C5821200D7EC11F0D1
:10245000C5841200D7EC11F0C5801200EAEC11F02F
:0E246000C5841200EAEC11F0C58012000500E0
:020000040020DA
:08000000FFFFFFFFFFFFFFFF00
:020000040030CA
:0E000000000B1F1EFF8381FF0FC00FE00F409B
:00000001FF
