:020000040000FA
:04000000CDEF35F01B
:106AA6008CEC35F0C58012008CEC35F0C5841200F4
:106AB6008CEC35F0C5821200026E8CEC35F002C00B
:106AC600C9FF1200046E8D82045045EC36F01200A8
:106AD600046E8D92045045EC36F01200554E495620
:106AE60045525349444144204543434909500B020A
:106AF600F3CF0DF0F4CF0EF009500C02F3500E2632
:106B06000A500B02F3500E260DC009F00EC00AF013
:106B16001200C5CF01F01F0E0116D8A495EF35F06F
:106B260097EF35F08CEF35F0C7B49CEF35F09EEF5C
:106B360035F08CEF35F01200000E3E6E000E3F6E03
:106B4600D5EC36F00CEC37F0B1EC37F043EC37F01F
:106B5600D5EC36F09EEC36F0B1EC37F07AEC37F047
:106B66001200026E8CEC35F0C5868CEC35F0C9CF80
:106B760003F08CEC35F00204D8B4C4EF35F0C7EF5F
:106B860035F0C58AC8EF35F0C59AC5888CEC35F066
:106B960003501200E20EF66E6A0EF76E000EF86EE5
:106BA60000EE42F010EE10F00900F5CFEEFFE550D2
:106BB600E150FAE100EE27F01B0EEE6AE806FDE171
:106BC60000016FEF36F0076E53EC35F007505FECBF
:106BD60035F003505FEC35F004505FEC35F057ECC0
:106BE60035F0020E066E040E056EBA0EE82EFED7BE
:106BF600052EFCD7062EFAD700D0120011500F5CD6
:106C0600096E125010580A6E1150135C036E125022
:106C16001458046E1550175C016E16501858026E03
:106C2600C6EC38F001C00BF002C00CF079EC35F080
:106C3600155009240F6E16500A20106E1200000E11
:106C4600151A000E161A000E171A800E181A11C001
:106C560001F012C002F013C003F014C004F015C016
:106C660005F016C006F017C007F018C008F0A0EC33
:106C76003DF001C011F002C012F003C013F004C0D1
:106C860014F01200036E8D80020E026E040E016E69
:106C9600BA0EE82EFED7012EFCD7022EFAD700D068
:106CA60003C08CFF020E026E040E016EBA0EE82EB1
:106CB600FED7012EFCD7022EFAD700D08D90020EF9
:106CC600026E040E016EBA0EE82EFED7012EFCD718
:106CD600022EFAD700D0120072EC38F0B00E036E16
:106CE600420E046E000E056E000E076E100E066E46
:106CF600A00EE8EC37F0FF0E036E470E046E000E92
:106D0600056E000E076E010E066EA00EE8EC37F05B
:106D1600B00E056E2E0E066E000E076E000E096E84
:106D2600100E086EA00E28EC39F09FEC35F098EFA7
:106D360036F000EF00F0000E106E000E0F6E000E23
:106D4600126E000E116E000E146EB40E136E000E4F
:106D5600166E6E0E156E010E186EFE0E176E01EC97
:106D660036F00FC029F010C02AF029C040F02A5092
:106D7600416E060E036E3E0E046E000E056E000E8C
:106D8600076E040E066E800EE8EC37F00B0E1A6ED8
:106D9600260E196E5E0EE82EFED7192EFCD71A2E79
:106DA600FAD71200000E106E000E0F6E000E126E55
:106DB600000E116E000E146EB40E136E000E166EDB
:106DC6006E0E156E010E186EFE0E176E01EC36F085
:106DD6000FC029F010C02AF029C040F02A50416E99
:106DE6000A0E036E3E0E046E000E056E000E076E52
:106DF600040E066E800EE8EC37F00B0E1A6E260EA9
:106E0600196E5E0EE82EFED7192EFCD71A2EFAD76B
:106E16001200000E106EB40E0F6E000E126E000EF3
:106E2600116E000E146EB40E136E000E166E6E0EFC
:106E3600156E010E186EFE0E176E01EC36F00FC0C1
:106E460029F010C02AF029C040F02A50416E060EE3
:106E5600036E3E0E046E000E056E000E076E040EE7
:106E6600066E800EE8EC37F00B0E1A6E260E196EC3
:106E76005E0EE82EFED7192EFCD71A2EFAD7120070
:106E8600000E106E5A0E0F6E000E126E000E116E70
:106E9600000E146EB40E136E000E166E6E0E156E88
:106EA600010E186EFE0E176E01EC36F00FC029F0BB
:106EB60010C02AF029C040F02A50416E0E0E036E13
:106EC6003E0E046E000E056E000E076E040E066E74
:106ED600800EE8EC37F00B0E1A6E260E196E5E0E5B
:106EE600E82EFED7192EFCD71A2EFAD71200000E5E
:106EF600106E000E0F6E000E126E000E116E000E5A
:106F0600146EB40E136E000E166E6E0E156E010E16
:106F1600186EFE0E176E01EC36F00FC029F010C089
:106F26002AF029C040F02A50416E0E0E036E3E0E26
:106F3600046E000E056E000E076E040E066E800EC1
:106F4600E8EC37F00B0E1A6E260E196E5E0EE82E62
:106F5600FED7192EFCD71A2EFAD71200000E106E85
:106F6600B40E0F6E000E126E000E116E000E146E31
:106F7600B40E136E000E166E6E0E156E010E186EA2
:106F8600FE0E176E01EC36F00FC029F010C02AF085
:106F960029C040F02A50416E0A0E036E3E0E046E62
:106FA600000E056E000E076E040E066E800EE8ECEF
:106FB60037F00B0E1A6E260E196E5E0EE82EFED7F1
:106FC600192EFCD71A2EFAD712000A6E53EC35F09A
:106FD6000A505FEC35F003505FEC35F0000E2C6E76
:106FE600000E2B6E02EF38F004C0D9FF05C0DAFFA1
:106FF600DF505FEC35F0044A052A2B4A2C2A06504E
:107006002B5C2C50800A086E0750800A0858D8A0BE
:107016000FEF38F011EF38F0F7EF37F057EC35F0A7
:10702600020E096E040E086EBA0EE82EFED7082E62
:10703600FCD7092EFAD700D012000A6E53EC35F0B1
:107046000A505FEC35F004505FEC35F05BEC35F040
:107056000A5001095FEC35F0000E2C6E000E2B6E07
:1070660054EF38F0010E2B24086E000E2C20096E0A
:107076000650081807E107500918D8A445EF38F05C
:1070860047EF38F04DEF38F0010EB4EC35F0056EF1
:1070960051EF38F0000EB4EC35F0056E052A2B4A98
:1070A6002C2A06502B5C2C50800A086E0750800A4A
:1070B6000858D8A061EF38F063EF38F035EF38F0B4
:1070C60057EC35F0020E096E040E086EBA0EE82E65
:1070D600FED7082EFCD7092EFAD700D01200700E64
:1070E600D36E0F0EC16E93809382000E966E000EC5
:1070F6008D6E000E956E000E8C6E060E6BEC35F0E6
:107106000F0E6BEC35F0380E6BEC35F0800EC76E5B
:10711600280EC66E000EC56E130EC86E000E036EE8
:10712600800E046E800EE6EC35F01A0E256EF80E13
:10713600E82EFED7252EFCD700D0000E1A6E000EC4
:107146001B6E7A0E1C6E440E1D6EA4EC3AF0000EF9
:107156001A6E000E1B6E480E1C6E420E1D6EA4ECBF
:107166003AF0040E266E0C0E256E340EE82EFED76F
:10717600252EFCD7262EFAD79EEC36F0B1EC37F04A
:107186007AEC37F01200000E066E04BECFEF38F030
:10719600CDEF38F0D5EF38F0036C041ED8B0042AD2
:1071A600010E066E02BEDCEF38F0DAEF38F0E2EFE1
:1071B60038F0016C021ED8B0022A010E061A000E23
:1071C600086E000E076E03500410D8B4EDEF38F0C9
:1071D600EFEF38F017EF39F0010E056EF7EF38F0E4
:1071E600D89003360436052A04AEFCEF38F0FEEFDD
:1071F60038F0F3EF38F0D890073608360350015CC4
:1072060004500258D8A00AEF39F00CEF39F011EF0C
:1072160039F00350015E0450025A0780D8900432B8
:107226000332052EFEEF38F00650D8B41DEF39F0C4
:107236001FEF39F023EF39F0076C081ED8B0082A83
:1072460007C001F008C002F012000C6E53EC35F0D6
:107256000C505FEC35F005505FEC35F05BEC35F02B
:107266000C5001095FEC35F0800E6BEC35F0000E2A
:107276002C6E000E2B6E81EF39F0010E2B240A6E58
:10728600000E2C200B6E08500A1807E109500B1847
:10729600D8A450EF39F052EF39F05CEF39F0010E17
:1072A600B4EC35F006C0D9FF07C0DAFFDF6E64EF35
:1072B60039F0000EB4EC35F006C0D9FF07C0DAFF8E
:1072C600DF6EA00E0C18D8B46BEF39F06DEF39F005
:1072D60076EF39F0A10E0C18D8A474EF39F076EFDA
:1072E60039F07DEF39F006C0D9FF07C0DAFFDF506D
:1072F60065EC35F0064A072A2B4A2C2A08502B5CE7
:107306002C50800A0A6E0950800A0A58D8A08EEFBF
:1073160039F090EF39F040EF39F057EC35F0020EC6
:107326000B6E040E0A6EBA0EE82EFED70A2EFCD796
:107336000B2EFAD700D01200000E0114096E000EB3
:1073460002140A6E800E03140B6E7F0E04140C6E6C
:1073560009500A100B100C10D8A4B4EF39F0B6EF90
:1073660039F0BEEF39F0000E016E000E026E000E0F
:10737600036E000E046E000E0514096E000E061450
:107386000A6E800E07140B6E7F0E08140C6E0950E1
:107396000A100B100C10D8A4D3EF39F0D5EF39F042
:1073A600DDEF39F0000E056E000E066E000E076E5C
:1073B600000E086E04AEE2EF39F0E4EF39F0EDEFBF
:1073C60039F0016C021ED8B0022A031ED8B0032A77
:1073D600800E045608AEF2EF39F0F4EF39F0FDEF07
:1073E60039F0056C061ED8B0062A071ED8B0072A43
:1073F600800E0856000E011A000E021A000E031A1D
:10740600800E041A000E051A000E061A000E071A40
:10741600800E081A0550015C0650025807500358A2
:1074260008500458D8B01AEF3AF01CEF3AF01FEFA4
:107436003AF0D89020EF3AF0D880120003340434A2
:107446000A6E0A50D8A42AEF3AF02CEF3AF036EF3B
:107456003AF0000E016E000E026E000E036E000E74
:10746600046EA3EF3AF001C005F002C006F003C0B7
:1074760007F004C008F0200E46EF3AF0D890083224
:10748600073206320532E82E41EF3AF00550096E12
:10749600038EFF0E0116FF0E0216FF0E0316000ED8
:1074A6000416960E0A5E0ABE5DEF3AF05BEF3AF0FE
:1074B60073EF3AF00A50800A970FD8B065EF3AF0AA
:1074C60067EF3AF069EF3AF02CEF3AF0D8900432D1
:1074D6000332023201320A3E69EF3AF08BEF3AF09C
:1074E6001F0E0A6479EF3AF07BEF3AF083EF3AF039
:1074F6002CEF3AF0D89001360236033604360A06E7
:107506000A50D8A489EF3AF08BEF3AF07DEF3AF0C3
:107516000950D8B491EF3AF093EF3AF09BEF3AF076
:10752600041E031E021E016C000E02220322042208
:1075360001C001F002C002F003C003F004C004F071
:1075460012001AC001F01BC002F01CC003F01DC0DF
:1075560004F0000E056E000E066E800E076E3F0EDE
:10756600086E9FEC39F0D8B0BBEF3AF0BDEF3AF0B9
:10757600C5EF3AF0000E1A6E000E1B6E800E1C6EE2
:107586003F0E1D6E000E016EC00E026E5A0E036E89
:10759600450E046E1AC005F01BC006F01CC007F0AD
:1075A6001DC008F09FEC39F0D8B0DCEF3AF0DEEF02
:1075B6003AF0E6EF3AF0000E1A6EC00E1B6E5A0E47
:1075C6001C6E450E1D6EBC0E216EEF0E226EC60E93
:1075D600236E4B0E246E21C001F022C002F023C0A0
:1075E60003F024C004F01AC005F01BC006F01CC04E
:1075F60007F01DC008F0D3EC3BF001C021F002C03B
:1076060022F003C023F004C024F021C001F022C000
:1076160002F023C003F024C004F0000E056E000E35
:10762600066E000E076E450E086EA0EC3DF001C01A
:1076360021F002C022F003C023F004C024F021C0D0
:1076460001F022C002F023C003F024C004F0000EB3
:10765600056E000E066E800E076E450E086ED3ECA4
:107666003BF001C021F002C022F003C023F004C0A9
:1076760024F021C011F022C012F023C013F024C060
:1076860014F0000E156E000E166E800E176E3F0E6D
:10769600186E22EC36F011C021F012C022F013C091
:1076A60023F014C024F021C001F022C002F023C050
:1076B60003F024C004F0000E056E000E066E400EA8
:1076C600076E400E086E9FEC39F0D8B06DEF3BF0B8
:1076D6006FEF3BF077EF3BF0000E216E000E226E4F
:1076E600400E236E400E246E000E016E000E026EDA
:1076F6007F0E036E430E046E21C005F022C006F015
:1077060023C007F024C008F09FEC39F0D8B08EEF04
:107716003BF090EF3BF098EF3BF0000E216E000E31
:10772600226E7F0E236E430E246E21C001F022C00E
:1077360002F023C003F024C004F021EC3AF001501B
:107746001F6E000E046E000E056E000E076E010E13
:10775600066E800E20EC38F0000E036E100E046EDE
:10776600800EE6EC35F0FE0E036E1FC004F0800EB0
:10777600E6EC35F0000E036E000E046E800EE6ECAD
:1077860035F00D0E1E6EFC0EE82EFED71E2EFCD713
:10779600000E036EA00E046E800EE6EC35F01200AD
:1077A6000450800B116E04500424186E03AEDEEFF5
:1077B6003BF0E0EF3BF0E1EF3BF018801850D8B417
:1077C600E7EF3BF0E9EF3BF0FEEF3BF01828D8A4DB
:1077D600EFEF3BF0F1EF3BF0F9EF3BF0000E016EFF
:1077E600000E026E000E036E000E046E038E000E77
:1077F600046E06EF3CF0000E016E000E026E000EE7
:10780600036E000E046E0850800B111A08500824EF
:10781600196E07AE11EF3CF013EF3CF014EF3CF09D
:1078260019801950D8B41AEF3CF01CEF3CF031EF38
:107836003CF01928D8A422EF3CF024EF3CF02CEFC2
:107846003CF0000E056E000E066E000E076E000E72
:10785600086E078E000E086E39EF3CF0000E056EBE
:10786600000E066E000E076E000E086E055006101E
:1078760007100810D8A442EF3CF044EF3CF05CEF50
:107886003CF0000E016E000E026E000E036E000E3E
:10789600046E800E03127F0E04121150041201C0F2
:1078A60001F002C002F003C003F004C004F09FEF31
:1078B6003DF01850D8A462EF3CF064EF3CF06EEF58
:1078C6003CF0000E016E000E026E000E036E000EFE
:1078D600046E9FEF3DF0195018C009F00A6A095E60
:1078E600000E0A5A7F0E0924126E000E0A20136E2D
:1078F60001C00DF002C00EF003C00FF004C010F07E
:10790600000E016E000E026E000E036E000E046E77
:10791600000E146E000E156E000E166E000E176E1B
:10792600000E196ECFEF3CF01950D8B49DEF3CF025
:107936009FEF3CF0B6EF3CF0D8900D360E360F3682
:107946001036D890013602360336043617AEAEEF3F
:107956003CF0B0EF3CF0B1EF3CF00180D89014362B
:1079660015361636173605500D5C06500E5807505C
:107976000F5808501058D8A0C3EF3CF0C5EF3CF0A4
:10798600CEEF3CF0178C05500D5E06500E5A075090
:107996000F5A0850105A192A190E1964D5EF3CF0DF
:1079A600D7EF3CF097EF3CF00D500E100F10101073
:1079B600D8B4E0EF3CF0E2EF3CF0FAEF3CF0148094
:1079C600FAEF3CF0D890013602360336043617AE8D
:1079D600EFEF3CF0F1EF3CF0F2EF3CF00180D89095
:1079E60014361536163617361206D8A0130603AE09
:1079F600FFEF3CF001EF3DF0E5EF3CF0000E196EB5
:107A060017AE08EF3DF00AEF3DF02EEF3DF0FF0E0A
:107A16001414096EFF0E15140A6EFF0E16140B6E63
:107A26007F0E17140C6E09500A100B100C10D8B4E8
:107A36001FEF3DF021EF3DF025EF3DF0010E196EF1
:107A46002EEF3DF001A02AEF3DF02CEF3DF02EEF9A
:107A56003DF021EF3DF01950D8B434EF3DF036EF4C
:107A66003DF05AEF3DF0010E0126000E02220322E0
:107A7600042204A041EF3DF043EF3DF05AEF3DF004
:107A860001C009F002C00AF003C00BF004C00CF0FC
:107A96000C340C320B320A32093209C001F00AC02A
:107AA60002F00BC003F00CC004F0124A132A13BEF6
:107AB60065EF3DF0135008E11228D8A065EF3DF0C0
:107AC60067EF3DF072EF3DF0000E136E1268000E88
:107AD600016E000E026E000E036E000E046E13BEE3
:107AE6007FEF3DF0135006E11204D8B07DEF3DF074
:107AF6007FEF3DF08DEF3DF0000E136E000E126E1F
:107B0600000E016E000E026E000E036E000E046E75
:107B1600000E116E12C018F018A094EF3DF096EF0B
:107B26003DF099EF3DF0038E9AEF3DF0039ED8901D
:107B36001830046E50EF3CF012000450800B0D6EAE
:107B4600045004240F6E03AEABEF3DF0ADEF3DF0F5
:107B5600AEEF3DF00F800F50D8B4B4EF3DF0B6EF66
:107B66003DF0CBEF3DF00F28D8A4BCEF3DF0BEEFC3
:107B76003DF0C6EF3DF0000E016E000E026E000EE7
:107B8600036E000E046E038E000E046ED3EF3DF0FE
:107B9600000E016E000E026E000E036E000E046EE5
:107BA6000850800B0E6E0D500E18D8B4DDEF3DF068
:107BB600DFEF3DF0E0EF3DF00D8C085008240E6E2F
:107BC60007AEE8EF3DF0EAEF3DF0EBEF3DF00E805B
:107BD6000E50D8B4F1EF3DF0F3EF3DF008EF3EF074
:107BE6000E28D8A4F9EF3DF0FBEF3DF003EF3EF091
:107BF600000E056E000E066E000E076E000E086E75
:107C0600078E000E086E10EF3EF0000E056E000E99
:107C1600066E000E076E000E086E0F500E5CD8B092
:107C260017EF3EF019EF3EF040EF3EF00DAC1EEFC1
:107C36003EF020EF3EF022EF3EF0800E0D1A0FC010
:107C460010F00EC00FF010C00EF001C010F005C00D
:107C560001F010C005F002C010F006C002F010C01E
:107C660006F003C010F007C003F010C007F004C010
:107C760010F008C004F010C008F0000E106E0F508F
:107C86000EC009F00A6A095E000E0A5A0ABE55EFCE
:107C96003EF00A5009E11A0E095CD8A055EF3EF0F5
:107CA60057EF3EF08EEF3EF0015002100310041025
:107CB600D8A460EF3EF063EF3EF0010E64EF3EF0B5
:107CC600000E106E000E016E000E026E000E036EA8
:107CD600000E046E0EC00FF097EF3EF010A076EF88
:107CE6003EF078EF3EF07EEF3EF0D890103001097E
:107CF600106E80EF3EF0D890103201A085EF3EF076
:107D060087EF3EF088EF3EF0108E043404320332E3
:107D1600023201320F2A0E500F5CD8A095EF3EF0CA
:107D260097EF3EF071EF3EF00DBC9CEF3EF09EEFFC
:107D36003EF0DEEF3EF00F50D8A4A4EF3EF0A6EFE3
:107D46003EF0B0EF3EF0000E016E000E026E000E29
:107D5600036E000E046EFFEF3FF00550012606503D
:107D66000222075003220850042204A0BDEF3EF071
:107D7600BFEF3EF06BEF3FF010A0C4EF3EF0C6EF52
:107D86003EF0CCEF3EF0D89010300109106ECEEFE9
:107D96003EF0D890103201A0D3EF3EF0D5EF3EF082
:107DA600D6EF3EF0108E0434043203320232013232
:107DB6000F2A6BEF3FF00550015C06500258075042
:107DC60003580450800A096E0850800A0958D8B032
:107DD600EFEF3EF0F1EF3EF01CEF3FF00150055C97
:107DE600096E025006580A6E035007580B6E04506F
:107DF60008580C6EFF0E0924016EFF0E0A20026E53
:107E0600FF0E0B20036EFF0E0C20046E800E0D1A63
:107E1600106C1050D8A412EF3FF014EF3FF024EF8F
:107E26003FF0010E0126000E02220322042224EF57
:107E36003FF00550015E0650025A0750035A08509B
:107E4600045A0150021003100410D8A42DEF3FF07D
:107E56002FEF3FF064EF3FF01050D8A435EF3FF01E
:107E660037EF3FF064EF3FF0000E016E000E026E3A
:107E7600000E036E000E046EFFEF3FF0D890013641
:107E860002360336043610AE4BEF3FF04DEF3FF0AF
:107E96004EEF3FF0018010A053EF3FF055EF3FF05B
:107EA60059EF3FF0D88010365BEF3FF0D890103690
:107EB6000F50D8B461EF3FF063EF3FF064EF3FF04F
:107EC6000F0603AE69EF3FF06BEF3FF041EF3FF077
:107ED600000E0E6E10AE72EF3FF074EF3FF08CEFB7
:107EE6003FF010C009F07F0E0916D8B47DEF3FF0C1
:107EF6007FEF3FF083EF3FF0010E0E6E8CEF3FF009
:107F060001A088EF3FF08AEF3FF08CEF3FF07FEF64
:107F16003FF00E50D8B492EF3FF094EF3FF0BFEF32
:107F26003FF0010E0126000E02220322042204A0C5
:107F36009FEF3FF0A1EF3FF0BFEF3FF001C009F028
:107F460002C00AF003C00BF004C00CF00C340C3273
:107F56000B320A32093209C001F00AC002F00BC026
:107F660003F00CC004F00F28D8B4BCEF3FF0BEEF0E
:107F76003FF0BFEF3FF00F2A0F28D8B4C5EF3FF010
:107F8600C7EF3FF0CFEF3FF00F50D8A4CDEF3FF053
:107F9600CFEF3FF0E1EF3FF0000E016E000E026EF4
:107FA600000E036E000E046E0F50D8A4DDEF3FF0F6
:107FB600DFEF3FF0E1EF3FF0000E0D6E0FA0E6EFB2
:107FC6003FF0E8EF3FF0EBEF3FF0038EECEF3FF0D2
:107FD600039ED8900F30046E0DAEF4EF3FF0F6EF2F
:107FE6003FF0F7EF3FF0048E01C001F002C002F04F
:0A7FF60003C003F004C004F0120001
:020000040020DA
:08000000FFFFFFFFFFFFFFFF00
:020000040030CA
:0E00000000091F1EFF8381FF0FC00FE00F409D
:00000001FF
